:020000041000EA
:1000000000B5324B212058609868022188439860DF
:10001000D860186158612E4B002199600221596106
:100020000121F02299502B49196001219960352056
:1000300000F044F80222904214D00621196600F024
:1000400034F8196E01211966002018661A6600F04E
:100050002CF8196E196E196E052000F02FF8012189
:100060000842F9D1002199601B49196000215960AB
:100070001A491B48016001219960EB211966A021F2
:10008000196600F012F800219960164914480160C1
:100090000121996001BC002800D000471248134993
:1000A000086003C880F30888084703B5996A0420EC
:1000B0000142FBD001200142F8D103BD02B5186610
:1000C0001866FFF7F2FF186E186E02BD00000240BE
:1000D000000000180000070000035F00212200005C
:1000E000F4000018222000A00001001008ED00E03C
:1000F00000000000000000000000000074B24E7A12
:1001000000200420F7010010C3010010C5010010F9
:10011000C1010010C1010010C1010010C101001097
:10012000C1010010C1010010C1010010C701001081
:10013000C1010010C1010010C9010010CB01001065
:10014000CD010010CD010010CD010010CD01001037
:10015000CD010010CD010010CD010010CD01001027
:10016000CD010010CD010010CD010010CD01001017
:10017000CD010010CD010010CD010010CD01001007
:10018000CD010010CD010010CD010010CD010010F7
:10019000CD010010CD010010CD010010CD010010E7
:1001A000CD010010CD010010CD010010CD010010D7
:1001B000CD010010CD010010CD010010CD010010C7
:1001C00000BE00BE00BE00BE00BE00BEEFF3058054
:1001D000103800BEF2EB8871D05E0110F05E0110A5
:1001E0003802001090A31AE71E481F49086006C88D
:1001F00081F3088810471D480068002801D019487D
:10020000F3E70DA40ECC002902D000F012F8F9E7B4
:100210001749184A002000E001C19142FCD116495B
:100220008847164988471649884700BEFDE701C937
:1002300001C29A42FBD37047F05E0110C00000205B
:10024000C0180020F07601100000042000000420F7
:10025000F0760110001004200010042000000000BF
:10026000704700000000000008ED00E0000000D032
:10027000C0180020E85100201D5C00108D100010F7
:10028000DD5B0010F8B5C04606480749091A8B1017
:10029000C90FC91810B5491003D0044B002B00D06A
:1002A000984710BDC0180020C018002000000000B2
:1002B000054B10B5002B03D00449054800E000BFF2
:1002C000FFF7E2FF10BDC04600000000845100208F
:1002D00030370110F0B5DE4657464E464546434C92
:1002E000E0B516002200D9B009AB9C460D0080464F
:1002F00083CA83C3126860461A6009F021FF0700B1
:1003000007A80300103406CC06C309F019FF040047
:100310000DA809F09FFA0023320003930DA90433BE
:1003200002950194009714A809F04EFC736B726952
:100330001869116904F018FB0223E8600022290003
:100340002B7014A809F08EFC8146002807D048467F
:1003500059B0F0BCBB46B246A946A046F0BD14A8B1
:1003600009F0D4FC002834D1336F00249A46204B86
:100370000593204B9B4604E0AE4228D10134202C4B
:10038000E5D043461E5753461D57701BAE42F3DD62
:1003900005F06EFAFE21890505F064FA0028EDD01B
:1003A000300004F0E3FDA32303935B46060028001E
:1003B0000F00029304F0DAFD32003B00009001913F
:1003C000059809F073FD01220B4B1A70D6E7A81BA4
:1003D000DEE70A4C00239E2200900649200009F027
:1003E00065FD0122044B1A70BEE7C046EC4A0110BD
:1003F000D837011030370110DD510020A03701102F
:10040000F0B5CE46474680B5D9B009AB9C46CB4B3C
:100410001700994663464A460D00060013CA13C3E7
:10042000126860461A6009F08BFE4C46804607A8A9
:100430000300103406CC06C309F082FE04000DA8A8
:1004400009F008FA0023039343463A0000930DA9EC
:1004500004230295019414A809F0B6FB7B6B7A691A
:100460001869116904F080FA0223E860002229006B
:100470002B7014A809F0F6FB8046002805D04046F2
:1004800059B0C0BCB946B046F0BD14A809F03EFC56
:10049000002800D0B5E0002400253F6F34577D5779
:1004A000A54200DBA8E0601B05F0E2F9A44905F0D5
:1004B000D9F9002800D0B0E00124012534577D5738
:1004C000AC4200DC93E0601B05F0D2F99C4905F0DA
:1004D000C9F9002800D0D0E00224022534577D5706
:1004E000AC4200DC7EE0601B05F0C2F9944905F0E7
:1004F000B9F9002800D0A8E00324032534577D571C
:10050000AC426BDD601B05F0B3F98D4905F0AAF92B
:10051000002800D01EE10424042534577D57AC4246
:1005200058DD601B05F0A4F9854905F09BF900280A
:1005300000D0EAE00524052534577D57AC4245DD5F
:10054000601B05F095F97E4905F08CF9002800D074
:10055000C3E00624062534577D57AC4232DD601BCC
:1005600005F086F9764905F07DF9002800D09CE079
:100570000724FF7934577FB2E01BBC4202DC00D174
:100580007DE7381B05F074F96D4905F06BF900281B
:1005900000D174E7200004F0E9FCA3230393694B26
:1005A000040038000D00029304F0E0FC664E2200C7
:1005B0002B0000900191300009F078FC0122634B80
:1005C0001A705CE7281BAC42D2D0C9E7281BAC42AA
:1005D000BFD0B6E7281BAC42ACD0A3E7281BAC4287
:1005E00099D090E7281BAC4200D185E77CE7281B17
:1005F000AC4200D170E767E7281BA54200D15BE75A
:1006000052E7534C00239E2200904E49200009F0EF
:100610004DFC01224D4B1A703DE7200004F0A6FC72
:10062000A3230393474B049005912800029304F001
:100630009DFC049A059B444C00900191200009F018
:1006400035FC0122414B1A7036E7200004F08EFC85
:10065000A32303933B4B049005912800029304F0DD
:1006600085FC049A059B384C00900191200009F00C
:100670001DFC0122354B1A703EE7200004F076FC89
:10068000A32303932F4B049005912800029304F0B9
:100690006DFC049A059B2C4C00900191200009F000
:1006A00005FC0122294B1A7016E7200004F05EFCBD
:1006B000A3230393234B049005912800029304F095
:1006C00055FC049A059B204C00900191200009F0F4
:1006D000EDFB01221D4B1A704AE7200004F046FC96
:1006E000A3230393174B049005912800029304F071
:1006F0003DFC049A059B144C00900191200009F0E8
:10070000D5FB0122114B1A7023E7200004F02EFCC8
:10071000A32303930B4B049005912800029304F04C
:1007200025FC049A059B084C00900191200009F0DB
:10073000BDFB0122054B1A70FCE6C046EC4A0110D5
:10074000ACC5273730370110D8370110DD510020F4
:10075000A0370110200004F009FCA3230393094BE8
:10076000049005912800029304F000FC049A059B74
:10077000054C00900191200009F098FB0122034BE9
:100780001A70C8E630370110D8370110DD5100204B
:10079000F0B5DE4657464E464546454CE0B5150099
:1007A0002200D9B01E0009AB9C468846814683CA08
:1007B00083C3126860461A6009F0C2FC070007A8EC
:1007C0000300103406CC06C309F0BAFC04000DA8DF
:1007D00009F040F80023320003930DA90433029579
:1007E0000194009714A809F0EFF9736B7269186906
:1007F000116904F0B9F80223E860002229002B7087
:1008000014A809F02FFA8246002807D0504659B0A4
:10081000F0BCBB46B246A946A046F0BD14A809F0FC
:1008200075FA002837D1336F9B464346002BEDDD28
:10083000204B00240493204B059304E0AE4228D1C2
:1008400001344445E2D04B461E575B461D57701B92
:10085000AE42F3DD05F00CF8FE21890505F002F843
:100860000028EDD0300004F081FBA3230393059B07
:10087000060028000F00029304F078FB32003B00D2
:1008800000900191049809F011FB01220B4B1A70A2
:10089000D6E7A81BDEE70A4C00239E2200900649FB
:1008A000200009F003FB0122044B1A70BBE7C0468D
:1008B000EC4A0110D837011030370110DD5100200B
:1008C000A0370110F0B557464546DE464E46E0B526
:1008D00080460F0085B0100019001C0004F044F899
:1008E000002C34DD002832DD0E9BA4009946230045
:1008F0004B44019300239B4680231B069A468500A8
:10090000029503904B461E685B469C004346B046EA
:100910001E004146305904F044FF05F003F804F08E
:10092000EBFB04F05FFB002918DD13483851043459
:10093000A542EED104239C46039BE1449C46029BC6
:10094000E3449C46019BB04665444B45DAD105B073
:10095000F0BCBB46B246A946A046F0BD002902D174
:100960005045E3D3E1E74B1C03DB0131DED15045B9
:10097000DCD80248DAE7C046FFFFFF7F01000080B5
:10098000F0B5DE4657464E4645461C00E0B505002C
:1009900089B018000592139F149E0491069309F0E4
:1009A00097FAA446169B03909B0063445B689B46A2
:1009B0001800336004F05CFF3B005A4601C3002A74
:1009C0001ADD013292009146129A0793043A2B00E5
:1009D000904600224D460424924699464346FC2107
:1009E0001859890504F0F1FE534638513351043447
:1009F000A542F3D14D46079B0599039A04980093AD
:100A00005B468846FFF75EFF380009F09BFB159BAD
:100A10001860300009F094FB159B169A5860280066
:100A2000069C00219A60083008226C6105F032F8BB
:100A30000023AB7743462B6102232000AB8309F0F0
:100A400047FA0400022008F0F3F860430123A8618C
:100A500028002B60159B6B6009B0F0BCBB46B2460A
:100A6000A946A046F0BDC046F0B5DE4657464E4604
:100A70004546E0B5F9B014001E00884609F060FB59
:100A80008346200009F05CFB8246829809F058FBFF
:100A90008146859809F054FB070009F019FA5A4677
:100AA00000210490199216A8082204F0F3FF424690
:100AB00000251892012214AC58469046A283149542
:100AC000A577656009F004FA8346207F08F0B0F846
:100AD0005A46504352460021A06162631EA8082274
:100AE00004F0D8FF3E23E554434650462663A387CF
:100AF0002562656209F0ECF93C238246E05C08F06F
:100B000097F8534658434B4600210822A06326A875
:100B1000636504F0BFFF5E23E554839B4246236573
:100B20005C2348469A46E2522564656409F0D0F990
:100B300053468146E05C08F07BF84B465843002161
:100B40000822A0652EA8676704F0A4FF7E23E55461
:100B5000879B424623677C2399463800E2522566EC
:100B6000656609F0B5F94B460700E05C08F060F8EF
:100B700078434B4F09AB3A009C46A06743CA43C336
:100B8000126860461A6009F0DBFA804607A8030085
:100B9000103706CF06C309F0D3FA07000DA808F0F6
:100BA00059FE869B2200029343460DA900930395AC
:100BB0000423019734A809F007F8636B6269186988
:100BC000116903F0D1FE0223869A13701300D060DE
:100BD0001900002234A809F045F8002806D079B0A1
:100BE000F0BCBB46B246A946A046F0BD34A809F009
:100BF0008DF8002848D1236F049A9946002AEEDD2B
:100C0000284B00279B46284BD8469A469346849EFD
:100C10000AE0201C04F0BFFD244904F023FE002854
:100C20001BD10137BB45DAD04A46BB00D558F45832
:100C3000291C201C04F016FE291C0028E9D1201CC8
:100C400004F0F2FD0028ECD1211C281C04F0A3FDC7
:100C5000164904F007FE0028E3D0201C04F062FED1
:100C6000A3230393534604900591281C029304F098
:100C700059FE049A059B00900191404609F016F92F
:100C800001220B4B1A70CCE70A4D00239E220090E4
:100C90000549280009F00AF90122054B1A70AAE754
:100CA000EC4A0110D837011030370110ACC5273796
:100CB000DD510020A0370110F0B5DE4657464E4604
:100CC0004546E0B5AC4C1D00A5440B921600B72379
:100CD00006AA9446DB0063441B780C00984609F092
:100CE0002FFA8346280009F02BFA06AAB32394466C
:100CF000DB0063448146186809F022FA06AA94468C
:100D00009E4B07006344186809F01AFA824609F0FE
:100D1000DFF80690584609F0DBF8002823DD800054
:100D20003500261805E07F20043428700135A642DE
:100D300019D02068011C04F031FD04F0F3FD04F02B
:100D4000DBF90022002304F07BF804F027F97F2868
:100D5000E9DC03008033E7DA802004344042287065
:100D60000135A642E5D100245846239409F0B0F895
:100D70000990092007F05CFF424606A98C46B22183
:100D8000032514AB059202937D4A60AB0193C90021
:100D9000A0AB0395009304946244614428AE4B4693
:100DA000126809680A90300009F0D4F906A9B42243
:100DB0008C4617AB0393E0AB0293FFAB84337149CE
:100DC0000193D200A1AB624461440495009330AD1D
:100DD0003B00126809682800FFF7D2FD50463B949B
:100DE00009F076F80790092007F022FFFC2292050F
:100DF00091460D921AAA9046FE2501260021AD05C6
:100E00000C22089040460C950E960F9404F042FE7A
:100E10000CAA100009F096F90EAA1A90100009F019
:100E20008FF942461DAF002150600C22380010950A
:100E300011951296139404F02DFE10AA100009F0DB
:100E400081F912AA1D90100009F07AF94246219208
:100E50004A4622920B9A0A9B24925A462592099A54
:100E6000842153430922904606AA52184146118014
:100E70007D3106AA5218269340AB1E9014701800BC
:100E8000202220A9209604F00BFE202228A948A8A1
:100E900004F006FE202230A950A804F001FE06AAA4
:100EA000B6239446DB0063441A68089B3C92524682
:100EB0003D92079A38A95343E4223E9363469B1818
:100EC00042461A806346DD329B1858A8C63A1C7009
:100ED000389639973A9504F0E3FD069B002B28DD00
:100EE000B52206A98C46D20062441468264A9E00A8
:100EF00062441568A61905E07F2004342870013586
:100F0000B44216D0206804F00DFD04F0F5F800227C
:100F1000002303F095FF04F041F87F28ECDC030088
:100F20008033EADA80200434404228700135B4422C
:100F3000E8D106A98C46154A1348624460441268F9
:100F40000699006840ABFFF723FC002807D1104B3F
:100F50009D44F0BCBB46B246A946A046F0BD0D4C30
:100F60000023E82200900C49200008F09FFF012296
:100F70000A4B1A70EBE7C0467CFAFFFFA40500009D
:100F8000940500009C050000AC050000B4050000BD
:100F9000840500002038011030370110DD51002099
:100FA000F0B5DE4657464E4645461C00E0B589B0D2
:100FB000059318AB04921A78050020000692149F3E
:100FC000159E039108F084FFA446179B02909B0096
:100FD00063445B689B461800336004F049FC3B00A7
:100FE0005A4601C3002A19DD013292009146139A34
:100FF0000793043A2B00904600224D460424924663
:10100000994643461299185904F0DFFB534638516C
:1010100033510434A542F4D14D46079B0499029AFA
:10102000039800935B468846FFF74CFC380009F0B4
:1010300089F8169B1860300009F082F8169B179A01
:1010400058602800059C00219A60083008226C61D5
:1010500004F020FD069B2000AB7743462B61022362
:10106000AB8308F035FF0400022007F0E1FD604388
:101070000123A86128002B60169B6B6009B0F0BCAF
:10108000BB46B246A946A046F0BDC046F0B5DE4616
:1010900057464E464546E0B5EE4CA54409F040F8AB
:1010A000ED4B0C93ED4B1493ED4B4393ED4B1093A1
:1010B000ED4B0D93ED4B1593ED4B1693B423DB00E5
:1010C0006B449946FFAB24331193FFABA4339A468C
:1010D000E84B2993E84B2293E84B2A93E84B239360
:1010E000E84B1E93E84B2893E84B2B93E84B249353
:1010F000E84B2C93E84B2D93E84B1F93E84B2E9332
:10110000E84B2593E84B1B93E84B2F93E84B409318
:10111000E84B3093E84B3E93E84B3193E84B3293E6
:10112000E84B3393E84B3493E84B3593E84B3693D5
:10113000E84B3793E84B3893E84B4193E84B3993AE
:10114000E84B2693E84B3A93E84B3B93E84B3C93B0
:10115000E84B4293E84B3F93E84B3D93E84B449375
:10116000E84B459301239B460027149B0C9E439814
:101170001F60376008F09AFE159D109B0D9A1F7036
:101180002B0017701833C0AA13CB13C203CB03C2B2
:101190003AA9D7228C462B00D20062442C3313CBC1
:1011A00013C213CB13C213CB13C213CB13C22B0026
:1011B000C8AA5C3313CB13C203CB03C2D248703529
:1011C00029004022604404F06BFC169DE8AA2B0025
:1011D000303313CB13C203CB03C22B00B8AA443362
:1011E00013CB13C21B6813602B004A46543313CB36
:1011F00013C213CB13C203CB03C22B00119D743354
:101200002A0013CB13C203CB03C2514658460F74B6
:1012100048618861886048603AABB7219C46C90044
:10122000614405915146049149460291B8A9019142
:10123000E8A90091B449039561440B00C8A90A00CC
:10124000D721C9006144C0A8FFF70EFC5946109B86
:101250000D9A19701378002B01D102F00EF90122BA
:1012600033680C9929980B6014990B689B180B60D4
:1012700008F01CFE0023159D109E0D9F33703B70DF
:101280002B00C0AA183313CB13C203CB03C23AA955
:10129000D7228C462B00D20062442C3313CB13C2CE
:1012A00013CB13C213CB13C213CB13C22B00C8AA88
:1012B0005C3313CB13C203CB03C2934B703563442F
:1012C00029004022180004F0EBFB169DE8AA2B0031
:1012D000303313CB13C203CB03C22B00B8AA443361
:1012E00013CB13C21B6813602B00119D74332A00AB
:1012F00013CB13C203CB03C24A46229B083313CB42
:1013000013C213CB13C203CB03C253465A461A74FB
:101310005A619A619A605A603AAAB7239446DB00F0
:1013200063440593534604934B46D7210293B8ABCD
:101330000193E8AB0093744BC90063440395C8AABA
:101340006144C0A8FFF790FB5B4633703B78002BED
:1013500001D002F08DF800220C990B6801330026B1
:101360000C992A980B6014990B689B180B6008F075
:101370009DFD109B159D1E700D9B8AAA1E702B0053
:10138000183313CB13C203CB03C22B00119A2C3397
:1013900013CB13C213CB13C213CB13C213CB13C281
:1013A000229D91AA2B00283313CB13C203CB03C277
:1013B0002B00B0AA3C3313CB13C213CB13C203CB05
:1013C00003C22B0098AA5C3313CB13C203CB03C216
:1013D000FE239B0553938023DB0554932B0084AAA3
:1013E000703313CB13C21B681360239AA0AB13CACC
:1013F00013C303CA03C3E4223AAB52009B181E7006
:101400005B468AA8AD93AE93AA93A99308F098FE81
:1014100091AB04000E90180008F092FE98AB129069
:10142000180008F08DFEA0AB1390180008F088FE9D
:10143000804608F04DFD0700200008F049FD002817
:1014400000DC80E0119B86009C461C006CAD66446D
:1014500062E0C0465CF4FFFF4C1C0020481C0020EA
:10146000C4380110DE510020DD510020EC4A01108B
:101470006C4B0110D8380110EC4B0110F038011002
:101480006C4C011030370110203801102839011040
:10149000EC4C0110603901108C4F01106C4D0110A3
:1014A00090390110EC4D01106C4E0110C039011043
:1014B000F0390110983A0110C83A01106C3B011044
:1014C0004C5001104C5201104C540110A03B011023
:1014D000CC5401104C550110CC550110D43B0110D7
:1014E0008C3C0110EC4E0110BC3C0110E43C01109E
:1014F0006C4F0110A0370110D8370110203D0110AA
:10150000343D01104C3D0110B80800007F20043428
:1015100028700135A64216D0206804F003FA03F0C3
:10152000EBFD0022002303F08BFC03F037FD7F2846
:10153000ECDC03008033EADA802004344042287077
:101540000135A642E8D100240E98BB9408F0C0FCF7
:101550000600092007F06CFB70AA02924A463AABDB
:101560000192B7229C46D20062440594049403344D
:101570000500129B03940092B0A956AAC0A808F0D7
:10158000E9FD002375AA069304923AABD7229C4644
:10159000D20062440392A24A59A962440292A14A2B
:1015A000139B62440192FE22920505940092C8A802
:1015B0000A0053A9FFF7F4FC00234046EB9308F020
:1015C00087FC1290092007F033FBFE2259460023C6
:1015D000920504005C925D9260910C2200217AA831
:1015E000619304F057FA5CA9080008F0ABFD60A90C
:1015F0007A90080008F0A4FDFE22594600239205C7
:101600007B906492659268910C2200217FA8699377
:1016100004F040FA64A9080008F094FD68A97F90DE
:10162000080008F08DFD5946754380908520FE2204
:10163000BE9509250026B8917AA9B9916CA9BC91EB
:101640000E998000BD913AA9091892057648BA9280
:101650000D803AA9091820220E705046B8A904F04E
:101660001FFAFFABC43320221800C0A904F018FAF7
:10167000FFABE43320221800C8A904F011FA5B463E
:10168000FE22E8937FABE9934EABEC934346920581
:10169000EA92B522A020ED93129B92005C433AABF4
:1016A0009B18624AEE941D803AAB9B18C000202222
:1016B0001E70E8A9684404F0F3F9002F22DD84AC21
:1016C000A446BE0050AD664405E07F200434287077
:1016D0000135A64216D0206804F024F903F00CFD71
:1016E0000022002303F0ACFB03F058FC7F28ECDC65
:1016F00003008033EADA8020043440422870013548
:10170000A642E8D153463900A8AA50A8FFF740F8EE
:10171000002801D001F050FF59460D9B1A78109B0C
:1017200019700C9B1B68002A01D001F082FF002277
:1017300001330C992B980B6014990B689B180B6064
:1017400008F0B4FB0023109A239D13700D9A1370B8
:101750002B008AAA143313CB13C203CB03C2290074
:1017600060222831119804F09BF9159B91AA5C33F3
:1017700013CB13C203CB03C2249E40223100E8A83E
:10178000083104F08DF9169D98AA2B00303313CB45
:1017900013C203CB03C22B007AAA443313CB13C268
:1017A0001B6813603300B8AA483313CB13C213CBA2
:1017B00013C203CB03C22B00A0AA743313CB13C2F2
:1017C00003CB03C2F421032349003AAA5218137031
:1017D0005B468AA8B593B693B293B19308F0B0FC78
:1017E00091AB04000E90180008F0AAFC98AB129080
:1017F000180008F0A5FCA0AB1390180008F0A0FC9E
:10180000804608F065FB0700200008F061FB002817
:101810002EDD119B86009C461C00A8AD66440DE0A1
:10182000B8080000BC05000016020000D602000047
:101830007F20043428700135A64219D066492068FB
:1018400003F0AFFF04F06EF803F056FC0022634B88
:1018500003F0EDFA03F0A2FB7F28E9DC03008033FC
:10186000E7DA80200434404228700135A642E5D1F1
:101870000E9808F02DFB0600092007F0D9F968AA98
:10188000002302924A460593049301923AABB72291
:101890009C460324D20062440500129B03940092EC
:1018A000E8A97FAAC0A808F055FC00236CAA0693FB
:1018B00004923AABD7229C46D20062440392484A33
:1018C000059462440292474A434C6244139B7AA9AE
:1018D0000192C8A884AA0094FFF762FB404608F072
:1018E000F7FA1290092007F0A3F9FE229205599207
:1018F0005A465C9280225242002113905D9270A859
:101900008C325A9404F0C6F859A9080008F01AFC61
:101910005CA97090080008F013FCFE218022890564
:1019200060915946524271906491659200218C32C7
:1019300075A8619404F0AEF860A9080008F002FCF4
:1019400064A97590080008F0FBFB5946FFABA4336F
:1019500019605146754370AA4A6080228D61002645
:101960000925A8AB0B617690FFAB0E98C4335242A9
:10197000CA6048618C6018008D838E77A032C0A940
:1019800004F08EF8FFABE43320221800C8A904F05D
:1019900087F8A0215B46C900694480220B6051464C
:1019A0005242CA66524675AB4B668C6653A91167A4
:1019B0004146139B5167129A5343524693677C23C7
:1019C000D5520233D654002F2EDDB8ACA446BE004B
:1019D00056AD66440EE0C046E4BFC03C0000604027
:1019E000B8080000BC0500007F20043428700135D1
:1019F000A64219D0E949206803F0D3FE03F092FF14
:101A000003F07AFB0022E64B03F011FA03F0C6FA6A
:101A10007F28E9DC03008033E7DA80200434404289
:101A200028700135A642E5D153463900B0AA56A820
:101A3000FEF7AEFE002801D001F0ADFD59460D9B2A
:101A40001A78109B19700C9B1B68002A01D001F0BA
:101A5000EDFD0022013300250C992C980B601499A0
:101A6000B0AF0B689B180B6008F020FA249E109B07
:101A70000D9A1D7033001570683313CB13C73A00ED
:101A800003CB03C23AAB9C46C6482D99C0226044A2
:101A900004F006F8159FB8AA3B005C3313CB13C2C1
:101AA00003CB03C23AABB7209C463900C00070316B
:101AB0004022604403F0F4FF169FC0AA3B0030337D
:101AC00013CB13C203CB03C23B0098AF443313CBF9
:101AD00013C71B68D7203B603AAB9C463100C0005F
:101AE00060227C31604403F0DBFF1F99C8AE5C319B
:101AF0000B0013CB13C6320003CB03C250460323A3
:101B000002244361D7213AAB9C4684615C46C900FC
:101B100061440574846044600691B7210990E8A887
:101B200008901198C9000790C8A80590A8A804902B
:101B300098A861440390C0A802900091A0A8994978
:101B40000190B8A803004A466144B0A80A95FFF77F
:101B5000B3F8109B0D9A1C701378002B01D001F084
:101B600082FC00220C990B68013300260C992E98F8
:101B70000B601499C0AD0B68C8AF9B180B6008F0E0
:101B800095F91F99109B70311E700B000D9A1670FD
:101B900013CB13C52A0003CB03C23AA9D7228C4624
:101BA000259DD20062442B1D13CB13C213CB13C24D
:101BB00013CB13C213CB13C215995C310B0013CB9B
:101BC00013C73A0003CB03C22900764840223431C0
:101BD000604403F065FF1699E8AF30310B0013CB7A
:101BE00013C73A00743503CB03C22B00A8AD13CB47
:101BF00013C51B682B60119D1B9F2A003B1D13CB37
:101C000013C203CB03C23B004F46183313CB13C799
:101C10003A0013CB13C25C4603CB03C250463AAB27
:101C20009C4606744461846184604460099098A86D
:101C3000089091A8079048465A490690614400913F
:101C4000D721B8A80490A8A80390E8A80290B0A84B
:101C50000190C8A80300C900A0A802006144C0A860
:101C60000A960595FFF728F83AABB7219C465046EF
:101C7000C900614405914B490490484661440B00FA
:101C8000D7210290A8A80190E8A80090C900C8A890
:101C9000020003956144C0A8FEF7E6FE109B0D9A72
:101CA0001C701378002B01D001F0D8FB00220C9996
:101CB0000B6801330C992F980B6014990B689B18D3
:101CC0000B6008F0F3F80023109A159D13700D9A1D
:101CD00013702B00A0AA183313CB13C203CB03C27B
:101CE0003AA9B7228C462B00D20062442C3313CB86
:101CF00013C213CB13C213CB13C213CB13C22B00CB
:101D0000A8AA5C3313CB13C203CB03C2D723DB00D7
:101D10006344703529004022180003F0C1FE169D6F
:101D2000B0AA2B00303313CB13C203CB03C22B005A
:101D30008AAA443313CB13C21B6813602B00C8AAB2
:101D4000543313CB13C213CB13C203CB03C22B00E8
:101D5000B8AA743313CB13C203CB03C2A0A808F0F4
:101D6000EFF98046A8A808F0EBF90E90B0A808F0AB
:101D7000E7F91290B8A808F0E3F91390404608F08C
:101D8000A7F800282DDDB7233AAA9446DB00634468
:101D90009C4686001C0070AD66440BE0E4BFC03C6E
:101DA00000006040B80800007F200434287001352E
:101DB000A64216D0206803F0B5FD03F09DF900227D
:101DC000002303F03DF803F0E9F87F28ECDC030082
:101DD0008033EADA80200434404228700135A6427C
:101DE000E8D100254046EB9508F072F80400092080
:101DF00006F01EFF5B465393FE2360439B050C22B7
:101E00000021179075A856935793549503F042FEFE
:101E100056A808F097F9759053A808F091F97690B4
:101E20000E9808F055F8002827DDD7233AAA9446E3
:101E3000DB0063449C4686001C0091AD664405E0CF
:101E40007F20043428700135A64216D0206803F0A4
:101E500069FD03F051F90022002302F0F1FF03F0C5
:101E60009DF87F28ECDC03008033EADA802004341C
:101E7000404228700135A642E8D10026119A0E98FA
:101E8000D66008F025F81890092006F0D1FE5B46D0
:101E90005993FE237AAC9B050C22050000212000FB
:101EA0005C935D935A9603F0F5FD5CA9080008F079
:101EB00049F959A97A90080008F042F959460323D4
:101EC00098910221FFACAC3408227B9099912000BC
:101ED00000219A9301339B9303F0DCFD129807F0E5
:101EE000F7FF0700022006F0A3FE5946FE230C224E
:101EF0009B05040060917FA800216493659361961F
:101F000003F0C8FD64A9080008F01CF960A97F90DF
:101F1000080008F015F949468090CE60139807F044
:101F2000D7FF1990092006F083FE59466891FE21DB
:101F300084AB89050C221A90699618000E1C6C91CE
:101F40006D91002103F0A6FD6CA9080008F0FAF8D5
:101F500068A98490080008F0F3F8EA96594670AE34
:101F6000EC964646E89175A9E991ED96B521179E44
:101F70008900EE9609263AAB5B187E491E803AAB83
:101F80005918002385903AA884460B707A4B20227A
:101F900063441800E8A903F083FD5B46FFAA53627F
:101FA0002432119A7AAB536091AB13610E9B3AA81D
:101FB0005361189B84465D43FE21956100256F4B5C
:101FC000890563449160957711001800968320225B
:101FD00003F066FD5A46FFABA4331A6052467FAB4E
:101FE000536098AB1361129B3AA853610223844655
:101FF0007C439383624B94616344957751462022DE
:10200000180003F04DFDB4222C005D46D2006A4456
:10201000FE2115604A46890591604EA91161139908
:1020200084AD51611A9B5560199A3AA853434A46A8
:1020300084469361534B49466344180096839477D2
:10204000202203F02DFD8A224F4B920050934F4BDC
:10205000C0A951933AAB9B181C705B463AAA9446B0
:10206000C593C693C293C193434B50A863441A00CF
:10207000FEF7C6F9002801D001F0AFFA59460D9BD2
:102080001A78109B19700C9B1B68002A01D001F074
:10209000D3FA002201330C9930980B6014990B6825
:1020A0009B180B6007F002FF0023109A13700D9A23
:1020B00013701F9B8AAA703313CB13C203CB03C2C6
:1020C0003AA9B7228C46259DD20062442B1D13CB22
:1020D00013C213CB13C213CB13C213CB13C2159B62
:1020E00091AA5C3313CB13C203CB03C2D7232900BD
:1020F000DB00634434314022180003F0D1FC169B0E
:1021000098AA303313CB13C2743503CB03C22B0010
:102110007AAA13CB13C21B6813601B9BA0AA0433BB
:1021200013CB13C203CB03C20822002159A803F02A
:10213000B1FC8AA808F004F8804691A808F000F8DD
:102140000E9098A807F0FCFF1290A0A807F0F8FFE7
:102150000700404607F0BCFE002839DDB7233AAA45
:102160009446DB0063449C4686001C0068AD6644D0
:1021700014E0C046D6020000B8080000D8080000ED
:10218000F80800001809000047DE63EC5BE67FFCFE
:102190007F20043428700135A64219D02068011C24
:1021A00003F0FCFA03F0BEFB02F0A6FF00220023BE
:1021B00002F046FE02F0F2FE7F28E9DC03008033E5
:1021C000E7DA80200434404228700135A642E5D188
:1021D00000244046EB9407F07BFE1390092006F0A4
:1021E00027FDD72117903AA884466CAB0293B8AB71
:1021F0000193C900C0AB6144119805940494039401
:1022000000937FAA0E9B07F0A5FF70AB0393A8ABCA
:102210000293B0AB0193C1AB7AA9504604940093EA
:1022200084AA129BFEF7ACFB4A463800D46007F044
:102230004FFE0500092006F0FBFCFE225946FC2655
:1022400000239205B6050400609264910C220021DF
:1022500075A86593619603F01DFC60A9080007F05E
:1022600071FF64A97590080007F06AFFEA96594665
:1022700068AEEC964646E89175A9E991ED961799F6
:10228000139E7690B520714309260023EE918000BD
:102290003AA909189C480E803AA909180B703AAB64
:1022A0009C469A482022E8A9604403F0F9FB119B60
:1022B0009748190098463AAB9C462022604403F0A8
:1022C000EFFB3AAB9C46934820225146604403F012
:1022D000E7FBB4205946C0006844FE22016048462E
:1022E0000023920582604A4643605CA810613AA8C8
:1022F00084466C43937794611C00874B4946634442
:10230000180057619683202203F0CAFB92223AAB51
:1023100092009B181C705B46CD93CE93CA93C993D1
:10232000434602225C68C8A9236859A81A603AAAE1
:102330009446764B63441A00FEF762F8012809D0F0
:102340000123764A00901E993E9807F0AFFD5A4649
:102350000D9B1A70919A2368C8A91A6002226368BB
:1023600059A81A603AAA9446684B63441A00FEF7CB
:1023700047F8012801D001F0ECF8109A0D9B10707D
:102380001B780C9A1268002B01D001F042F900234F
:1023900001320C9931980A6014990A68D2180A60BF
:1023A00007F084FD0023109A1B9D13700D9A137083
:1023B0002B0084AA383313CB13C203CB03C22B00E8
:1023C0008AAA383313CB13C203CB03C25B465093A4
:1023D000202351932B0091AA4C3313CB13C203CB70
:1023E00003C23AA8D72384468022DB006344180046
:1023F0003299920003F054FB3AA884468022434B62
:10240000339963441800920003F04AFB80220021B4
:10241000C8A803F03FFB80223499E8A803F040FBF2
:1024200084A807F08DFE8AAB04000E90180007F018
:1024300087FE50AB8046180007F082FE91AB1290E9
:10244000180007F07DFE1390200007F041FD0028E2
:102450002ADDD7233AAA9446DB0063449C468600D3
:102460001C00119D664405E07F200434287001356E
:10247000A64219D02A49206803F093F903F052FAD2
:1024800002F03AFE0022274B02F0D1FC02F086FD5A
:102490007F28E9DC03008033E7DA802004344042FF
:1024A00028700135A642E5D10E9807F011FD040011
:1024B000092006F0BDFB5B46539380235B42549397
:1024C000FE2360439B055693154B0C220021179069
:1024D00070A8579303F0DEFA56A807F033FE709009
:1024E00053A807F02DFE7190404607F0F1FC00283C
:1024F0003ADD3AAA9446054B860063449C461C008C
:102500005546664416E0C046D6020000B8080000F2
:10251000D8080000F8080000180900005D0300005A
:102520006FF1703D000060407F2004342870013559
:10253000A64219D0E849206803F033F903F0F2F914
:1025400002F0DAFD0022002302F07AFC02F026FD00
:102550007F28E9DC03008033E7DA8020043440423E
:1025600028700135A642E5D100254046A39507F025
:10257000AFFC0400092006F05BFB5B465993FE2389
:1025800060439B055C93D44B0C220021189075A8E6
:102590005D935A9503F07EFA5CA807F0D3FD759021
:1025A00059A807F0CDFDB42380262C00DB006B4436
:1025B00076901D603606C8ABE3185868C74903F02B
:1025C000F0F803F0AFF902F097FD4B461D1902F049
:1025D00009FD002900DC38E3C148043468607C2C24
:1025E000E9D108220021AAA803F054FA129807F0B2
:1025F0006FFC0700022006F01BFB5B466093FE2386
:1026000000249B056493B74B002105000C227AA897
:102610006593619403F03EFA64AA100007F092FDFE
:1026200060AA7A90100007F08BFD7B901398BB9402
:1026300007F04EFC1990092006F0FAFAFE23260056
:102640005A469B0569966C937FAEA74B0400002108
:10265000300068920C226D9303F01CFA6CA90800FC
:1026600007F070FD68A97F90080007F069FD3AAB9C
:10267000B7219C465A46C90061440A609B4970AA2A
:1026800061440A60B8216246994BC90061440B60FD
:10269000130080229749524261440A60B921119A7D
:1026A000C90061440A6094490E9A61440A60BA21E3
:1026B0000926179AC90061440A60904A80909918C7
:1026C0008F4A0E80991800220A705946A09175A968
:1026D000A1915146A49141467F4BA5911899A2938F
:1026E000DA23A69161465B00C9180E806146023369
:1026F000C918BB23DB0063440A7018002032A0A96C
:1027000003F0CEF95946A8917AA9A99149467D438B
:10271000EA27AC9112997F00AD913AA9C919D33F2C
:10272000FF3FAE950F80D537FF373AA9C9193AABAD
:10273000BF279C460025FF0067440D702022A8A9F2
:10274000380003F0ADF95A46B8927FAAB9928522B3
:10275000654B9200BA93B0ABBC93139B3AA8BD9360
:10276000199B84465C433AAB9B18664ABE941E8014
:102770003AAB9B181D70C323DB006344FFAE2022DD
:102780001800B8A9243603F08BF9E8ACC0AD119657
:1027900005E07F20043428700135A64219D0524943
:1027A000206802F0FEFF03F0BDF802F0A5FC002255
:1027B000002302F045FB02F0F1FB7F28E9DC030077
:1027C0008033E7DA80200434404228700135A64285
:1027D000E5D1C4223AAB52009B1800221A705B4626
:1027E0003AAA9D939E939A939993B7239446DB00BC
:1027F00063441A0098A9C0A8FDF76CFD5A46109BC7
:102800001A700D9B1B78002B01D000F022FE0022D5
:102810000C9B1B6801330C9935980B6014990B685D
:102820009B180B6007F042FB0023109A1B9D13704E
:102830000D9A13702B0084AA4C3313CB13C203CB15
:1028400003C22B008AAA4C3313CB13C203CB03C29F
:102850005B465093202351932B0091AA4C3313CB0A
:1028600013C203CB03C280223699119803F018F9E2
:1028700080223799504603F013F980220021484600
:1028800003F008F93AA8B7238446DB0063448022AA
:102890003899180003F004F984A807F051FC8AABBA
:1028A00004000E90180007F04BFC50AB8046180057
:1028B00007F046FC91AB1290180007F041FC139012
:1028C000200007F005FB00283EDD119B86009C469A
:1028D0001C00A0AD66441DE09755583BA27BB23B5F
:1028E000FFFFFF7F449C4B39F9A2BD3DBC050000B2
:1028F0006FF1703DC4050000CC050000D405000058
:10290000D6050000160200007F200434287001352F
:10291000A64219D0DD49206802F043FF03F002F817
:1029200002F0EAFB0022DA4B02F081FA02F036FBF9
:102930007F28E9DC03008033E7DA8020043440425A
:1029400028700135A642E5D10E9807F0C1FA0400BF
:10295000092006F06DF95B46539380235B42549344
:10296000FE2360439B055693C84B0C220021179011
:1029700070A8579303F08EF856A807F0E3FB709009
:1029800053A807F0DDFB7190404607F0A1FA00283C
:1029900024DD86005446A8AD564405E07F2004346B
:1029A00028700135A64219D0BA49206802F0F9FE14
:1029B00002F0B8FF02F0A0FB0022002302F040FA70
:1029C00002F0ECFA7F28E9DC03008033E7DA8020AC
:1029D0000434404228700135A642E5D10025404626
:1029E000B39507F075FA0400092006F021F95B465B
:1029F0005993FE2360439B055C93A64B0C22002158
:102A0000189075A85D935A9503F044F85CA807F0F8
:102A100099FB759059A807F093FBD7233AAA9446DF
:102A200080262C00DB00634476901D6036064B4602
:102A30001B195868984902F0B4FE02F073FF02F0C7
:102A40005BFBD7233AAA9446DB0063441D1902F0CE
:102A5000C9FA002900DC08E19048043468607C2C45
:102A6000E5D108220021BAA803F014F8129807F063
:102A70002FFA0700022006F0DBF85B466093FE2386
:102A800000249B056493864B002105000C227AA844
:102A90006593619402F0FEFF64AA100007F052FBF8
:102AA00060AA7A90100007F04BFB7B901398CB94B0
:102AB00007F00EFA1990092006F0BAF8FE23260056
:102AC0005A469B0569966C937FAE764B04000021B5
:102AD000300068920C226D9302F0DCFF6CA90800B4
:102AE00007F030FB68A97F90080007F029FB3AAB9C
:102AF0009C465A466C49654B61440A606B4970AA12
:102B000061440A608C216246090161440B60130034
:102B100080226749524261440A606649A0AA614422
:102B20000A6065490E9A61440A608D210926179A48
:102B3000090161440A60614A80909918604A0E80D8
:102B4000991800220A705946B09175A9B191A8A9A7
:102B5000B49141464F4BB5911899B293FA23B6916F
:102B600061465B00C9180E8061460233C918554B97
:102B70000A70634418002032B0A902F091FF594650
:102B8000B8917AA93AABB991D7219C467D43852764
:102B9000C9006144BC911299BF00BD91D9190227A7
:102BA000BE9500250F80484F2022D919474F0D7040
:102BB0006744B8A9380002F073FF5A46C8927FAA4A
:102BC000C99295223AA88446364B9200CA93C0AB6C
:102BD000CC93139BC8A9CD93199B5C433AAB9B182C
:102BE0003B4ACE941E803AAB9B181D70394B202275
:102BF0006344180002F054FFB7233AAA9446DB005E
:102C000063441C00E8AD0AE07F20C7233AAA94463B
:102C1000DB000434634428700135A3425ED02149AF
:102C2000206802F0BEFD02F07DFE02F065FA00228F
:102C3000002302F005F902F0B1F97F28E4DC03007B
:102C40008033E2DA80204042DFE7002903D1B0423E
:102C500000D2C2E4C0E44B1C05DB013100D0BCE46F
:102C6000B04200D9B9E41C48B7E4002903D1B0420E
:102C700000D2F2E6F0E64B1C05DB013100D0ECE6B9
:102C8000B04200D9E9E61448E7E6C0466FF1703D6E
:102C9000000060409755583BA27BB23BFFFFFF7F8F
:102CA000449C4B39F9A2BD3DB8080000BC080000A7
:102CB000C4080000C8080000CC080000D4080000C8
:102CC000D6080000D808000016020000F80800002E
:102CD0005602000018090000010000801300C42201
:102CE00052009B1800221A705B469D939E9302230C
:102CF0009A939993E04B98A963441A00E8A8FDF7CA
:102D0000E9FA002801D000F035FC59460D9B1A78ED
:102D1000109B19700C9B1B68002A01D000F083FCEB
:102D20000022013300260C9939980B601499C8AF22
:102D30000B689B180B6007F0B9F8159D109B0D9A56
:102D40001E702B001670183313CB13C73A0003CB39
:102D500003C23AA9D7228C462B00D20062442C33FE
:102D600013CB13C213CB13C213CB13C213CB13C297
:102D70002B00E8AD5C3313CB13C52A0003CB03C291
:102D8000BD481B9940226031604402F089FE169DC7
:102D9000119F2B003A00303313CB13C203CB03C275
:102DA0002B00B0AA443313CB13C21B6813602699BF
:102DB000B72220310B003AA98C46D200624413CBD3
:102DC00013C213CB13C203CB03C22B00554674337B
:102DD00013CB13C52A005C4603CB03C24846B72178
:102DE00006744461846184604460099098A80890E6
:102DF000C900A0A861440790504606919E4912233D
:102E000061440091D7210590C0A80490B0A8039018
:102E1000B8A80190E8A80A93C9000300A8A8020076
:102E20006144C8A80297FDF747FF109B0D9A1C70DC
:102E30001378002B00D008E300220C990B680133B3
:102E400000260C993A980B601499C8AF0B689B1830
:102E50000B6007F02BF8159D109B0D9A1E702B0030
:102E60001670183313CB13C73A0003CB03C23AA929
:102E7000D7228C462B00D20062442C3313CB13C2D2
:102E800013CB13C213CB13C213CB13C22B00E8AF67
:102E90005C3313CB13C73A0003CB03C276487035BB
:102EA00029004022604402F0FBFD169D119F2B007B
:102EB0003A00303313CB13C203CB03C22B00B0AAAA
:102EC000443313CB13C21B683AA91360B7228C4654
:102ED0002B00D2006244543313CB13C213CB13C262
:102EE00003CB03C22B005546743313CB13C52A0002
:102EF0005C4603CB03C24846B72106744461846133
:102F000084604460099098A80890C900A0A8614412
:102F10000790504606915849059061440091D72189
:102F2000C0A80490B0A80390B8A80190E8A8030036
:102F3000C900A8A8020002976144C8A80A96FDF734
:102F4000BBFE109B0D9A1C701378002B00D078E20A
:102F500000220C990B68013300260C993B980B60FA
:102F600014990B689B180B6006F0A0FF109B159D31
:102F70001E700D9B70AA1E702B00183313CB13C24A
:102F800003CB03C2269940224031C8A802F088FD35
:102F90002B0075AA5C3313CB13C2703503CB03C26D
:102FA00029004022E8A802F07BFD169D7AAA2B009A
:102FB000303313CB13C203CB03C22B005CAA4433C0
:102FC00013CB13C21B6813603C9AA0AB13CA13C384
:102FD00013CA13C303CA03C32B007FAA743313CBD2
:102FE00013C203CB03C2A8223AAB52009B181E7037
:102FF0005B4670A88F9390938C938B9307F0A0F807
:1030000075AB04002090180007F09AF87AAB0E9088
:10301000180007F095F87FAB1C90180007F090F8A7
:10302000219006F055FF1D90200006F051FF00286A
:1030300028DD80231B029846C8AC80000F4E84AD6B
:1030400007192068011C02F0A9FB02F06BFC02F0DA
:1030500053F80022002301F0F3FE01F09FFF4045EA
:1030600000DB0748B04200DA044804342880023507
:10307000A742E6D106E0C046B80800000080FFFF86
:10308000FF7F000000252098AB9506F021FF04008B
:10309000072005F0CDFD0323039350AB0293534665
:1030A00001934B46604364AAE8A927900093B0A817
:1030B0000E9B0595049507F04DF81C9C200006F02A
:1030C00007FF3AAAB72394462669DB0063441E60D3
:1030D0000700300002F0CCFBD7233AAA9446DB006D
:1030E00063441860B400002E77DDB04626003AAA8B
:1030F000D7239446DB0063445C194B46FC215B19E3
:103100005868890502F061FB04356060AE42EED17B
:103110003AA8844634004646E54B22006344002129
:10312000180002F0B7FC3100380001F01DFC011E50
:1031300053DD3AAAD7239446DB0063441800CB0042
:103140009C461793002398AA62440E9384460B0171
:103150005B42802619939046030064441894360617
:103160001A910E9A179995005CAA944642465F6898
:10317000521A140012923A1C654447461393904623
:1031800005E02060636008340435BC4217D0414636
:10319000286802F006FB02F0C5FB01F0ADFF01F06C
:1031A00021FF0B0020606160B142EAD10028E8D124
:1031B00001302060636008340435BC42E7D11A99BD
:1031C0000E9A8C46624419990E92129A139B521AC7
:1031D0009046189A04339A42C3D13AAAD723944608
:1031E000DB006344180006F0ADFF3AAAB72394460B
:1031F000DB0063445390180006F0A2FF032308226B
:1032000000215490BAA8559302F044FC1C9806F093
:103210005FFE0700042005F00BFD00230500219848
:10322000C39306F055FE8046072005F001FDFE22FF
:103230005946FC2600239205B605040046924891A3
:103240000C22002156A84993479602F023FC46A978
:10325000080006F077FF48A95690080006F070FFB6
:10326000FE2259460023920557904A924B924C9168
:103270000C22002159A84D9302F00CFC4AA9080029
:1032800006F060FF4CA95990080006F059FF594616
:103290005A90EA20AA9607260023A89156A9A99138
:1032A00084A9AC9120994000AD9127992022AE913C
:1032B0003AA909180E8002303AA909180B70119822
:1032C000A8A902F0EDFBFFA82022B0A9443002F02B
:1032D000E7FB59467D4385270423BE950025B89119
:1032E00053A9B99198A9BC911C99BF00BD913AA965
:1032F000C919704F0B803AA9FFAB6433C91920225A
:1033000018000D70B8A902F0CBFB5B46FE22C093FB
:1033100059ABC19360ABC493219B9205C5934346BF
:10332000C2928D225C4392003AAB9B18624AC694CB
:103330001E803AAB9B18FFA81D702022C0A98430C4
:1033400002F0AEFB1D9B002B1DDD9B00A0AC1F19E6
:1033500080231B029846594E68AD206802F0E2FABD
:1033600001F0CAFE0022002301F06AFD01F016FE02
:10337000404500DB5248B04200DA5048043428800F
:103380000235A742E9D1159A6CAB13CA13C3126870
:103390006CA81A6006F0D4FE5B464E93032304002B
:1033A0004EA84F9306F0CCFE050091A806F052FA05
:1033B000002301953AADAC4600944248119C03931A
:1033C0008AAB60442200029391A9042306F0FCFB1F
:1033D000636B62691869116901F0C6FAA022AC46F4
:1033E0005200AB183F3AFF3A1A70364B8D90634447
:1033F000002218008AA906F035FC002843D00023DB
:10340000E8221E990090289806F050FD5A460D9B20
:103410001A70109B1A700C9B19680123149C0C9A4B
:103420003D98116022689A182260521806F03EFDFD
:103430002368002B00D0F1E0449806F037FDFDF73B
:1034400093FE0C9B01221B6886E50C9B01221B68E6
:10345000F6E40C9B01221B68FFF7DDF90C9B0122AF
:103460001B68FEF727FC0C9B01221B68FEF77DFB07
:103470000C9B01221B68FDF772FF0C9B00221B684E
:103480000133FDF7EEFE3AAA94460E4B6344180052
:1034900006F03CFC002800D0B0E0119B1C6F1D9B87
:1034A000002B40DD5B0068ADE3182F00984611E06B
:1034B000BC05000016020000360200000080FFFF7D
:1034C000FF7F0000B8080000AE4238D10234023756
:1034D000444528D00023FE5E0023E55E701BAE420B
:1034E000F2DD02F0C5F9FE21890502F0BBF90028E2
:1034F000ECD0300001F03AFDA32303931E9B0E9005
:103500000F912800029301F031FD0E9A0F9B00905D
:1035100001913F9806F0CAFC5A460D9B02341A707E
:1035200002374445D6D15946109A0D9B11701B782D
:103530000C9A1168002B6FD1002301316EE7A81B94
:1035400002F096F9FE21890502F08CF90028BDD021
:10355000CFE701233A4A00901E993E9806F0A6FC58
:103560005A460D9B1A70109B1A700C9B1A68012307
:10357000FEF70FFF0023334A00901E99419806F092
:1035800095FC5A460D9B1A70109B1A700C9B0122D9
:103590001B68FFF7C7FB0023E82200901E992898BC
:1035A00006F084FC5A460D9B1A70109B1A700C9BF7
:1035B00001221B68FEF74FFA0023E82200901E99B3
:1035C000289806F073FC5A460D9B1A70109B1A70CF
:1035D0000C9B01221B68FEF7ACF800231A4A0090EE
:1035E0001E99409806F062FC5A460D9B1A70109B7B
:1035F0001A700C9B01221B68FEF74DFD00239E22D2
:1036000000901E99429806F051FC5A460D9B1A7084
:1036100043E70123FEF7BDFE0123FFE6459806F0D0
:1036200045FCFDF7A1FD0122FFF77CFB0122FEF71F
:1036300012FA0122FEF77DF80122FEF72CFDC046AA
:10364000650300007E040000090300008023DB0501
:103650001868000F7047C0460FB400B5084883B023
:1036600002F06EFC049B002B07D005A91800019105
:1036700002F044FA034802F063FC012002F056FA1B
:10368000683D0110783D011070B5EFF3108C72B6F3
:103690000D4D2B68002BFCD0BFF35F8F0724CB08A8
:1036A000C618C05C01230C40A3401C000440034228
:1036B00007D118433070BFF35F8F2C608CF31088F4
:1036C00070BD1000FFF7C8FF2C0100D0F8B54746C9
:1036D000CE46884680B5EFF3108C72B6214D2C682B
:1036E000002CFCD0BFF35F8F9A422CD8D408072758
:1036F000055D061901241740BC402C421FD007214C
:103700000127894609E0D408055D06194C463900B1
:103710001440A1400C00294211D001329342F2D250
:1037200001204042BFF35F8F00220E4B1A608CF3E2
:10373000108800280FDBC0BCB946B046F8BD254351
:1037400010003570EEE7BFF35F8F00232B608CF322
:103750001088012040424346002BECD00898FFF728
:103760007BFFC0462C0100D0044A1078431CDBB21A
:10377000172B00D9102313707047C046101100207A
:1037800010B5064B064C82B00100009318221F238F
:103790002000FFF79BFF02B010BDC0467C3D01102A
:1037A000084D00200021044B044ABFF35F8F02C381
:1037B0009342FAD17047C046000100D0800100D08A
:1037C000054B064A1360064A136053609360D3604A
:1037D00013615361936170478080808000E400E052
:1037E00004E400E01F2318401E3B8340002905D05D
:1037F000C021044A49005350136070478022014998
:103800008B50FAE700E100E001228240034B1B6885
:1038100013405A1E9341D8B27047C04600E100E001
:1038200001238340014A13607047C04600E200E074
:10383000084B10309B688000C358002B07D0064A05
:1038400000209B1A2F229A424041C0B270470020AC
:10385000FCE7C04600ED00E01411002070B50D003B
:10386000EFF3108672B60F4A1368002BFCD0BFF33B
:103870005F8F0D4B10309B6884001B590B4A93429D
:1038800003D09D4201D000F091FF074B9B681D5172
:10389000BFF35F8FBFF35F8F0022024B1A6086F386
:1038A000108870BD240100D000ED00E0CD010010B3
:1038B000F0B557464E46DE464546E0B585B00600B3
:1038C00000911700EFF3108B72B66A4A1368002B51
:1038D000FCD0BFF35F8F0025674B5D579A46002DE4
:1038E00000DAA9E06B00654C01935B199B009846D8
:1038F000A146C1444B4652469B7910361370604B2B
:10390000B6009B6899590B1B2F2B33D95D4B9942FD
:1039100000D0ACE0019B42469C465B4B6544AD0049
:1039200063535A4B0232A218043B9B1A1B05584A98
:103930005B0D651913436B80564B0121AB80FF2350
:10394000AB71009BEF71AB604B460B4319004C4BC6
:103950009B689951BFF35F8FBFF35F8F0022454B88
:103960001A608BF3108805B0F0BCBB46B246A9467E
:10397000A046F0BD01200A008243D3798C46BB42A9
:1039800031D84546130044491B1B5B415943090D7F
:103990003D4B63533D4B02356519043B5B1B1B05D7
:1039A0003B4D5B0D2B43AA464D466B800425AC4630
:1039B0005546E044131F44441B1B1B055B0D1D4370
:1039C0004B46997100999D8099604946DF71334B50
:1039D00001431360BBE75800C01880002018C1796C
:1039E000B9422FD902000623D356002BF3DA0293F3
:1039F0002B4B61460393131D9A4604235B429C465E
:103A0000E14450464B461B1A1B055B0D9C46204B60
:103A1000957198466346404603439380019B5A192B
:103A20009200039BA418A380029B1C4AA371009BD5
:103A30002260E771A3608AE700F0B8FE00255346D4
:103A40005D574FE7908802934005131D9A46031572
:103A500061469C464046D444634604302018181AF8
:103A6000E0230005400D1B0218430390C5E700F05A
:103A70009DFE4FE7240100D0E351002014110020E7
:103A800000ED00E0CD01001000A1FFFF4411002077
:103A900000E0FFFF01BDFFFFAAAA00000148804728
:103AA00001BD000070B501240443EFF30581EFF37D
:103AB000108C72B6214A1368002BFCD0BFF35F8FC5
:103AC0001F4B05001F4AED1A6D416A43120D1E4D32
:103AD0008900AE6852B27658A6421CD006215956CB
:103AE00091421CD012215956914222D01E21595682
:103AF000914220D02A2159560324914210D0134BD1
:103B000019781A708171BFF35F8F00220B4B1A6016
:103B10008CF3108870BDAB680D4C5C50EFE700244F
:103B20006100091989005B18FF2199710949998081
:103B3000E5E70124F4E70224F2E7C046240100D0BF
:103B400014110020AAAA000000ED00E0E3510020BB
:103B5000CD01001001BDFFFF10B5084B084C82B02D
:103B600001000093002205232000FFF7AFFD00288D
:103B700001DB1F23181A02B010BDC046983D01108A
:103B8000E7510020024B9C46614489000160704768
:103B90004000003470B5114C114DAC420FD2FF26DD
:103BA0002368002B0CD0FFF7DFFD01002000FFF79A
:103BB000E9FFA680BFF35F8F0834AC42F0D370BD3D
:103BC000FFF7D2FD01002000FFF7DCFF2671BFF3F5
:103BD0005F8F0834AC42E3D3F1E7C046B018002051
:103BE000C018002010B50400FFF7BEFD0100200042
:103BF000FFF7C8FFFF232371BFF35F8F10BDC046DF
:103C000010B504000120FFF7BBFD034BC3189B0058
:103C10002360BFF35F8F10BD40000034034B9C4610
:103C2000614489000160BFF35F8F7047400000343A
:103C30000A4B1968EFF3108072B60A68002AFCD0AC
:103C4000BFF35F8F1B68BFF35F8F00221A6080F3A2
:103C5000108840BF002000217047C046C05100209E
:103C6000F0B5DE4657464E464546E0B583B0EFF325
:103C7000058203231340B54A99005258009190469B
:103C800001229A40B24B93461A60B24B01932EE048
:103C900043469B881BB2002B00DB99E043469B798F
:103CA000002B00D0DDE0434608241C5F002C00DA26
:103CB00006E143465A6963001B19DB00D3189D686F
:103CC000DC686B1C00D107E1A34B00999C46614462
:103CD0009A6A0B69A81A9B1A984200D20D619E48F5
:103CE00000F026FB8C4200DDEAE000D126E15B46D5
:103CF00099484363434608229B5E9946002BC7DBE5
:103D0000424652695B0092464B44DB009A4453465C
:103D10009E68DF6800F00CFB8F42B9DC00D100E147
:103D2000002F00DAE1E05246534654691B69019ABC
:103D3000934200D1D4E0414652460820085E5288A2
:103D4000000421001043984704000D0023002B437A
:103D500000D1CAE0002D00DBE7E030003900001B95
:103D6000A94153469860D96000229A5E002A8FDBF1
:103D700043465D6953009C18E4002C19A768E46869
:103D80008C4200DD84E702D1874200D980E74646B5
:103D9000328108360DE08C4200D1D3E01E000023B2
:103DA000F25E002A0ADB53009C18E4002C19A76875
:103DB000E4689B18DB00EB188C42ECDD53461A805C
:103DC0004B46338043469B881BB2002B00DA65E7E5
:103DD00043461A69EFF3108172B61368002BFCD0CA
:103DE000BFF35F8F43469E88012342465B42938028
:103DF00036B21369BFF35F8F00221A6081F3108817
:103E0000002E00DA4AE743465D69083342469C4685
:103E10007700BF19FF00EF19BB686046984608237A
:103E2000D15E9246FC68002907DA0EE0A2424FD02C
:103E300018000023C15E002906DB4B005B18DB0085
:103E4000EB18DA68A242F1DD524606800023FE5EDE
:103E50003980002EDCDA904643469B79002B00D156
:103E600021E7002342469371434646460821595EA6
:103E700008364B1C24D047468946556902E00600A7
:103E80004B1C18D04B005B18DB00E8180A008C466E
:103E9000E95E43881BB2002BF1DA01235B42DC1799
:103EA0008360C4604A4503D031803B8903803A81F6
:103EB000E1464B1CE6D14C46B846002C00DBF8E648
:103EC00040BF03B0F0BCBB46B246A946A046F0BD19
:103ED0009A684245ACD9B7E7631C00D0F4E6FEE629
:103EE000200023699847002825D1534642461B8865
:103EF00013811269EFF3108372B611680029FCD0A8
:103F0000BFF35F8F4246514652880A804246494677
:103F100051801269BFF35F8F0021116083F3108815
:103F2000B6E6864200D8FBE6B2E60B4800F000FA9F
:103F30000019694115E76568246807E7854200D8DC
:103F4000D5E6BDE7874200D828E737E7A45100202F
:103F50003C700540613C00100040054070B52E4C9F
:103F60002569002D04D00A212C48FFF70BFE70BDF7
:103F70002B4E0321300000F0D1F9E660FFF7F4FB8F
:103F8000284B03229C46D02322701B061B6801216C
:103F90006370254B6044A3600F23800020610220E2
:103FA000638063694942A1801980023119864731D3
:103FB0001D83585218315A5275325C399952183251
:103FC0000131995218320131995218320131995206
:103FD000083518329D520231183299521832013187
:103FE00099521832013199521832013199521832CE
:103FF000013199521832013199520C4B0C49DC6055
:1040000001303562FFF72AFC01210320FFF7EAFBAC
:10401000084B1D60A7E7C0465C110020C05100207E
:104020000040054040000034FFFF1000A451002074
:10403000613C001038600540004870475C1100206A
:10404000F8B51F0008AB1B7804001600002B08D140
:1040500000F076F932003B00121A8B41002B00DA97
:1040600053E02269EFF3108072B61368002BFCD086
:10407000BFF35F8F0223E15E63694A005218D200EA
:104080009B18002937DB1A8862802269BFF35F8F93
:104090000025156080F31088069A9E60DF601A6123
:1040A000079A5A615A8801325204520C101C002A95
:1040B0001FD082B25880080410432669EFF310879E
:1040C00072B63268002AFCD0BFF35F8FA2881A80D4
:1040D000A1802369BFF35F8F00221A6087F31088E5
:1040E0000B4923788C4601329A40E36863441A6096
:1040F000F8BD0120DDE72369BFF35F8F00221A605E
:1041000080F3108801204042F2E70020F0E7C0462B
:104110003C20000070B501000469EFF3108C72B60A
:1041200020680028FCD0BFF35F8F02200D5E4C6931
:1041300068004019C0002418002D37DB2088488013
:104140000869BFF35F8F002606608CF31088E36078
:1041500063880498013320615B0405985B0CA260BE
:1041600060611A1C002B1FD093B228046280184390
:104170000A69EFF3108C72B61368002BFCD0BFF302
:104180005F8F8B8823808D800B69BFF35F8F002248
:104190001A608CF310880B7801329A40CB6808497A
:1041A0008C4663441A6070BD0122DDE70B69BFF3E2
:1041B0005F8F00221A608CF3108801204042F2E7E2
:1041C0003C20000010B543890A1493421ADD5300C5
:1041D0009B184269DB00D3180469EFF3108C72B6A8
:1041E0002268002AFCD0BFF35F8F5A88090494B27A
:1041F000090C8A4208D00369BFF35F8F00221A605E
:104200008CF31088002010BD8022120214435C80C1
:10421000012302698371BFF35F8F002111608CF36A
:104220001088044902788C469340C2680120624499
:104230001360E8E73C20000040787047F0B5CE46B8
:10424000474680B504000D0083B0EFF3058788462C
:10425000002F3ED12E4EA1463378F06804339B00E8
:10426000816A1B58601A5B1A98420ED320BF2949F5
:1042700000204B6AAB4203D38A6A0130944231D8A2
:1042800003B0C0BCB946B046F0BD00F059F82200FA
:104290002B00121A8B41002B2FDB1F4B22000093A7
:1042A00030002B000197FFF735FF011E25DD194B6C
:1042B0005A6AAA421BD220BF3000FFF783FF154A7B
:1042C0000020536A4345DBD3926A01309145D7D928
:1042D00008E0104900204B6AAB42D1D38A6A013012
:1042E000A242CDD25B1B5A1E9341D8B2C8E79B6A4B
:1042F0009C42E1D9AA42DFD1DDE7064A0020536A99
:104300004345BDD3926A01209145B9D9EAE7C04639
:104310005C11002000400540313C001010B5024AFD
:104320000248FFF7B1F910BDB43D01100C4D00205B
:104330000300416A0A00986A596A8A42FAD17047B2
:10434000034B596A0A00986A596A9142FAD1704738
:104350000040054070B504000D00174A536A19006B
:10436000966A536A8B42FAD13000190024184D41E5
:10437000AB4216D813D0104A2B00526A954203D98B
:104380000D494A6A9A42FCD39A4207D10A4A02E08E
:10439000516A994202D1916AA142F9D370BDA642F5
:1043A000E9D9054B5B6A1C005A1CEFD0012301249C
:1043B0006442E5175B42E3E700400540F8B5DE469E
:1043C0004E4657464546E0B58B4605000A9918000B
:1043D000160000F0F1FA0A9B6C001F02324B6419C0
:1043E0009C46A4006444636881469F4200D967608C
:1043F0002B1FDBB29846012B30D9C02380229B01B2
:10440000E31812011A60294BAD0059599A46002948
:104410001BD17301E026226853401E408023424690
:104420005B01E3181E60012A30D9802380229B01A2
:10443000E31812011A6053464A4667605A51F0BCAD
:10444000BB46B246A946A046F8BD586900F0B4FA8A
:10445000013043001B18033BFDD2DAE75B46012B1A
:10446000CBD1C02303229B01E3181A60023AA36850
:104470001A42FCD07301E0262268AD0053401E4072
:1044800080230A4A5B019246E3181E605A4621685F
:10449000514003220A401A6001225B469A40A368F9
:1044A0001A42FCD0C1E7C04600800040104D0020F9
:1044B000F0B546464F46D646C0B51F00344B4400C3
:1044C0009C462418A4006444636888461600FF2BA9
:1044D00002D880235B006360031FDBB29A46012B86
:1044E00030D9C02380229B01E31812011A60294BA6
:1044F00085005959994600291BD17301E02622688D
:1045000053401E40802352465B01E3181E60012A7F
:1045100030D9802380229B01E31812011A60802386
:104520005B0063604B465F51E0BCBA46B146A846AB
:10453000F0BD586900F040FA013043001B18033BFE
:10454000FDD2DAE74346012BCBD1C02303229B01E6
:10455000E3181A60023AA3681A42FCD07301E026FD
:104560002268850053401E4080230A4A5B01914621
:10457000E3181E6042462168514003220A401A6037
:10458000012342469340A2681342FCD0C1E7C046D3
:1045900000800040104D0020014B8000C058704743
:1045A000104D0020F8B5040021481E0017000D0032
:1045B00000F002FA0100380000F0FEF9069B360414
:1045C0001B031E432368002B20DB1A4B1A49E318F8
:1045D0005A1E93418022920194465B421B0B174A5C
:1045E0001B0363441360164A13601F000A68974355
:1045F000FBD1144B2560E2182123A06013602368CF
:10460000002BFCDA0823E6601360F8BD3F23226824
:104610001340AB42D9D1A3681B051B0D8342D4D1F3
:10462000EE22E368D2021340B342CED1EDE7C0469A
:10463000001BB7000040FDBF08C0004000E0004084
:1046400000F000400430000010B580241C4BE4054D
:104650001C6000281AD001231A4C18431A4BDC6145
:104660001A4C44401C62596298628021144BC9055F
:104670001960174817490860E021C9041960002A29
:1046800007D18022144B12061A6010BD0E4BD86160
:10469000EBE753019B1A9B009A18802312015B04DD
:1046A0009A4209D213000D490B60074B5A608022D1
:1046B000094BD2051A60E8E7094B1A00F3E7C04638
:1046C00000B00540D3C007B0008005402D3FF84F33
:1046D000FCFF01000820014000A005407C510020A3
:1046E000FFFFFF008023024A9B000B43D362704709
:1046F00000800540142310B50100188804331B887E
:10470000984710BD162310B50100188802331B8886
:10471000984710BDF8B54746CE4680B50F1E19D054
:1047200014239946043304000025012698464B467D
:104730001888434621681B88984701C4431E984146
:10474000013540420640AF42F1D13000C0BCB9460D
:10475000B046F8BD0126F8E7142370B504001888A8
:1047600004331B880D000549984703000020002CE6
:1047700001DB0130A04029009847C04655420000A7
:10478000AA23064A1B0113602F230549D360054B5A
:1047900019605368002BFCDA7047C04600400240A5
:1047A00000B0FA00006002407047C04610B50148F2
:1047B000FEF752FFD83D011070B5074D074EB542C8
:1047C00009D20024013E761BB60808CD9847230085
:1047D0000134B342F9D170BDE8360110243701101D
:1047E000054B064A06491A60064A074B1A60100034
:1047F0000B689843FBD1704700E00040BFCDFBFE43
:1048000008C00040FE7F3C0000F00040044BDB6C21
:10481000002B03D18022034BD2021A607047C0469E
:10482000000011504C201150044A054B1A60054AF3
:104830001368DB018033FBD17047C046FFFFFF01E7
:1048400000F0004008C000404022034B9A675A67BE
:104850001A67DA667047C04600F0014010B5FEF7EF
:10486000A1FF10BD70B5044D044CA968C022200002
:1048700001F016F9AC6070BD00ED00E00000002012
:10488000002310B5294C82B0A367FFF779FF0122FE
:10489000274B1A60636C012BFCD10322254B1A6055
:1048A000224A936B012BFCD1013300930121224A50
:1048B00022480433FFF776FE052301210093204AA6
:1048C0002048FFF76FFE0022022104201E4BFFF755
:1048D000EFFD0022012105201C4BFFF7E9FD00221E
:1048E000002107201A4BFFF7E3FD002200210820DA
:1048F000174BFFF7DDFD8023DB0000930022002132
:104900000920134BFFF75AFD0022104B002106200F
:10491000FFF7CEFD0420FFF73FFE0E4900F04CF8F4
:1049200001000020FFF7DEFE02B010BD0080004055
:104930003CB0004030B00040002F68590080024079
:10494000008C864700C00240001BB7004059730727
:10495000006CDC0240420F0001480421014B184763
:104960008011002015470010124A936F9B0815D242
:104970009066D166002905D0FFE7FFE7FFE7516F9A
:10498000106F704704B580210906C21751400028F6
:1049900000D0C8430EF050FE002104BDF0B5146EE7
:1049A000556E576F166FFFF7E3FF1466556657672E
:1049B0001667F0BD000000D0114A936F9B0813D218
:1049C00010665166002905D0FFE7FFE7FFE7516F4A
:1049D000106F704704B5002801D00020C0430EF0CE
:1049E0002BFE002104BDC046F0B5146E556E576F06
:1049F000166FFFF7E5FF1466556657671667F0BD3B
:104A0000000000D094464A4A926F9208624601D252
:104A100028E0C046F0B5464E346E756E776F366F3F
:104A200000F020F89446424A1466556657671667A8
:104A30006246F0BD94463E4A926F9208624601D2A9
:104A400054E0C046F0B53A4E346E756E776F366FEF
:104A500000F04CF89446364A146655665767166758
:104A60006246F0BD002B24DB11D000293EDA00B5F0
:104A7000C943404200D1013100F038F8C9434042F7
:104A800000D10131DB43524200D1013300BD002A85
:104A9000EBD1002801D1002905D00020C90FC9079A
:104AA00001D1C043410800B50EF0AEFD0022002345
:104AB00000BD00B500290ADBDB43524200D10133BF
:104AC00000F014F8C943404200D1013100BDC94390
:104AD000404200D10131DB43524200D1013300F0AA
:104AE00005F8DB43524200D1013300BD002923D138
:104AF000002B18D1002A0CD0BC460D4F38667A66C0
:104B000000210023FFE7FFE7FFE77A6F386F674672
:104B10007047002801D00748010000B50EF074FD71
:104B20000022002300BD02000B000020002170477E
:104B3000000000D0FFFFFFFF002B00D0BFE0130CF0
:104B400028D1002AE7D080B4114F39667A66FFE792
:104B5000FFE730B4040C7B6F396F1B0423433B66C3
:104B60007A66FFE7FFE7FFE7C04684B27B6F3D6FE1
:104B70001B0423433B667A66FFE7FFE7C04600233A
:104B80002C042D0C7A6F386F00196941B0BC704746
:104B9000000000D0F0B594460025140E01D1120299
:104BA0000835140F01D112010435940F01D1920080
:104BB0000235D40F01D152000135D40B0134254FF9
:104BC0007C66254C3C660E0C93B2FFE7FFE7FFE7DF
:104BD0003C6F6643360C7703BE467343DF0B5B04C2
:104BE000C01AB941130C7343DB18C91ACE086643C7
:104BF000360CB64493B273431F0F1B01C01AB94160
:104C0000130C73431F0B1B05C01AB941860D8F028D
:104C10003E436643360C092D24DB520A7243801A48
:104C20007703460A6643360C16235B1BDE40DF40E3
:104C3000BF1964466643821B704604350633010083
:104C4000D940A840C01900D30131A24206D20023A6
:104C5000F0BD0000000000D0FFFFFFFF121B01307D
:104C6000F3D3F1E709277F1BFE406446A2B27243EB
:104C7000801A00D20139220C7243130C1204821ADA
:104C800099410B007046043513370100F940A840E4
:104C9000801900D30131002B02D1A2420AD2F0BD0B
:104CA000013000D30131121BFAD2013BF8D1A242EC
:104CB00000D2F0BD013000D30131121BF7E7F0B58F
:104CC0001C0C00D080E00CB400251C0A04D11B028F
:104CD000160E3343120208351C0B04D11B01160FAC
:104CE0003343120104359C0B04D19B00960F3343D0
:104CF00092000235DC0B02D192185B4101351C0099
:104D0000971864410134464F7C66464C3C660E0C55
:104D1000FFE7FFE7FFE7C0463C6F6643360C7703CB
:104D2000BE4697B27743C01B00D20139C01B00D2E8
:104D300001399FB27743C91BC91B170C77437E0407
:104D4000FF0B801BB941CE086643360C0C2D33DBBC
:104D5000B644120B1F053A431B0B97B27743C01B97
:104D600000D201399FB27743C91B170C77433E0429
:104D70003F0C801BB941860D8F023E4366432927B5
:104D80007F1BFE400C3D7746AF40BF1930BCA2B23E
:104D9000ABB272437343801A9941220C7243130CD5
:104DA0001204801A994102000B000137001BA9412F
:104DB000F9D2781E0021F0BD0C277F1BFE407746FC
:104DC0007F0BAF40FF19E0E700245D1C07D0144FB4
:104DD0007D663966FFE7FFE7FFE7FFE73C6F95B2C7
:104DE0009EB265436643401BB141150C1E0C6543E2
:104DF000664336042F0C3E432D04401BB1419942BB
:104E000004D202000B0020000021F0BD01D190422D
:104E1000F7D3801A994101349942F2D3F6E70000A2
:104E2000000000D0FFFFFFFF48404140484018B459
:104E30001B4B5B68FC46019308BD04DFC7510010A3
:104E400018B4174B1B68FC46019308BD00DFD15115
:104E500000109446134A926F920809D2624618B421
:104E60000F4BDB68FC46019308BD0CDF8954001032
:104E70000C4AF0B5146E556E576F166F6246FFF709
:104E8000EEFF084A1466556657671667F0BD18B4FA
:104E9000034B9B68FC46019308BD08DF2D530010AF
:104EA000481A0020000000D0FFB55040424050405A
:104EB00059404B40594000E0FFB5154F4C00640D80
:104EC00003D0BC4204D10C0314D80020090D0905FD
:104ED0005C00640D03D0BC4204D11C030AD800223C
:104EE0001B0D1B0501264B4009D44B4003D58B42BB
:104EF00000D18242FFBD9942FCD19042FFBD0B43DD
:104F0000DB1803431343F5D0C9434918FFBD000024
:104F1000FF07000000B5FFF7CFFF01D0002000BD64
:104F2000012000BD00B5FFF7C7FF804100BDC046AE
:104F300000B5FFF7C1FF01D9002000BD012000BD71
:104F400000B5FFF7B1FF804100BD012040054A00D8
:104F5000121804D85A00121801D8002070470120F6
:104F6000704700000021002805D17047C117484054
:104F7000401AFAD0C90713B5064B1B6898470CBCFA
:104F8000441CA2401005120B0349091B09051943D3
:104F9000114310BDBC5100201F04000010B54C008F
:104FA000620D8023D218DB00D21A5B057E2A10DD49
:104FB0009E3A13DACC170903490819435242D140EB
:104FC000640001341532202A05DAD04008436043DA
:104FD00010BD002010BD0846604310BDC80FC018AA
:104FE000013810BDC94211D300B54900490800225B
:104FF00000F018F8002904D4002240428A411146EA
:1050000000BD80210906002000BD000018B4044B3B
:10501000DB6EFC46019308BD6CDF395600100000C2
:10502000481A002018B4044B9B6FFC46019308BD3E
:1050300078DF575600100000481A002018B4044BBF
:10504000DB6FFC46019308BD7CDFC55600100000F5
:10505000481A0020132370B51D78012D19D014DDD6
:105060001F48FFF74FFB06001E48FFF74BFB1E4C87
:1050700080223100200000F013FD022D2DD01B48AE
:10508000FFF738FB1A4B186070BD1A4B164CA3641F
:10509000F5E7184B144C23606360A360E360236161
:1050A0006361A361E36123626362A362E3622363DA
:1050B0006363A363E36323646364A364E3642365BA
:1050C0006365A365E36523666366A366E36623679A
:1050D0006367A367E367A364D1E7064BA364CEE7E6
:1050E0005344000053460000481A00204C3300008F
:1050F000BC51002095510010244A4B0094465B0D92
:105100006344F0B504000D005A1C21DB5A1C35D055
:10511000342B1CDA3326F61A3700203F1CD4012129
:10512000B9400B000121B1400A0012196B41002F58
:105130001EDB0224BC4021000224B44020001600E3
:10514000002544428D4126402B4030001900F0BD1F
:10515000CB0F0020D907FAE720210120891BC84086
:105160000121B14003000A0012196B41002FE0DA5F
:1051700020240225A41BE5402900DDE7CB0F044ACB
:10518000DB071A4300201100E1E7C04601FCFFFFE6
:105190000000F03F07B5604601880A0A0230DF2AA6
:1051A000FAD1C9B2820804D30288408800041043AF
:1051B00000E00068014A5050039007BD481A0020E3
:1051C0000FB403BC0CBCF0B50124E407634000E05D
:1051D000F0B50C0DCF0F661E3605891B640503D391
:1051E000C943404200D30131640D03D0661CF60A66
:1051F00007D0E41B00207F00791C89078912803CBE
:1052000024031D0DDF0F6E1E36059B1B6D0503D39A
:10521000DB43524200D301336D0D03D06E1CF60AFE
:1052200007D0ED1B00227F007B1C9B079B12803D5B
:105230002D032F1B661B58D4A446202E46DA203798
:105240001400BC401D00BD40F24033412A43801889
:105250005941CB0F05D0C943C0430022644250419D
:10526000514162464D0D28D10D0D07D100281FD0A8
:10527000241940414941013A0D0DF9D0640006D38B
:10528000013000D30131002C01D140084000013A27
:105290000BD4941CE40A04D112051144DB07194411
:1052A000F0BDD907204B194300E0D9070020F0BD1D
:1052B0000029DDD1002CDBD1F0BD0132C60740084A
:1052C000CD0728434908002EE1D0D9E73C2E29DA42
:1052D000203E40371400BC4000D00124F24014436B
:1052E0001A00BB401C43D317ACE7AC46202F08DAAA
:1052F00020360400B4400D00B540F8403941284341
:10530000A5E73C2F0CDA203F40360400B44000D023
:105310000124F84004430800B1400C43C117EAE7F8
:1053200010001900002494E70000F07FF0B50C0D88
:10533000661E3605891BE60A6405640D02D0651CED
:10534000ED0A04D0002001210905803C2403A44675
:105350001C0D671E3F05DB1BE70A6405640D02D0C8
:10536000651CED0A04D0002201231B05803C2403A8
:105370007740644497B484B296B27443070C7E437A
:10538000150C6F4380B26843361802D30120000425
:105390003F183004350C00197D41844688B29AB21A
:1053A00050430C0C62431F0C7C438EB27E43921917
:1053B00002D301263604A4191604170C36186741C7
:1053C00001BC81B29AB25143040C62431B0C5C4392
:1053D00080B25843121802D301200004241810048C
:1053E000130C401863412D185E410020474106BC54
:1053F00088B293B258430C0C6343120C544389B2E5
:1054000051435B1802D301210904641819041A0CD2
:10541000091862416D1856410020474118BCF90235
:10542000720D1143F0026A0D1043ED020A0D03D113
:105430006D1940414941013B124E9B1B7600B3421E
:105440000ED26D0007D30130002671416646354308
:1054500001D1400840001B05C918E4072144F0BDF4
:105460000BDA013306D1013004D101314F0D01D0E7
:105470004908F2E7E1070020F0BD013631050020C0
:10548000EBE70000FF030000F0B51C0D671E3F05B1
:10549000DB1BE70A6405640D02D0661CF60A04D023
:1054A000002201231B05803C2403D0252D06002665
:1054B000F6432E661E096E66CE0FF619B4464900F5
:1054C0004F0D02D07E1CF60A03D000200021403F81
:1054D0003F033E1BB600B444013F7F05C91B49088A
:1054E0002E6F013676089C02950D25437543ED130A
:1054F0007543AD1301356D10F603761B0CB4CC0269
:10550000450D2C43A2B2B3B25A43270C7B43350C52
:105510006F43A4B26C431B1902D3012424043F1926
:105520001C041D0CA4187D4124196D41009A91B2F0
:10553000ACB26143170C7C432B0C5F4392B25A43CD
:10554000A41802D301221204BF182204230C5218FB
:105550007B41019C6C431B19520ED9010A43440143
:10556000A01A81B2B2B2514303145A43360C7343AA
:1055700087B27743D617D21900277E4136049B198C
:105580001704160C7F185E417316ED18F301002600
:1055900080337541A90F06D16400690AE8055B0AEA
:1055A000184309D22FE00422944480337541A90A9C
:1055B000A8059B0A184326D3404149412404009A78
:1055C000019B0D005543641B4343E41A95B286B218
:1055D0007543170C7E43030C5F4392B25A43B618CF
:1055E00002D301221204BF183204330C52197B413A
:1055F00052429C41002C02D400220130514140080B
:10560000CA071043490802B06246D7079210084BF8
:10561000D218084B9A4203D212058918C919F0BD55
:105620000020002A01DC3900F0BD01331905F5E73F
:10563000FD030000FE070000002200B500F00DF899
:10564000CA179A4200D100BDD8430121C907414081
:1056500000BD000000220B150AD410B5944600F0DE
:105660005FF81414013400DA0021CB17144C2047E2
:105670000020002170476244343A0CD40C2A07DA27
:1056800004009140904052422032D440214310BD4A
:10569000D843D94310BD203207D40C46944052421F
:1056A00020321141D040204310BD0800C9172032DC
:1056B00003D452422032104110BD1800190010BD11
:1056C000775600104A00520D144BD21A13DDFF2AF0
:1056D0001EDAD205CB0FDB071A43C300400F0903C4
:1056E000490A084310435B0001D301D001307047E1
:1056F0004308FBD2704702D0C80FC00770470A03A7
:1057000012130132F8D1420F072AF5D1012200E02D
:10571000FF22C80F00028018C005704780030000F8
:105720000A0DCC0F531E1B05C91A520503D3C943DA
:10573000404200D30131520D03D0531CDB0A07D085
:10574000121B00206400611C89078912803A120331
:10575000014BD21A70470000FF030000514343433E
:10576000C9188C46110C83B24B4310B4040C61432E
:1057700092B280B2504362431C041B0C001910BC4F
:1057800059411304120CC018514161447047000084
:105790004840414048400E4B5B6818470C4B1B6823
:1057A00018470C4A936F9B0802D2094BDB681847D5
:1057B000F0B5146E556E576F166FFFF7F6FF054A7A
:1057C0001466556657671667F0BD014B9B6818470E
:1057D000481B0020000000D007B548404140484029
:1057E00001E0C04607B54200120E03D0FF2A03D1E4
:1057F000420218D8C00DC0054A00120E03D0FF2A7D
:1058000003D14A020FD8C90DC9050122414005D470
:10581000414001D5814207BD884207BD0143491877
:1058200001D0C043001807BD00B5FFF7DBFF01D072
:10583000002000BD012000BD00B5FFF7D3FF80416F
:1058400000BDC04600B5FFF7CDFF01D9002000BD67
:10585000012000BD00B5FFF7BFFF01D9002000BD4A
:10586000012000BD00B5FFF7B7FF804100BD00007B
:10587000C10FC90700D54042002817D0F44603B431
:105880000B4B1B68984706BC81409E3840428031D4
:1058900007D20B0607D04900490AC0051043084348
:1058A00060470130F8E7490A8902F5E770470000D0
:1058B000BC51002041000A0E80231B067E2A0BDD0E
:1058C0009E3A0BDAC1174002400818435242D040BA
:1058D000490001314843704700207047C00FC0188D
:1058E00001387047C0420DD300B540004008002188
:1058F00000F012F8002801D4404200BD80200006CC
:1059000000BD0000034BDB69FC4618471CDF015A51
:1059100000100000481B0020014B5B6A1847000084
:10592000481B0020034BDB6FFC4618477CDF195AED
:1059300000100000481B0020132310B512481C78EB
:10594000FEF7E0FE0100012C0AD003DD80220F48A3
:1059500000F0A6F80E48FEF7CDFE0E4B186010BD05
:105960000A4C5422200000F09BF80B4B6365A365A2
:10597000E36523666366A366E36623676367A367DD
:10598000E3672362E361E5E753460000481B00201C
:105990004C330000BC510020D559001043001B0EB1
:1059A0007F3B5A1C0DDB5A1C0ED0172B08DA16222F
:1059B000D21A012393401818022393405B421840E7
:1059C0007047C00FC007FBE7C00FC307FE2080056C
:1059D0001843F5E707B5604601880A0A0230DF2A56
:1059E000FAD1C9B2820804D3028840880004104367
:1059F00000E00068014A5050039007BD481B00209A
:105A00000021C2158032803201D0024A10470020A6
:105A100070470000CD2A0000C30FDB0741000A0ECB
:105A200007D0FF2A08D00909054A891819434007F9
:105A300070471900002070470249C918FAE70000B2
:105A4000000000380000F07F70B504000A4E3000FE
:105A50000DF032FE20000AF0C7FB050030000DF00B
:105A6000CBFD002D05D0054B2C199C4201D82800F8
:105A700070BD0348FDF7F0FDB018002000000420C1
:105A8000E43D011001480421014B1847901100200A
:105A900015470010014B1B681847000090110020AB
:105AA000014B5B68184700009011002010B50028DA
:105AB00000D110BD00F0F8F9FBE7C0460FB430B5D7
:105AC0000C4985B008AA08CA0D680392002D0CD0B5
:105AD00000920122084C5242200002A9A84701204E
