:020000041000EA
:1000000000B5324B212058609868022188439860DF
:10001000D860186158612E4B002199600221596106
:100020000121F02299502B49196001219960352056
:1000300000F044F80222904214D00621196600F024
:1000400034F8196E01211966002018661A6600F04E
:100050002CF8196E196E196E052000F02FF8012189
:100060000842F9D1002199601B49196000215960AB
:100070001A491B48016001219960EB211966A021F2
:10008000196600F012F800219960164914480160C1
:100090000121996001BC002800D000471248134993
:1000A000086003C880F30888084703B5996A0420EC
:1000B0000142FBD001200142F8D103BD02B5186610
:1000C0001866FFF7F2FF186E186E02BD00000240BE
:1000D000000000180000070000035F00212200005C
:1000E000F4000018222000A00001001008ED00E03C
:1000F00000000000000000000000000074B24E7A12
:1001000000200420F7010010C3010010C5010010F9
:10011000C1010010C1010010C1010010C101001097
:10012000C1010010C1010010C1010010C701001081
:10013000C1010010C1010010C9010010CB01001065
:10014000CD010010CD010010CD010010CD01001037
:10015000CD010010CD010010CD010010CD01001027
:10016000CD010010CD010010CD010010CD01001017
:10017000CD010010CD010010CD010010CD01001007
:10018000CD010010CD010010CD010010CD010010F7
:10019000CD010010CD010010CD010010CD010010E7
:1001A000CD010010CD010010CD010010CD010010D7
:1001B000CD010010CD010010CD010010CD010010C7
:1001C00000BE00BE00BE00BE00BE00BEEFF3058054
:1001D000103800BEF2EB8871285601104856011005
:1001E0003802001090A31AE71E481F49086006C88D
:1001F00081F3088810471D480068002801D019487D
:10020000F3E70DA40ECC002902D000F012F8F9E7B4
:100210001749184A002000E001C19142FCD116495B
:100220008847164988471649884700BEFDE701C937
:1002300001C29A42FBD3704748560110C00000200B
:1002400000180020886D0110000004200000042028
:10025000886D011000100420001004200000000030
:10026000704700000000000008ED00E0000000D032
:100270000018002028510020A9690010E50A00108C
:1002800069690010F8B5C04606480749091A8B107D
:10029000C90FC91810B5491003D0044B002B00D06A
:1002A000984710BD00180020001800200000000032
:1002B000054B10B5002B03D00449054800E000BFF2
:1002C000FFF7E2FF10BDC04600000000C450002050
:1002D000A0380110F0B5DE4657464E464546E0B51B
:1002E000FFB00C0016001D000DF08CFB82462000B4
:1002F0000DF088FB814630000DF084FB804628001D
:100300000DF080FB07008D980DF07CFB5346060036
:100310000822002114A8179306F082FA899B002571
:100320001693012312AC50469B46A3831295A577E2
:1003300065600DF0F1FA8246207F09F0B1F853466E
:1003400058434B4608220021A0611CA8636306F0B5
:1003500067FA3E23E5548A9B4846236302232562BD
:100360009A46A38765620DF0D7FA3C238146E05C8C
:1003700009F096F84B465843434600210822A063F3
:1003800024A8636506F04CFA5E23E5548B9B524625
:1003900023655C2340469946E252256465640DF06E
:1003A000BBFA4B468046E05C09F07AF84346584376
:1003B00000210822A0652CA8676706F031FA7E2389
:1003C000E5548C9B524623677C2398463800E252C2
:1003D000256665660DF0A0FA43460700E05C09F06B
:1003E0005FF89423784300210822A06734A8E650E0
:1003F00006F016FA8023E5500433E5501A33E5542D
:100400000E3BE5500C335A4698463000E2520DF050
:1004100083FA43460700E05C09F042F898237843EA
:10042000E05030000DF078FA314E06AB32009C46B9
:1004300083CA83C3604682CA82C30DF0E3FA070011
:1004400004A80300143606CE06C30DF0DBFA06003E
:100450000BA80CF005FF889B220002930BA9052333
:100460000395019600973AA809F04AF80022002166
:100470003AA809F099F8002810D13AA809F0E8F84C
:1004800000281BD13AA809F089F8002826D07FB0AF
:10049000F0BCBB46B246A946A046F0BD154C0023B1
:1004A0002E220090144920000DF024FA0122134B53
:1004B0003AA81A7009F0CCF80028E3D0104C0023B9
:1004C000322200900C4920000DF014FA01220B4B4F
:1004D0003AA81A7009F062F80028D8D13A220649E1
:1004E00008480DF007FA0122044B1A70CFE7C04606
:1004F000804A011010390110A03801101D51002050
:100500005039011088390110F0B5DE4657464E4685
:100510004546E0B5B34C0F00A5441C0093AB1B78D7
:10052000150004930DF06EFA834638000DF06AFA58
:10053000824628000DF066FA814620000DF062FA2E
:1005400080468F980DF05EFA5B4607000822002176
:1005500016A8199306F064F98B9B002518930123C4
:1005600014AC58461E00A3831495A57765600DF062
:10057000D3F98346207F08F093FF5A4650435246F2
:100580000021A06162631EA8082206F049F98C9A36
:100590003E232263022250469346A287E5542562F9
:1005A00065620DF0B9F93C238246E05C08F078FF03
:1005B000524650434A460021A063626526A808229D
:1005C00006F02EF98D9A5E2322655C2259469246EA
:1005D0004846E554A152256465640DF09DF95246E4
:1005E0008146A05C08F05CFF4A4650434246002129
:1005F000A06562672EA8082206F012F98E9A7E2363
:1006000022677C22594691464046A152E554256610
:1006100065660DF081F94A468046A05C08F040FF0F
:1006200042469423504300210822A06736A8E75091
:1006300006F0F6F88023E5500433E550909A1A331B
:10064000E5540E3BE2509C2238009046A6520DF035
:1006500063F943468146E05C08F022FF4B4658436D
:100660009823E05038000DF057F908AB9C465E4BDC
:10067000070098466346424643CA43C303CA03C3BE
:1006800060460DF0BFF94346814606A802001433C8
:1006900042CB42C20DF0B6F980460DA80CF0E0FD49
:1006A0008A9B22000293434601934B460DA9009377
:1006B000039505233CA808F023FF002200213CA855
:1006C00008F072FF002800D076E0484B00249946DD
:1006D000474B484D9846929E02E00134A64210D006
:1006E0003CA808F0B5FF0028F7D000230090322284
:1006F000494640460DF0FEF8012301342B70A64216
:10070000EED1049B002B49D1002F47DD3A4B002648
:100710009A46364BD3469946909BBA469846919F47
:100720000AE0201C05F00DFF344905F05BFF0028AE
:100730001BD10136B24531D04246B300D558FC58E2
:10074000291C201C05F04EFF291C0028E9D1201C83
:1007500005F040FF0028ECD1211C281C05F0F1FE1B
:10076000264905F03FFF0028E3D0201C05F09AFF42
:10077000372303934B4604900591281C029305F000
:1007800091FF049A059B0090019158460DF0B2F834
:100790000122184B01361A70B245CDD13CA808F0A1
:1007A000FDFE002814D081239B009D44F0BCBB4675
:1007B000B246A946A046F0BD114C00232E2200905F
:1007C0000A4920000DF096F801220A4B1A707CE7C6
:1007D0003A2206490B480DF08DF80122054B1A709C
:1007E000E1E7C046FCFDFFFF804A0110A038011080
:1007F000503901101D510020C0390110ACC52737F8
:100800001039011088390110F0B5DE4657464E46C2
:100810004546E0B5A94C0E00A5441C00909B150070
:1008200099460DF0EFF8804630000DF0EBF8070028
:1008300028000DF0E7F8824620000DF0E3F805905F
:100840008F980DF0DFF843460025022683460822E4
:10085000002116A8199305F0E3FF8B9B14AC4046CA
:100860002361A6831495A57765600DF055F8804641
:10087000207F08F015FE43465843FE239B05A360E6
:1008800001238F490822A061E1601EA80021149372
:100890006763656005F0C4FF3E238C9A38002263CD
:1008A000E554A687256265620DF036F83C23070003
:1008B000E05C08F0F5FD7843574608220021A0636C
:1008C00026A8676505F0ACFF8D9F5E2327655C2732
:1008D0005046E554E653256465640DF01DF88046E6
:1008E000E05D08F0DDFD47467843A06505980822E5
:1008F000002160672EA805F093FF8E9F7E23276757
:100900007C270598E554E653256665660DF004F8E6
:100910008046E05D08F0C4FD474678439423A06715
:10092000584608220021E05036A805F079FF8020C3
:100930009E23804625504846E5540E3BE0509C20BF
:100940008427265282465846E5510CF0E5FF060002
:100950005046205C08F0A4FD9823FE2270439205C7
:10096000E050103BE250424655490433E1505846AE
:100970008B3BE551A3500CF0CFFF524E08AB320039
:100980009C46804683CA83C3604682CA82C30DF0F8
:1009900039F8070006A80300143606CE06C30DF08A
:1009A00031F806000DA80CF05BFC8A9B2200029334
:1009B0000DA905230395019600973CA808F0A0FD1A
:1009C000002200213CA808F0EFFD002851D13CA8EE
:1009D00008F03EFE00285CD14346002B32DD3A4B46
:1009E00000249B46394B9A4604E0AE4238D101348C
:1009F000A04527D0919AA300D6584A46D558701BD7
:100A0000AE42F2DD05F0F4FD314905F0EBFD0028C2
:100A1000EDD0300005F098FA3723039353460600D3
:100A200028000F00029305F08FFA32003B0000907F
:100A3000019158460CF05EFF0122264B01341A70DA
:100A4000A045D7D13CA808F0A9FD00282DD08123CE
:100A50009B009D44F0BCBB46B246A946A046F0BDF3
:100A6000A81B05F0C5FD1A4905F0BCFD0028BED045
:100A7000CFE7194C00232E220090144920000CF0DF
:100A800039FF0122134B3CA81A7008F0E1FD002841
:100A9000A2D0124C0023322200900C4920000CF00E
:100AA00029FF01220B4B1A7096E73A2207490C489E
:100AB0000CF020FF0122074B1A70C8E7FCFDFFFF76
:100AC000FFFFFF3F804A0110C0390110A03801101C
:100AD000ACC527371D5100201039011050390110C5
:100AE00088390110F0B5DE464E4657464546E0B51A
:100AF000CF4CA5440CF076FFCE4ACF4B5792CF4A4D
:100B000099460D92CE4ACF4B0B92CF4A00240E92BB
:100B10008CAA9246C0AA9346CC4A98AE1492CC4A6C
:100B20005692CC4A5192CC4A5292CC4A1B92CC4A11
:100B30001C92CC4A1D92CC4A1E92CC4A1F92CC4A9F
:100B40002492CC4A2592CC4A2692CC4A1192CC4A85
:100B50002792CC4A2892CC4A2D92CC4A2E92CC4A4B
:100B60002F92CC4A3092CC4A3192CC4A3292CC4A23
:100B70003392CC4A0F92CC4A3492CC4A3592CC4A2A
:100B80003692CC4A3792CC4A3892CC4A1092CC4A10
:100B90003992CC4A3A92CC4A3B92CC4A3C92CC4ACB
:100BA0003D92CC4A3E92CC4A3F92CC4A1292CC4AD9
:100BB0004092CC4A4192CC4A4292CC4A4392CC4A8F
:100BC0004492CC4A4592CC4A4692CC4A4792CC4A6F
:100BD0001592CC4A4892CC4A4992CC4A4A92CC4A85
:100BE0004B92CC4A4C92CC4A4D92CC4A5392CC4A2E
:100BF0005492CC4A1892CC4A5592CC4A4E92CC4A46
:100C00004F92CC4A5092CC4A2092CC4A1992CC4A6C
:100C10002192CC4A2292CC4A2392CC4A2992CC4AA5
:100C20002A92CC4A2B92CC4A2C92CC4A5892CC4A4B
:100C300059924A4699460C924A460C9B57981C601A
:100C400014600CF057FE0E9F0D993B000B9A0C7030
:100C500014701C3380AA23CB23C223CB23C23B00B6
:100C600068AD343303CB03C53B006BAD343303CBEA
:100C700003C53B000E9734336EAD03CB03C518227A
:100C8000002186A8659405F0CBFD80A80CF0BAFE83
:100C9000050068A80CF0B6FE80466BA80CF0B2FE0A
:100CA00007006EA80CF0AEFE139065A80CF0AAFE2B
:100CB00000210822169075619AA805F0B1FD012265
:100CC0005CA8B2833061346028007460B4770CF0A3
:100CD00023FE0500307F08F0E3FB6843454675635B
:100CE000A2AD08220021B061280005F099FD3E2345
:100CF0005EAD34627462F454356302254046B587B4
:100D00000CF00AFE3C230500F05C08F0C9FB6843C8
:100D1000AAAD08220021B0637765280005F080FDA8
:100D20005E2360AD346474640220F45435655C2540
:100D3000705338000CF0F0FD0700705D08F0B0FB58
:100D40007843139D08227567B2AD0021B065280075
:100D500005F066FD7E2362AD346674660227F454A6
:100D600035677C25139877530CF0D6FD0700705D2E
:100D700008F096FB94237843169F0021B067082261
:100D8000F750BAA805F04CFD80230122F45004333B
:100D9000F4501A33F45420350E3B75A8F0507253BA
:100DA00038000CF0B9FDB8460700705D08F078FB1C
:100DB00098237843F05040460CF0AEFD0E9A7AAF7F
:100DC00023CA23C73B0003CA03C37AA80CF01AFE48
:100DD0000E9B71AD1433070003CB03C571A80CF053
:100DE00011FE050050460CF03BFA86A83200514631
:100DF00002900523584603940195009708F080FB64
:100E000000220021584608F0CFFB012801D003F052
:100E100078FB01230B9A0D9912780B700C9B1B68C1
:100E2000002A01D003F0F0FB002201339AE0C04613
:100E3000ECFBFFFFF43901108C1B00201E51002039
:100E40001D510020881B0020804A0110A03801108D
:100E5000143A0110583A0110683A0110843A01100E
:100E6000A03A0110C03A0110DC3A0110F83A011022
:100E7000103B01103C3B0110683B0110004B01107E
:100E8000903B0110BC3B0110D43B0110EC3B011026
:100E9000083C0110243C01103C3C01104C3C01106A
:100EA000643C0110804B01107C3C0110943C01100B
:100EB000AC3C0110CC3C0110EC3C0110004C01108A
:100EC000043D01101C3D0110343D0110543D011042
:100ED000803D0110A83D0110E03D0110804C011043
:100EE000083E0110283E0110483E0110683E0110E6
:100EF0008C3E0110B03E0110D43E0110F83E0110AE
:100F0000004D01101C3F0110403F0110643F0110D3
:100F1000783F0110204101103041011010390110BB
:100F200050390110C039011088390110A03F01105B
:100F3000C83F0110F03F01100C400110804D01101E
:100F4000284001104C4001106C40011094400110E9
:100F5000A8400110C4400110D8400110EC4001101D
:100F6000044101100C9951980B604B461B686EAD03
:100F70009B184A4613600CF0BDFC0E9F0D9B0B9A0C
:100F80001C703B001470143303CB03C53B0071ADE0
:100F90003C3303CB03C53B0075AD3C3303CB03C5EA
:100FA0003B007AAD3C3303CB03C53B0080AD4433FB
:100FB00003CB03C53B0052464C3323CB23C21B68F3
:100FC0000125136003203B00689065956B955C33A9
:100FD00086AF03CB03C718220021584605F020FC3A
:100FE00086A8079080A805906BA8049068A8039035
:100FF00065A8029050460190584600907AA80300D8
:1010000075A8020071A801000994089506966EA8BB
:10101000FFF77AFA0D9B0B9A1D701378002B01D005
:1010200003F08BF900220C990B6801330C9952984C
:101030000B604B461B6871AD9B184A4613600CF061
:1010400059FC0B9A0D9B14700E9A1C7013001433EC
:1010500003CB03C5130075AD3C3303CB03C51300AD
:101060007AAD3C3303CB03C5130080AD3C3303CBD7
:1010700003C5012713005246869787944C3323CB30
:1010800023C21B68032013600A23182268930021DF
:101090006B9058466E9705F0C3FB65A8079086A82D
:1010A00005906EA804906BA8039068A80290504623
:1010B00001905846009080A803007AA8020075A805
:1010C000010009940897069671A8FFF71DFA0D9B79
:1010D0000B9A1F701378002B01D003F029F900221E
:1010E0000C990B6801330C991B980B604B461B68DD
:1010F0006EAD9B184A4613600CF0FCFB0E9F0D9BD7
:101100000B9A1C703B001470143303CB03C53B00D7
:1011100071AD3C3303CB03C53B0075AD3C3303CB12
:1011200003C53B007AAD3C3303CB03C53B0080AD28
:10113000443303CB03C53B0052464C3323CB23C27D
:101140001B680320136003235B42012565933B006A
:1011500068906B955C3386AF03CB03C718220021E0
:10116000584605F05DFB86A8079080A805906BA8FF
:10117000049068A8039065A80290504601905846D4
:1011800000907AA8030075A8020071A801000994D4
:10119000089506966EA8FFF7B7F90D9B0B9A1D7080
:1011A0001378002B01D003F0BEF800220C990B68D5
:1011B00001330C991C980B604B461B686EAD9B1855
:1011C0004A4613600CF096FB0E9F0D9B0B9A1C7009
:1011D0003B001470143303CB03C53B0071AD3C33AB
:1011E00003CB03C53B0075AD3C3303CB03C53B00CC
:1011F0007AAD3C3303CB03C53B0080AD643303CBF6
:1012000003C53B0052464C3323CB23C21B6803204B
:10121000136005235B42012565933B0068906B9545
:101220006C3386AF23CB23C718220021584605F024
:10123000F7FA86A8079080A805906BA8049068A884
:10124000039065A8029050460190584601250090F1
:101250007AA8030075A8020071A8010009940895F6
:1012600006966EA8FFF750F90D9B0B9A1D70137828
:10127000002B01D003F052F800220C990B680133C7
:101280000C991D980B604B461B6871AD9B184A4624
:1012900013600CF02FFB0E9A0B9B0D9F1C7013001C
:1012A0003C70143303CB03C5130075AD3C3303CB43
:1012B00003C513007AAD3C3303CB03C5130080ADE7
:1012C0003C3303CB03C5130086AD3C3303CB03C5CE
:1012D000130052464C3323CB23C21B6801251360F5
:1012E00002235B42689380231822DB0500215846C5
:1012F0006E9365956B9505F093FA6EAA079286AA90
:1013000005926BAA049268AA039265AA02925246B9
:1013100001925A4675A8009280AA13000100099410
:10132000089506967AAA71A8FFF7EEF80B9B3D7018
:101330001B78002B01D003F028F800220C990B68D1
:1013400001330C991E980B604B461B686EAD9B18C1
:101350004A4613600CF0CEFA0E9F0D9B0B9A1C7040
:101360003B001470143303CB03C53B0071AD3C3319
:1013700003CB03C53B0075AD3C3303CB03C53B003A
:101380007AAD3C3303CB03C53B0080AD643303CB64
:1013900003C53B0052464C3323CB23C21B680125B7
:1013A000136003235B426593083368933B006B959E
:1013B000783386AF23CB23C718220021584605F087
:1013C0002FFA86A8079080A805906BA8049068A8BB
:1013D000039065A802905046019058460125009060
:1013E0007AA8030075A8020071A801000994089565
:1013F00006966EA8FFF788F80D9B0B9A1D70137860
:10140000002B01D002F0BCFF00220C990B680133C5
:101410000C991F980B604B461B686EAD9B184A4693
:1014200013600CF067FA0E9F0D9B0B9A1C703B002B
:101430001470143303CB03C53B0071AD3C3303CBB5
:1014400003C53B0075AD3C3303CB03C53B007AAD10
:101450003C3303CB03C53B0080AD643303CB03C5F2
:101460003B0052464C3323CB23C21B68032013603E
:1014700001223B00659268906B926C3386AF23CB60
:1014800023C75846026044608460C46004610475E8
:1014900086A8079080A805906BA8049068A8039080
:1014A00065A80290504601905846150000907AA811
:1014B000030075A80892020071A8010006966EA8A4
:1014C0000994FFF721F80D9B0B9A1D701378002BE0
:1014D00001D002F050FF00220C990B6801330C99E7
:1014E00024980B604B461B6871AD9B184A461360ED
:1014F0000CF000FA0E9A0B9B0D9F1C7013003C70B1
:10150000143303CB03C5130075AD3C3303CB03C5C4
:1015100013007AAD3C3303CB03C5130080AD3C33DD
:1015200003CB03C5130086AD3C3303CB03C51300C7
:1015300052464C3323CB23C21B6800211360022385
:1015400001225B426593013B68935242E04B6B92F0
:10155000584619326E9305F063F96EAA079286AA6F
:1015600005926BAA049268AA039265AA0292524657
:1015700001925A460125009275A880AA1300010025
:101580000994089506967AAA71A8FEF7BDFF0B9BF1
:101590003D701B78002B01D002F0E8FE00220C9970
:1015A0000B6801330C9925980B604B461B6871AD95
:1015B0009B184A4613600CF09DF90E9A0B9B0D9FE9
:1015C0001C7013003C70143303CB03C5130075ADBE
:1015D0003C3303CB03C513007AAD3C3303CB03C5C7
:1015E000130080AD3C3303CB03C5130086AD3C3301
:1015F00003CB03C5130052464C3323CB23C21B68D5
:101600000021136005230222659381236892033A27
:10161000DB056B92584619326E9305F001F96EAAFC
:10162000079286AA05926BAA049268AA039265AAF9
:101630000292524601925A460125009275A880AA4C
:10164000130001000994089506967AAA71A8FEF77E
:101650005BFF0B9B3D701B78002B01D002F081FEDD
:1016600000220C990B6801330C9926980B604B46AD
:101670001B686EAD9B184A4613600CF03BF90E9A3E
:101680000B9B0D9F1C7013003C70143303CB03C5E0
:10169000130071AD3C3303CB03C5130075AD3C3370
:1016A00003CB03C513007AAD3C3303CB03C5130052
:1016B00080AD443303CB03C5130052464C3323CBD8
:1016C00023C21B6801251360022204236592033A9A
:1016D0006B92119A5B426893131D86AA03CB03C2D7
:1016E00018220021584605F09BF886AA079280AA86
:1016F00005926BAA049268AA039265AA02925246C6
:1017000001925A4671A800927AAA13000100099426
:101710000895069675AA6EA8FEF7F6FE0B9B3D701F
:101720001B78002B01D002F017FE00220C990B68E9
:1017300001330C9927980B604B461B686EAD9B18C4
:101740004A4613600CF0D6F80E9A0B9B0D9F1C7046
:1017500013003C70143303CB03C5130071AD3C334D
:1017600003CB03C5130075AD3C3303CB03C5130096
:101770007AAD3C3303CB03C5130080AD443303CBB8
:1017800003C5130052464C3323CB23C21B680125EB
:1017900013600122032352426B92119A5B426593BC
:1017A0000C32023B6893130086AA03CB03C21822B3
:1017B0000021584605F034F886AA079280AA0592BF
:1017C0006BAA049268AA039265AA029252460192F9
:1017D0005A4671A800927AAA13000100099408954C
:1017E000069675AA6EA8FEF78FFE0B9B3D701B78C0
:1017F000002B01D002F0ABFD00220C990B680133E5
:101800000C9928980B604B461B686EAD9B184A4696
:1018100013600CF06FF80E9F0D9B0B9A1C703B0031
:101820001470143303CB03C53B0071AD3C3303CBC1
:1018300003C53B0075AD3C3303CB03C53B007AAD1C
:101840003C3303CB03C53B0080AD643303CB03C5FE
:101850003B0052464C3323CB23C21B68032013604A
:1018600001223B00659268906B92783386AF23CB60
:1018700023C75846426004608460C46004610475F4
:1018800086A8079080A805906BA8049068A803908C
:1018900065A80290504601905846150000907AA81D
:1018A000030075A80892020071A8010006966EA8B0
:1018B0000994FEF729FE0D9B0B9A1D701378002BDF
:1018C00001D002F03FFD00220C990B68013301E0CA
:1018D000000040400C992D980B604B461B686EAD84
:1018E0009B184A4613600CF005F80E9A0B9B0D9F4F
:1018F0001C7013003C70643303CB03C5130071AD3F
:101900003C3303CB03C5130075AD3C3303CB03C598
:1019100013007AAD3C3303CB03C5130080AD6433B1
:1019200003CB03C5130086AA6C3323CB23C2012249
:10193000042352425B42659268936B92119A14326F
:101940001300524623CB23C218220021584604F02C
:1019500067FF5246079280AA05926BAA049268AA72
:10196000039265AA029286AA01925A460125009224
:1019700071A87AAA1300010009940895069675AA21
:101980006EA8FEF7C1FD0B9B3D701B78002B01D0AC
:1019900002F0B2FD00220C990B6801330C992E98CD
:1019A0000B604B461B6871AD9B184A4613600BF0E9
:1019B000A1FF0E9A0B9B0D9F1C7013003C704433CB
:1019C00003CB03C5130075AD3C3303CB03C5130034
:1019D0007AAD3C3303CB03C5130080AD3C3303CB5E
:1019E00003C5130086AD3C3303CB03C51300524639
:1019F0004C3323CB23C21B680021136002226B925D
:101A0000FE22042392056E9258461822689365942C
:101A100004F006FF6EAA079286AA05926BAA0492AA
:101A200068AA039265AA0292524601925A4601257B
:101A3000009275A880AA13000100099408950696E3
:101A40007AAA71A8FEF760FD0B9B3D701B78002BF6
:101A500001D002F04CFD00220C990B6801330C9967
:101A60002F980B604B461B686EAD9B184A4613605F
:101A70000BF040FF0E9A0B9B0D9F1C7013003C70E7
:101A8000643303CB03C5130071AD3C3303CB03C5F3
:101A9000130075AD3C3303CB03C513007AAD3C3363
:101AA00003CB03C5130080AD443303CB03C5130040
:101AB00052464C3323CB23C21B68012513600322FB
:101AC0006892013A6B92119A65942032130086AAAB
:101AD00003CB03C218220021584604F0A1FE86AAB7
:101AE000079280AA05926BAA049268AA039265AA3B
:101AF0000292524601925A4671A800927AAA1300A5
:101B0000010009940895069675AA6EA8FEF7FCFCDC
:101B10000B9B3D701B78002B01D002F0E3FC0022F0
:101B20000C990B6801330C9930980B604B461B687D
:101B30007AAF9B184A4613600BF0DCFE0B9A0D9BA4
:101B40001470119A1C701300283323CB23C70E9DE9
:101B500065AF2B00443303CB03C72B0068AF44337E
:101B600003CB03C72B000E9544336BAF03CB03C7E6
:101B700013001700283380AA23CB23C23B0086AA78
:101B8000343323CB23C223CB23C23B003A006E94D1
:101B90006F944C3371AF03CB03C70E9B34323C338D
:101BA00075AD03CB03C55746130023CB23C73A00BB
:101BB00023CB23C218220021300004F031FE50460E
:101BC000079058460125069080A8059075A80490B6
:101BD00071A803906EA8029086A801906BA80300DC
:101BE00068A8020065A801000994089500967AA8E3
:101BF000FEF78AFC0D9B0B9A1D701378002B01D009
:101C000002F06BFC00220C990B6801330C9931989F
:101C10000B604B461B6880AF9B184A4613600BF065
:101C200069FE0B9A0D9B1470119A1C7013002833D7
:101C300023CB23C70E9D65AF2B00443303CB03C7D3
:101C40002B0068AF443303CB03C72B000E954433FE
:101C50006BAF03CB03C713001700543386AA23CB03
:101C600023C23B005246343323CB23C223CB23C2AF
:101C700001253B003A006E956F94603371AF03CB42
:101C800003C70E9B68323C3375AF03CB03C7130009
:101C90007AAF03CB03C718220021300004F0C0FD47
:101CA0007AA807905846069086A8059075A80490D3
:101CB00071A803906EA80290504601906BA8030093
:101CC00068A8020065A8010009940895009680A8FC
:101CD000FEF71AFC0D9B0B9A1D701378002B01D098
:101CE00002F0F6FB00220C990B6801330C99329834
:101CF0000B604B461B6880AF9B184A4613600BF085
:101D0000F9FD0B9A0D9B1470119A1C701300283367
:101D100023CB23C70E9D65AF2B00443303CB03C7F2
:101D20002B0068AF443303CB03C72B006BAD4433A8
:101D300003CB03C513001700543386AA23CB23C259
:101D40003B005246343323CB23C223CB23C23B0078
:101D50006E946F944C3371AD03CB03C53B0075ADEE
:101D60006033203703CB03C53B007AAD03CB03C5FB
:101D700018220021300004F053FD7AA8079058463D
:101D8000069086A8059075A8049071A803906EA887
:101D900002905046012501906BA8030068A802003C
:101DA00065A8010009940895009680A8FEF7ACFB91
:101DB0000D9B0B9A1D701378002B01D002F083FB52
:101DC00000220C990B6801330C9933980B604B4639
:101DD0001B687AAF9B184A4613600BF08BFD0B9A79
:101DE0000D9B1470119A1C701300283323CB23C74A
:101DF0000E9D65AF2B00443303CB03C72B0068AFA8
:101E0000443303CB03C72B006BAD443303CB03C573
:101E100013001700703380AA23CB23C23B00524625
:101E2000343323CB23C223CB23C23B006EAD7C33A0
:101E300003CB03C50F9A71AD131D03CB03C513006C
:101E400075AD0C3303CB03C5130086AF143323CB1E
:101E500023C718220021300004F0E2FC86A8079076
:101E60005846069080A8059075A8049071A8039024
:101E70006EA802905046012501906BA8030068A847
:101E8000020065A801000994089500967AA8FEF75B
:101E90003BFB0D9B0B9A1D701378002B01D002F0B9
:101EA0000DFB00220C990B6801330C9934980B60E0
:101EB0004B461B687AAF9B184A4613600BF01AFD1D
:101EC0000B9A0D9B1470119A1C701300283323CBAE
:101ED00023C70E9F65AD3B00443303CB03C53B00D6
:101EE00068AD443303CB03C53B000E9744336BAD61
:101EF00003CB03C50F9B80AF203323CB23C7130035
:101F000017005246343323CB23C223CB23C20125EF
:101F10003B006E956F94603371AF03CB03C70E9B8C
:101F200075AF3C3303CB03C70F9B86AF2C3323CB5A
:101F300023C701251B6886A83B6035607460B460C8
:101F4000F4603461347507905846069080A8059077
:101F500075A8049071A803906EA802905046019055
:101F60006BA8030068A8020065A801000994089501
:101F700000967AA8FEF7C8FA0D9B0B9A1D7013788D
:101F8000002B01D002F095FA00220C990B68013366
:101F90000C9935980B604B461B687AAF9B184A46E4
:101FA00013600BF0A7FC0B9A0D9B1470119A1C7018
:101FB0001300283323CB23C70E9D65AF2B0044337A
:101FC00003CB03C72B0068AF443303CB03C72B00FD
:101FD0000E9544336BAF03CB03C713001700703368
:101FE00080AA23CB23C23B005246343323CB23C2E7
:101FF00023CB23C201223B006E926F94603371AFFA
:1020000003CB03C70E9B75AD3C3303CB03C50F99C0
:1020100086AF3C310B0023CB23C70220706086A81B
:102020003460B460F46034613475079058460690AB
:1020300080A8059075A8049071A803906EA80290DE
:102040005046150001906BA8030068A80892020092
:1020500065A80100099400967AA8FEF755FA0D9B31
:102060000B9A1D701378002B01D002F01DFA00228C
:102070000C990B6801330C9936980B604B461B6822
:102080007AAF9B184A4613600BF034FC0B9A0D9BF9
:102090001470119A1C701300283323CB23C70E9D94
:1020A00065AF2B00443303CB03C72B0068AF443329
:1020B00003CB03C72B006BAD443303CB03C5130025
:1020C0001700703380AA23CB23C23B00524634331F
:1020D00023CB23C223CB23C20F9A6EAD1300483308
:1020E00003CB03C5131D71AD03CB03C53B0075AD19
:1020F0007C3303CB03C5130086AF143323CB23C734
:102100000220306086A87460B460F4603461347575
:1021100007905846069080A8059075A8049071A86D
:1021200003906EA802905046012501906BA8030011
:1021300068A8020065A801000994089500967AA88D
:10214000FEF7E2F90D9B0B9A1D701378002B01D05E
:1021500002F0A5F900220C990B6801330C9937980D
:102160000B604B461B6880AF9B184A4613600BF010
:10217000C1FB0B9A0D9B1470119A1C70130028332D
:1021800023CB23C70E9D65AF2B00443303CB03C77E
:102190002B0068AF443303CB03C72B006BAD443334
:1021A00003CB03C513001700543386AA23CB23C2E5
:1021B0003B005246343323CB23C223CB23C20F9A96
:1021C0006EAD1300483303CB03C5130071AD50331C
:1021D00003CB03C53B0075AD7C3303CB03C51300B4
:1021E0007AAD583303CB03C5022070607AA83460FF
:1021F000B460F460346134750994079058460690D1
:1022000086A8059075A8049071A803906EA8029006
:102210005046012501906BA8030068A8020065A83C
:1022200001000895009680A8FEF76EF90D9B0B9AA9
:102230001D701378002B01D002F02CF900220C99AC
:102240000B6801330C9938980B604B461B6865AFDF
:102250009B184A4613600BF04DFB0D9B0B9A1C70AC
:102260000F9B147060337AAA23CB23C219681160C4
:102270000E990A00643221CA21C70A0068AF64328D
:1022800021CA21C70A006BAF643221CA21C70F9A45
:1022900080A96032A1CAA1C152461B6871AF0B6010
:1022A0000F9B703323CB23C223CB23C223CB23C268
:1022B00023CB23C2109A6E94130020336F94709432
:1022C00023CB23C7130075AF2C3323CB23C7370091
:1022D0000F9B703323CB23C73A0023CB23C223CBDE
:1022E00023C223CB23C21822002186A804F098FA27
:1022F0005846069080A8059075A8049071A8039090
:102300006EA8029050460125019086A800906BA807
:10231000030068A8020065A80100099408950796C3
:102320007AA8FEF7F1F80D9B0B9A1D701378002B1D
:1023300001D002F0AAF800220C990B6801330C9925
:1023400039980B604B461B6865AF9B184A46136073
:102350000BF0D0FA0D9B0B9A1C700F9B147060331E
:102360007AAA23CB23C2196811600E990A0064323D
:1023700021CA21C70A0068AF643221CA21C70A00F6
:102380006BAF643221CA21C70F9A80A96032A1CAFB
:10239000A1C152461B6871AF0B600F9B703323CBFA
:1023A00023C223CB23C223CB23C223CB23C2109A25
:1023B0006E94130020336F94709423CB23C71300C3
:1023C00075AF2C3323CB23C737000F9B703323CB40
:1023D00023C73A0023CB23C223CB23C223CB23C260
:1023E0001822002186A804F01BFA5846069080A8FF
:1023F000059075A8049071A803906EA802905046AD
:102400000125019086A800906BA8030068A802002F
:1024100065A801000994089507967AA8FEF774F854
:102420000D9B0B9A1D701378002B01D002F028F839
:1024300000220C990B6801330C993A980B604B46BB
:102440001B689B184A4613600BF054FA0F9F0D9BB4
:102450000B9A1C703B001470603380AA23CB23C2FC
:102460001B6865AD13600E9A1300643303CB03C57C
:10247000130068AD643303CB03C513006BAD643345
:1024800003CB03C5109B86AA383323CB23C21B681A
:1024900013603B0032000F97703323CB23C223CB52
:1024A00023C223CB23C223CB23C2109A75AF1300C0
:1024B000203371947294739423CB23C70F9F2037DA
:1024C0003B007AAF23CB23C713006EAD483303CB59
:1024D00003C518220021504604F0A2F96EA8079007
:1024E0005846069086A805907AA8049075A803908F
:1024F00071A802905046012500906BA8030068A8BF
:10250000020065A8010009940895019680A8FDF7CE
:10251000FBFF0D9B0B9A1D701378002B01D001F06F
:10252000AAFF00220C990B6801330C993B980B60B1
:102530004B461B6865AF9B184A4613600BF0DAF9EF
:102540000D9B0B9A1C700F9B147060337AAA23CBDF
:1025500023C2196811600E990A00643221CA21C78A
:102560000A0068AF643221CA21C70A006BAF643227
:1025700021CA21C70F9A80A96032A1CAA1C15246BF
:102580001B6871AF0B600F9B703323CB23C223CB2F
:1025900023C223CB23C223CB23C2109A6E941300F1
:1025A00020336F94709423CB23C7130075AF2C3363
:1025B00023CB23C737000F9B703323CB23C73A00AD
:1025C00023CB23C223CB23C223CB23C21822002137
:1025D00086A804F025F95846069080A8059075A8AD
:1025E000049071A803906EA80290504601250190B6
:1025F00086A800906BA8030068A8020065A80100E7
:102600000994089507967AA8FDF77EFF0D9B0B9A13
:102610001D701378002B01D001F028FF00220C99C7
:102620000B6801330C993C980B604B461B6875ADE9
:102630009B184A4613600BF05DF90E9A0B9B0D9F99
:102640001C7013003C70143303CB03C513007AAD28
:102650003C3303CB03C5130080AD3C3303CB03C530
:10266000130086AA3C3303CB03C2109A6594503200
:102670001300524623CB23C21B680125136001229D
:10268000524268925A466B94146054609460D460CD
:102690001561147571AA079265AA05926EAA049233
:1026A0006BAA039268AA0292524601925A46E74BDD
:1026B00000927AA886AA01007193099413000895E4
:1026C000069680AA75A86E95FDF71EFF0B9B3D70C0
:1026D0001B78002B01D001F0C4FE00220C990B687E
:1026E00001330C993D980B604B461B6886AF9B18D5
:1026F0004A4613600BF0FEF80B9A0D9B1470109A6B
:102700001C701300603323CB23C70E9F6BAD3B00BF
:10271000443303CB03C53B006EAD443303CB03C549
:102720003B0071AD443303CB03C5130010925246F6
:102730006594503323CB23C21B6875AD1360109B87
:102740006C3303CB03C501203B0040427A907B945D
:102750003C3380AD03CB03C55846032504600561B7
:1027600044608460C460047568A8079065A80590FB
:1027700080A804907AA8039075A802905046802300
:1027800001905846DB05009071A8689303006EA87D
:1027900002006BA80100023D86A8099408950696E0
:1027A000FDF7B2FE0D9B0B9A1D701378002B01D024
:1027B00001F052FE00220C990B6801330C993E98EF
:1027C0000B604B461B6880AF9B184A4613600BF0AA
:1027D00091F80B9A0D9B1470109A1C7013006033C3
:1027E00023CB23C70E9F65AD3B00443303CB03C50A
:1027F0003B0068AD443303CB03C53B006BAD4433B2
:1028000003CB03C53B006EAD143303CB03C51300EC
:102810001092503386AA23CB23C21968012011607D
:102820003A005146404272907194759476943C32CD
:102830007AAF21CA21C7109A5032A1CAA1C15F46FE
:102840001B680B60109B743323CB23C73A0023CB48
:1028500023C2504607906EA805907AA8049075A8E8
:10286000039071A8029086A8019058460125009017
:102870006BA8030068A8020065A8010009940895E8
:10288000069680A8FDF740FE0D9B0B9A1D701378ED
:10289000002B01D001F0DBFD00220C990B68013305
:1028A0000C993F980B604B461B6875AD9B184A46C8
:1028B00013600BF01FF80B9A0D9B14700E9A1C708E
:1028C0001300143303CB03C513007AAD3C3303CBA1
:1028D00003C5130080AD3C3303CB03C5130086ADA5
:1028E0003C3303CB03C50F995F4670310B006594F1
:1028F00023CB23C73A0023CB23C223CB23C223CB32
:1029000023C21299FE2001270C310B0032008005F2
:10291000719068976B976E9723CB23C223CB23C20A
:1029200071A8099407905046069065A805906EA876
:1029300004906BA8039068A802905846019086A85E
:10294000030080A802007AA801000897009675A8E5
:10295000FDF7DAFD0D9B0B9A1F701378002B01D049
:1029600001F070FD00220C990B6801330C9940981E
:102970000B604B461B6880AF9B184A4613600AF0F9
:10298000B9FF0B9A0D9B1470119A1C701300283319
:1029900023CB23C70E9F65AD3B00443303CB03C558
:1029A0003B0068AD443303CB03C53B006BAD443300
:1029B00003CB03C53B006EAD643303CB03C51300EB
:1029C0005246343323CB23C223CB23C23B00719422
:1029D0007294643375AD03CB03C53B007AAD6C379D
:1029E0003C3303CB03C53B0086AF23CB23C75846FC
:1029F0000125046044608460C4600561047586A894
:102A000007906EA809940895069605907AA80490F8
:102A100075A8039071A80290504601905846009006
:102A20006BA8030068A8020065A8010080A8FDF754
:102A30006BFD0D9B0B9A1D701378002B01D001F0DC
:102A4000FCFC00220C990B68013301E000004040BF
:102A50000C9941980B604B461B6886AF9B184A4601
:102A600013600AF047FF0B9A0D9B1470119A1C70AB
:102A70001300283323CB23C70E9F65AD3B0044339F
:102A800003CB03C53B0068AD443303CB03C53B0018
:102A90006BAD443303CB03C53B006EAD443303CB76
:102AA00003C513005246343323CB23C223CB23C2A6
:102AB000129A719413007294243375AD03CB03C53D
:102AC0003B007AAD3C3303CB03C5130080AD2C3300
:102AD00003CB03C558460225046005614460846049
:102AE000C460047580A8013D07906EA809940895FC
:102AF000069605907AA8049075A8039071A8029094
:102B000050460190584600906BA8030068A8020048
:102B100065A8010086A8FDF7F7FC0D9B0B9A1D70B8
:102B20001378002B01D001F083FC00220C990B6874
:102B300001330C9942980B604B461B6886AF9B187B
:102B40004A4613600AF0D6FE0B9A0D9B1470119A38
:102B50001C701300283323CB23C70E9F6BAD3B00A3
:102B6000443303CB03C53B006EAD443303CB03C5F5
:102B70003B0071AD443303CB03C51300524665944B
:102B8000343323CB23C223CB23C23B0075947694EA
:102B90003C337AAD3C3703CB03C53B0080AD03CB60
:102BA00003C5FE2080050325689058460561046032
:102BB00044608460C460047568A8079065A80590A7
:102BC00080A804907AA8039075A8029050460190BE
:102BD0005846009071A803006EA802006BA801007F
:102BE000023D86A8099408950696FDF78DFC0D9B7D
:102BF0000B9A1D701378002B01D001F014FC0022F9
:102C00000C990B6801330C9943980B604B461B6879
:102C10009B184A4613600AF06DFE0F9F0D9B0B9A9E
:102C20001C703B001470603380AA23CB23C21B6846
:102C300065AD13600E9A1300643303CB03C5130014
:102C400068AD643303CB03C513006BAD643303CBB2
:102C500003C5109B6EAA203323CB23C23B00370051
:102C6000703323CB23C73A0023CB23C223CB23C209
:102C700023CB23C21299719434310B007294739454
:102C800075AF23CB23C7109B7AAF2C3323CB23C73D
:102C9000119986AF34310B0023CB23C73A0023CBE5
:102CA00023C250460125046044608460C46005610D
:102CB000047586A8079058460994089506906EA852
:102CC00005907AA8049075A8039071A802905046C8
:102CD00000906BA8030068A8020065A80100019697
:102CE00080A8FDF711FC0D9B0B9A1D701378002B2B
:102CF00001D001F093FB00220C990B6801330C9971
:102D000044980B604B461B689B184A4613600AF0B8
:102D1000F1FD0F9F0D9B0B9A1C703B0014706033EC
:102D200080AA23CB23C21B6865AD13600E9A1300E3
:102D3000643303CB03C5130068AD643303CB03C511
:102D400013006BAD643303CB03C53B006EAA703731
:102D5000203323CB23C23B00370023CB23C73A00C9
:102D600023CB23C223CB23C223CB23C2119971943B
:102D700054310B007294739475AF23CB23C7109911
:102D80007AAF2C310B0023CB23C7129986AF403189
:102D90000B0023CB23C7504602251B683B6005610F
:102DA000046044608460C460047586A80790584637
:102DB00006906EA805907AA8049075A8039071A853
:102DC00002905046013D09940895019600906BA829
:102DD000030068A8020065A8010080A8FDF794FB25
:102DE0000D9B0B9A1D701378002B01D001F011FB85
:102DF00000220C990B6801330C9945980B604B46E7
:102E00001B689B184A4613600AF074FD0F9F0D9BC8
:102E10000B9A1C703B001470603386AA23CB23C22C
:102E20001B6865AD13600E9A1300643303CB03C5B2
:102E3000130068AD643303CB03C513006BAD64337B
:102E400003CB03C513006EAD443303CB03C53B0076
:102E50003700703323CB23C73A0023CB23C223CBC5
:102E600023C223CB23C2129A7594130076947794CD
:102E700050337AAF23CB23C7109980AF2C310B008E
:102E800023CB23C7130071AD5C3303CB03C550467E
:102E900003250460056144608460C460047571A802
:102EA0000790584606906EA8059080A804907AA8CE
:102EB000039075A80290504600906BA8030068A884
:102EC000020065A80100023D019686A809940895B4
:102ED000FDF71AFB0D9B0B9A1D701378002B01D088
:102EE00001F092FA00220C990B6801330C99469874
:102EF0000B604B461B689B184A4613600AF0FAFCAD
:102F00000F9F0D9B0B9A1C703B001470603380AABE
:102F100023CB23C21B6865AD13600E9A1300643384
:102F200003CB03C5130068AD643303CB03C51300A3
:102F30006BAD643303CB03C511996EAA28310B0026
:102F400023CB23C23B003700703323CB23C73A0087
:102F500023CB23C223CB23C223CB23C2109A719449
:102F6000130072947394203375AF23CB23C71300DF
:102F70007AAF2C3323CB23C7129986AF64310B0071
:102F800023CB23C73A0023CB23C25046042304603B
:102F9000036144608460C460047586A80790584645
:102FA000012506906EA80994089505907AA80490CA
:102FB00075A8039071A80290504600906BA803007A
:102FC00068A8020065A80100019680A8FDF79CFA98
:102FD0000D9B0B9A1D701378002B01D001F00FFA96
:102FE00000220C990B6801330C9947980B604B46F3
:102FF0001B689B184A4613600AF07CFC0F9F0D9BD0
:103000000B9A1C703B001470603386AA23CB23C23A
:103010001B6865AD13600E9A1300643303CB03C5C0
:10302000130068AD643303CB03C513006BAD643389
:1030300003CB03C513006EAD643303CB03C53B0064
:103040003700703323CB23C73A0023CB23C223CBD3
:1030500023C223CB23C2129971947C310B0072944A
:10306000739475AF23CB23C710997AAF2C310B0023
:1030700023CB23C7159980AF08310B0023CB23C77F
:10308000504605230460036144608460C460047595
:1030900080A80790584606906EA805907AA80490DC
:1030A00075A8039071A802905046012500906BA866
:1030B000030068A8020065A80100019686A809948B
:1030C0000895FDF721FA0D9B0B9A1D701378002BC4
:1030D00001D001F08FF900220C990B6801330C9993
:1030E00048980B604B461B689B184A4613600AF0D1
:1030F00001FC0F9F0D9B0B9A1C703B0014706033FA
:1031000086AA23CB23C21B6865AD13600E9A1300F9
:10311000643303CB03C5130068AD643303CB03C52D
:1031200013006BAD643303CB03C513006EAD4433A2
:1031300003CB03C53B003700703323CB23C73A00D2
:1031400023CB23C223CB23C223CB23C2159A75944E
:1031500013007694779414337AAF23CB23C7109956
:1031600080AF2C310B0023CB23C7130071AD20336C
:1031700003CB03C5504606230460036144608460AA
:10318000C460047571A80790584606906EA8059013
:1031900080A804907AA8039075A802905046012553
:1031A00000906BA8030068A8020065A801000196C2
:1031B00086A809940895FDF7A7F90D9B0B9A1D7039
:1031C0001378002B01D001F010F900220C990B6844
:1031D00001330C9949980B604B461B689B184A4673
:1031E00013600AF087FB0F9F0D9B0B9A1C703B002E
:1031F0001470603386AA23CB23C21B686BAD1360A7
:103200000E9A1300643303CB03C513006EAD643311
:1032100003CB03C5130071AD643303CB03C53B007F
:1032200037006594703323CB23C73A0023CB23C2E6
:1032300023CB23C223CB23C2109A75941300769418
:1032400077942C337AAF23CB23C7130080AF2C3372
:1032500023CB23C7FE2080050723689050460361D7
:10326000046044608460C460047568A80790584690
:10327000069065A8059080A804907AA8039075A888
:10328000029050460125009071A803006EA802002C
:103290006BA8010009940895019686A8FDF734F9FA
:1032A0000D9B0B9A1D701378002B01D001F098F83C
:1032B00000220C990B6801330C994A980B604B461D
:1032C0001B687AAF9B184A4613600AF013FB0B9AEF
:1032D0000D9B1470119A1C701300283323CB23C745
:1032E0000E9F65AD3B00443303CB03C53B0068AD87
:1032F000443303CB03C53B000E9744336BAD03CB84
:1033000003C50F9B80AF203323CB23C713001700C7
:103310005246343323CB23C223CB23C201253B00A7
:103320006E956F94603371AF03CB03C70E9B75AF7F
:103330003C3303CB03C70F9B86AF2C3323CB23C770
:10334000012502201B683B6035607460B460F46046
:1033500034613475089086A807905846069080A876
:10336000059075A8049071A803906EA8029050462D
:1033700001906BA8030068A8020065A801000994E9
:1033800000967AA8FDF7C0F80D9B0B9A1D70137874
:10339000002B01D001F01FF800220C990B680133BB
:1033A0000C994B980B604B461B689B184A46136060
:1033B0000AF0A0FA0D9B7AAA1C700B9B1C700F9B45
:1033C000603323CB23C21B6813600E9F5CAA3B00B3
:1033D000643303CB03C23B00643303CB03C23B0023
:1033E0000E97643303CB03C2109A65AF13002033EA
:1033F00023CB23C73B004C9F2C3223CF23C3129BEC
:103400006B946C946D9434336EAF23CB23C713004D
:103410003A0023CB23C24D9AEC20136850A95A934B
:10342000938850AA938501220918869487948894DA
:103430007AA889948A920C700AF0E4FA07005CA8D2
:103440000AF0E0FA05005EA80AF0DCFA60A916901E
:1034500008000AF0D7FA65A9804608000AF0D2FAF7
:103460009AAB0822002113907761180003F0D8F975
:1034700068A9316109213800B18334607460B47780
:103480000AF04AFA0700307F06F00AF8FE239B058F
:103490000122B3603F2378430021B061F3603260C2
:1034A000756307327460A2A803F0BAF902213E23C3
:1034B0006BA834627462F454B187306328000F0043
:1034C0000AF02AFA3C230500F05C05F0E9FF6843A6
:1034D000169D08220021B0637565AAA803F0A0F923
:1034E0005E236EAD34647464F45435655C251698BF
:1034F00077530AF011FA0700705D05F0D1FF4546D9
:10350000784308220021B0657567B2A803F088F9F6
:103510007E2371AD022134667466F45435677C25D0
:10352000404671530AF0F8F90700705D05F0B8FFE6
:1035300094237843139F0822B0670021F750BAA85C
:1035400003F06EF980209E23083534508046745174
:1035500075A8F4540E3BF05009219C2031523800DC
:1035600013970AF0D9F907009C20305C05F098FF0A
:103570009823FE2178438905F050103BF1503F21FC
:103580000433F150012241461398725074510AF0ED
:10359000C3F90E9F80AB3A00804623CA23C303CAF7
:1035A00003C380A80AF02EFA3B0062AA1433050078
:1035B00003CB03C262A80AF025FA0700504609F0BF
:1035C0004FFE86AB320051460293584605230394C2
:1035D0000197009505F094FF00220021584605F060
:1035E000E3FF002801D000F0A9FF584606F030F8AC
:1035F000002801D000F096FF4346002B4CDD50AA76
:103600009446292375AD42466344AC466244139206
:10361000012290464A4699461A9213E04346D81B27
:1036200002F0E6FFC34902F0DDFF002818D1139B2A
:103630000135AB422ED04B461B785BB29846012336
:103640009C46E1440027EF57B845E7DCEFD04346FE
:10365000F81A02F0CDFFB74902F0C4FF0028E6D007
:10366000404602F071FC37230393149B1690179188
:103670003800029302F068FC169A179B00900191A3
:1036800018980AF037F901220B9B01351A70139B29
:10369000AB42D0D11A9B9946584605F07FFF0028CF
:1036A00001D100F0A2FF01210B9B1A780D9B19702C
:1036B0000C9B1B68002A01D000F0AEFF00220133F2
:1036C0000C994E980B604B461B689B184A4613603A
:1036D0000AF010F90D9B71AA1C700B9B1C700F9BBC
:1036E000603323CB23C21B6813600E9F5AAA3B0092
:1036F000643303CB03C23B00643303CB03C23B0000
:103700000E97643303CB03C2109F62AA3B002033A1
:1037100023CB23C2159B7AAA283323CB23C223CBE6
:1037200023C2129A6594343213006694679468AA8F
:1037300023CB23C23B002C3323CB23C2159B403326
:1037400023CB23C2EC20012250A909188A92869427
:1037500087948894899471A80C700AF053F9070033
:103760005AA80AF04FF905005CA80AF04BF95EA9C7
:10377000169008000AF046F962A9804608000AF08F
:1037800041F99AAB0822002113907761180003F0E9
:1037900047F87AA9316107213800B1833460746039
:1037A000B4770AF0B9F80700307F05F079FEFE2300
:1037B000012278439B05B3605F4B0021B061F36049
:1037C0003260756307327460A2A803F029F8022101
:1037D0003E2365A834627462F454B18730632800D4
:1037E0000F000AF099F83C230500F05C05F058FE44
:1037F0006843169D08220021B0637565AAA803F0EE
:103800000FF85E2368AD34647464F45435655C2548
:10381000169877530AF080F80700705D05F040FEB7
:103820004546784308220021B0657567B2A802F0CA
:10383000F7FF7E236BAD022134667466F45435675E
:103840007C25404671530AF067F80700705D05F06B
:1038500027FE94237843139F0822B0670021F75076
:10386000BAA802F0DDFF80209E2308353450804640
:10387000745180A8F4540E3BF05007219C20315223
:10388000380013970AF048F807009C20305C05F0D8
:1038900007FE9823FE2178438905F050103BF15034
:1038A00025490433F1500122414613987250745156
:1038B0000AF032F80E9F75AB3A00804623CA23C344
:1038C00003CA03C375A80AF09DF83B0060AA14332D
:1038D000050003CB03C260A80AF094F80700504625
:1038E00009F0BEFC86AB32005146029358460523D0
:1038F00003940197009505F003FE0022002158462D
:1039000005F052FE002801D000F063FE584605F095
:103910009FFE002801D000F03AFE4346002B51DD07
:103920006EADAC465B00634413934B4680AA904651
:103930001A9313E0ACC52737FF3F00004B46D81B56
:1039400002F056FE1D4902F04DFE002818D1022358
:103950009C46139B0235E044AB4231D00022AB5E63
:10396000994643460027DF5FB945E7DCEFD04B4679
:10397000F81A02F03DFE114902F034FE0028E6D0AC
:10398000484602F0E1FA37230393149B16901791EF
:103990003800029302F0D8FA169A179B0090019112
:1039A000189809F0A7FF01220B9B02351A70022319
:1039B0009C46139BE044AB42D0D101E0ACC5273715
:1039C0001A9B9946584605F0E9FD002801D100F000
:1039D000C1FD01210B9B1A780D9B19700C9B1B6874
:1039E000002A01D000F01BFE002201330C994F98F1
:1039F0000B604B461B6880AF9B184A46136009F06A
:103A000079FF0F990D9B60311C700B000B9A14709D
:103A100023CB23C71B6865AD3B600E9A130064334C
:103A200003CB03C5130068AD643303CB03C5130098
:103A30006BAD643303CB03C5109F6EAA3B002033EC
:103A400023CB23C23200159B4C3323CB23C223CB81
:103A500023C223CB23C223CB23C2129971943431C6
:103A60000B007294739475AA23CB23C23B007AAFE8
:103A70002C3323CB23C7159B86AF7C3323CB23C7A3
:103A80003A0023CB23C25046012504604460846081
:103A9000C4600561047586A80790584606906EA814
:103AA00005907AA8049075A8039071A802905046DA
:103AB00000906BA8030068A8020065A801000196A9
:103AC00080A8FCF7A1FE0D9B0B9A1D701378002BAC
:103AD00001D000F063FC00220C990B6801330C99B3
:103AE00050980B604B461B6880AF9B184A4613608A
:103AF00009F000FF0D9B0B9A1C700F9B1470603334
:103B000023CB23C71B6865AD3B600E9F3B0064332E
:103B100003CB03C53B0068AD643303CB03C53B0057
:103B20006BAD643303CB03C5109A3832130086AAF9
:103B300023CB23C21B681360159932004C310B0054
:103B400023CB23C223CB23C223CB23C223CB23C229
:103B5000109A71942032130075AA7294739423CB37
:103B600023C20F9B7AAA203323CB23C23B006EAD26
:103B7000343303CB03C518220021504602F050FE17
:103B80006EA807905846069086A805907AA80490DB
:103B900075A8039071A80290504600906BA803008E
:103BA00068A8020065A80100019680A8FCF72CFE19
:103BB00001200D9B0B9A18701378002B00D0E9E3BD
:103BC00000220C990B6801330C9920980B604B462E
:103BD0001B689B184A46136009F08CFE0D9B71AA66
:103BE0001C700B9B1C700F9B603323CB23C21B6884
:103BF00013600E9F5CAA3B00643303CB03C23B00FF
:103C0000643303CB03C23B000E97643303CB03C280
:103C1000109F3A003832130075AA23CB23C21B68C9
:103C20005520136050AB9C460B226044002102F0EB
:103C3000F7FD542150AA5118012258200A7050A9AA
:103C400009180A70390020310B00689469946A944D
:103C50006BAF23CB23C70F9B1732203323CB23C754
:103C6000199986A88B8A50A90B85002102F0D8FDEE
:103C7000380009F0C7FE07005CA809F0C3FE5EA982
:103C80001690080009F0BEFE60A90500080009F0C2
:103C9000B9FE75A98046080009F0B4FE9AAB082267
:103CA000002113907761180002F0BAFD65A9316117
:103CB00006213800B18334607460B47709F02CFEBB
:103CC0000700307F05F0ECFBFE2301227843169FAE
:103CD0009B050021B061B360F26032607763073208
:103CE0007460A2A802F09CFD02213E2368A8346201
:103CF0007462F454B1873063380009F00DFE3C2340
:103D00000700F05C05F0CCFB784308220021B0638B
:103D10007565AAA802F084FD5C275E2302216BA8CA
:103D200034647464F4543065F153280009F0F4FDF0
:103D30000500F05D05F0B4FB68434546082200210C
:103D4000B0657567B2A802F06BFD7E236EAD0221EF
:103D500034667466F45435677C254046715309F027
:103D6000DBFD0700705D05F09BFB94237843139FF8
:103D70000822B0670021F750BAA802F051FD802058
:103D80009E2308353450804674517AA8F4540E3B73
:103D9000F05006219C2031523800139709F0BCFDE9
:103DA0009C210700705C05F07BFB9823FE21784383
:103DB0008905F050103BF150012241460433F25086
:103DC00013987250745109F0A7FD0E9F13903A009A
:103DD00080AB23CA23C303CA03C380A809F012FE21
:103DE0003B0062AA1433050003CB03C262A809F0AA
:103DF00009FE0700504609F033FA86AB32005146FF
:103E000002935846052303940197009505F078FB2B
:103E100000220021584605F0C7FB002800D0CDE362
:103E2000584605F015FC002800D0BCE3139B012583
:103E3000002B1BDC38E0404602F082F83723039366
:103E4000149B169017913800029302F079F8169A95
:103E5000179B00900191189809F04CFD01220B9BD3
:103E60001A70139A6B1CAA421ED01D00272250AB59
:103E70009B185B5D8032984650AB9B185F5DB845E0
:103E8000D9D84346F81AB845EBD002F0B1FB054942
:103E900002F0A8FB0028CED1139A6B1CAA42E4D1F1
:103EA00002E0C046ACC52737584605F077FB00282E
:103EB00000D15EE301210B9B1A780D9B19700C9BBE
:103EC0001B68002A00D0ADE3002201330C99219831
:103ED0000B604B461B6875AD9B184A46136009F092
:103EE00009FD0E9A0B9B0D9F1C7013003C70143340
:103EF00003CB03C513007AAD3C3303CB03C51300DA
:103F000080AD3C3303CB03C5130086AD3C3303CBFC
:103F100003C5130055463C3303CB03C513003200E1
:103F20004C3323CB23C21B680021136003235B4265
:103F300065930122013B689380235242DB056B921B
:103F4000584619326E9302F06BFC6EAA079271AA62
:103F50000692524605926BAA049268AA039265AA39
:103F600002925A46012500927AA886AA13000100FF
:103F700009940895019680AA75A8FCF7C5FA0B9BD1
:103F80003D701B78002B00D021E200220C990B68B9
:103F900001330C9922980B604B461B6875AD9B183A
:103FA0004A46136009F0A6FC0E9A0B9B0D9F1C70ED
:103FB00013003C70143303CB03C513007AAD3C33BC
:103FC00003CB03C5130080AD3C3303CB03C5130003
:103FD00086AD3C3303CB03C5130055463C3303CBBE
:103FE00003C5130032004C3323CB23C21B680125C9
:103FF00013600423FE225B429205002165936E92BA
:1040000001331822584668936B9502F009FC6EAA9A
:10401000079271AA0692524605926BAA049268AA68
:10402000039265AA02925A467AA8009286AA1300C1
:10403000010009940895019680AA75A8FCF764FA16
:104040000B9B3D701B78002B00D0BCE100220C992B
:104050000B6801330C9923980B604B461B689B1827
:104060004A46136009F046FC199A0B9B18321C70E3
:10407000130032000D9F3C7023CB23C21B6875AD2B
:1040800013600E9A13003C3303CB03C513007AADC3
:104090003C3303CB03C5130080AA3C3303CB03C2DC
:1040A000129A01255C32130052468695879403CB01
:1040B00003C25A46146055609460D460146114754C
:1040C00086AA059271AA04926EAA03926BAA029222
:1040D000524601925A4675A8009280AA1300010028
:1040E0007AAA30006B956E947195FCF7F3F80B9BF0
:1040F0003D701B78002B00D061E100220C990B6809
:1041000001330C9929980B604B461B6875AD9B18C1
:104110004A46136009F0EEFB0E9A0B9B0D9F1C7034
:1041200013003C703C3303CB03C513007AAD3C3322
:1041300003CB03C5130080AD3C3303CB03C5130091
:1041400086AA3C3303CB03C2012552461560546056
:10415000129A5C321300320003CB03C218220021F2
:1041600058466B956E95719502F05AFB5246059232
:1041700071AA04926EAA03926BAA02925A467AA876
:10418000009286AA13000100019680AA75A8FCF788
:10419000A1F80B9B3D701B78002B00D00BE1002297
:1041A0000C990B6801330C992A980B604B461B68DD
:1041B0007AAD9B184A46136009F09CFB0E9A0B9B44
:1041C0000D9F1C7013003C703C3303CB03C51300E0
:1041D00080AD3C3303CB03C5130086AD3C3303CB2A
:1041E00003C5130052463C3303CB03C2FE22042313
:1041F000012592056E937592033375AA71936894A5
:104200006B9534607460B460F46035613475099501
:1042100007925A46069268AA059271AA04926EAA5B
:1042200003926BAA029280A865AA534601000192EC
:104230000895009686AA7AA8FCF766F90B9B3D7054
:104240001B78002B00D0B2E000220C990B680133E0
:104250000C992B980B604B461B687AAD9B184A460D
:10426000136009F047FB0E9A0B9B0D9F1C70130007
:104270003C703C3303CB03C5130080AD3C3303CB10
:1042800003C5130086AD3C3303CB03C51300524670
:104290003C3303CB03C202220123719268AA33612B
:1042A0006E93759334607460B460F46034756B948D
:1042B0000993089307925A461D0006926BAA05922D
:1042C00075AA049271AA03926EAA029280A865AAA6
:1042D000534601000192009686AA7AA8FCF714F9C9
:1042E0000B9B3D701B78002B5DD100220C99096857
:1042F00001310C9B2C9819604B461B68D2184B4619
:104300001A60521809F0F6FA4B461B68002B00D0D1
:104310007DE1589809F0EEFAFCF78EFC0C9B012227
:104320001B68FCF7ADFF0C9B01221B68FCF741FFEB
:104330000C9B01221B68FCF7D6FE0C9B01221B681C
:10434000FCF774FE0C9B01221B68FDF7C3FA0C9B63
:1043500001221B68FDF754FA0C9B01221B68FDF734
:10436000E8F90C9B01221B68FDF77EF90C9B0122EA
:104370001B68FDF717F90C9B01221B68FDF7AFF8CE
:104380000C9B01221B68FDF743F80C9B01221B6864
:10439000FCF7D7FF0C9B01221B6815E40C9B012244
:1043A0001B68FFF79CFB0C9B01221968A1E70C9B83
:1043B00001221B684CE70C9B01221B68F3E60C9B57
:1043C00001221B689DE60C9B01221B6842E60C9BA8
:1043D00001221B68DDE50C9B01221B68FEF7E0FF54
:1043E0000C9B01221B68FEF767FF0C9B01221B68D8
:1043F000FEF7EFFE0C9B01221B68FEF770FE0C9B84
:1044000001221B68FEF7F0FD0C9B01221B68FEF7E2
:104410006DFD0C9B01221B68FEF7EEFC0C9B01223C
:104420001B68FEF76CFC0C9B01221B68FEF7EBFB84
:104430000C9B01221B68FEF77CFB0C9B01221B6876
:10444000FEF706FB0C9B01221B68FEF78FFA0C9B04
:1044500001221B68FEF724FA0C9B01221B68FEF761
:10446000ADF90C9B01221B68FEF73BF90C9B012266
:104470001B68FEF7D7F80C9B01221B68FEF755F866
:104480000C9B01221B68FDF7D7FF0C9B01221B68C8
:10449000FDF755FF0C9B01221B68FDF7D3FE0C9B1B
:1044A00001221B68FDF75AFE0C9B01221B68FDF7D9
:1044B000E2FD0C9B01221B68FDF76AFD0C9B0122AB
:1044C0001B68FDF7F2FC0C9B01221B68FDF77CFCCE
:1044D0000C9B01221B68FDF709FC0C9B01221B6849
:1044E000FDF794FB0C9B01221B68FDF71CFB0C9B4A
:1044F00001221B68FDF7B3FA0C9B01221B68FDF734
:104500004DFA01232B2200901499569809F0F2F9E4
:1045100001230B9A13700D9A13700C9B01221B68D8
:10452000FCF720FD0023322200901499549809F0E2
:10453000E1F901220B9B1A70FFF75EF800232E228F
:1045400000901499539809F0D5F901220B9B1A7029
:10455000FFF74BF83A221499559809F0CBF901234B
:104560000B9A13700D9A13700C9B01221B68FFF7B6
:104570003DFA3A221499559809F0BCF901230B9A97
:1045800013700D9A13700C9B01221B689EE400238C
:10459000322200901499549809F0ACF901220B9B37
:1045A0001A70FFF7BAF90023322200901499549838
:1045B00009F0A0F901220B9B1A7037E400232E2288
:1045C00000901499539809F095F901220B9B1A70E9
:1045D00026E400232E2200901499539809F08AF9BA
:1045E00001220B9B1A70FFF791F93A221499559802
:1045F00009F080F901230B9A13700D9A13700C9B2C
:1046000001221B68FFF75CF80122FCF7ABFC59980C
:1046100009F070F9FCF710FB0122FFF751F80122B5
:10462000FFF7E4F9012251E48023DB051868000F4D
:104630007047C0460FB400B5084883B002F046FB8F
:10464000049B002B07D005A91800019102F01CF96A
:10465000034802F03BFB012002F02EF93841011023
:104660004841011070B5EFF3108C72B60D4D2B68F8
:10467000002BFCD0BFF35F8F0724CB08C618C05CAB
:1046800001230C40A3401C000440034207D11843FF
:104690003070BFF35F8F2C608CF3108870BD1000FA
:1046A000FFF7C8FF2C0100D0F8B54746CE46884634
:1046B00080B5EFF3108C72B6214D2C68002CFCD025
:1046C000BFF35F8F9A422CD8D4080727055D0619DF
:1046D00001241740BC402C421FD0072101278946E6
:1046E00009E0D408055D06194C4639001440A14084
:1046F0000C00294211D001329342F2D201204042F3
:10470000BFF35F8F00220E4B1A608CF310880028D5
:104710000FDBC0BCB946B046F8BD2543100035706C
:10472000EEE7BFF35F8F00232B608CF3108801202E
:1047300040424346002BECD00898FFF77BFFC04671
:104740002C0100D0044A1078431CDBB2172B00D98F
:10475000102313707047C0465810002010B5064B48
:10476000064C82B00100009318221F232000FFF79F
:104770009BFF02B010BDC0464C410110484C0020C8
:104780000021044B044ABFF35F8F02C39342FAD166
:104790007047C046000100D0800100D0054B064A9A
:1047A0001360064A136053609360D36013615361D2
:1047B000936170478080808000E400E004E400E0C2
:1047C0001F2318401E3B8340002905D0C021044A06
:1047D0004900535013607047802201498B50FAE71B
:1047E00000E100E001228240034B1B6813405A1E87
:1047F0009341D8B27047C04600E100E001238340F6
:10480000014A13607047C04600E200E0084B1030D8
:104810009B688000C358002B07D0064A00209B1AD3
:104820002F229A424041C0B270470020FCE7C046A8
:1048300000ED00E05C10002070B50D00EFF3108675
:1048400072B60F4A1368002BFCD0BFF35F8F0D4B7D
:1048500010309B6884001B590B4A934203D09D4241
:1048600001D000F091FF074B9B681D51BFF35F8F94
:10487000BFF35F8F0022024B1A6086F3108870BD71
:10488000240100D000ED00E0CD010010F0B5574646
:104890004E46DE464546E0B585B00600009117005D
:1048A000EFF3108B72B66A4A1368002BFCD0BFF38B
:1048B0005F8F0025674B5D579A46002D00DAA9E00F
:1048C0006B00654C01935B199B009846A146C1445F
:1048D0004B4652469B7910361370604BB6009B686E
:1048E00099590B1B2F2B33D95D4B994200D0ACE06B
:1048F000019B42469C465B4B6544AD0063535A4B5B
:104900000232A218043B9B1A1B05584A5B0D65191D
:1049100013436B80564B0121AB80FF23AB71009B8F
:10492000EF71AB604B460B4319004C4B9B689951A0
:10493000BFF35F8FBFF35F8F0022454B1A608BF38D
:10494000108805B0F0BCBB46B246A946A046F0BDF3
:1049500001200A008243D3798C46BB4231D84546B8
:10496000130044491B1B5B415943090D3D4B6353E5
:104970003D4B02356519043B5B1B1B053B4D5B0D35
:104980002B43AA464D466B800425AC465546E04471
:10499000131F44441B1B1B055B0D1D434B469971A4
:1049A00000999D8099604946DF71334B0143136044
:1049B000BBE75800C01880002018C179B9422FD930
:1049C00002000623D356002BF3DA02932B4B6146E9
:1049D0000393131D9A4604235B429C46E1445046D0
:1049E0004B461B1A1B055B0D9C46204B9571984648
:1049F0006346404603439380019B5A199200039BF0
:104A0000A418A380029B1C4AA371009B2260E7713B
:104A1000A3608AE700F0B8FE002553465D574FE7D4
:104A2000908802934005131D9A46031561469C46E3
:104A30004046D444634604302018181AE023000589
:104A4000400D1B0218430390C5E700F09DFE4FE7A1
:104A5000240100D0235100205C10002000ED00E074
:104A6000CD01001000A1FFFF8C10002000E0FFFF2F
:104A700001BDFFFFAAAA00000148804701BD000058
:104A800070B501240443EFF30581EFF3108C72B687
:104A9000214A1368002BFCD0BFF35F8F1F4B05002A
:104AA0001F4AED1A6D416A43120D1E4D8900AE6812
:104AB00052B27658A6421CD00621595691421CD0BB
:104AC00012215956914222D01E215956914220D08E
:104AD0002A2159560324914210D0134B19781A7089
:104AE0008171BFF35F8F00220B4B1A608CF310882B
:104AF00070BDAB680D4C5C50EFE7002461000919F4
:104B000089005B18FF21997109499980E5E7012423
:104B1000F4E70224F2E7C046240100D05C10002034
:104B2000AAAA000000ED00E023510020CD010010F2
:104B300001BDFFFF10B5084B084C82B00100009387
:104B4000002205232000FFF7AFFD002801DB1F2313
:104B5000181A02B010BDC04668410110275100204C
:104B6000024B9C466144890001607047400000345C
:104B700070B5114C114DAC420FD2FF262368002BAB
:104B80000CD0FFF7DFFD01002000FFF7E9FFA68052
:104B9000BFF35F8F0834AC42F0D370BDFFF7D2FD96
:104BA00001002000FFF7DCFF2671BFF35F8F0834A0
:104BB000AC42E3D3F1E7C046F01700200018002014
:104BC00010B50400FFF7BEFD01002000FFF7C8FF8D
:104BD000FF232371BFF35F8F10BDC04610B50400E3
:104BE0000120FFF7BBFD034BC3189B002360BFF3FD
:104BF0005F8F10BD40000034034B9C466144890028
:104C00000160BFF35F8F7047400000340A4B1968A2
:104C1000EFF3108072B60A68002AFCD0BFF35F8FF2
:104C20001B68BFF35F8F00221A6080F3108840BFBB
:104C3000002000217047C04600510020F0B5DE463C
:104C400057464E464546E0B583B0EFF30582032351
:104C50001340B54A990052580091904601229A405B
:104C6000B24B93461A60B24B01932EE043469B88A9
:104C70001BB2002B00DB99E043469B79002B00D050
:104C8000DDE0434608241C5F002C00DA06E14346C1
:104C90005A6963001B19DB00D3189D68DC686B1C24
:104CA00000D107E1A34B00999C4661449A6A0B69C5
:104CB000A81A9B1A984200D20D619E4800F026FB6C
:104CC0008C4200DDEAE000D126E15B46994843636F
:104CD000434608229B5E9946002BC7DB4246526939
:104CE0005B0092464B44DB009A4453469E68DF6863
:104CF00000F00CFB8F42B9DC00D100E1002F00DA9C
:104D0000E1E05246534654691B69019A934200D12F
:104D1000D4E0414652460820085E52880004210033
:104D20001043984704000D0023002B4300D1CAE034
:104D3000002D00DBE7E030003900001BA94153469D
:104D40009860D96000229A5E002A8FDB43465D6935
:104D500053009C18E4002C19A768E4688C4200DD1D
:104D600084E702D1874200D980E74646328108367F
:104D70000DE08C4200D1D3E01E000023F25E002A39
:104D80000ADB53009C18E4002C19A768E4689B1800
:104D9000DB00EB188C42ECDD53461A804B46338027
:104DA00043469B881BB2002B00DA65E743461A692D
:104DB000EFF3108172B61368002BFCD0BFF35F8F46
:104DC00043469E88012342465B42938036B2136974
:104DD000BFF35F8F00221A6081F31088002E00DA83
:104DE0004AE743465D69083342469C467700BF194F
:104DF000FF00EF19BB68604698460823D15E9246D3
:104E0000FC68002907DA0EE0A2424FD01800002308
:104E1000C15E002906DB4B005B18DB00EB18DA688B
:104E2000A242F1DD524606800023FE5E3980002E4C
:104E3000DCDA904643469B79002B00D121E7002322
:104E400042469371434646460821595E08364B1C3C
:104E500024D047468946556902E006004B1C18D00D
:104E60004B005B18DB00E8180A008C46E95E4388BB
:104E70001BB2002BF1DA01235B42DC178360C460B4
:104E80004A4503D031803B8903803A81E1464B1C7F
:104E9000E6D14C46B846002C00DBF8E640BF03B034
:104EA000F0BCBB46B246A946A046F0BD9A68424552
:104EB000ACD9B7E7631C00D0F4E6FEE62000236916
:104EC0009847002825D1534642461B881381126912
:104ED000EFF3108372B611680029FCD0BFF35F8F27
:104EE0004246514652880A804246494651801269DC
:104EF000BFF35F8F0021116083F31088B6E686420E
:104F000000D8FBE6B2E60B4800F000FA0019694150
:104F100015E76568246807E7854200D8D5E6BDE750
:104F2000874200D828E737E7E45000203C7005406E
:104F30003D4C00100040054070B52E4C2569002DF9
:104F400004D00A212C48FFF70BFE70BD2B4E032125
:104F5000300000F0D1F9E660FFF7F4FB284B0322A4
:104F60009C46D02322701B061B6801216370254BD1
:104F70006044A3600F238000206102206380636986
:104F80004942A18019800231198647311D83585248
:104F900018315A5275325C3999521832013199528E
:104FA00018320131995218320131995208351832AC
:104FB0009D520231183299521832013199521832E9
:104FC00001319952183201319952183201319952F6
:104FD0001832013199520C4B0C49DC6001303562BA
:104FE000FFF72AFC01210320FFF7EAFB084B1D60B5
:104FF000A7E7C046A4100020005100200040054053
:1050000040000034FFFF1000E45000203D4C001031
:105010003860054000487047A4100020F8B51F0014
:1050200008AB1B7804001600002B08D100F076F9BD
:1050300032003B00121A8B41002B00DA53E0226948
:10504000EFF3108072B61368002BFCD0BFF35F8FB4
:105050000223E15E63694A005218D2009B180029BE
:1050600037DB1A8862802269BFF35F8F00251560E5
:1050700080F31088069A9E60DF601A61079A5A6171
:105080005A8801325204520C101C002A1FD082B2DE
:105090005880080410432669EFF3108772B632680F
:1050A000002AFCD0BFF35F8FA2881A80A1802369F9
:1050B000BFF35F8F00221A6087F310880B492378B3
:1050C0008C4601329A40E36863441A60F8BD0120BF
:1050D000DDE72369BFF35F8F00221A6080F3108839
:1050E00001204042F2E70020F0E7C0463C200000EB
:1050F00070B501000469EFF3108C72B620680028C7
:10510000FCD0BFF35F8F02200D5E4C696800401930
:10511000C0002418002D37DB208848800869BFF3C1
:105120005F8F002606608CF31088E3606388049824
:10513000013320615B0405985B0CA26060611A1C5E
:10514000002B1FD093B22804628018430A69EFF342
:10515000108C72B61368002BFCD0BFF35F8F8B8866
:1051600023808D800B69BFF35F8F00221A608CF360
:1051700010880B7801329A40CB6808498C4663440A
:105180001A6070BD0122DDE70B69BFF35F8F00225B
:105190001A608CF3108801204042F2E73C200000A6
:1051A00010B543890A1493421ADD53009B184269D3
:1051B000DB00D3180469EFF3108C72B62268002A62
:1051C000FCD0BFF35F8F5A88090494B2090C8A425D
:1051D00008D00369BFF35F8F00221A608CF3108838
:1051E000002010BD8022120214435C80012302695A
:1051F0008371BFF35F8F002111608CF31088044925
:1052000002788C469340C268012062441360E8E74C
:105210003C20000040787047F0B5CE46474680B548
:1052200004000D0083B0EFF305878846002F3ED1C0
:105230002E4EA1463378F06804339B00816A1B58D8
:10524000601A5B1A98420ED320BF294900204B6A8E
:10525000AB4203D38A6A0130944231D803B0C0BC58
:10526000B946B046F0BD00F059F822002B00121AE2
:105270008B41002B2FDB1F4B2200009330002B00B3
:105280000197FFF735FF011E25DD194B5A6AAA4227
:105290001BD220BF3000FFF783FF154A0020536A5E
:1052A0004345DBD3926A01309145D7D908E01049D4
:1052B00000204B6AAB42D1D38A6A0130A242CDD2E0
:1052C0005B1B5A1E9341D8B2C8E79B6A9C42E1D946
:1052D000AA42DFD1DDE7064A0020536A4345BDD329
:1052E000926A01209145B9D9EAE7C046A41000208E
:1052F000004005400D4C001010B5024A0248FFF76F
:10530000B1F910BD844101104C4C00200300416AEA
:105310000A00986A596A8A42FAD17047034B596A5F
:105320000A00986A596A9142FAD1704700400540D4
:1053300070B504000D00174A536A1900966A536A43
:105340008B42FAD13000190024184D41AB4216D8D7
:1053500013D0104A2B00526A954203D90D494A6A6C
:105360009A42FCD39A4207D10A4A02E0516A994212
:1053700002D1916AA142F9D370BDA642E9D9054B89
:105380005B6A1C005A1CEFD0012301246442E5171C
:105390005B42E3E700400540F8B5DE464E4657461F
:1053A0004546E0B58B4605000A991800160000F046
:1053B000F1FA0A9B6C001F02324B64199C46A40050
:1053C0006444636881469F4200D967602B1FDBB24B
:1053D0009846012B30D9C02380229B01E31812018B
:1053E0001A60294BAD0059599A4600291BD1730107
:1053F000E026226853401E40802342465B01E318AA
:105400001E60012A30D9802380229B01E3181201FB
:105410001A6053464A4667605A51F0BCBB46B246D2
:10542000A946A046F8BD586900F0B4FA013043001F
:105430001B18033BFDD2DAE75B46012BCBD1C0231F
:1054400003229B01E3181A60023AA3681A42FCD0B7
:105450007301E0262268AD0053401E4080230A4AB3
:105460005B019246E3181E605A46216851400322B0
:105470000A401A6001225B469A40A3681A42FCD097
:10548000C1E7C04600800040504C0020F0B54646C1
:105490004F46D646C0B51F00344B44009C462418E6
:1054A000A4006444636888461600FF2B02D880235A
:1054B0005B006360031FDBB29A46012B30D9C02327
:1054C00080229B01E31812011A60294B850059596B
:1054D000994600291BD17301E026226853401E40E3
:1054E000802352465B01E3181E60012A30D98023D5
:1054F00080229B01E31812011A6080235B00636025
:105500004B465F51E0BCBA46B146A846F0BD58696B
:1055100000F040FA013043001B18033BFDD2DAE7EC
:105520004346012BCBD1C02303229B01E3181A6011
:10553000023AA3681A42FCD07301E0262268850073
:1055400053401E4080230A4A5B019146E3181E60C7
:1055500042462168514003220A401A600123424614
:105560009340A2681342FCD0C1E7C04600800040CF
:10557000504C0020014B8000C0587047504C002018
:10558000F8B5040021481E0017000D0000F002FAD3
:105590000100380000F0FEF9069B36041B031E4391
:1055A0002368002B20DB1A4B1A49E3185A1E93413B
:1055B0008022920194465B421B0B174A1B036344F3
:1055C0001360164A13601F000A689743FBD1144BFF
:1055D0002560E2182123A06013602368002BFCDA09
:1055E0000823E6601360F8BD3F2322681340AB42F6
:1055F000D9D1A3681B051B0D8342D4D1EE22E368E9
:10560000D2021340B342CED1EDE7C046001BB70033
:105610000040FDBF08C0004000E0004000F0004036
:105620000430000010B580241C4BE4051C600028E9
:105630001AD001231A4C18431A4BDC611A4C44400F
:105640001C62596298628021144BC9051960174881
:1056500017490860E021C9041960002A07D1802297
:10566000144B12061A6010BD0E4BD861EBE75301C4
:105670009B1A9B009A18802312015B049A4209D25C
:1056800013000D490B60074B5A608022094BD2056D
:105690001A60E8E7094B1A00F3E7C04600B005407E
:1056A000D3C007B0008005402D3FF84FFCFF01003C
:1056B0000820014000A00540BC500020FFFFFF0073
:1056C0008023024A9B000B43D36270470080054051
:1056D000142310B50100188804331B88984710BDA7
:1056E000162310B50100188802331B88984710BD97
:1056F000F8B54746CE4680B50F1E19D014239946FB
:10570000043304000025012698464B46188843467A
:1057100021681B88984701C4431E984101354042C7
:105720000640AF42F1D13000C0BCB946B046F8BD2A
:105730000126F8E7142370B50400188804331B8889
:105740000D000549984703000020002C01DB0130C3
:10575000A04029009847C04655420000AA23064AA7
:105760001B0113602F230549D360054B1960536853
:10577000002BFCDA7047C0460040024000B0FA003F
:10578000006002407047C04610B50148FEF752FF66
:10579000A841011070B5074D074EB54209D200244B
:1057A000013E761BB60808CD984723000134B3426A
:1057B000F9D170BD5838011094380110054B064AD4
:1057C00006491A60064A074B1A6010000B68984396
:1057D000FBD1704700E00040BFCDFBFE08C0004099
:1057E000FE7F3C0000F00040044BDB6C002B03D13B
:1057F0008022034BD2021A607047C046000011504D
:105800004C201150044A054B1A60054A1368DB010D
:105810008033FBD17047C046FFFFFF0100F000401E
:1058200008C000404022034B9A675A671A67DA663D
:105830007047C04600F0014010B5FEF7A1FF10BD53
:1058400070B5044D044CA968C022200000F0EEFFA2
:10585000AC6070BD00ED00E000000020002310B53A
:10586000294C82B0A367FFF779FF0122274B1A600A
:10587000636C012BFCD10322254B1A60224A936BE7
:10588000012BFCD1013300930121224A2248043329
:10589000FFF776FE052301210093204A2048FFF7F9
:1058A0006FFE0022022104201E4BFFF7EFFD0022B5
:1058B000012105201C4BFFF7E9FD002200210720F4
:1058C0001A4BFFF7E3FD002200210820174BFFF7DA
:1058D000DDFD8023DB000093002200210920134B13
:1058E000FFF75AFD0022104B00210620FFF7CEFDE6
:1058F0000420FFF73FFE0E4900F04CF801000020A5
:10590000FFF7DEFE02B010BD008000403CB000405A
:1059100030B00040002F685900800240008C86475C
:1059200000C00240001BB70040597307006CDC0246
:1059300040420F0001480421014B1847C0100020CD
:10594000F1560010124A936F9B0815D29066D166EB
:10595000002905D0FFE7FFE7FFE7516F106F7047A1
:1059600004B580210906C2175140002800D0C84361
:105970000DF02AFF002104BDF0B5146E556E576F6F
:10598000166FFFF7E3FF1466556657671667F0BD9D
:10599000000000D0114A936F9B0813D21066516625
:1059A000002905D0FFE7FFE7FFE7516F106F704751
:1059B00004B5002801D00020C0430DF005FF0021F0
:1059C00004BDC046F0B5146E556E576F166FFFF7E5
:1059D000E5FF1466556657671667F0BD000000D0F6
:1059E00094464A4A926F9208624601D228E0C04625
:1059F000F0B5464E346E756E776F366F00F020F856
:105A00009446424A14665566576716676246F0BD6B
:105A100094463E4A926F9208624601D254E0C046D4
:105A2000F0B53A4E346E756E776F366F00F04CF805
:105A30009446364A14665566576716676246F0BD47
:105A4000002B24DB11D000293EDA00B5C9434042C7
:105A500000D1013100F038F8C943404200D1013192
:105A6000DB43524200D1013300BD002AEBD10028B4
:105A700001D1002905D00020C90FC90701D1C043B9
:105A8000410800B50DF088FE0022002300BD00B5DE
:105A900000290ADBDB43524200D1013300F014F845
:105AA000C943404200D1013100BDC943404200D149
:105AB0000131DB43524200D1013300F005F8DB43F2
:105AC000524200D1013300BD002923D1002B18D14F
:105AD000002A0CD0BC460D4F38667A6600210023A0
