:020000041000EA
:1000000000B5324B212058609868022188439860DF
:10001000D860186158612E4B002199600221596106
:100020000121F02299502B49196001219960352056
:1000300000F044F80222904214D00621196600F024
:1000400034F8196E01211966002018661A6600F04E
:100050002CF8196E196E196E052000F02FF8012189
:100060000842F9D1002199601B49196000215960AB
:100070001A491B48016001219960EB211966A021F2
:10008000196600F012F800219960164914480160C1
:100090000121996001BC002800D000471248134993
:1000A000086003C880F30888084703B5996A0420EC
:1000B0000142FBD001200142F8D103BD02B5186610
:1000C0001866FFF7F2FF186E186E02BD00000240BE
:1000D000000000180000070000035F00212200005C
:1000E000F4000018222000A00001001008ED00E03C
:1000F00000000000000000000000000074B24E7A12
:1001000000200420F7010010C3010010C5010010F9
:10011000C1010010C1010010C1010010C101001097
:10012000C1010010C1010010C1010010C701001081
:10013000C1010010C1010010C9010010CB01001065
:10014000CD010010CD010010CD010010CD01001037
:10015000CD010010CD010010CD010010CD01001027
:10016000CD010010CD010010CD010010CD01001017
:10017000CD010010CD010010CD010010CD01001007
:10018000CD010010CD010010CD010010CD010010F7
:10019000CD010010CD010010CD010010CD010010E7
:1001A000CD010010CD010010CD010010CD010010D7
:1001B000CD010010CD010010CD010010CD010010C7
:1001C00000BE00BE00BE00BE00BE00BEEFF3058054
:1001D000103800BEF2EB8871A02E0110C02E011065
:1001E0003802001090A31AE71E481F49086006C88D
:1001F00081F3088810471D480068002801D019487D
:10020000F3E70DA40ECC002902D000F012F8F9E7B4
:100210001749184A002000E001C19142FCD116495B
:100220008847164988471649884700BEFDE701C937
:1002300001C29A42FBD37047C02E0110C0000020BB
:1002400010190020104701100000042000000420B5
:1002500010470110001004200010042000000000CE
:10026000704700000000000008ED00E0000000D032
:10027000101900203852002015430010D10500103D
:10028000D5420010F8B5C04606480749091A8B1038
:10029000C90FC91810B5491003D0044B002B00D06A
:1002A000984710BD10190020101900200000000010
:1002B000054B10B5002B03D00449054800E000BFF2
:1002C000FFF7E2FF10BDC04600000000D45100203F
:1002D000D80B0110F0B5184CD7B0050006A80300E4
:1002E0002100C4C9C4C344C944C308F037FF060091
:1002F00004A80300143406CC06C308F02FFF040042
:100300000BA808F03FFC00230C4F2A0003930BA915
:10031000029701940096053312A808F06DFC0022A4
:10032000390012A808F0B6FC002802D112A808F083
:1003300005FD57B0F0BDC0461C230110F42101108B
:10034000F0B5C64600B5194CD6B0804606A80D00DB
:1003500003002100C4C9C4C384C984C308F0FEFEDD
:10036000070004A80300143406CC06C308F0F6FE08
:1003700004000BA808F006FC0023424603930BA9D7
:10038000029501940097053312A808F035FC00226D
:10039000290012A808F07EFC002802D112A808F05B
:1003A000CDFC56B080BCB846F0BDC0461C23011041
:1003B000F0B5DE4657464E464546E0B5B3B01400AC
:1003C0000793069108F0CAFE0590200008F0C6FECB
:1003D0008246794808F0C2FE07003C9808F0BEFE4D
:1003E000804608F083FD012200259146089208AA64
:1003F00006001000099508F0B1FE0822002183468E
:100400000F900CA803F0C2FE02230AAC5846A38347
:10041000A577656025610A9508F068FD8346207F11
:1004200006F082FF5A46504352460021A0616263A3
:1004300014A8082203F0AAFE079A3E2322634A4624
:100440005046E554A2872562656208F04FFD3C23C3
:100450008246E05C06F068FF52465043059BA0636D
:10046000082200211CA8636503F090FE069A494605
:1004700022655C225E2392460598A152E5542564CC
:10048000656408F033FD53468346E05C06F04CFF9C
:100490005B4658430021A065082224A8676703F043
:1004A00075FE7E23E554454B4A4623677C239A46D6
:1004B0003800E2522566656608F018FD53460700CD
:1004C000E05C06F031FF9423424678430021E2507D
:1004D000A06708222CA803F059FE8023E5500433BE
:1004E000E5503F9A1A33E5540E3BE2509C274B46A9
:1004F0004046E35308F0FAFC0500E05D06F014FF07
:10050000982368433E99E0502000FFF719FF041E2E
:1005100049D1002E47DD2A4B00279B46294BD9465F
:100520009A46B04683460AE0281C03F0B0FC2649F0
:1005300003F014FD00281CD10137B84532D03D9A94
:10054000BB00D5583F9A281CD458211C03F006FD47
:10055000211C0028E8D1281C03F0E2FC0028EBD184
:10056000291C201C03F093FC174903F0F7FC00281A
:10057000E2D0281C03F052FDEF23039353460500FD
:10058000201C0E00029303F049FD2A003300009066
:100590000191484608F098FC01220C4B01371A7073
:1005A000B845CCD15C46200033B0F0BCBB46B24667
:1005B000A946A046F0BDC0462411002050220110DB
:1005C000D80B0110200C0110ACC527372D5200208C
:1005D000F0B5DE4657464E464546E0B58D4CA5443F
:1005E00008F0ACFD8C4BC4AF09938C4B0B938C4B38
:1005F00031938C4B08938C4B07938C4B11938C4B02
:1006000012938C4B13938C4B0F936AAB99468B4B85
:1006100014938B4B19938B4B1A9392AB9A468A4B3C
:100620001C938A4B0E938A4B2E938A4B2C938A4BA6
:1006300010938A4B1E938A4B15938A4B1F938A4BB8
:100640002F938A4B20938A4B21938A4B1B938A4B7F
:1006500030938A4B22938A4B23938A4B24938A4B61
:100660002D938A4B25938A4B1D938A4B26938A4B55
:1006700027938A4B28938A4B2B938A4B29938A4B37
:100680002A938A4B32938A4B339300239B465A46D4
:10069000099B31981A600B9B5E461A6008F014FCA7
:1006A0005A46089B11981A70079B1A7008F056FD5D
:1006B0000500129808F052FD0A90139808F04EFDBC
:1006C00016900F9808F04AFD804608F00FFC494646
:1006D00001224E600A600C90484608F03FFDC6AE0D
:1006E0000822040000217861300003F04FFD5946D4
:1006F00039607960B977396102212000B98308F047
:10070000F5FB0400387F06F00FFE60430A9CCEAE76
:1007100008220021B8617C63300003F037FD5946A0
:100720003E23012239627962F9541499BA873963F8
:10073000200008F0DBFB3C230400F85C06F0F4FD2D
:10074000604308220021B8637D65D6A803F01EFD32
:1007500059465C46396479645E217C5419990122BA
:1007600039655C2128007A5208F0C0FB5C21040046
:10077000785C06F0D9FD6043169C08220021B8651C
:100780007C67DEA803F002FD59467E2301227C250A
:1007900039667966F9541A99200039677A5308F056
:1007A000A5FB0400785D06F0BFFD9423414660433D
:1007B0000822B867F950E6A8002103F0E7FC594683
:1007C0008023F9500433F9501A33F9540122514669
:1007D0000E3B2035F95040467A5308F087FB040061
:1007E000785D06F0A1FD982360431C99F85038000D
:1007F0000126FFF7A5FD002801D001F032FA0C9B7D
:1008000000252C9C002B00DC9DE02300169754460D
:1008100098465FE0DCFBFFFF9C1C0020981C00203A
:10082000900C01102E5200202D5200204C1100205F
:100830003811002024110020101100205422011032
:100840009C22011050220110F4210110200C0110F3
:10085000A80C011010220110D80B01101C0E011061
:100860001C2301109C230110340E01103C0F0110B9
:100870001C2401109C240110640F01105810011059
:100880007C2501101C250110881001105C1101103D
:1008900084110110A4130110D013011008140110C9
:1008A00030140110E0140110FC1401101015011097
:1008B00028150110301C03F0EAFAF84903F04EFB4A
:1008C000002821D104239C460C9B0135E0440434CC
:1008D000AB4237D043461E682368301C191C1F1CCE
:1008E0000A9303F03BFB391C0028E3D1301C03F0D2
:1008F00017FB0028E6D1311C381C03F0C8FAE74981
:1009000003F02CFB0028DDD0301C03F087FBEF2325
:1009100003930E9B06000A980F00029303F07EFBE0
:1009200032003B0000900191109808F0CDFA0122AE
:10093000079B01351A7004239C460C9BE044043449
:10094000AB42C7D1169F0121079B1A78089B1970EB
:10095000099B1B68002A01D001F0C7F901330B99EC
:10096000099E1E9833600B689B180B6008F0ACFA68
:100970005A465946089B159D1A70079A50461170A1
:10098000290040221C3103F007FC2B0046AA5C33EF
:1009900013CB13C203CB03C22B0058AA703313CB63
:1009A00013C213CB13C213CB13C21F9D4BAA2B0030
:1009B000143313CB13C203CB03C2290040222831C6
:1009C0003800683503F0E8FB2B0050AA13CB13C2A4
:1009D00013CB13C249461B684BA81360039150A95F
:1009E0000291514601910F99009158A90B0046A917
:1009F0000A003900FFF7DCFC002801D001F064F99F
:100A00000121079A089B127819703368002A01D0D7
:100A100001F085F9002201330B99099E209833607B
:100A20000B689B180B6008F04FFA5A465946089B12
:100A3000219D1A70079A2B1D117046AA13CB13C261
:100A400003CB03C22B005246183313CB13C213CB74
:100A500013C213CB13C213CB13C2159B4BAA5C3327
:100A600013CB13C203CB03C22B004A46483313CB2C
:100A700013C213CB13C26C3513CB13C22B0050AA75
:100A800013CB13C203CB03C2854B1B9A4193854BF7
:100A9000429358AB13CA13C313CA13C3126858A99D
:100AA0001A60029151460397019146A900914BA902
:100AB0000A004B4641A950A8FFF77AFC002801D054
:100AC00001F0F1F80121079A089B12781970336838
:100AD000002A01D001F020F900220133099922985F
:100AE0000B600B990B689B180B6008F0EDF95A46E8
:100AF000089B1B9D1A70079B1A702B003CAA1C3385
:100B000013CB13C203CB03C2C8222399380003F0CE
:100B100043FB2B0041AA303313CB13C203CB03C2D8
:100B200029004822443158A803F036FB249D46AAE8
:100B30002B000C3313CB13C203CB03C22B0038AAF8
:100B4000203313CB13C21B6813602B004BAA303326
:100B500013CB13C203CB03C2534B34938123DB0566
:100B600035932B00443313CB13C213CB13C21B6832
:100B700046A8136008F0F2FA050041A808F0EEFA62
:100B800006004BA808F0EAFA3CAA0A90100008F008
:100B9000E5FA040008F0AAF95A460123379236AA6A
:100BA0000C901000369308F0D9FA4A4680465061FE
:100BB000002108226CA803F0E9FA4A465946116060
:100BC00051609177116102214046918308F08EF9BE
:100BD0004A468046107F06F0A7FB424650434A46ED
:100BE00000219061566374A8082203F0CFFA4A46A8
:100BF00059463E2311625162D15458A91163012212
:100C000090464A463D3B9387300008F06FF93C23FD
:100C10004A460600D05C06F087FB4A46704355659D
:100C20009063002108227CA803F0B0FA4A46594696
:100C30005E46116451645E21565438A9116501263F
:100C400049465C2228008E5208F050F949465C2241
:100C50000500885C06F068FB4A4668430A9B84AD41
:100C60009065536700210822280003F08FFA4A4656
:100C700059467E237C2511665166D15434A91167EB
:100C80000A98565308F032F94B460600585D06F0B4
:100C90004BFB4B4670434A46986707E0ACC5273785
:100CA0000080A143004002C4000040409423D4507F
:100CB0008CAB08220021180003F068FA4A46594616
:100CC0008023D1500433D1501A33D15401265146D8
:100CD0000E3B2035D1502000565308F007F94B4603
:100CE0000400585D06F020FB98234A46604350A953
:100CF000D0504846FFF724FB002801D000F07FFFCA
:100D00000C9B3C00D0460025002B4ADD16970FE0D7
:100D1000301C03F0BCF8D04903F020F9002821D1A1
:100D200004239C460C9B01350434E044AB4237D08D
:100D3000434626681B68301C191C1F1C0A9303F0CD
:100D40000DF9391C0028E3D1301C03F0E9F8002824
:100D5000E6D1311C381C03F09AF8BF4903F0FEF8C5
:100D60000028DDD0301C03F059F9EF2303930E9BCC
:100D700006000A980F00029303F050F932003B007E
:100D800000900191109808F09FF80122079B01350F
:100D90001A7004239C460C9B0434E044AB42C7D138
:100DA000169F0121079B1A78089B1970099B1B68E5
:100DB000002A01D000F09CFF0022013309992598F8
:100DC0000B600B990B689B180B6008F07DF85A4676
:100DD000089B11981A70079B1A7008F0BFF980469B
:100DE000129808F0BBF90400139808F0B7F90C90BA
:100DF0000F9808F0B3F9169008F078F85B460500F4
:100E00000593049303933CAB029350AB019358AB0F
:100E10000A9000934BAA23005046149908F0A0F9B9
:100E20002A1E30DD602006232EA909180B702EA97A
:100E30008C465B336344944646AE1C00874D664443
:100E4000012A06D11FE07F20207001340435A6421C
:100E500019D08349286803F020F803F0DFF802F086
:100E6000C7FC0022002302F067FB02F013FC7F287E
:100E7000E9DC03008033E7DA80204042207001344F
:100E80000435A642E5D1012338935B4638A839934F
:100E900008F064F90822002104007861C6A803F074
:100EA00075F95B463B607B60BB773B6102232000AA
:100EB000BB8308F01BF80400387F06F035FA604366
:100EC0002022B8615146CCA803F066F9404608F0EC
:100ED0000DF800282DDD02234A4613702EAAF123B7
:100EE000944663441C004B465E4D1E18012806D1F3
:100EF0001FE07F20207001340435A64219D02868F5
:100F0000011C02F0C7FF03F089F802F071FC002217
:100F1000002302F011FB02F0BDFB7F28E9DC030097
:100F20008033E7DA80204042207001340435A64245
:100F3000E5D14346002108227B65D6A803F026F9B7
:100F40005B465A463B647B645E23FA544B465C2501
:100F50003B65092340467B5307F0C8FF0400785DDA
:100F600006F0E2F9FC239B05BB645B46FB640123AE
:100F70003B645B4660437B64B8650C9807F0B6FF42
:100F800000280FDD5B46369301280BD0364B9C467C
:100F9000002360448000594636AAD21804335160B9
:100FA0009842F8D10C9D002108227D67DEA803F04D
:100FB000EDF85B465A463B667B667E23FA5436ABB9
:100FC0007C243B67022328003B5307F08FFF05007A
:100FD000385D06F0A9F9FC239B05BB665B46FB6602
:100FE00001235A466843169C3B6693330021B86739
:100FF0007A66E6A8FC50082203F0C8F880265A4614
:1010000084259E23BA517A51FA540E3B41AAFA50D4
:101010009C229046873BBB52200007F067FF424668
:101020000400B85C06F080F9982360430C4AF8503D
:10103000103BFA505A460433FA508B3BBB513800F0
:101040007A51FFF747F9002801D000F01BFE0A9BF8
:101050007F3E002B13DC3FE0ACC527371422011084
:101060000000F041A0220110FFFFFF3FAC4201D081
:1010700000F086FD0A9A731C96422DD01E005F2256
:101080002EAB9B189C57143A2EAB9B189D57601B98
:10109000AC42EBDD02F068FFFE21890502F05EFF45
:1010A0000028E7D0200002F0DDFAEF2303930E9B27
:1010B0000C900D912800029302F0D4FA0C9A0D9B2B
:1010C00000900191109807F0FFFE0122079B1A7013
:1010D0000A9A731C9642D1D10121079B1A78089B6A
:1010E0001970099B1B68002A01D000F004FE002241
:1010F0000133099926980B600B990B689B180B60BC
:1011000007F0E2FE5A46089B11981A70079B1A7066
:1011100008F024F80C90129808F020F804001398B6
:1011200008F01CF816900F9808F018F8179007F0C0
:10113000DDFE5B460593049303933CAB029346AB01
:1011400001934BAB05001890009348462300149977
:1011500041AA08F005F8002D2DDDA820B8232EA9FE
:1011600009180B802B00012D25D02EA98C46AA2210
:101170006244140058AA94465B0063440A93802397
:101180001B0298468E4D8F4E286802F047FF02F0F2
:101190002FFB0022002302F0CFF902F07BFA40453A
:1011A00000DB8948B04200DA86480A9B208002347E
:1011B00004359C42E8D15B46012538A8399338951F
:1011C00007F0CCFF0822002104007861C6A802F0D5
:1011D000DDFF5B463B607B60BB773B610223200009
:1011E000BB8307F083FE0400387F06F09DF8604360
:1011F0002022B8614946CCA802F0CEFF0C9807F037
:1012000075FE002829DD53461D80012825D0C923FD
:101210002EAA94465B00634440001C000300534424
:101220000A9380231B029846684D664E286802F098
:10123000F5FE02F0DDFA0022002302F07DF902F053
:1012400029FA404500DB6048B04200DA5D480A9B5D
:101250002080023404359C42E8D10C9C00210822F5
:101260007C65D6A802F092FF5B465A463B647B64DD
:101270005E23FA5453465C253B65072320007B53CD
:1012800007F034FE0400785D06F04EF8FE239B055F
:10129000BB645B46FB6401233B645B4660437B6449
:1012A000B865169807F022FE002829DD00220023E9
:1012B00036923793012823D036ABC0001E18802306
:1012C0001B069846424D38AC05E020606360083448
:1012D0000435B44214D0286802F0A0FE02F088FA67
:1012E00002F0FCF90B00206061604145EDD100285F
:1012F000EBD101302060636008340435B442EAD198
:10130000169D002108227D67DEA802F03FFF5B46A4
:101310005A463B667B667E23FA5436AB7C243B6799
:10132000042328003B5307F0E1FD0500385D05F07C
:10133000FBFF5B465A46FB66FE24012368437A6640
:10134000179A3B66A4059333B8670021BC66E6A8EC
:10135000FA50082202F01AFF8026594684259E235F
:10136000B9517951F9540E3B50A9F9509C21884646
:10137000893B7B52179807F0B9FD42460A90B85C4A
:1013800005F0D2FF98230A9A50435A46F850103B72
:10139000FC500433FA508B3BBB5138007A51FEF7B6
:1013A00099FF002801D000F04BFC189B002B4DDD6D
:1013B00058AEB4465B00634450AD0A9319E0C04692
:1013C000142201100080FFFFFF7F0000A022011007
:1013D000542201104346181B02F0C6FD8121C905A5
:1013E00002F0BCFD002816D10A9B023602359E424F
:1013F0002CD00022B35E98460023EC5EA045E9DCC9
:10140000F2D04346E01A02F0AFFD8121C90502F097
:10141000A5FD0028E8D0404602F024F9EF2303930D
:101420000E9B0C900D912000029302F01BF90C9A78
:101430000D9B00900191109807F046FD0122079B3B
:1014400002361A700A9B02359E42D2D10121079BB7
:101450001A78089B1970099B1B68002A01D000F0BC
:101460004FFC00220133099927980B600B990B68F8
:101470009B180B6007F028FD5A46089B11981A70BC
:10148000079B1A7007F06AFE0C90129807F066FE30
:101490000400139807F062FE16900F9807F05EFEA6
:1014A000179007F023FD5B460593049303933CAB31
:1014B000029346AB01934BAB05001890009348464E
:1014C0002300149941AA07F04BFE002D2DDDA82022
:1014D000B8232EA909180B802B00012D25D02EA989
:1014E0008C46AA226244140058AA94465B006344C6
:1014F0000A9380231B0298468A4D8B4E286802F07F
:101500008DFD02F075F90022002302F015F802F0BB
:10151000C1F8404500DB8548B04200DA82480A9BAA
:10152000208002340435A342E8D15B46012538A867
:101530003993389507F012FE0822002104007861E3
:10154000C6A802F023FE5B463B607B60BB773B6135
:1015500002232000BB8307F0C9FC0400387F05F09C
:10156000E3FE60432022B8614946CCA802F014FE95
:101570000C9807F0BBFC002829DD53461D8001288C
:1015800025D0C9232EAA94465B00634440001C006A
:10159000030053440A9380231B029846644D624E15
:1015A000286802F03BFD02F023F90022002301F03D
:1015B000C3FF02F06FF8404500DB5C48B04200DA40
:1015C00059480A9B208002340435A342E8D10C9C80
:1015D000002108227C65D6A802F0D8FD5B465A4659
:1015E0003B647B645E23FA5453465C253B650723CA
:1015F00020007B5307F07AFC0400785D05F094FE30
:10160000FE239B05BB645B46FB6401233B645B4696
:1016100060437B64B865169807F068FC002820DDFD
:101620005A462EAB1A8401281BD02EAA2223944698
:1016300063441C00400036AB1E1880231B029846F2
:101640003C4D286802F0EAFC02F0D2F802F046F8BD
:10165000002900DCA1E23548208002340435A6428E
:10166000EFD1169E002108227E67DEA802F08EFDD3
:101670005B465A463B667B667E237C250724FA54EC
:1016800036AB3B6730007C5307F030FC0600785DDA
:1016900005F04AFEFE2359467043B86758469B053D
:1016A000BB66F9669423012178661798E6AD396622
:1016B0008026F85028005D460021082202F066FDD1
:1016C000BD515B4684255A467B519E23FA5450AA4D
:1016D0000E3BFA500C33FC521798984607F006FC64
:1016E00004004046385C05F01FFE9823FE2260434C
:1016F0009205F850103BFA5001215A460433FA5033
:101700003800B9517A51FEF7E5FD002800D087E294
:10171000189B002B4CDD58AEB4465B00634450ADC3
:101720000A9318E0142201100080FFFFFF7F0000E1
:10173000A0220110542201104346181B02F014FC91
:101740008121C90502F00AFC002816D10A9B023645
:101750000235B3422CD00022B35E98460023EC5EE3
:10176000A045E9DCF2D04346E01A02F0FDFB8121FE
:10177000C90502F0F3FB0028E8D0404601F072FFF3
:10178000EF2303930E9B0C900D912000029301F028
:1017900069FF0C9A0D9B00900191109807F094FB43
:1017A0000122079B02361A700A9B0235B342D2D13E
:1017B0000121079B1A78089B1970099B1B68002A56
:1017C00000D09BE200220133099928980B600B9905
:1017D0000B689B180B6007F077FB5A465846089B2E
:1017E0001A70079A1070119807F0B8FC060012984A
:1017F00007F0B4FC0500139807F0B0FC0A900F98AE
:1018000007F0ACFC040007F071FB012348465A4680
:101810000360426007F0A2FC082200218046786144
:10182000C6A802F0B3FC584638607860B8773861D3
:101830000220B883404607F059FB8046387F05F008
:1018400073FD4246504300210822B8617E63CEA852
:1018500002F09CFC58463E2338627862F85419988E
:101860003D3B3863BB87300007F040FB3C2306005C
:10187000F85C05F059FD704300210822B8637D65CE
:10188000D6A802F083FC58465E46386478645E2031
:101890005C223E54012614983865BE52280007F099
:1018A00025FB5C220500B85C05F03EFD68430A9B01
:1018B00008220021B8657B67DEA802F067FC5D4660
:1018C0007E233D667D66FD541A9D0A983D677C2502
:1018D0007E5307F00BFB0600785D05F025FD942391
:1018E000704308220021B867FC50E6A802F04EFCC5
:1018F000802658469E230835B8517851F8545046F2
:101900000E3BF8509C20873B3B528046200007F05E
:10191000EDFA04004046385C05F006FD982360436C
:10192000FE22F85001245846103B9205FA50043329
:10193000F850BC5178513800FEF7CCFC012800D09B
:101940003CE1079A089B099912781C700B68002AE1
:1019500000D0D8E100220133099929980B600B9936
:101960000B689B180B6007F0AFFA5A46089B11985A
:101970001A70079B1A7007F0F1FB0600129807F027
:10198000EDFB0500139807F0E9FB0A900F9807F0AC
:10199000E5FB040007F0AAFA002112224BA802F08E
:1019A000F5FB5A460123429241AA1000419307F0E9
:1019B000D5FB5246804650610021082294A802F0CF
:1019C000E5FB524659461160516091771161022141
:1019D0004046918307F08AFA52468046107F05F010
:1019E000A3FC4246504352460021906156639CA896
:1019F000082202F0CBFB524659463E231162516247
:101A0000D15419993D3B11639387300007F06EFA6A
:101A10003C2352460600D05C05F086FC52467043DB
:101A20005565906300210822A4A802F0AFFB52463E
:101A300059465846116451645E2150544BA90923FC
:101A400011655C22514628008B52160007F04EFAB1
:101A500051460500885D05F067FCFE235246594655
:101A600068439B0593640A9B5B3E9065D164166452
:101A70005164536700210822ACA802F087FB52464C
:101A800059467E237C2511665166D1541A990A98CD
:101A90001167565307F02AFA53460600585D05F0C1
:101AA00043FC534670435246986794230021D45018
:101AB000B4A8082202F06AFB524659468023D1504E
:101AC0000433D1501A33D154012649460E3B2035F8
:101AD000D1502000565307F009FA53460400585DD0
:101AE00005F022FC982352466043D050159A50AB23
:101AF00013CA13C303CA03C350A807F02FFB042360
:101B0000040046A84793469607F028FB050058A80E
:101B100007F038F85B461C9E5246039358A90523EC
:101B2000380002960195009407F066F80022310013
:101B3000380007F0AFF8002802D1380007F0FEF8AF
:101B400001284CD1089A079B10701B78099A1168DC
:101B5000002B00D0D9E0002201310B9C099B2A9870
:101B600019602368D2182260521807F0ADF9236873
:101B7000002B00D0CBE0329807F0A6F9FEF787FDE6
:101B8000281B02F0F1F9FE21890502F0E7F900288F
:101B900001D1FFF76FFAFFF785FA002903D140451D
:101BA00000D259E557E54B1C06DB013100D053E567
:101BB0005C4B984200D34FE55A484DE5AF220123D4
:101BC000009092000E992B9807F07EF90123079A56
:101BD0001370089A1370099B01221B68BCE601234D
:101BE000514A0E9900902B9807F06EF90123079A3D
:101BF0001370089A1370099B01221968ADE700233E
:101C00004A4A00900E992D9807F05EF94246079BCC
:101C10001A70089B1A70099B01221B68FFF7CEF807
:101C20000023434A00900E991D9807F04DF90123B7
:101C3000079A1370089A1370099B01221B68C3E569
:101C400000233C4A00900E991D9807F03DF90123AE
:101C5000079A1370089A1370099B01221B68FFF7FB
:101C600002FCD02200230090FF320E992E9807F03C
:101C70002BF9079B01221E70089B1E70099B1B6895
:101C8000FEF76DFE00232C4A00900E991D9807F078
:101C90001BF90123079A1370089A1370099B0122FC
:101CA0001B68FFF726FA0023244A00900E9930980B
:101CB00007F00AF90123079A1370089A1370099B19
:101CC00001221B68FEF70AFF00231D4A00900E99AF
:101CD0002F9807F0F9F80123079A1370089A1370E8
:101CE000099B01221B68FEF797FE0122FEF737FED3
:101CF0000122FFF763F80122FFF7FBF9012263E5F8
:101D00000122FFF7B0FB012226E6012225E73398E6
:101D100007F0DAF8FEF7BBFC0122FEF7DFFE012236
:101D2000FEF77AFE0180FFFFE2020000420200009F
:101D30009302000076020000590200002502000014
:101D40000D0200008023DB051868000F7047C046B5
:101D50000FB400B5084883B002F06EFC049B002B62
:101D600007D005A91800019102F044FA034802F0D7
:101D700063FC012002F056FA4415011054150110BD
:101D800070B5EFF3108C72B60D4D2B68002BFCD0A4
:101D9000BFF35F8F0724CB08C618C05C01230C403B
:101DA000A3401C000440034207D118433070BFF326
:101DB0005F8F2C608CF3108870BD1000FFF7C8FF98
:101DC0002C0100D0F8B54746CE46884680B5EFF3E3
:101DD000108C72B6214D2C68002CFCD0BFF35F8FA5
:101DE0009A422CD8D4080727055D0619012417400C
:101DF000BC402C421FD007210127894609E0D408A6
:101E0000055D06194C4639001440A1400C002942DA
:101E100011D001329342F2D201204042BFF35F8FD2
:101E200000220E4B1A608CF3108800280FDBC0BC18
:101E3000B946B046F8BD254310003570EEE7BFF354
:101E40005F8F00232B608CF31088012040424346B3
:101E5000002BECD00898FFF77BFFC0462C0100D088
:101E6000044A1078431CDBB2172B00D910231370DF
:101E70007047C0466011002010B5064B064C82B07A
:101E80000100009318221F232000FFF79BFF02B0E0
:101E900010BDC04658150110584D00200021044BBC
:101EA000044ABFF35F8F02C39342FAD17047C04622
:101EB000000100D0800100D0054B064A1360064A9D
:101EC000136053609360D3601361536193617047F3
:101ED0008080808000E400E004E400E01F231840DC
:101EE0001E3B8340002905D0C021044A49005350BD
:101EF00013607047802201498B50FAE700E100E04F
:101F000001228240034B1B6813405A1E9341D8B2F2
:101F10007047C04600E100E001238340014A13609E
:101F20007047C04600E200E0084B10309B6880001C
:101F3000C358002B07D0064A00209B1A2F229A4232
:101F40004041C0B270470020FCE7C04600ED00E011
:101F50006411002070B50D00EFF3108672B60F4AC1
:101F60001368002BFCD0BFF35F8F0D4B10309B68C4
:101F700084001B590B4A934203D09D4201D000F0CC
:101F800091FF074B9B681D51BFF35F8FBFF35F8FBE
:101F90000022024B1A6086F3108870BD240100D025
:101FA00000ED00E0CD010010F0B557464E46DE468C
:101FB0004546E0B585B0060000911700EFF3108BA1
:101FC00072B66A4A1368002BFCD0BFF35F8F0025FE
:101FD000674B5D579A46002D00DAA9E06B00654C0F
:101FE00001935B199B009846A146C1444B4652465B
:101FF0009B7910361370604BB6009B6899590B1B88
:102000002F2B33D95D4B994200D0ACE0019B424667
:102010009C465B4B6544AD0063535A4B0232A21899
:10202000043B9B1A1B05584A5B0D651913436B80D3
:10203000564B0121AB80FF23AB71009BEF71AB606E
:102040004B460B4319004C4B9B689951BFF35F8F74
:10205000BFF35F8F0022454B1A608BF3108805B0E9
:10206000F0BCBB46B246A946A046F0BD01200A001E
:102070008243D3798C46BB4231D84546130044494C
:102080001B1B5B415943090D3D4B63533D4B0235CF
:102090006519043B5B1B1B053B4D5B0D2B43AA469F
:1020A0004D466B800425AC465546E044131F44441E
:1020B0001B1B1B055B0D1D434B46997100999D80B1
:1020C00099604946DF71334B01431360BBE7580009
:1020D000C01880002018C179B9422FD90200062308
:1020E000D356002BF3DA02932B4B61460393131D57
:1020F0009A4604235B429C46E14450464B461B1AD9
:102100001B055B0D9C46204B9571984663464046E7
:1021100003439380019B5A199200039BA418A38048
:10212000029B1C4AA371009B2260E771A3608AE7AF
:1021300000F0B8FE002553465D574FE790880293A4
:102140004005131D9A46031561469C464046D444FB
:10215000634604302018181AE0230005400D1B02C6
:1021600018430390C5E700F09DFE4FE7240100D01F
:10217000335200206411002000ED00E0CD0100107A
:1021800000A1FFFF9411002000E0FFFF01BDFFFF51
:10219000AAAA00000148804701BD000070B50124D3
:1021A0000443EFF30581EFF3108C72B6214A1368F4
:1021B000002BFCD0BFF35F8F1F4B05001F4AED1AA9
:1021C0006D416A43120D1E4D8900AE6852B27658B9
:1021D000A6421CD00621595691421CD012215956B4
:1021E000914222D01E215956914220D02A2159567F
:1021F0000324914210D0134B19781A708171BFF3E8
:102200005F8F00220B4B1A608CF3108870BDAB6897
:102210000D4C5C50EFE700246100091989005B1840
:10222000FF21997109499980E5E70124F4E7022427
:10223000F2E7C046240100D064110020AAAA0000E1
:1022400000ED00E033520020CD01001001BDFFFF82
:1022500010B5084B084C82B0010000930022052302
:102260002000FFF7AFFD002801DB1F23181A02B082
:1022700010BDC0467415011037520020024B9C4619
:1022800061448900016070474000003470B5114C12
:10229000114DAC420FD2FF262368002B0CD0FFF764
:1022A000DFFD01002000FFF7E9FFA680BFF35F8F8D
:1022B0000834AC42F0D370BDFFF7D2FD010020001E
:1022C000FFF7DCFF2671BFF35F8F0834AC42E3D326
:1022D000F1E7C046001900201019002010B50400D5
:1022E000FFF7BEFD01002000FFF7C8FFFF232371A9
:1022F000BFF35F8F10BDC04610B504000120FFF78B
:10230000BBFD034BC3189B002360BFF35F8F10BD61
:1023100040000034034B9C46614489000160BFF3D8
:102320005F8F7047400000340A4B1968EFF310804C
:1023300072B60A68002AFCD0BFF35F8F1B68BFF338
:102340005F8F00221A6080F3108840BF00200021B8
:102350007047C04610520020F0B5DE4657464E4644
:102360004546E0B583B0EFF3058203231340B54A39
:10237000990052580091904601229A40B24B9346E0
:102380001A60B24B01932EE043469B881BB2002B90
:1023900000DB99E043469B79002B00D0DDE043460B
:1023A00008241C5F002C00DA06E143465A696300EA
:1023B0001B19DB00D3189D68DC686B1C00D107E19A
:1023C000A34B00999C4661449A6A0B69A81A9B1A10
:1023D000984200D20D619E4800F026FB8C4200DD41
:1023E000EAE000D126E15B46994843634346082270
:1023F0009B5E9946002BC7DB424652695B009246C2
:102400004B44DB009A4453469E68DF6800F00CFBA7
:102410008F42B9DC00D100E1002F00DAE1E0524642
:10242000534654691B69019A934200D1D4E0414656
:1024300052460820085E5288000421001043984745
:1024400004000D0023002B4300D1CAE0002D00DB67
:10245000E7E030003900001BA94153469860D9607D
:1024600000229A5E002A8FDB43465D6953009C1868
:10247000E4002C19A768E4688C4200DD84E702D1EF
:10248000874200D980E74646328108360DE08C420B
:1024900000D1D3E01E000023F25E002A0ADB5300C5
:1024A0009C18E4002C19A768E4689B18DB00EB1863
:1024B0008C42ECDD53461A804B46338043469B8862
:1024C0001BB2002B00DA65E743461A69EFF310816F
:1024D00072B61368002BFCD0BFF35F8F43469E8813
:1024E000012342465B42938036B21369BFF35F8F8C
:1024F00000221A6081F31088002E00DA4AE7434672
:102500005D69083342469C467700BF19FF00EF190A
:10251000BB68604698460823D15E9246FC68002955
:1025200007DA0EE0A2424FD018000023C15E002956
:1025300006DB4B005B18DB00EB18DA68A242F1DD2A
:10254000524606800023FE5E3980002EDCDA90467B
:1025500043469B79002B00D121E70023424693712B
:10256000434646460821595E08364B1C24D0474650
:102570008946556902E006004B1C18D04B005B18D9
:10258000DB00E8180A008C46E95E43881BB2002B8A
:10259000F1DA01235B42DC178360C4604A4503D053
:1025A00031803B8903803A81E1464B1CE6D14C46A1
:1025B000B846002C00DBF8E640BF03B0F0BCBB46D9
:1025C000B246A946A046F0BD9A684245ACD9B7E7E5
:1025D000631C00D0F4E6FEE620002369984700283B
:1025E00025D1534642461B8813811269EFF31083AD
:1025F00072B611680029FCD0BFF35F8F4246514686
:1026000052880A804246494651801269BFF35F8F63
:102610000021116083F31088B6E6864200D8FBE6FD
:10262000B2E60B4800F000FA0019694115E7656849
:10263000246807E7854200D8D5E6BDE7874200D881
:1026400028E737E7F45100203C700540592300107B
:102650000040054070B52E4C2569002D04D00A219C
:102660002C48FFF70BFE70BD2B4E0321300000F00D
:10267000D1F9E660FFF7F4FB284B03229C46D023F8
:1026800022701B061B6801216370254B6044A36008
:102690000F23800020610220638063694942A1808A
:1026A00019800231198647311D83585218315A5208
:1026B00075325C3999521832013199521832013110
:1026C0009952183201319952083518329D5202310F
:1026D00018329952183201319952183201319952F7
:1026E00018320131995218320131995218320131A0
:1026F00099520C4B0C49DC6001303562FFF72AFC23
:1027000001210320FFF7EAFB084B1D60A7E7C04645
:10271000AC11002010520020004005404000003461
:10272000FFFF1000F45100205923001038600540CD
:1027300000487047AC110020F8B51F0008AB1B78AB
:1027400004001600002B08D100F076F932003B009F
:10275000121A8B41002B00DA53E02269EFF310804C
:1027600072B61368002BFCD0BFF35F8F0223E15ECB
:1027700063694A005218D2009B18002937DB1A8877
:1027800062802269BFF35F8F0025156080F3108897
:10279000069A9E60DF601A61079A5A615A88013270
:1027A0005204520C101C002A1FD082B25880080418
:1027B00010432669EFF3108772B63268002AFCD006
:1027C000BFF35F8FA2881A80A1802369BFF35F8F58
:1027D00000221A6087F310880B4923788C46013257
:1027E0009A40E36863441A60F8BD0120DDE723697D
:1027F000BFF35F8F00221A6080F3108801204042EF
:10280000F2E70020F0E7C0463C20000070B5010070
:102810000469EFF3108C72B620680028FCD0BFF377
:102820005F8F02200D5E4C6968004019C0002418BB
:10283000002D37DB208848800869BFF35F8F0026B2
:1028400006608CF31088E36063880498013320618C
:102850005B0405985B0CA26060611A1C002B1FD002
:1028600093B22804628018430A69EFF3108C72B6A1
:102870001368002BFCD0BFF35F8F8B8823808D8083
:102880000B69BFF35F8F00221A608CF310880B78FE
:1028900001329A40CB6808498C4663441A6070BD87
:1028A0000122DDE70B69BFF35F8F00221A608CF312
:1028B000108801204042F2E73C20000010B5438917
:1028C0000A1493421ADD53009B184269DB00D318A7
:1028D0000469EFF3108C72B62268002AFCD0BFF3B3
:1028E0005F8F5A88090494B2090C8A4208D00369A0
:1028F000BFF35F8F00221A608CF31088002010BD98
:102900008022120214435C80012302698371BFF3A9
:102910005F8F002111608CF31088044902788C4687
:102920009340C268012062441360E8E73C20000045
:1029300040787047F0B5CE46474680B504000D009C
:1029400083B0EFF305878846002F3ED12E4EA14677
:102950003378F06804339B00816A1B58601A5B1A55
:1029600098420ED320BF294900204B6AAB4203D3C3
:102970008A6A0130944231D803B0C0BCB946B0462F
:10298000F0BD00F059F822002B00121A8B41002BE9
:102990002FDB1F4B2200009330002B000197FFF725
:1029A00035FF011E25DD194B5A6AAA421BD220BFF2
:1029B0003000FFF783FF154A0020536A4345DBD3FD
:1029C000926A01309145D7D908E0104900204B6A3E
:1029D000AB42D1D38A6A0130A242CDD25B1B5A1ED0
:1029E0009341D8B2C8E79B6A9C42E1D9AA42DFD1A1
:1029F000DDE7064A0020536A4345BDD3926A0120B1
:102A00009145B9D9EAE7C046AC1100200040054025
:102A10002923001010B5024A0248FFF7B1F910BD92
:102A2000901501105C4D00200300416A0A00986A6D
:102A3000596A8A42FAD17047034B596A0A00986A68
:102A4000596A9142FAD170470040054070B50400C0
:102A50000D00174A536A1900966A536A8B42FAD1DD
:102A60003000190024184D41AB4216D813D0104A3B
:102A70002B00526A954203D90D494A6A9A42FCD307
:102A80009A4207D10A4A02E0516A994202D1916AF8
:102A9000A142F9D370BDA642E9D9054B5B6A1C007F
:102AA0005A1CEFD0012301246442E5175B42E3E79F
:102AB00000400540F8B5DE464E4657464546E0B56F
:102AC0008B4605000A991800160000F0F1FA0A9BDF
:102AD0006C001F02324B64199C46A4006444636876
:102AE00081469F4200D967602B1FDBB29846012BBD
:102AF00030D9C02380229B01E31812011A60294BB0
:102B0000AD0059599A4600291BD17301E02622686D
:102B100053401E40802342465B01E3181E60012A99
:102B200030D9802380229B01E31812011A6053469A
:102B30004A4667605A51F0BCBB46B246A946A04619
:102B4000F8BD586900F0B4FA013043001B18033B8C
:102B5000FDD2DAE75B46012BCBD1C02303229B01D8
:102B6000E3181A60023AA3681A42FCD07301E02607
:102B70002268AD0053401E4080230A4A5B01924602
:102B8000E3181E605A462168514003220A401A6029
:102B900001225B469A40A3681A42FCD0C1E7C046B6
:102BA00000800040604D0020F0B546464F46D646B6
:102BB000C0B51F00344B44009C462418A400644454
:102BC000636888461600FF2B02D880235B00636091
:102BD000031FDBB29A46012B30D9C02380229B0110
:102BE000E31812011A60294B8500595999460029AA
:102BF0001BD17301E026226853401E4080235246B9
:102C00005B01E3181E60012A30D9802380229B01DA
:102C1000E31812011A6080235B0063604B465F512A
:102C2000E0BCBA46B146A846F0BD586900F040FA8B
:102C3000013043001B18033BFDD2DAE74346012B6A
:102C4000CBD1C02303229B01E3181A60023AA36888
:102C50001A42FCD07301E0262268850053401E40D2
:102C600080230A4A5B019146E3181E6042462168B0
:102C7000514003220A401A60012342469340A26851
:102C80001342FCD0C1E7C04600800040604D0020E8
:102C9000014B8000C0587047604D0020F8B504001B
:102CA00021481E0017000D0000F002FA0100380054
:102CB00000F0FEF9069B36041B031E432368002B1D
:102CC00020DB1A4B1A49E3185A1E934180229201C5
:102CD00094465B421B0B174A1B0363441360164A5E
:102CE00013601F000A689743FBD1144B2560E2185C
:102CF0002123A06013602368002BFCDA0823E66020
:102D00001360F8BD3F2322681340AB42D9D1A368BA
:102D10001B051B0D8342D4D1EE22E368D20213407F
:102D2000B342CED1EDE7C046001BB7000040FDBF67
:102D300008C0004000E0004000F000400430000007
:102D400010B580241C4BE4051C6000281AD0012318
:102D50001A4C18431A4BDC611A4C44401C625962ED
:102D600098628021144BC9051960174817490860FB
:102D7000E021C9041960002A07D18022144B1206F1
:102D80001A6010BD0E4BD861EBE753019B1A9B00F4
:102D90009A18802312015B049A4209D213000D494C
:102DA0000B60074B5A608022094BD2051A60E8E796
:102DB000094B1A00F3E7C04600B00540D3C007B086
:102DC000008005402D3FF84FFCFF01000820014026
:102DD00000A00540CC510020FFFFFF008023024AE5
:102DE0009B000B43D362704700800540142310B54D
:102DF0000100188804331B88984710BD162310B5AE
:102E00000100188802331B88984710BDF8B5474663
:102E1000CE4680B50F1E19D0142399460433040002
:102E20000025012698464B461888434621681B8892
:102E3000984701C4431E9841013540420640AF42C5
:102E4000F1D13000C0BCB946B046F8BD0126F8E764
:102E5000142370B50400188804331B880D0005493D
:102E6000984703000020002C01DB0130A04029001E
:102E70009847C04655420000AA23064A1B0113602A
:102E80002F230549D360054B19605368002BFCDAEA
:102E90007047C0460040024000B0FA0000600240A7
:102EA0007047C04610B50148FEF752FFB415011037
:102EB00070B5074D074EB54209D20024013E761B7E
:102EC000B60808CD984723000134B342F9D170BD4C
:102ED000900B0110CC0B0110054B064A06491A60F5
:102EE000064A074B1A6010000B689843FBD17047E5
:102EF00000E00040BFCDFBFE08C00040FE7F3C006C
:102F000000F00040044BDB6C002B03D18022034B0C
:102F1000D2021A607047C046000011504C20115078
:102F2000044A054B1A60054A1368DB018033FBD164
:102F30007047C046FFFFFF0100F0004008C000409E
:102F40004022034B9A675A671A67DA667047C04691
:102F500000F0014010B5FEF7A1FF10BD70B5044DA3
:102F6000044CA968C022200001F016F9AC6070BDC5
:102F700000ED00E000000020002310B5294C82B0D5
:102F8000A367FFF779FF0122274B1A60636C012BBF
:102F9000FCD10322254B1A60224A936B012BFCD1F2
:102FA000013300930121224A22480433FFF776FEC1
:102FB000052301210093204A2048FFF76FFE0022DD
:102FC000022104201E4BFFF7EFFD00220121052006
:102FD0001C4BFFF7E9FD0022002107201A4BFFF7E9
:102FE000E3FD002200210820174BFFF7DDFD8023C1
:102FF000DB000093002200210920134BFFF75AFD4C
:103000000022104B00210620FFF7CEFD0420FFF721
:103010003FFE0E4900F04CF801000020FFF7DEFEF5
:1030200002B010BD008000403CB0004030B0004015
:10303000002F685900800240008C864700C0024083
:10304000001BB70040597307006CDC0240420F00C0
:1030500001480421014B1847D01100200D2E00100B
:10306000124A936F9B0815D29066D166002905D04D
:10307000FFE7FFE7FFE7516F106F704704B580214E
:103080000906C2175140002800D0C8430DF020FDAA
:10309000002104BDF0B5146E556E576F166FFFF723
:1030A000E3FF1466556657671667F0BD000000D051
:1030B000114A936F9B0813D210665166002905D000
:1030C000FFE7FFE7FFE7516F106F704704B5002877
:1030D00001D00020C0430DF0FBFC002104BDC04620
:1030E000F0B5146E556E576F166FFFF7E5FF146657
:1030F000556657671667F0BD000000D094464A4AEF
:10310000926F9208624601D228E0C046F0B5464E62
:10311000346E756E776F366F00F020F89446424A31
:1031200014665566576716676246F0BD94463E4A78
:10313000926F9208624601D254E0C046F0B53A4E12
:10314000346E756E776F366F00F04CF89446364AE1
:1031500014665566576716676246F0BD002B24DB80
:1031600011D000293EDA00B5C943404200D10131F7
:1031700000F038F8C943404200D10131DB435242EC
:1031800000D1013300BD002AEBD1002801D1002974
:1031900005D00020C90FC90701D1C043410800B5BF
:1031A0000DF08EFC0022002300BD00B500290ADBD3
:1031B000DB43524200D1013300F014F8C9434042CE
:1031C00000D1013100BDC943404200D10131DB4390
:1031D000524200D1013300F005F8DB43524200D1E6
:1031E000013300BD002923D1002B18D1002A0CD0B7
:1031F000BC460D4F38667A6600210023FFE7FFE7E3
:10320000FFE77A6F386F67467047002801D007489C
:10321000010000B50DF054FC0022002300BD0200A7
:103220000B00002000217047000000D0FFFFFFFFCF
:10323000002B00D0BFE0130C28D1002AE7D080B4C7
:10324000114F39667A66FFE7FFE730B4040C7B6FF5
:10325000396F1B0423433B667A66FFE7FFE7FFE70E
:10326000C04684B27B6F3D6F1B0423433B667A6686
:10327000FFE7FFE7C04600232C042D0C7A6F386F60
:1032800000196941B0BC7047000000D0F0B5944609
:103290000025140E01D112020835140F01D11201BC
:1032A0000435940F01D192000235D40F01D15200A0
:1032B0000135D40B0134254F7C66254C3C660E0C41
:1032C00093B2FFE7FFE7FFE73C6F6643360C7703F7
:1032D000BE467343DF0B5B04C01AB941130C734342
:1032E000DB18C91ACE086643360CB64493B2734352
:1032F0001F0F1B01C01AB941130C73431F0B1B0591
:10330000C01AB941860D8F023E436643360C092D23
:1033100024DB520A7243801A7703460A6643360C4E
:1033200016235B1BDE40DF40BF1964466643821BE9
:103330007046043506330100D940A840C01900D3B7
:103340000131A24206D20023F0BD0000000000D0EF
:10335000FFFFFFFF121B0130F3D3F1E709277F1BAB
:10336000FE406446A2B27243801A00D20139220C98
:103370007243130C1204821A99410B0070460435F3
:1033800013370100F940A840801900D30131002B08
:1033900002D1A2420AD2F0BD013000D30131121B8A
:1033A000FAD2013BF8D1A24200D2F0BD013000D3E5
:1033B0000131121BF7E7F0B51C0C00D080E00CB413
:1033C00000251C0A04D11B02160E334312020835D5
:1033D0001C0B04D11B01160F3343120104359C0B47
:1033E00004D19B00960F334392000235DC0B02D1CF
:1033F00092185B4101351C00971864410134464F17
:103400007C66464C3C660E0CFFE7FFE7FFE7C046D4
:103410003C6F6643360C7703BE4697B27743C01BBA
:1034200000D20139C01B00D201399FB27743C91BBA
:10343000C91B170C77437E04FF0B801BB941CE08D4
:103440006643360C0C2D33DBB644120B1F053A4392
:103450001B0B97B27743C01B00D201399FB2774351
:10346000C91B170C77433E043F0C801BB941860DE6
:103470008F023E43664329277F1BFE400C3D774663
:10348000AF40BF1930BCA2B2ABB272437343801AD3
:103490009941220C7243130C1204801A99410200C4
:1034A0000B000137001BA941F9D2781E0021F0BDA5
:1034B0000C277F1BFE4077467F0BAF40FF19E0E7EC
:1034C00000245D1C07D0144F7D663966FFE7FFE7D7
:1034D000FFE7FFE73C6F95B29EB265436643401B32
:1034E000B141150C1E0C6543664336042F0C3E4358
:1034F0002D04401BB141994204D202000B00200070
:103500000021F0BD01D19042F7D3801A99410134D6
:103510009942F2D3F6E70000000000D0FFFFFFFF62
:1035200048404140484018B41B4B5B68FC4601933F
:1035300008BD04DFBF38001018B4174B1B68FC46E9
:10354000019308BD00DFC93800109446134A926FFA
:10355000920809D2624618B40F4BDB68FC4601930F
:1035600008BD0CDF813B00100C4AF0B5146E556E9F
:10357000576F166F6246FFF7EEFF084A14665566EE
:1035800057671667F0BD18B4034B9B68FC46019360
:1035900008BD08DF253A0010981A0020000000D06E
:1035A000FFB550404240504059404B40594000E028
:1035B000FFB5154F4C00640D03D0BC4204D10C0381
:1035C00014D80020090D09055C00640D03D0BC422D
:1035D00004D11C030AD800221B0D1B0501264B40F9
:1035E00009D44B4003D58B4200D18242FFBD9942A2
:1035F000FCD19042FFBD0B43DB1803431343F5D0CE
:10360000C9434918FFBD0000FF07000000B5FFF7E0
:10361000CFFF01D0002000BD012000BD00B5FFF7A5
:10362000C7FF804100BDC04600B5FFF7C1FF01D90B
:10363000002000BD012000BD00B5FFF7B1FF8041B3
:1036400000BD012040054A00121804D85A00121883
:1036500001D8002070470120704700000021002899
:1036600005D17047C1174840401AFAD0C90713B5B1
:10367000064B1B6898470CBC441CA2401005120B5B
:103680000349091B09051943114310BD0C520020C1
:103690001F04000010B54C00620D8023D218DB001F
:1036A000D21A5B057E2A10DD9E3A13DACC17090385
:1036B000490819435242D140640001341532202A8E
:1036C00005DAD0400843604310BD002010BD084615
:1036D000604310BDC80FC018013810BDC94211D3D6
:1036E00000B549004908002200F018F8002904D468
:1036F000002240428A41114600BD80210906002077
:1037000000BD000018B4044BDB6EFC46019308BDFD
:103710006CDF313D00100000981A002018B4044BF3
:103720009B6FFC46019308BD78DF4F3D0010000001
:10373000981A002018B4044BDB6FFC46019308BDB7
:103740007CDFBD3D00100000981A0020132370B5E7
:103750001D78012D19D014DD1F48FFF74FFB06001F
:103760001E48FFF74BFB1E4C80223100200000F06A
:1037700013FD022D2DD01B48FFF738FB1A4B1860A4
:1037800070BD1A4B164CA364F5E7184B144C23601C
:103790006360A360E36023616361A361E36123620B
:1037A0006362A362E36223636363A363E3632364EB
:1037B0006364A364E36423656365A365E3652366CB
:1037C0006366A366E36623676367A367E367A3642F
:1037D000D1E7064BA364CEE75344000053460000F4
:1037E000981A00204C3300000C5200208D38001035
:1037F000244A4B0094465B0D6344F0B504000D0071
:103800005A1C21DB5A1C35D0342B1CDA3326F61A0D
:103810003700203F1CD40121B9400B000121B140E9
:103820000A0012196B41002F1EDB0224BC4021004C
:103830000224B44020001600002544428D41264059
:103840002B4030001900F0BDCB0F0020D907FAE75C
:1038500020210120891BC8400121B14003000A003A
:1038600012196B41002FE0DA20240225A41BE54049
:103870002900DDE7CB0F044ADB071A4300201100C3
:10388000E1E7C04601FCFFFF0000F03F07B56046DE
:1038900001880A0A0230DF2AFAD1C9B2820804D3A9
:1038A000028840880004104300E00068014A50503C
:1038B000039007BD981A00200FB403BC0CBCF0B5F0
:1038C0000124E407634000E0F0B50C0DCF0F661E45
:1038D0003605891B640503D3C943404200D3013137
:1038E000640D03D0661CF60A07D0E41B00207F009D
:1038F000791C89078912803C24031D0DDF0F6E1E81
:1039000036059B1B6D0503D3DB43524200D30133C5
:103910006D0D03D06E1CF60A07D0ED1B00227F0050
:103920007B1C9B079B12803D2D032F1B661B58D4CD
:10393000A446202E46DA20371400BC401D00BD40AE
:10394000F24033412A4380185941CB0F05D0C94377
:10395000C043002264425041514162464D0D28D17E
:103960000D0D07D100281FD0241940414941013ACB
:103970000D0DF9D0640006D3013000D30131002CC5
:1039800001D140084000013A0BD4941CE40A04D150
:1039900012051144DB071944F0BDD907204B194328
:1039A00000E0D9070020F0BD0029DDD1002CDBD1DB
:1039B000F0BD0132C6074008CD0728434908002E54
:1039C000E1D0D9E73C2E29DA203E40371400BC4034
:1039D00000D00124F24014431A00BB401C43D3170B
:1039E000ACE7AC46202F08DA20360400B4400D00C6
:1039F000B540F84039412843A5E73C2F0CDA203F79
:103A000040360400B44000D00124F84004430800CC
:103A1000B1400C43C117EAE710001900002494E7F5
:103A20000000F07FF0B50C0D661E3605891BE60A16
:103A30006405640D02D0651CED0A04D0002001214C
:103A40000905803C2403A4461C0D671E3F05DB1BB3
:103A5000E70A6405640D02D0651CED0A04D000225B
:103A600001231B05803C24037740644497B484B24F
:103A700096B27443070C7E43150C6F4380B26843C3
:103A8000361802D3012000043F183004350C001909
:103A90007D41844688B29AB250430C0C62431F0C9D
:103AA0007C438EB27E43921902D301263604A419B8
:103AB0001604170C3618674101BC81B29AB2514303
:103AC000040C62431B0C5C4380B25843121802D3AF
:103AD0000120000424181004130C401863412D1811
:103AE0005E410020474106BC88B293B258430C0C9B
:103AF0006343120C544389B251435B1802D3012132
:103B00000904641819041A0C091862416D18564109
:103B10000020474118BCF902720D1143F0026A0DF2
:103B20001043ED020A0D03D16D1940414941013B9B
:103B3000124E9B1B7600B3420ED26D0007D30130AC
:103B4000002671416646354301D1400840001B05FF
:103B5000C918E4072144F0BD0BDA013306D1013066
:103B600004D101314F0D01D04908F2E7E1070020EF
:103B7000F0BD013631050020EBE70000FF03000037
:103B8000F0B51C0D671E3F05DB1BE70A6405640DDD
:103B900002D0661CF60A04D0002201231B05803CDB
:103BA0002403D0252D060026F6432E661E096E66D8
:103BB000CE0FF619B44649004F0D02D07E1CF60A0E
:103BC00003D000200021403F3F033E1BB600B44419
:103BD000013F7F05C91B49082E6F013676089C02FC
:103BE000950D25437543ED137543AD1301356D10E8
:103BF000F603761B0CB4CC02450D2C43A2B2B3B233
:103C00005A43270C7B43350C6F43A4B26C431B19FA
:103C100002D3012424043F191C041D0CA4187D4167
:103C200024196D41009A91B2ACB26143170C7C43E8
:103C30002B0C5F4392B25A43A41802D30122120400
:103C4000BF182204230C52187B41019C6C431B19A2
:103C5000520ED9010A434401A01A81B2B2B25143B3
:103C600003145A43360C734387B27743D617D219DD
:103C700000277E4136049B191704160C7F185E41FD
:103C80007316ED18F301002680337541A90F06D194
:103C90006400690AE8055B0A184309D22FE0042290
:103CA000944480337541A90AA8059B0A184326D37A
:103CB000404149412404009A019B0D005543641B77
:103CC0004343E41A95B286B27543170C7E43030C46
:103CD0005F4392B25A43B61802D301221204BF18AE
:103CE0003204330C52197B4152429C41002C02D4C5
:103CF0000022013051414008CA071043490802B070
:103D00006246D7079210084BD218084B9A4203D24A
:103D100012058918C919F0BD0020002A01DC3900FC
:103D2000F0BD01331905F5E7FD030000FE070000B3
:103D3000002200B500F00DF8CA179A4200D100BD6C
:103D4000D8430121C907414000BD000000220B15E6
:103D50000AD410B5944600F05FF81414013400DA68
:103D60000021CB17144C20470020002170476244EB
:103D7000343A0CD40C2A07DA0400914090405242A5
:103D80002032D440214310BDD843D94310BD203246
:103D900007D40C469440524220321141D040204377
:103DA00010BD0800C917203203D4524220321041FE
:103DB00010BD1800190010BD6F3D00104A00520DD3
:103DC000144BD21A13DDFF2A1EDAD205CB0FDB0704
:103DD0001A43C300400F0903490A084310435B001C
:103DE00001D301D0013070474308FBD2704702D0A5
:103DF000C80FC00770470A0312130132F8D1420FEF
:103E0000072AF5D1012200E0FF22C80F0002801826
:103E1000C0057047800300000A0DCC0F531E1B0520
:103E2000C91A520503D3C943404200D30131520D90
:103E300003D0531CDB0A07D0121B00206400611C56
:103E400089078912803A1203014BD21A7047000089
:103E5000FF03000051434343C9188C46110C83B241
:103E60004B4310B4040C614392B280B2504362439E
:103E70001C041B0C001910BC59411304120CC0186F
:103E800051416144704700004840414048400E4B5A
:103E90005B6818470C4B1B6818470C4A936F9B08CC
:103EA00002D2094BDB681847F0B5146E556E576F98
:103EB000166FFFF7F6FF054A1466556657671667D3
:103EC000F0BD014B9B681847981B0020000000D0F4
:103ED00007B548404140484001E0C04607B54200B0
:103EE000120E03D0FF2A03D1420218D8C00DC0051C
:103EF0004A00120E03D0FF2A03D14A020FD8C90D7F
:103F0000C9050122414005D4414001D5814207BD88
:103F1000884207BD0143491801D0C043001807BDBE
:103F200000B5FFF7DBFF01D0002000BD012000BD80
:103F300000B5FFF7D3FF804100BDC04600B5FFF7D5
:103F4000CDFF01D9002000BD012000BD00B5FFF765
:103F5000BFFF01D9002000BD012000BD00B5FFF763
:103F6000B7FF804100BD0000C10FC90700D5404226
:103F7000002817D0F44603B40B4B1B68984706BCC7
:103F800081409E384042803107D20B0607D049005D
:103F9000490AC0051043084360470130F8E7490A61
:103FA0008902F5E7704700000C52002041000A0E1C
:103FB00080231B067E2A0BDD9E3A0BDAC1174002D6
:103FC000400818435242D0404900013148437047ED
:103FD00000207047C00FC01801387047C0420DD391
:103FE00000B540004008002100F012F8002801D47C
:103FF000404200BD8020000600BD0000034BDB698D
:10400000FC4618471CDFF94000100000981B0020F8
:10401000014B5B6A18470000981B0020034BDB6FC5
:10402000FC4618477CDF114100100000981B00205F
:10403000132310B512481C78FEF7E0FE0100012C96
:104040000AD003DD80220F4800F0A6F80E48FEF7E4
:10405000CDFE0E4B186010BD0A4C5422200000F01B
:104060009BF80B4B6365A365E36523666366A366F4
:10407000E36623676367A367E3672362E361E5E7BA
:1040800053460000981B00204C3300000C520020C7
:10409000CD40001043001B0E7F3B5A1C0DDB5A1C09
:1040A0000ED0172B08DA1622D21A012393401818C3
:1040B000022393405B4218407047C00FC007FBE7E4
:1040C000C00FC307FE2080051843F5E707B560461B
:1040D00001880A0A0230DF2AFAD1C9B2820804D361
:1040E000028840880004104300E00068014A5050F4
:1040F000039007BD981B00200021C215803280323A
:1041000001D0024A1047002070470000CD2A00006D
:10411000C30FDB0741000A0E07D0FF2A08D00909A8
:10412000054A891819434007704719000020704755
:104130000249C918FAE70000000000380000F07FCB
:1041400070B504000A4E30000CF012FD200009F09A
:104150009FFA050030000CF0ABFC002D05D0054B9C
:104160002C199C4201D8280070BD0348FDF7F0FDD2
:104170000019002000000420C0150110014804218E
:10418000014B1847E01100200D2E0010014B1B6859
:1041900018470000E0110020014B5B681847000041
:1041A000E011002010B5002800D110BD00F0F8F992
:1041B000FBE7C0460FB430B50C4985B008AA08CA61
:1041C0000D680392002D0CD000920122084C52423F
:1041D000200002A9A847012005B030BC08BC04B0EB
:1041E0001847180000F028FA0020F5E7C851002011
:1041F000A541001010B5094A0300146884B0002CD2
:1042000008D0012200910648524203A9A04701208C
:1042100004B010BD00F010FA0020F9E7C8510020EA
:10422000A541001000BEFDE7094A03001068002800
:1042300005D00849C3188B4207D813607047064859
:104240000449C31810608B42F7D901204042F5E7BA
:10425000C04D00200000042038520020002070478C
:10426000012040427047C046030010B5080011000D
:10427000002B05D1044B1A685B6800F033F910BDC0
:1042800001204042FBE7C046482601100300013BE5
:1042900010B508001400012B06D8012300222100CC
:1042A00000F0A0F8200010BD01204042FBE7C0460E
:1042B000012040427047C046012040427047C0463E
:1042C000012040427047C0460300022200209A426B
:1042D0004041704710B5FFF7A5FFC04630B50D004F
:1042E00083B01900002A0BD0074B084C01920093B1
:1042F00002002B002000FFF75DFF0120FFF792FF77
:10430000034B1A00F1E7C0462016011030160110C9
:104310004015011070B5FEF7CBFD074D074EB542B5
:1043200009D20024013E761BB60808CD9847230029
:104330000134B342F9D170BDCC0B0110D80B011080
:10434000030010B5080011001B68984710BDC04657
:10435000F0B5C64600B5437D07000D001600002BE2
:1043600038D0002A2EDD00216A1E90466A5C037D4B
:104370004C1C00200A2A0CD0A64216D043461B5DD6
:1043800021000D3B5A4253416A5CDBB24C1C0A2AA5
:10439000F2D1002BF0D1884217DB022110483B6894
:1043A0009847A64207D02000E8E7864203DD311A8D
:1043B0003B6828189847AD19013D2B780D3B5A42B0
:1043C00053413B7580BCB846F0BD091A3B682818BC
:1043D0009847E2E70368110028009847F2E7C046D3
:1043E000A4260110F0B5DE4657464E464546E0B5D8
:1043F00085B017001C0006000D00FEF71DFB002312
:10440000314A12184B41802109068B4202D3012206
:104410002E4B52422E4908008A460CF091FB019027
:104420006B1C03D1300007F097F80500002C26D054
:10443000284B9846284B1C68002C15D0002F21D102
:10444000264F02E02469002C0ED02368002BF9D0FF
:104450003B68002B01D09C42F4D120002A0031009F
:10446000C0472469002CF0D1019B002B28D12800E3
:1044700005B0F0BCBB46B246A946A046F0BD184BFD
:104480009846D7E7154B994602ABDF1D0A239B469A
:1044900002E02469002CE7D02368002BF9D04B46BA
:1044A0001B68002B01D0A342F3D12A003100200069
:1044B000C0475B460122390020003B70C047E8E757
:1044C00050460CF0F5FAD2E740420F00FFFFFF7FA5
:1044D0000819002051430010B04D0020BC4D0020B1
:1044E00041430010F8B557464E464546DE469846CD
:1044F0001A4BE0B59B461A4B07000E0091469A46B0
:10450000184D5B461C68002C03D115E02469002C73
:1045100012D02B68002B01D0A342F7D1A368002B47
:10452000F4D03100380098470028EFDDF0BCBB46DE
:10453000B246A946A046F8BD53465B6A984508D8DE
:104540005246926A4A4502D302204042EEE798451D
:10455000FAD101200021FEF779FAD2E7B04D002010
:1045600000400540BC4D00200A4A1368002B05D1CD
:104570000CE01A001B691032002B07D09842F8D1CA
:10458000002902D103691360016170470029FCD042
:104590001060FAE7B04D002010B500F08DFA10BDA4
:1045A000F0B5CE46474680B583B06B460600DD1DAC
:1045B0002870FEF741FA00231A4A12184B41802155
:1045C00009068B4202D30122174B524217490800B9
:1045D00088460CF0B5FA164B81461C68002C14D0A6
:1045E000144F02E02469002C0FD02368002BF9D06F
:1045F0003B68002B01D09C42F4D12000012229000D
:10460000FFF7A6FE2469002CEFD14B46002B05D105
:10461000300003B0C0BCB946B046F0BD40460CF017
:1046200047FAF5E740420F00FFFFFF7F081900201F
:10463000B04D0020BC4D002070B5040006F08CFF8A
:1046400001230100050001222000FFF7CBFE084BEB
:104650001C68002C06D06368002B05D0984724699D
:10466000002CF8D1280070BD2469002CF3D1F9E7A3
:10467000B04D00207047C0460022014B1A707047B1
:10468000345200204B790020FF2B0BD18B79002B6B
:1046900008D1CB79012B05D1082A03D9024B8A789E
:1046A00009301A707047C04634520020012070470C
:1046B00010B5012901D0012010BD1349537910799B
:1046C00009781B02034300209942F5D15378012B4E
:1046D00008D0022BF0D1002064220021FEF730FB2D
:1046E0000120E9E7D37891781B021943DB0507D550
:1046F0004A0A100001231A407E331940FEF7A8FB36
:1047000001204A0A4042F5E7345200200048704731
:104710007027011070B5050014000120012909D18E
:1047200053780020012B05D1637912791B021343C2
:10473000072B00D070BD21002800024A9F3301F0F2
:1047400049FAF7E7C82601100123037000487047B3
:10475000A82601104B780A781B0213438A7810B5FB
:1047600012041A43CB781B0613439622D2009342BD
:1047700000D010BD0022012011004042FEF768FB6E
:10478000024B1860024B19607047C046504D002024
:10479000544D002010B5024B1878FDF7BDFB10BD3D
:1047A00035520020154B70B51A68002A22D0EFF35D
:1047B000108172B610680028FCD0BFF35F8F002014
:1047C0000F4A596010701B68BFF35F8F186081F348
:1047D0001088002400250B4E3078FDF791FB00284F
:1047E00004D1002400252900200070BD3078FDF799
:1047F00093FBF8E7FA240025A400ECE7EC51002035
:10480000365200203552002070B5040000200E0002
:1048100001F0F8FA002836D0002001F00BFB002848
:1048200031D0FEF709F90023184A12184B418021B4
:1048300009068B4216D2164D28000CF081F900288B
:1048400021D0002001F0DEFA00280FD10120002144
:10485000404200F0F3FC0324644228000CF028F9E5
:10486000200070BD01220B4B5242E4E7002001F012
:10487000E1FA0028EAD021003200002001F0E6FA37
:10488000041EEAD1E7E703246442E9E740420F004F
:1048900014520020FFFFFF7F10B5FEF7CDF8002374
:1048A0000E4A12184B41802109068B4202D3012285
:1048B0000B4B52420B4C20000CF042F900280CD05C
:1048C00001200021404200F0B9FC002001F00AFB69
:1048D0000028F5D120000CF0EBF810BD40420F008D
:1048E000FFFFFF7F14520020F8B5DE46574680B523
:1048F00005000C00FEF7A0F80023374A12184B41C0
:10490000802109068B4202D30122344B52423449A2
:1049100008008A460CF014F9002803D1C0BCBB463D
:10492000B246F8BD002001F06DFA00284AD00026FA
:10493000002C43DD2B4B9B4614E0A919002001F00D
:104940000DFB070001200021404200F077FC002011
:1049500001F0C8FAFEF770F8224BF619186059609A
:10496000B4422BDD002001F019FBA71B0200B84266
:1049700000DD3A00002AE0D101200021404200F091
:104980005DFC002001F0AEFA002001F03BFA0028A7
:1049900014D0002001F002FB0028E1D1FEF74CF812
:1049A0005B460F001A685B68002184460E481218A7
:1049B0004B419F4202D8D3D19445D1D950460CF0F7
:1049C00077F8ABE700200021064B1860596050468D
:1049D0000CF06EF8A2E7C04640420F00FFFFFF7FD9
:1049E00014520020901A002020A1070030B52B4C53
:1049F00085B0002120000CF07BF800281CD1284B4A
:104A00001A68002A16D0EFF3108172B610680028D9
:104A1000FCD0BFF35F8F01242248596002781B68E5
:104A2000D2B20470BFF35F8F0020186081F310884A
:104A3000002A17D005B030BD01200021404200F00F
:104A4000FDFB002001F0F6F9050020000CF030F825
:104A5000002DEFD0144B1B68002BEBD0134A1068CD
:104A60009847E7E7FDF764FE0400FDF7E5FFFA224B
:104A70000023920012184B41802109068B4202D379
:104A800001220B4B5242012102910021019109495F
:104A900020000091FDF750FECCE7C04614520020E4
:104AA000EC51002036520020504D0020544D002083
:104AB000FFFFFF7FA5470010D02310B51B0684B071
:104AC0001C68FDF735FEFDF733FFA04202D0002041
:104AD00004B010BD294B1B7801F06AFD284803681B
:104AE000002B47D00120FDF7B3FBFF23254C2649BF
:104AF00020701840FDF72EFA20780121FDF7EEF91D
:104B00000520FDF711FA002826D1082200211F48B0
:104B1000FFF73CFBFDF70CFE0400FDF78DFFFA22CA
:104B20000023920012184B41802109068B4202D3C8
:104B30000122174B52420121029100210191154996
:104B400020000091FDF7F8FD0028C0DB124801218C
:104B5000FFF70AFD0120BBE70120FDF78DF90B4BA4
:104B600001001800FDF7D6FB002205200B49FDF7D8
:104B70001BFAEBE7FDF7B2FBB4E7C046BC2E011011
:104B80001452002035520020ED490010EC51002055
:104B9000FFFFFF7FA5470010F01100209547001090
:104BA000004870470C28011000487047B8270110D2
:104BB00010B5040017480378002B20D0002C06D134
:104BC000154B16484380063BFF3B038010BD052C68
:104BD00019D8134BA400E05812490123013804E00E
:104BE00001330A800231142B0FD0C25C002AF7D1A6
:104BF000C022DBB25B00920008481343E5E71121B5
:104C000000F01AF8DAE70020E0E7CA2303489B0027
:104C1000DBE7C0461C52002009040000884D00203C
:104C2000A02701108A4D002010B5024800F0D8F8E6
:104C300010BDC0460452002030B54B1E012900D1E2
:104C4000A7E0664A11780D092C0030349F2900D95D
:104C5000A2E00470012B00D1BEE00F2114782140A6
:104C60000C003034092900D998E04470022B00D19F
:104C7000B2E054782509290030319F2C00D990E00A
:104C80008170032B00D1A7E00F2121400C003034AC
:104C9000092900D987E0C470042B00D19CE09478E6
:104CA0002509290030319F2C00D97FE00171052BA7
:104CB00000D191E00F2121400C003034092900D9A6
:104CC00076E04471062B00D186E0D47825092900CE
:104CD00030319F2C00D96EE08171072B00D17BE031
:104CE0000F2121400C003034092966D8C471082BEB
:104CF00000D171E014792509290030319F2C5FD84B
:104D00000172092B68D00F2121400C003034092991
:104D100058D844720A2B5FD05479250929003031C4
:104D20009F2C52D881720B2B56D00F2121400C00A2
:104D3000303409294BD8C4720C2B4DD094792509F5
:104D4000290030319F2C00D9073101730D2B43D03E
:104D50000F2121400C003034092901D937310C00D2
:104D600044730E2B38D0D1790C09220030329F29A0
:104D700000D9073282730F2B2ED00F220A40110068
:104D80003731092A01D830321100C173102B23D0DA
:104D900010300023037030BD07345AE737310C0060
:104DA00063E707316CE737310C0074E707317DE7C3
:104DB00037310C0085E707318EE737310C0095E776
:104DC00007319DE737310C00A3E70731AAE73731F8
:104DD0000C00C4720C2BB1D1C018DAE704520020C9
:104DE00010B588B004000D2200216846FFF7CEF907
:104DF0000D22002104A8FFF7C9F94B236A46684633
:104E0000137004A90D220BF04BFE1521082220007F
:104E10006944FFF7C1F908B010BDC046F8B500F00D
:104E20003BF90C23184DFF22AB6705201749FDF70E
:104E3000BBF8174C402200212000FFF7A7F94027BC
:104E4000002301262121134A66702783A260136084
:104E500063545F316184453963540F4A0F4963607D
:104E6000E2602787A1620B606362E2620BF060FE82
:104E700080239B052E64EB649023094AEA5080222C
:104E8000084B5202DA64F8BD00001150E90400201A
:104E9000C44D0020840010500001105080001050BC
:104EA00010D001000020115010B501210520FDF7A0
:104EB00015F810BD10B500220021024800F00CF9D1
:104EC00010BDC046E44D0020044B1970002904D0E9
:104ED00080219023024A8902D1507047305200202D
:104EE000002011500B785B0602D14B78052B00D0C7
:104EF00070478A78014B1A60FAE7C04600001150EB
:104F0000F0B5C64600B5CC7888780A794B797F2110
:104F1000A40701401B02C50913434F00A20F140050
:104F2000324E7A195201B2189070012068405070C8
:104F300000205B055B0DD0701383D4768046CA00D9
:104F4000012D33D02A488446880162448446B44403
:104F50006046826040461060002933D0254AC9006F
:104F600090466246414451603F223F339343022CB6
:104F700000D15B0020487A1901685201B218D16053
:104F80001E4ACB18036051405A40802388465B017B
:104F90009A4228D84346A4061C4380237F197F01E8
:104FA000F61972681B062343136011E01448844607
:104FB000880162448446B444604682624046106080
:104FC000002909D100236D0175196B600D4BEB6051
:104FD000012080BCB846F0BD084AC9009046624630
:104FE00041445162C0E7FDF75DFFD3E7C44D0020A7
:104FF0008400105004001050D051002000001050C8
:10500000800010500001105010B50BF091FD10BD44
:1050100010B57F200C0020404000E4091100001969
:105020001A00034B4001C01800F056F8012010BDD3
:10503000C44D00207F23180010B50840CA090B4258
:1050400003D107497D3B9B1A8B6640008018802264
:10505000044B40010021C01812010BF081FD10BD6E
:1050600000201150C44D00207F22130010B50B40CA
:105070000A4200D110BDC9095B005B1804485B01FE
:10508000C018002300220349C3700BF069FDF1E74B
:10509000C44D0020FFF7FFFF80220A4B520410B5D9
:1050A0001A60094B09491A6010000B689843FBD13C
:1050B0008022002152010648FFF768F80922054BBB
:1050C0005A6710BD00E0004000F0004008C00040FA
:1050D0000000105000001150002310B5C3820133AE
:1050E00082828376016104000BF0FAFC002804D070
:1050F00080219023074A8902D15020000BF0C8FC80
:10510000002802D00123237710BD20000BF020FDE2
:10511000FAE7C046002011507047C0467047C046AD
:1051200000207047002070477047C0467047C04657
:105130007047C0467047C046024B5878431E98419E
:10514000C0B2704768480020024B18784007C00F73
:105150007047C04668480020F8B54746CE4680B53F
:105160002B4F06003B78FF2B04D00120C0BCB94672
:10517000B046F8BD002154222648FFF707F8002268
:10518000254C264B20001A70FDF7A8F8244B1C6014
:10519000244C2000143CFDF7AFF8200001F0F2FD94
:1051A000214B224D1C60224B002B27D02800FFF7FB
:1051B000CBFA204B2A7818601F49002489461D49E4
:1051C0000023884610E043461B6862019B18002BB1
:1051D00012D05B68002B0FD098472A780134E4B2D4
:1051E000511C2300A1420BDBA242ECD89B1A5B01AD
:1051F0004B445B68002BEFD10020B7E72A78DBE750
:1052000030003E70FFF70AFE3000FFF74DFEACE7BE
:10521000241200206848002020480020315200203D
:10522000BC4800201C120020C04800202F52002043
:10523000494700103C450020C8280110F0B5DE4663
:1052400057464E464546E0B5C84B91B002931B7891
:10525000FF2B00D13EE1C64BC64E9B465F46C64B78
:105260000DAC0193C54B009335686A69EFF310816B
:1052700072B61368002BFCD0BFF35F8FA9612800C2
:10528000210001F0ADFB6A69AB69BFF35F8F0021BC
:10529000116083F31088002800D11BE16378082B8C
:1052A000E2D89B00FB589F466368002BDCD0A068C7
:1052B0009847D9E77F222179AF4D0A405300EB1878
:1052C0009846C809804440460123303005799D4303
:1052D0000571057903339D430571002A00D100E172
:1052E0004346A74A1B7D1278934200D3EFE0A54ABC
:1052F0005B011568ED18002D00D1EBE0A368627921
:105300002078AD69A847AFE79F4A1378002B00D1FA
:10531000E0E01378013BDBB213701378002BA3D1CC
:105320000122954D01212B78042013432B70342347
:10533000EA5C8A43EA54EA5C8243EA540133EA5C59
:105340008A43EA54EA5C8243EA54237800209B466D
:1053500000F0A0FC602223791A40602A00D1EFE01F
:10536000402A00D1F5E0DB06DB0E012B00D113E172
:10537000022B00D1C7E0002B00D0E1E0202A00D1B1
:105380001CE2002A00D0DBE06379092B00D9D7E0CA
:105390007E4A9B00D3589F46774D2B78DB0700D47D
:1053A00062E7FFF7C7FE5FE7019BDB78DB0700D40E
:1053B0005AE76068FFF7B2FE56E76F4D2B78DB07C0
:1053C00000D451E728780007C00FFFF7B1FE4BE784
:1053D00023786A4999468B46694B6A4998468A46BA
:1053E00039001A7847460023B04600254E468946C4
:1053F00010E053461B686A019B18002B00D176E031
:10540000DB68300098473A780135EDB2511C2B002B
:105410008D4244DC9542ECD39B1A5B015B44EFE781
:10542000237858499946564B8A4698463100BB46E0
:105430004E461A7800250023474689460FE053461A
:105440001B686A019B18002B55D0DB683000984719
:105450003A780135EDB2511C2B008D4207DC9542A4
:10546000EDD39B1A009A5B0194466344EDE7019DDE
:10547000542200212800FEF789FE1022FF21444813
:10548000FEF784FE28002022FF2114304E465F469E
:10549000FEF77CFE00F0F4FBFFF748FEE4E6364D35
:1054A000542200212800FEF771FE1022FF21281D42
:1054B000FEF76CFE28002022FF21143046464F469E
:1054C000FEF764FE00F0DCFB2379AB70CCE6501CE9
:1054D000984213DA11B0F0BCBB46B246A946A046CA
:1054E000F0BDA3686279207800F0E8FBBCE6464690
:1054F0004F46214DE6E74E465F46CBE71F4D9B1AD0
:105500005B015D19FAE67023217A0B4218D1C809B4
:1055100082460F330B405B0098461948EB18534402
:105520001B7D00789946834266D216485B0100686D
:1055300081469944002A00D15FE14B46002B68D197
:1055400020780021FFF776FD80212078FFF772FD9B
:105550008AE6104800F09EFB012158460EAAFFF78C
:10556000D9F8002800D07FE6EAE7C04624120020E0
:1055700020280110C048002068480020C8280110D9
:105580002F5200203C4500203152002044280110B9
:105590006C48002015470010237A0F2BD0D8CF4A33
:1055A000EB181B791578AB423ED3691C9942C7DBD7
:1055B0005D1BCB4B6D01ED18686900F06BFB0121A1
:1055C00058466B690EAA9847002800D04CE6602226
:1055D000150023791D401A42B2D163790A3B012B91
:1055E000AED800F057FB63790A2B00D199E15846F9
:1055F0000EA900F0D9FA37E6431C4B4500DAF7E074
:105600004B461B1A5B019946B5488144002A00D1DC
:10561000F3E04B46586900F03DFB4B4601215846EC
:105620005B690EAA98479CE7AE4A5B011568ED18C6
:10563000002DC1D184E7A37999466B789945D6D0DE
:105640006B78002B00D033E14B466B70002B00D100
:105650002BE148460138C0B2FFF7A6FA002800D176
:105660007EE143780793022B00D079E10122C179D2
:10567000B1468B11491113400A40302112015B01E0
:1056800013432A78A8468A4313432B7009239A466A
:1056900082445646BA46C37882781B021343C31825
:1056A00005938E4B04938E4B08938E4B09938E4B30
:1056B0000A93059BB34200D855E1737801220B2B66
:1056C00003D13378F278F6187378042B00D044E1D4
:1056D000059B00279B1B9BB20693049B0B921D7896
:1056E000002303931BE0099A7B011568ED18002D38
:1056F00000D132E1310058462B69069A984784461A
:10570000082803D9069A824200D313E1049B01378B
:105710001D78FFB26B1C03979F4200DD1DE1BD4267
:10572000E1D8039B5D1B089B6D019C466544E1E746
:105730006B780CAA02321370584601230EA900F0B0
:1057400049FA91E5E3881A0AD8B20F2A00D9F7E698
:1057500066499300CB589F460EA800F0A1FA584620
:10576000A179FFF7A7FB02222B7813432B707BE56F
:10577000E388012B00D0E3E608222B7858469343B8
:105780000EA92B7000F010FA6EE5022029780CAB00
:105790009A1C8B068908DB0F01400B431380584687
:1057A00002230EA900F016FA5EE5E388012B00D073
:1057B000C6E608222B7813432B7018E7237A0F2BA9
:1057C00000D9BDE6EB181D79444B1B789D4228D2C9
:1057D000444B6D011B685D19002D00D1B0E668696E
:1057E00000F058FA012158466B690EAA9847B8E6AE
:1057F000002A00D0A4E60023994662790220130013
:1058000003928343012B15D0002A00D098E62B0089
:105810004344534430331B790CAA9B07DB0F0232FD
:10582000BCE75A1CAA4200DA8AE6ED1A2C4B6D013D
:10583000ED18D4E7E388002B12D1029B1878039B64
:10584000012B23D0FFF7F6FB43460221EB1853440C
:1058500030331A790A4301211A711A790A431A71ED
:105860004B46002B00D1FFE4586900F013FA4B4679
:1058700001215B690EAA58469847002000F00AFAF9
:105880003523EB5CDB0700D5EEE4B0E6FFF7ECFB7D
:1058900043460221EB18534430331A798A431A7174
:1058A0001A7903998A431A71DAE7FFF73FFC9EE6FB
:1058B00000215846FFF708FB5846FFF7A5FBAB78D9
:1058C000074903930491054B064998461A780591B8
:1058D000002329001D008A461BE0C0462F520020ED
:1058E000C82801103C4500207C4800206C2801108D
:1058F000059B6A011B689B18002B4DD0DB6858463E
:10590000984743461A780135EDB2511C2B008D4261
:105910002EDC9542ECD39B1A049A5B0194466344B7
:10592000ECE70CAB9A1C584601230EA9157000F049
:1059300051F999E40B9A012A4FD0002A3CD0002358
:10594000B07804E00133DBB20F71934234D2C11856
:10595000C9B241440D79FF2DF4D04E464546574615
:1059600000236B70ECE54E465746FFF7DDFB3EE645
:105970005546542200212800FEF708FC1022FF2182
:10598000281DFEF703FC28002022FF211430FEF71B
:10599000FDFB039BAB7057E65546FAE7FEF7B6FEF4
:1059A000021E00D1CCE5D37891781B020B435846F8
:1059B0000EA900F00FF9D4E565463B002A0031003E
:1059C0000A9800F07DFEAC46049B039A1B7866445F
:1059D0000133934200DB6CE6BFE7174B296999421C
:1059E000ADD1079AABE7FFF79BFB021E00D1A7E5FD
:1059F000584613780EA900F0EDF8B2E52189FFF7BB
:105A0000D7F8021EF4D19BE5022A0FD0FFF78AFBDC
:105A1000021EC8D194E5FFF7C3F8021E00D18FE53E
:105A2000122358460EA900F0D5F89AE5FFF7BCF806
:105A3000021EB8D184E5C046B1600010F8B55746E3
:105A40004E46DE4645460C00E0B516001F00002A13
:105A50003CD01F4B00259A46702399461D4B9B4610
:105A600017E05B462000997800F0ECFD00281FD07D
:105A700021004046FFF744FA002819D0A378DA093C
:105A8000012A1CD00A9A013513702378E418B54214
:105A90001CDA6378052B0BD1E3789B079B0FBB4285
:105AA00006D153464A461B789846A3781A42D8D066
:105AB0000020F0BCBB46B246A946A046F8BD0B9AF2
:105AC000013513702378E418B542E2DB0120F0E7DA
:105AD0002412002068480020702270B5094B0C0089
