:020000041000EA
:1000000000B5324B212058609868022188439860DF
:10001000D860186158612E4B002199600221596106
:100020000121F02299502B49196001219960352056
:1000300000F044F80222904214D00621196600F024
:1000400034F8196E01211966002018661A6600F04E
:100050002CF8196E196E196E052000F02FF8012189
:100060000842F9D1002199601B49196000215960AB
:100070001A491B48016001219960EB211966A021F2
:10008000196600F012F800219960164914480160C1
:100090000121996001BC002800D000471248134993
:1000A000086003C880F30888084703B5996A0420EC
:1000B0000142FBD001200142F8D103BD02B5186610
:1000C0001866FFF7F2FF186E186E02BD00000240BE
:1000D000000000180000070000035F00212200005C
:1000E000F4000018222000A00001001008ED00E03C
:1000F00000000000000000000000000074B24E7A12
:1001000000200420F7010010C3010010C5010010F9
:10011000C1010010C1010010C1010010C101001097
:10012000C1010010C1010010C1010010C701001081
:10013000C1010010C1010010C9010010CB01001065
:10014000CD010010CD010010CD010010CD01001037
:10015000CD010010CD010010CD010010CD01001027
:10016000CD010010CD010010CD010010CD01001017
:10017000CD010010CD010010CD010010CD01001007
:10018000CD010010CD010010CD010010CD010010F7
:10019000CD010010CD010010CD010010CD010010E7
:1001A000CD010010CD010010CD010010CD010010D7
:1001B000CD010010CD010010CD010010CD010010C7
:1001C00000BE00BE00BE00BE00BE00BEEFF3058054
:1001D000103800BEF2EB8871CCE70010ECE700109D
:1001E0003802001090A31AE71E481F49086006C88D
:1001F00081F3088810471D480068002801D019487D
:10020000F3E70DA40ECC002902D000F012F8F9E7B4
:100210001749184A002000E001C19142FCD116495B
:100220008847164988471649884700BEFDE701C937
:1002300001C29A42FBD37047ECE70010C0000020D7
:10024000BC170020E8FE001000000420000004207D
:10025000E8FE001000100420001004200000000040
:10026000704700000000000008ED00E0000000D032
:10027000BC170020C029002099430010D5020010AF
:1002800059430010F8B5C04606480749091A8B10B3
:10029000C90FC91810B5491003D0044B002B00D06A
:1002A000984710BDBC170020BC17002000000000BC
:1002B000054B10B5002B03D00449054800E000BFF2
:1002C000FFF7E2FF10BDC046000000005C290020DF
:1002D0005CCB0010F0B5DE46454657464E46E0B5CD
:1002E000F04CA54407F0DCF9EF4BF04C9846F04B8E
:1002F00063AD9946EF4B5393EF4B0493EF4B4E9303
:10030000EF4B4F93EF4B5093EF4B5193EF4B529377
:10031000EF4B9B46EF4B2F93EF4B3693EF4B1F93D7
:10032000EF4B1A93EF4B2C93EF4B3A93EF4B3B93DE
:10033000EF4B2D93EF4B3E93EF4B0E93EF4B3C93D4
:10034000EF4B3793EF4B1793EF4B3893EF4B3993BA
:10035000EF4B2093EF4B1B93EF4B2E93EF4B3D93C3
:10036000EF4B3093EF4B2193EF4B0F93EF4B3193C8
:10037000EF4B3293EF4B3F93EF4B4093EF4B419357
:10038000EF4B4293EF4B4393EF4B1D93EF4B359362
:10039000EF4B1293EF4B4493EF4B4593EF4B469348
:1003A000EF4B4793EF4B4893EF4B4993EF4B4A93F7
:1003B000EF4B4B93EF4B4C93EF4B4D93EF4B1E9307
:1003C000EF4B1C93EF4B1093EF4B2293EF4B239388
:1003D000EF4B3393EF4B3493EF4B2493EF4B259339
:1003E000EF4B2693EF4B2793EF4B1193EF4B189363
:1003F000EF4B0B93EF4B1993EF4B1393EF4B28936A
:10040000EF4B2993EF4B2A93EF4B2B93EF4B149326
:10041000EF4B1593EF4B0593EF4B0A93EF4B16936E
:10042000EF4B5493EF4B559300239A465246434665
:100430001A604B4653981A6007F020F95346237010
:100440004346012642461B68049F01334E981360C1
:100450003E7007F013F953462370434642461B682B
:100460004F98013313603E7007F008F9534623702C
:10047000434642461B685098013313603E7007F0B4
:10048000FDF853462370434642461B68519801339A
:1004900013603E7007F0F2F853462370434642461D
:1004A0001B685298013313603E7007F0E7F853461B
:1004B0000020002170AA3B70237006F0E9FC014384
:1004C00001D001F032FD709B002B01D001F088FCBF
:1004D00070AA0020C44906F0DBFC02000B1E01DDFF
:1004E00001F040FB002905D18021C9058A4201D3D2
:1004F00001F038FB80200021C005801A99410128B5
:1005000001D001F041FB002901D001F03DFB709BBF
:10051000012B08D00093F322012359461A9807F0C3
:10052000ADF80123237070AA0020B04906F0B0FC9A
:1005300002000B1E01DD01F0F0FA002905D1802137
:10054000C9058A4201D301F0E8FA80200021C005E4
:10055000801A9941012801D001F0F1FA002901D057
:1005600001F0EDFA709B5A1C09D000930123F72289
:100570005B4259462C9807F081F80123237070AA3A
:1005800000209B4906F084FC0B000200591C09DB8B
:10059000591C01D001F09DFAC02109068A4201D3FD
:1005A00001F097FAC020012100064942801A9941C2
:1005B000012801D001F09EFA002901D001F09AFA39
:1005C000709B012B08D00093FB22012359461A98F7
:1005D00007F054F80123237070AA8648864906F074
:1005E00057FC02000B1E01DD01F050FA002904D176
:1005F00082498A4201D901F049FA00218048801AD3
:100600009941012801D001F051FA002901D001F0EF
:100610004DFA709B072B08D00093FF220723594601
:100620002D9807F02BF8012323700020754970AA3C
:1006300006F02EFC03000B4316D0CB17089309934A
:10064000089E099F330043400C933B004B400D93A1
:100650000C9A0D9B921BBB41012A01D001F00EFCAC
:10066000002B01D001F00AFC709B674A934209D02D
:1006700000931300042259460E98FF3206F0FEFF45
:100680000123237070AA0020604906F001FC0200DB
:100690000B00511C01D101F041FB01205A4940429D
:1006A000B6E0C046D4FDFFFF4C1B0020B52900205A
:1006B000481B002060CB0010B629002088CB00101A
:1006C000C0CB00100CCC001050CC00109CCC001003
:1006D000C8CC001040CD001068CD001090CD0010A7
:1006E000C4CD0010ECCD001014CE001048CE001088
:1006F0007CCE0010A4CE0010CCCE0010FCCE00109A
:1007000048CF001094CF0010CCCF0010F4CF0010D1
:100710001CD0001050D0001078D00010A0D00010D5
:10072000D4D0001014D100103CD1001074D10010AE
:1007300094D10010C4D10010F0D100101CD20010D0
:1007400048D2001078D20010ACD20010DCD20010D9
:1007500010D3001044D3001090D30010DCD300104D
:1007600028D4001074D40010C0D400100CD5001090
:100770005CD50010ACD50010FCD5001054D600108C
:10078000C0D600102CD7001060D70010A8D70010DA
:10079000F0D7001038D8001080D80010CCD8001046
:1007A00018D9001090D9001008DA001040DA0010B3
:1007B00074DA0010A0DA0010D4DA001008DB0010A0
:1007C00050DB001098DB0010DCDB001028DC001090
:1007D00080E0001060DC0010C8DC001024DD001098
:1007E00038DD001050DD00100000F03F0000D03F69
:1007F0000000F0BFCDCCCCCCCCDC5E403233737B80
:100800003333737B0000F87FFFFFFF7F0000F07F32
:10081000801A9941012801D101F08EFA8321490003
:100820000391594610000291190003F069F8F34B47
:100830000090019100223C9806F020FF01232370D4
:10084000709BEF4A934209D0009313000822594647
:100850000E98FF3206F012FF0123237070AA0020C9
:10086000E84906F015FB0B00802102000020090674
:1008700080185941002901D101F0D3FA852149009E
:100880000391594610000291190003F039F8002233
:1008900000900191DC4B379806F0F0FE0122709B2E
:1008A000D74922708B4201D101F029FB0C22009321
:1008B000FF32D34B59460E9806F0E0FE0123049A0E
:1008C00023701370434601221B6841460B604B4660
:1008D0001B6817989B184A46136006F0CFFE5246D5
:1008E000049B22701A700020002170AA06F0D0FA32
:1008F000031E01D001F039FA709B002B01D001F0EA
:1009000028FA0020C14970AA06F0C2FA8023DB054C
:10091000984201DC01F093F8C0231B06C318012B99
:1009200011D002F0B1FF0B008D214900039159460F
:10093000020000200291B64900900191209806F033
:100940009DFE01232370709B012B08D001261C22E1
:1009500059461B980096FF3206F090FE2670002044
:10096000AC4970AA06F094FA8023DB05984201DCBA
:1009700001F05CF8C0231B06C318012B11D002F054
:1009800083FF0B002221FF31039159460200002012
:1009900002919F4900900191209806F06FFE01237B
:1009A0002370709B5A1C0AD00122524200922432BA
:1009B00059462E98FF3206F061FE01232370002075
:1009C000954970AA06F064FAC0231B06984201DC20
:1009D00001F023F88023DB05C318012B11D002F0AE
:1009E00053FF0B0094214900039159460200002057
:1009F00002918A49009001913D9806F03FFE012343
:100A00002370709B012B08D001262A2259461B987F
:100A10000096FF3206F032FE26708148814970AAA6
:100A200006F036FA804B984201DC00F0BFFF02F07E
:100A30002BFF7E4A7E4B06000F0002F086FE00224E
:100A40007C4B02F00BFF002801D000F0C1FF709B2F
:100A5000072B01D000F0D0FF0499063B0B704346F2
:100A600022781B68002A01D001F06FFA00220133BE
:100A700041460B604B461B680F989B184A46136013
:100A800006F0FCFD5246049B22701A7000200022E2
:100A9000002106F051FA0022002306000F0002F0A8
:100AA000C7FE002801D101F0A6F980200122002113
:100AB000C00506F041FA0022544B06000F0002F078
:100AC000BFFE002801D001F093F800223000390069
:100AD0004E4B02F0ADFE002801D101F0EDF980206F
:100AE00002220021C00506F027FA80230022DB0540
:100AF00006000F0002F0A4FE002801D100F02BFF39
:100B0000802132003B000020C90502F01EFE4A4A47
:100B10004A4B02F0A3FE002801D000F036FF70AA75
:100B20000020474906F0B4F9709A06F005FA002251
:100B3000434B06000F0002F083FE002801D100F0B5
:100B4000E2FE32003B0000203D4902F0FEFD3A4A41
:100B50003A4B02F083FE002801D000F0ECFE70AAB0
:100B60002F48304906F094F9709A06F0E5F92C4ABE
:100B70002C4B06000F0002F063FE002801D100F0AC
:100B80009AFE32003B002648264902F0DEFD2A4A42
:100B90002A4B02F063FE002801D000F0A4FE70AAE8
:100BA0002848294906F074F9709A06F0C5F9254AD3
:100BB000254B06000F0002F043FE002801D100F093
:100BC00052FE32003B001F481F4902F0BEFD1A4A88
:100BD0001A4B02F043FE002801D000F05CFE70AA20
:100BE00000201A4906F054F9709A06F0A5F902009F
:100BF0000B0002F038FE002832D129E00000E0436B
:100C0000FFFFFF7F0000F0FF0000E0C30000F03FA7
:100C10000000D0410000D03F0000F0BF0000D0C174
:100C2000CDCCCCCCCCDC5E402632737B4AEEB08996
:100C3000CCDCDE4100408F40F168E388B5F8E43E4B
:100C400000000840CE1B2785793B37C00000F87FA5
:100C5000502259461D98FF3206F010FD01232370E3
:100C600070AA0020F64906F013F9709A06F064F9AC
:100C700001224B005B0806900793069E079FF14BED
:100C800030003900524202F0EEFD00280AD1012264
:100C900030003900EB4B524202F0E0FD002801D158
:100CA00001F08FF80123049922780B7043461B68EA
:100CB000002A01D001F046F90022013341460B60C1
:100CC0004B461B6812989B184A46136006F0D6FCE8
:100CD0005246049B22701A700022DB4B1000190050
:100CE00006F0BEF90022D84B06000F0002F0A8FD66
:100CF000002801D000F09AFF002230003900D24BCA
:100D000002F096FD002801D101F0DDF880230022D9
:100D1000DB050020CC4906F0A3F980230022DB0587
:100D200006000F0002F08CFD002801D100F070FDDC
:100D3000802132003B000020C90502F006FDC34AB5
:100D4000C34B02F08BFD002801D000F07BFD802119
:100D50000022BD4B0020C90506F082F98023002245
:100D6000DB0506000F0002F06BFD002801D100F04A
:100D700024FD802132003B000020C90502F0E5FC83
:100D8000B24AB34B02F06AFD002801D000F02FFDFB
:100D900080230022DB051000190006F061F9002213
:100DA000AC4B06000F0002F04BFD002801D100F013
:100DB000DCFC32003B000020A64902F0C6FCA34A3E
:100DC000A34B02F04BFD002801D000F0E6FC00220E
:100DD000A14B00209C4906F043F900229E4B0600DF
:100DE0000F0002F02DFD002801D100F096FC32002A
:100DF0003B000020984902F0A8FC944A944B02F072
:100E00002DFD002801D000F0A0FC0022924B100024
:100E1000190006F025F90022904B06000F0002F0A1
:100E20000FFD002801D100F050FC32003B000020F3
:100E30008A4902F08AFC854A854B02F00FFD0028A2
:100E400001D000F05AFC0022854B00207E4906F0BC
:100E500007F90022824B06000F0002F0F1FC002887
:100E600001D000F01FFF0022300039007C4B02F05F
:100E7000DFFC002801D101F034F80022724B002081
:100E8000774906F0EDF80022754B06000F0002F0DE
:100E9000D7FC002801D000F0E7FE00223000390026
:100EA0006F4B02F0C5FC002801D101F013F80022BD
:100EB0006B4B1000190006F0D3F80022624B0600BD
:100EC0000F0002F0BDFC002801D000F009FF002255
:100ED000300039005C4B02F0ABFC002801D101F07E
:100EE00007F800225F4B00205F4906F0B9F80022A6
:100EF0005E4B06000F0002F0A3FC002800D1BFE308
:100F000032003B000020594902F01FFC4F4A504B71
:100F100002F0A4FC002800D0C8E30022514B0020BE
:100F2000534906F09DF802000B0002F09CFC0028DB
:100F300007D1B32259461E98520006F09FFB0123A9
:100F4000237000224A4B0020474906F089F802002E
:100F50000B0002F088FC002801D000F0A1FFB422B1
:100F6000594652001C9806F089FB0123049A23700D
:100F70001370434601221B6841460B604B461B68B9
:100F800010989B184A46136006F078FB5246049B63
:100F900022701A7000202C4B0022002106F082F9EA
:100FA000431C0AD001236E2200905B4259462298CE
:100FB000FF3206F063FB0123237000220023002090
:100FC000214906F06FF9012809D0B72201230090CA
:100FD00059462398520006F051FB0123237000224A
:100FE000194B1000190006F05DF9002801D000F03F
:100FF000C8FE002200231000190006F053F9002853
:1010000001D000F0D2FE1B4B002200201A4906F04E
:1010100049F9431C0AD00123722200905B425946D1
:101020002498FF3206F02AFB012323700022114B83
:101030001248134906F036F901282DD022E0C046A7
:101040000000F07FFFFFEF7F0000F03FF168E388D2
:10105000B5F8E43E000010400000E03F0000D03F43
:101060000000F0BF0088B3400070A740389C6C417E
:101070000000F87F00002440000024C0CDCCCCCC80
:10108000CCDC5E40B92201230090594625985200DD
:1010900006F0F4FA0123237000220020614B62491C
:1010A00006F000F9012809D0742201230090594666
:1010B0002698FF3206F0E2FA012323700022002076
:1010C000594B584906F0EEF8012801D000F07FFD99
:1010D000049B2278187043461B68002A01D1002027
:1010E0000133424613604B464A461B681B18119851
:1010F000136006F0C3FA5246049B22701A7070AB5C
:1011000002930423002200930020484B4849019594
:1011100006F098F9639B474A709E934208D000926C
:10112000C42259461898520006F0A8FA01232370E9
:101130001F2E0AD01F238A220093594633000B9892
:10114000FF3206F09BFA0123237070AB0293042355
:10115000002200930020384B3549019506F072F9C2
:101160008022639B709ED205934208D00092C622D3
:1011700059461998520006F081FA012323701F2E58
:101180000AD01F238E220093594633000B98FF325A
:1011900006F074FA0123237070AB029380210523BB
:1011A000002200930020214B0195C90506F04AF961
:1011B000639B204A709E934208D000929222594627
:1011C0001898FF3206F05AFA012323701F2E0AD016
:1011D0001F23C9220093594633000B98520006F092
:1011E0004DFA0123237070AB029380210523002266
:1011F00000930020104B0195C90506F023F98022C9
:10120000639B709ED205934200D119E20092962210
:1012100059461998FF3206F031FA012323701F2E28
:1012200017D00BE00000F07F0000F87F0000304096
:101230000000F03FFFFFFF7F000020401F23CB2274
:101240000093594633000B98520006F017FA012319
:101250002370049A1370434601221B6841460B60B9
:101260004B461B6813989B184A46136006F006FA13
:101270005246049B22701A701B211F22042006F084
:101280004FF903000F2809D00F2200928C325946E3
:101290002898FF3206F0F2F9012323701F221B2148
:1012A000032006F03DF903000E2809D00E2200921B
:1012B0009C2259462998FF3206F0E0F90123237059
:1012C0001F221C21032006F02BF90300072809D058
:1012D00007220092963259462A98FF3206F0CEF93C
:1012E000012323701F220221042006F019F9F022A5
:1012F00003005205904201D000F059FC01230499EB
:1013000022780B7043461B68002A01D000F0FEFDD6
:101310000022013341460B604B461B6814989B1812
:101320004A46136006F0AAF95246049B15991A70B2
:10133000227070A8682202F071FF2B0056AA0D21BE
:1013400070A806F033F9C022569B1206934208D0CB
:101350000092E52259460598520006F08FF90123C4
:1013600023702B68032B09D003220092CA325946FE
:101370000A98FF3206F082F901232370C022579B9E
:101380001206934208D00092E52259460598520071
:1013900006F074F9012323706B68022B09D0022236
:1013A0000092CB3259460A98FF3206F067F90123C2
:1013B0002370C022589B1206934208D00092E52267
:1013C00059460598520006F059F901232370AB687D
:1013D000012B08D00126E62259460A9800965200B1
:1013E00006F04CF92670C022599B1206934208D091
:1013F0000092E52259460598520006F03FF9012374
:101400002370EB68002B09D052460092E622594621
:101410000A98520006F032F901232370C0225A9B29
:101420001206934208D00092E522594605985200D0
:1014300006F024F9012323702B695A1C0AD00122DB
:1014400052420092CE3259460A98FF3206F016F9FF
:1014500001232370C0225B9B1206934208D00092A6
:10146000E52259460598520006F008F90123237039
:101470006B699A1C0AD0022252420092CF3259461E
:101480000A98FF3206F0FAF8012323705C9B002BC8
:1014900009D052460092E52259460598520006F0BE
:1014A000EDF801232370AB69002B09D0524600925E
:1014B000E62259460A98520006F0E0F8012323700C
:1014C00080225D9BD205934208D00092E5225946C6
:1014D0000598520006F0D2F801232370EB699A1C9C
:1014E0000AD0022252420092CF3259460A98FF3265
:1014F00006F0C4F80123237080225E9BD20593423C
:1015000008D00092E52259460598520006F0B6F838
:10151000012323702B6A5A1C0AD0012252420092E6
:10152000CE3259460A98FF3206F0A8F801232370FC
:1015300080225F9BD205934208D00092E522594653
:101540000598520006F09AF8012323706B6A002B6D
:1015500009D052460092E62259460A98520006F0F7
:101560008DF8012323708022609BD205934208D01E
:101570000092E52259460598520006F07FF80123B3
:101580002370AB6A012B08D00126E62259460A983F
:101590000096520006F072F826708022619BD205F8
:1015A000934208D00092E52259460598520006F071
:1015B00065F801232370EB6A022B09D00222009206
:1015C000CB3259460A98FF3206F058F801232370AF
:1015D0008022629BD205934242D00092E522594676
:1015E0005200059806F04AF801222B6B2270032B5B
:1015F00001D100F08EFC03220092CA325946FF321C
:101600000A9806F03BF80123049A237013704346AE
:1016100019680123424611604A46126816989A18C2
:101620004B461A60521806F029F84B461B68002BEF
:1016300001D000F075FC549806F020F8FEF7F6FE95
:101640001F2E00D0FAE50123049922780B7043463F
:101650001B68002A01D000F081FC00220133FDE567
:101660002B6B032BC7D10122049923780A704246C1
:101670001168002B01D000F06EFC00230131C9E796
:10168000002230003900F24B02F0D2F8002800D0DE
:1016900043E40022EE4B3000390002F056F8ED4AE8
:1016A000ED4B02F0DBF8002800D136E4B2235B00FA
:1016B00003935B460022029300960197E44B4D98FA
:1016C00005F0DCFF0123237027E4002230003900FD
:1016D000E24B02F0ADF8002801D0FFF7B4FB002286
:1016E000DE4B3000390002F030F8DA4ADA4B02F013
:1016F000B5F8002801D1FFF7A6FBAE235B000393EA
:101700005B460022029300960197D44B499805F05E
:10171000B5FF01232370FFF796FB0022300039004C
:10172000CF4B02F085F8002801D0FFF76EFB0022B6
:10173000CB4B3000390002F008F8C64AC64B02F025
:101740008DF8002801D1FFF760FB5C23FF33039382
:101750005B460022029300960197C14B489805F022
:101760008DFF01232370FFF750FB0022300039006A
:10177000BC4B02F05DF8002801D0FFF728FB0022E7
:10178000B84B3000390001F0E0FFB24AB24B02F032
:1017900065F8002801D1FFF71AFBAD235B00039326
:1017A0005B460022029300960197AE4B479805F0E6
:1017B00065FF01232370FFF70AFB8023002230001E
:1017C0003900DB0502F034F8002801D0FFF7E0FA19
:1017D00080230022DB053000390001F0B6FF9D4A6E
:1017E0009D4B02F03BF8002801D1FFF7D1FA5A23B4
:1017F000FF3303935B46029380230022DB050096B0
:101800000197469805F03AFF01232370FFF7C0FACD
:101810008023002230003900DB0502F009F800289F
:1018200001D0FFF794FA80230022DB053000390055
:1018300001F08BFF874A884B02F010F8002801D195
:10184000FFF785FAAC235B0003935B46029380238A
:101850000022DB0500960197459805F00FFF012354
:101860002370FFF774FA300039007F4A7F4B01F094
:10187000DFFF002801D0FFF7B2F97B4A7C4B300034
:10188000390001F06BFF734A734B01F0E7FF00284A
:1018900001D1FFF7A4F94C23FF3303935B46009675
:1018A00001970293704A714B439805F0E7FE0123BC
:1018B0002370FFF794F9300039006E4A6E4B01F047
:1018C000B7FF002801D0FFF76AF96A4A6A4B300077
:1018D000390001F03AFF5F4A5F4B01F0BFFF00287B
:1018E00001D1FFF75CF94823FF3303935B46009671
:1018F000019702935F4A604B429805F0BFFE0123B7
:101900002370FFF74CF90022300039005B4B01F0E7
:101910008FFF002801D0FFF722F90022574B30003B
:10192000390001F012FF4B4A4B4B01F097FF0028A2
:1019300001D1FFF714F94423FF3303935B460022E0
:101940000293009601974D4B419805F097FE0123B5
:101950002370FFF704F98023002230003900DB05F3
:1019600001F066FF002801D0FFF7D9F8802300229C
:10197000DB053000390001F0E8FE364A364B01F055
:101980006DFF002801D1FFF7CAF89F235B00039386
:101990005B46029380230022DB0500960197409866
:1019A00005F06CFE01232370FFF7B9F801F06CFF1E
:1019B00002000B0006000F003148324901F0C5FE5D
:1019C0000022314B01F04AFF002801D1FFF73FF818
:1019D0003023FF3303935B46294A0293294B309807
:1019E0000092019332003B0005F048FE0122709BFB
:1019F0002270072B00D1A5E1072200922A32FF3284
:101A00005946219805F03AFE0123049A2370137079
:101A1000434601221B68FFF72BF8C0231B069842A0
:101A200001D1FEF7EEFF1B1AFEF7D7FF8023DB057F
:101A3000984201D1FEF7B5FF1B1AFEF79EFF8023E7
:101A4000DB05984201D1FEF77EFF1B1AFEF767FF08
:101A5000389C6C41F168E388B5F8E43E0000D03F63
:101A60000000E03F00001040CE1B2785793B37C0C7
:101A7000793B3740CDCCCCCCCCDC5E40000008407C
:101A80004AEEB089CCDCDE4100408F40F0498A420A
:101A900003D1002B01D1FEF7BCFD0121ED484942E5
:101AA00080185941012801D1FEF7AFFDFE210391B5
:101AB000594610000291190001F022FFE64B0090F8
:101AC0000191E64A3B9805F0D9FD01232370FEF70A
:101AD000A0FDC02109068A4203D1591C01D1FEF79D
:101AE0006FFD80200021C00580185941012801D1D7
:101AF000FEF762FDFA210391594610000291190088
:101B000001F0FEFED64B0090019100223A9805F0BC
:101B1000B5FD01232370FEF753FD8021C9058A42DC
:101B200003D1002B01D1FEF71DFDC02001210006CD
:101B3000494280185941012801D1FEF70FFDF621D5
:101B40000391594610000291190001F0D9FEC54BCE
:101B50000090019100221F9805F090FD0123237051
:101B6000FEF700FD8021C9058A4203D1002B01D177
:101B7000FEF7CDFCC02001210006494280185941E2
:101B8000012801D1FEF7BFFCF22103915946100054
:101B90000291190001F0B4FEB24B009001910022B5
:101BA0001F9805F06BFD01232370FEF7B0FC009237
:101BB0009E225946FF322B9805F060FD0123049ABE
:101BC00023701370434601221B68FFF7A3FBBB225F
:101BD0000123009052002798594605F04FFD01233C
:101BE000049A23701370434601201B68FFF779FAAB
:101BF00032003B0000209C4901F0A7FD9B4A9C4B12
:101C000001F02CFE002801D1FEF769FF3C23FF33D1
:101C100003935B460022029300960197924B3F98F4
:101C200005F02CFD01232370FEF759FF32003B0025
:101C300000208D4901F089FD8C4A8D4B01F00EFE8C
:101C4000002801D1FFF762F85823FF3303935B4666
:101C50000022029300960197834B449805F00EFDF5
:101C600001232370FFF752F832003B000020814926
:101C700001F06BFD7D4A7E4B01F0F0FD002801D1A3
:101C8000FFF715F9B0235B0003935B460022029334
:101C900000960197774B4B9805F0F0FC01232370D9
:101CA000FFF705F932003B000020724901F04DFDBD
:101CB0006E4A6F4B01F0D2FD002801D1FFF7DDF82D
:101CC000AF235B0003935B460022029300960197CB
:101CD000684B4A9805F0D2FC01232370FFF7CDF83A
:101CE00032003B000020604901F02FFD5F4A604B4D
:101CF00001F0B4FD002801D1FFF7F3F8B1235B0038
:101D000003935B460022029300960197564B4C9832
:101D100005F0B4FC01232370FFF7E3F856498B422A
:101D200001D1FEF78DFD012053494042801A9941AF
:101D3000012801D0FEF772FD002901D0FEF76EFDEB
:101D4000FEF77EFD049B1A70434601221B68FEF7D6
:101D50008FFE52460092892259463998520005F06A
:101D60008DFC01232370FEF7CCFD52460092122217
:101D700059463898FF3205F081FC01232370FEF7A5
:101D8000BBFD7022002359460090FF32339805F0C6
:101D900075FC01230022237000231000190005F0B8
:101DA00081FA002801D1FFF72EF9B8220023009014
:101DB00059463498520005F061FC01232370FFF767
:101DC00022F954225946FF32359805F057FC012379
:101DD000049A23701370434601221B68FEF76EFFBE
:101DE0000093EF2200235946369805F047FC012363
:101DF0002370FEF76DFB3900300001F05DFD9C2281
:101E000000235946520000902F9805F037FC319876
:101E100005F034FC329805F031FC01232370FEF705
:101E200044FE012801D9FEF729FD709B124A934216
:101E300001D0FEF73BFD0123049922780B70434645
:101E40001B68002A00D083E000220133FEF73DFD2D
:101E50003333737BCDCC8C84CCDCDE410000C0CC32
:101E60000000D0C10000D0410000F03FF168E388DD
:101E7000B5F8E43E0000F0BFFFFFFF7F81235B0069
:101E800003935B46029301F03BFD00230090019118
:101E900000223E9805F0F2FB01232370FEF7E4FBDD
:101EA0000123049922780B7043461B68002A46D10F
:101EB00000220133FFF760F8002230003900294B7F
:101EC00001F043FC9AE6002230003900254B01F076
:101ED0003CFCB1E6002230003900224B01F03EFC10
:101EE000C8E60022300039001E4B01F037FCDFE667
:101EF0000022300039001B4B01F027FCF6E6049B62
:101F00001A70434601221B68FEF7DFFC0122FFF72F
:101F100001FA049B1A70434619680123FFF77AFB04
:101F2000559805F0ABFBFEF781FA00900023EE22F6
:101F300059462F9805F0A2FB2670FEF7C4FA01223D
:101F4000FFF71AF80122FEF7B9FE0122FEF790FD15
:101F50000122FEF7BAFC0123FFF75CFB0122FFF729
:101F60007DF9C0460000F03F8023DB051868000FB4
:101F70007047C0460FB400B5084883B002F09EFB1E
:101F8000049B002B07D005A91800019102F074F9F9
:101F9000034802F093FB012002F086F96CDD00108B
:101FA0007CDD001070B5EFF3108C72B60D4D2B6810
:101FB000002BFCD0BFF35F8F0724CB08C618C05C92
:101FC00001230C40A3401C000440034207D11843E6
:101FD0003070BFF35F8F2C608CF3108870BD1000E1
:101FE000FFF7C8FF2C0100D0F8B54746CE4688461B
:101FF00080B5EFF3108C72B6214D2C68002CFCD00C
:10200000BFF35F8F9A422CD8D4080727055D0619C5
:1020100001241740BC402C421FD0072101278946CC
:1020200009E0D408055D06194C4639001440A1406A
:102030000C00294211D001329342F2D201204042D9
:10204000BFF35F8F00220E4B1A608CF310880028BC
:102050000FDBC0BCB946B046F8BD25431000357053
:10206000EEE7BFF35F8F00232B608CF31088012015
:1020700040424346002BECD00898FFF77BFFC04658
:102080002C0100D0044A1078431CDBB2172B00D976
:10209000102313707047C0461010002010B5064B77
:1020A000064C82B00100009318221F232000FFF786
:1020B0009BFF02B010BDC04680DD0010E42400206C
:1020C0000021044B044ABFF35F8F02C39342FAD14D
:1020D0007047C046000100D0800100D0054B064A81
:1020E0001360064A136053609360D36013615361B9
:1020F000936170478080808000E400E004E400E0A9
:102100001F2318401E3B8340002905D0C021044AEC
:102110004900535013607047802201498B50FAE701
:1021200000E100E001228240034B1B6813405A1E6D
:102130009341D8B27047C04600E100E001238340DC
:10214000014A13607047C04600E200E0084B1030BF
:102150009B688000C358002B07D0064A00209B1ABA
:102160002F229A424041C0B270470020FCE7C0468F
:1021700000ED00E01410002070B50D00EFF31086A4
:1021800072B60F4A1368002BFCD0BFF35F8F0D4B64
:1021900010309B6884001B590B4A934203D09D4228
:1021A00001D000F091FF074B9B681D51BFF35F8F7B
:1021B000BFF35F8F0022024B1A6086F3108870BD58
:1021C000240100D000ED00E0CD010010F0B557462D
:1021D0004E46DE464546E0B585B006000091170044
:1021E000EFF3108B72B66A4A1368002BFCD0BFF372
:1021F0005F8F0025674B5D579A46002D00DAA9E0F6
:102200006B00654C01935B199B009846A146C14445
:102210004B4652469B7910361370604BB6009B6854
:1022200099590B1B2F2B33D95D4B994200D0ACE051
:10223000019B42469C465B4B6544AD0063535A4B41
:102240000232A218043B9B1A1B05584A5B0D651904
:1022500013436B80564B0121AB80FF23AB71009B76
:10226000EF71AB604B460B4319004C4B9B68995187
:10227000BFF35F8FBFF35F8F0022454B1A608BF374
:10228000108805B0F0BCBB46B246A946A046F0BDDA
:1022900001200A008243D3798C46BB4231D845469F
:1022A000130044491B1B5B415943090D3D4B6353CC
:1022B0003D4B02356519043B5B1B1B053B4D5B0D1C
:1022C0002B43AA464D466B800425AC465546E04458
:1022D000131F44441B1B1B055B0D1D434B4699718B
:1022E00000999D8099604946DF71334B014313602B
:1022F000BBE75800C01880002018C179B9422FD917
:1023000002000623D356002BF3DA02932B4B6146CF
:102310000393131D9A4604235B429C46E1445046B6
:102320004B461B1A1B055B0D9C46204B957198462E
:102330006346404603439380019B5A199200039BD6
:10234000A418A380029B1C4AA371009B2260E77122
:10235000A3608AE700F0B8FE002553465D574FE7BB
:10236000908802934005131D9A46031561469C46CA
:102370004046D444634604302018181AE023000570
:10238000400D1B0218430390C5E700F09DFE4FE788
:10239000240100D0BB2900201410002000ED00E033
:1023A000CD01001000A1FFFF4410002000E0FFFF5E
:1023B00001BDFFFFAAAA00000148804701BD00003F
:1023C00070B501240443EFF30581EFF3108C72B66E
:1023D000214A1368002BFCD0BFF35F8F1F4B050011
:1023E0001F4AED1A6D416A43120D1E4D8900AE68F9
:1023F00052B27658A6421CD00621595691421CD0A2
:1024000012215956914222D01E215956914220D074
:102410002A2159560324914210D0134B19781A706F
:102420008171BFF35F8F00220B4B1A608CF3108811
:1024300070BDAB680D4C5C50EFE7002461000919DA
:1024400089005B18FF21997109499980E5E701240A
:10245000F4E70224F2E7C046240100D01410002063
:10246000AAAA000000ED00E0BB290020CD01001069
:1024700001BDFFFF10B5084B084C82B0010000936E
:10248000002205232000FFF7AFFD002801DB1F23FA
:10249000181A02B010BDC0469CDD0010BF290020F4
:1024A000024B9C4661448900016070474000003443
:1024B00070B5114C114DAC420FD2FF262368002B92
:1024C0000CD0FFF7DFFD01002000FFF7E9FFA68039
:1024D000BFF35F8F0834AC42F0D370BDFFF7D2FD7D
:1024E00001002000FFF7DCFF2671BFF35F8F083487
:1024F000AC42E3D3F1E7C046AC170020BC17002084
:1025000010B50400FFF7BEFD01002000FFF7C8FF73
:10251000FF232371BFF35F8F10BDC04610B50400C9
:102520000120FFF7BBFD034BC3189B002360BFF3E3
:102530005F8F10BD40000034034B9C46614489000E
:102540000160BFF35F8F7047400000340A4B196889
:10255000EFF3108072B60A68002AFCD0BFF35F8FD9
:102560001B68BFF35F8F00221A6080F3108840BFA2
:10257000002000217047C04698290020F0B5DE46B3
:1025800057464E464546E0B583B0EFF30582032338
:102590001340B54A990052580091904601229A4042
:1025A000B24B93461A60B24B01932EE043469B8890
:1025B0001BB2002B00DB99E043469B79002B00D037
:1025C000DDE0434608241C5F002C00DA06E14346A8
:1025D0005A6963001B19DB00D3189D68DC686B1C0B
:1025E00000D107E1A34B00999C4661449A6A0B69AC
:1025F000A81A9B1A984200D20D619E4800F026FB53
:102600008C4200DDEAE000D126E15B469948436355
:10261000434608229B5E9946002BC7DB424652691F
:102620005B0092464B44DB009A4453469E68DF6849
:1026300000F00CFB8F42B9DC00D100E1002F00DA82
:10264000E1E05246534654691B69019A934200D116
:10265000D4E0414652460820085E5288000421001A
:102660001043984704000D0023002B4300D1CAE01B
:10267000002D00DBE7E030003900001BA941534684
:102680009860D96000229A5E002A8FDB43465D691C
:1026900053009C18E4002C19A768E4688C4200DD04
:1026A00084E702D1874200D980E746463281083666
:1026B0000DE08C4200D1D3E01E000023F25E002A20
:1026C0000ADB53009C18E4002C19A768E4689B18E7
:1026D000DB00EB188C42ECDD53461A804B4633800E
:1026E00043469B881BB2002B00DA65E743461A6914
:1026F000EFF3108172B61368002BFCD0BFF35F8F2D
:1027000043469E88012342465B42938036B213695A
:10271000BFF35F8F00221A6081F31088002E00DA69
:102720004AE743465D69083342469C467700BF1935
:10273000FF00EF19BB68604698460823D15E9246B9
:10274000FC68002907DA0EE0A2424FD018000023EF
:10275000C15E002906DB4B005B18DB00EB18DA6872
:10276000A242F1DD524606800023FE5E3980002E33
:10277000DCDA904643469B79002B00D121E7002309
:1027800042469371434646460821595E08364B1C23
:1027900024D047468946556902E006004B1C18D0F4
:1027A0004B005B18DB00E8180A008C46E95E4388A2
:1027B0001BB2002BF1DA01235B42DC178360C4609B
:1027C0004A4503D031803B8903803A81E1464B1C66
:1027D000E6D14C46B846002C00DBF8E640BF03B01B
:1027E000F0BCBB46B246A946A046F0BD9A68424539
:1027F000ACD9B7E7631C00D0F4E6FEE620002369FD
:102800009847002825D1534642461B8813811269F8
:10281000EFF3108372B611680029FCD0BFF35F8F0D
:102820004246514652880A804246494651801269C2
:10283000BFF35F8F0021116083F31088B6E68642F4
:1028400000D8FBE6B2E60B4800F000FA0019694137
:1028500015E76568246807E7854200D8D5E6BDE737
:10286000874200D828E737E77C2900203C700540E4
:102870007D2500100040054070B52E4C2569002DC7
:1028800004D00A212C48FFF70BFE70BD2B4E03210C
:10289000300000F0D1F9E660FFF7F4FB284B03228B
:1028A0009C46D02322701B061B6801216370254BB8
:1028B0006044A3600F23800020610220638063696D
:1028C0004942A18019800231198647311D8358522F
:1028D00018315A5275325C39995218320131995275
:1028E0001832013199521832013199520835183293
:1028F0009D520231183299521832013199521832D0
:1029000001319952183201319952183201319952DC
:102910001832013199520C4B0C49DC6001303562A0
:10292000FFF72AFC01210320FFF7EAFB084B1D609B
:10293000A7E7C0465C100020982900200040054011
:1029400040000034FFFF10007C2900207D2500108E
:1029500038600540004870475C100020F8B51F0043
:1029600008AB1B7804001600002B08D100F076F9A4
:1029700032003B00121A8B41002B00DA53E022692F
:10298000EFF3108072B61368002BFCD0BFF35F8F9B
:102990000223E15E63694A005218D2009B180029A5
:1029A00037DB1A8862802269BFF35F8F00251560CC
:1029B00080F31088069A9E60DF601A61079A5A6158
:1029C0005A8801325204520C101C002A1FD082B2C5
:1029D0005880080410432669EFF3108772B63268F6
:1029E000002AFCD0BFF35F8FA2881A80A1802369E0
:1029F000BFF35F8F00221A6087F310880B4923789A
:102A00008C4601329A40E36863441A60F8BD0120A5
:102A1000DDE72369BFF35F8F00221A6080F310881F
:102A200001204042F2E70020F0E7C0463C200000D1
:102A300070B501000469EFF3108C72B620680028AD
:102A4000FCD0BFF35F8F02200D5E4C696800401917
:102A5000C0002418002D37DB208848800869BFF3A8
:102A60005F8F002606608CF31088E360638804980B
:102A7000013320615B0405985B0CA26060611A1C45
:102A8000002B1FD093B22804628018430A69EFF329
:102A9000108C72B61368002BFCD0BFF35F8F8B884D
:102AA00023808D800B69BFF35F8F00221A608CF347
:102AB00010880B7801329A40CB6808498C466344F1
:102AC0001A6070BD0122DDE70B69BFF35F8F002242
:102AD0001A608CF3108801204042F2E73C2000008D
:102AE00010B543890A1493421ADD53009B184269BA
:102AF000DB00D3180469EFF3108C72B62268002A49
:102B0000FCD0BFF35F8F5A88090494B2090C8A4243
:102B100008D00369BFF35F8F00221A608CF310881E
:102B2000002010BD8022120214435C800123026940
:102B30008371BFF35F8F002111608CF3108804490B
:102B400002788C469340C268012062441360E8E733
:102B50003C20000040787047F0B5CE46474680B52F
:102B600004000D0083B0EFF305878846002F3ED1A7
:102B70002E4EA1463378F06804339B00816A1B58BF
:102B8000601A5B1A98420ED320BF294900204B6A75
:102B9000AB4203D38A6A0130944231D803B0C0BC3F
:102BA000B946B046F0BD00F059F822002B00121AC9
:102BB0008B41002B2FDB1F4B2200009330002B009A
:102BC0000197FFF735FF011E25DD194B5A6AAA420E
:102BD0001BD220BF3000FFF783FF154A0020536A45
:102BE0004345DBD3926A01309145D7D908E01049BB
:102BF00000204B6AAB42D1D38A6A0130A242CDD2C7
:102C00005B1B5A1E9341D8B2C8E79B6A9C42E1D92C
:102C1000AA42DFD1DDE7064A0020536A4345BDD30F
:102C2000926A01209145B9D9EAE7C0465C100020BC
:102C3000004005404D25001010B5024A0248FFF73C
:102C4000B1F910BDB8DD0010E82400200300416A8E
:102C50000A00986A596A8A42FAD17047034B596A46
:102C60000A00986A596A9142FAD1704700400540BB
:102C700070B504000D00174A536A1900966A536A2A
:102C80008B42FAD13000190024184D41AB4216D8BE
:102C900013D0104A2B00526A954203D90D494A6A53
:102CA0009A42FCD39A4207D10A4A02E0516A9942F9
:102CB00002D1916AA142F9D370BDA642E9D9054B70
:102CC0005B6A1C005A1CEFD0012301246442E51703
:102CD0005B42E3E700400540F8B5DE464E46574606
:102CE0004546E0B58B4605000A991800160000F02D
:102CF000F1FA0A9B6C001F02324B64199C46A40037
:102D00006444636881469F4200D967602B1FDBB231
:102D10009846012B30D9C02380229B01E318120171
:102D20001A60294BAD0059599A4600291BD17301ED
:102D3000E026226853401E40802342465B01E31890
:102D40001E60012A30D9802380229B01E3181201E2
:102D50001A6053464A4667605A51F0BCBB46B246B9
:102D6000A946A046F8BD586900F0B4FA0130430006
:102D70001B18033BFDD2DAE75B46012BCBD1C02306
:102D800003229B01E3181A60023AA3681A42FCD09E
:102D90007301E0262268AD0053401E4080230A4A9A
:102DA0005B019246E3181E605A4621685140032297
:102DB0000A401A6001225B469A40A3681A42FCD07E
:102DC000C1E7C04600800040EC240020F0B5464634
:102DD0004F46D646C0B51F00344B44009C462418CD
:102DE000A4006444636888461600FF2B02D8802341
:102DF0005B006360031FDBB29A46012B30D9C0230E
:102E000080229B01E31812011A60294B8500595951
:102E1000994600291BD17301E026226853401E40C9
:102E2000802352465B01E3181E60012A30D98023BB
:102E300080229B01E31812011A6080235B0063600B
:102E40004B465F51E0BCBA46B146A846F0BD586952
:102E500000F040FA013043001B18033BFDD2DAE7D3
:102E60004346012BCBD1C02303229B01E3181A60F8
:102E7000023AA3681A42FCD07301E026226885005A
:102E800053401E4080230A4A5B019146E3181E60AE
:102E900042462168514003220A401A6001234246FB
:102EA0009340A2681342FCD0C1E7C04600800040B6
:102EB000EC240020014B8000C0587047EC24002017
:102EC000F8B5040021481E0017000D0000F002FABA
:102ED0000100380000F0FEF9069B36041B031E4378
:102EE0002368002B20DB1A4B1A49E3185A1E934122
:102EF0008022920194465B421B0B174A1B036344DA
:102F00001360164A13601F000A689743FBD1144BE5
:102F10002560E2182123A06013602368002BFCDAEF
:102F20000823E6601360F8BD3F2322681340AB42DC
:102F3000D9D1A3681B051B0D8342D4D1EE22E368CF
:102F4000D2021340B342CED1EDE7C046001BB7001A
:102F50000040FDBF08C0004000E0004000F000401D
:102F60000430000010B580241C4BE4051C600028D0
:102F70001AD001231A4C18431A4BDC611A4C4440F6
:102F80001C62596298628021144BC9051960174868
:102F900017490860E021C9041960002A07D180227E
:102FA000144B12061A6010BD0E4BD861EBE75301AB
:102FB0009B1A9B009A18802312015B049A4209D243
:102FC00013000D490B60074B5A608022094BD20554
:102FD0001A60E8E7094B1A00F3E7C04600B0054065
:102FE000D3C007B0008005402D3FF84FFCFF010023
:102FF0000820014000A0054054290020FFFFFF00E9
:103000008023024A9B000B43D36270470080054037
:10301000142310B50100188804331B88984710BD8D
:10302000162310B50100188802331B88984710BD7D
:10303000F8B54746CE4680B50F1E19D014239946E1
:10304000043304000025012698464B461888434661
:1030500021681B88984701C4431E984101354042AE
:103060000640AF42F1D13000C0BCB946B046F8BD11
:103070000126F8E7142370B50400188804331B8870
:103080000D000549984703000020002C01DB0130AA
:10309000A04029009847C04655420000AA23064A8E
:1030A0001B0113602F230549D360054B196053683A
:1030B000002BFCDA7047C0460040024000B0FA0026
:1030C000006002407047C04610B50148FEF752FF4D
:1030D000DCDD001070B5074D074EB54209D2002463
:1030E000013E761BB60808CD984723000134B34251
:1030F000F9D170BD18CB001054CB0010054B064A17
:1031000006491A60064A074B1A6010000B6898437C
:10311000FBD1704700E00040BFCDFBFE08C000407F
:10312000FE7F3C0000F00040044BDB6C002B03D121
:103130008022034BD2021A607047C0460000115033
:103140004C201150044A054B1A60054A1368DB01F4
:103150008033FBD17047C046FFFFFF0100F0004005
:1031600008C000404022034B9A675A671A67DA6624
:103170007047C04600F0014010B5FEF7A1FF10BD3A
:1031800070B5044D044CA968C022200001F046F837
:10319000AC6070BD00ED00E000000020002310B521
:1031A000294C82B0A367FFF779FF0122274B1A60F1
:1031B000636C012BFCD10322254B1A60224A936BCE
:1031C000012BFCD1013300930121224A2248043310
:1031D000FFF776FE052301210093204A2048FFF7E0
:1031E0006FFE0022022104201E4BFFF7EFFD00229C
:1031F000012105201C4BFFF7E9FD002200210720DB
:103200001A4BFFF7E3FD002200210820174BFFF7C0
:10321000DDFD8023DB000093002200210920134BF9
:10322000FFF75AFD0022104B00210620FFF7CEFDCC
:103230000420FFF73FFE0E4900F04CF8010000208B
:10324000FFF7DEFE02B010BD008000403CB0004041
:1032500030B00040002F685900800240008C864743
:1032600000C00240001BB70040597307006CDC022D
:1032700040420F0001480421014B184780100020F4
:1032800031300010124A936F9B0815D29066D166B8
:10329000002905D0FFE7FFE7FFE7516F106F704788
:1032A00004B580210906C2175140002800D0C84348
:1032B00009F0F2FB002104BDF0B5146E556E576F96
:1032C000166FFFF7E3FF1466556657671667F0BD84
:1032D000000000D0114A936F9B0813D2106651660C
:1032E000002905D0FFE7FFE7FFE7516F106F704738
:1032F00004B5002801D00020C04309F0CDFB002117
:1033000004BDC046F0B5146E556E576F166FFFF7CB
:10331000E5FF1466556657671667F0BD000000D0DC
:1033200094464A4A926F9208624601D228E0C0460B
:10333000F0B5464E346E756E776F366F00F020F83C
:103340009446424A14665566576716676246F0BD52
:1033500094463E4A926F9208624601D254E0C046BB
:10336000F0B53A4E346E756E776F366F00F04CF8EC
:103370009446364A14665566576716676246F0BD2E
:10338000002B24DB11D000293EDA00B5C9434042AE
:1033900000D1013100F038F8C943404200D1013179
:1033A000DB43524200D1013300BD002AEBD100289B
:1033B00001D1002905D00020C90FC90701D1C043A0
:1033C000410800B509F060FB0022002300BD00B5F4
:1033D00000290ADBDB43524200D1013300F014F82C
:1033E000C943404200D1013100BDC943404200D130
:1033F0000131DB43524200D1013300F005F8DB43D9
:10340000524200D1013300BD002923D1002B18D135
:10341000002A0CD0BC460D4F38667A660021002386
:10342000FFE7FFE7FFE77A6F386F674670470028CE
:1034300001D00748010000B509F026FB0022002357
:1034400000BD02000B00002000217047000000D0EA
:10345000FFFFFFFF002B00D0BFE0130C28D1002A94
:10346000E7D080B4114F39667A66FFE7FFE730B4E2
:10347000040C7B6F396F1B0423433B667A66FFE7BE
:10348000FFE7FFE7C04684B27B6F3D6F1B04234319
:103490003B667A66FFE7FFE7C04600232C042D0C4D
:1034A0007A6F386F00196941B0BC7047000000D0D6
:1034B000F0B594460025140E01D112020835140F00
:1034C00001D112010435940F01D192000235D40FBD
:1034D00001D152000135D40B0134254F7C66254CB7
:1034E0003C660E0C93B2FFE7FFE7FFE73C6F6643D5
:1034F000360C7703BE467343DF0B5B04C01AB94139
:10350000130C7343DB18C91ACE086643360CB64455
:1035100093B273431F0F1B01C01AB941130C7343BD
:103520001F0B1B05C01AB941860D8F023E4366432F
:10353000360C092D24DB520A7243801A7703460A9F
:103540006643360C16235B1BDE40DF40BF19644622
:103550006643821B7046043506330100D940A840FB
:10356000C01900D30131A24206D20023F0BD0000F1
:10357000000000D0FFFFFFFF121B0130F3D3F1E783
:1035800009277F1BFE406446A2B27243801A00D214
:103590000139220C7243130C1204821A99410B0058
:1035A0007046043513370100F940A840801900D354
:1035B0000131002B02D1A2420AD2F0BD013000D36A
:1035C0000131121BFAD2013BF8D1A24200D2F0BD68
:1035D000013000D30131121BF7E7F0B51C0C00D00D
:1035E00080E00CB400251C0A04D11B02160E3343E4
:1035F000120208351C0B04D11B01160F33431201B4
:1036000004359C0B04D19B00960F33439200023586
:10361000DC0B02D192185B4101351C009718644104
:103620000134464F7C66464C3C660E0CFFE7FFE7D4
:10363000FFE7C0463C6F6643360C7703BE4697B241
:103640007743C01B00D20139C01B00D201399FB2A1
:103650007743C91BC91B170C77437E04FF0B801BE4
:10366000B941CE086643360C0C2D33DBB644120B41
:103670001F053A431B0B97B27743C01B00D2013999
:103680009FB27743C91B170C77433E043F0C801B46
:10369000B941860D8F023E43664329277F1BFE40BA
:1036A0000C3D7746AF40BF1930BCA2B2ABB27243FB
:1036B0007343801A9941220C7243130C1204801A2E
:1036C000994102000B000137001BA941F9D2781E75
:1036D0000021F0BD0C277F1BFE4077467F0BAF40DB
:1036E000FF19E0E700245D1C07D0144F7D663966A2
:1036F000FFE7FFE7FFE7FFE73C6F95B29EB2654348
:103700006643401BB141150C1E0C654366433604ED
:103710002F0C3E432D04401BB141994204D20200BC
:103720000B0020000021F0BD01D19042F7D3801A98
:10373000994101349942F2D3F6E70000000000D02D
:10374000FFFFFFFF48404140484018B41B4B5B68F7
:10375000FC46019308BD04DF733B001018B4174BFF
:103760001B68FC46019308BD00DF7D3B00109446BA
:10377000134A926F920809D2624618B40F4BDB6865
:10378000FC46019308BD0CDF353E00100C4AF0B535
:10379000146E556E576F166F6246FFF7EEFF084ABC
:1037A0001466556657671667F0BD18B4034B9B68DF
:1037B000FC46019308BD08DFD93C001048190020E1
:1037C000000000D0FFB550404240504059404B40AF
:1037D000594000E0FFB5154F4C00640D03D0BC42CA
:1037E00004D10C0314D80020090D09055C00640DF8
:1037F00003D0BC4204D11C030AD800221B0D1B05B8
:1038000001264B4009D44B4003D58B4200D1824264
:10381000FFBD9942FCD19042FFBD0B43DB1803432F
:103820001343F5D0C9434918FFBD0000FF0700004E
:1038300000B5FFF7CFFF01D0002000BD012000BD83
:1038400000B5FFF7C7FF804100BDC04600B5FFF7D8
:10385000C1FF01D9002000BD012000BD00B5FFF768
:10386000B1FF804100BD012040054A00121804D874
:103870005A00121801D8002070470120704700003C
:103880000021002805D17047C1174840401AFAD0DE
:10389000C90713B5064B1B6898470CBC441CA240D3
:1038A0001005120B0349091B09051943114310BDEB
:1038B000942900201F04000010B54C00620D8023E5
:1038C000D218DB00D21A5B057E2A10DD9E3A13DA8D
:1038D000CC170903490819435242D140640001340E
:1038E0001532202A05DAD0400843604310BD00207D
:1038F00010BD0846604310BDC80FC018013810BD88
:1039000018B4044BDB6DFC46019308BD5CDF8940B5
:103910000010000048190020C94211D300B5490029
:103920004908002200F018F8002904D4002240427F
:103930008A41114600BD80210906002000BD00001B
:1039400018B4044BDB6EFC46019308BD6CDFE53F09
:10395000001000004819002018B4044B9B6FFC466F
:10396000019308BD78DF03400010000048190020D3
:10397000132370B51D78012D19D014DD1F48FFF7F2
:103980004FFB06001E48FFF74BFB1E4C8022310008
:10399000200000F043FC022D2DD01B48FFF738FB20
:1039A0001A4B186070BD1A4B164CA364F5E7184B00
:1039B000144C23606360A360E36023616361A361CF
:1039C000E36123626362A362E36223636363A363CD
:1039D000E36323646364A364E36423656365A365AD
:1039E000E36523666366A366E36623676367A3678D
:1039F000E367A364D1E7064BA364CEE7534400001A
:103A000053460000481900204C3300009429002040
:103A1000413B0010244A4B0094465B0D6344F0B5D3
:103A200004000D005A1C21DB5A1C35D0342B1CDA43
:103A30003326F61A3700203F1CD40121B9400B0071
:103A40000121B1400A0012196B41002F1EDB022434
:103A5000BC4021000224B44020001600002544424E
:103A60008D4126402B4030001900F0BDCB0F0020C7
:103A7000D907FAE720210120891BC8400121B14064
:103A800003000A0012196B41002FE0DA20240225FE
:103A9000A41BE5402900DDE7CB0F044ADB071A43EE
:103AA00000201100E1E7C04601FCFFFF0000F03FED
:103AB000F0B5C6460B000D0049000200040000B539
:103AC000490D2FD01C48091826D43426711A88466F
:103AD000464610001900002E1BDD4746203F25D426
:103AE0000126BE40310001274646B7403800002B72
:103AF00006DA01246442E517A4185D4124184D41FB
:103B0000002342428B4126002C0016401C4030000E
:103B1000210080BCB846F0BD00200021002BF8DA5F
:103B20000649F6E7DB0F0020D907F2E72027BF1B85
:103B30000126FE403100D6E701FCFFFF0000F0BF88
:103B400007B5604601880A0A0230DF2AFAD1C9B2F5
:103B5000820804D3028840880004104300E0006813
:103B6000014A5050039007BD481900200FB403BC10
:103B70000CBCF0B50124E407634000E0F0B50C0D87
:103B8000CF0F661E3605891B640503D3C943404227
:103B900000D30131640D03D0661CF60A07D0E41B84
:103BA00000207F00791C89078912803C24031D0DA9
:103BB000DF0F6E1E36059B1B6D0503D3DB435242A0
:103BC00000D301336D0D03D06E1CF60A07D0ED1B38
:103BD00000227F007B1C9B079B12803D2D032F1B27
:103BE000661B58D4A446202E46DA20371400BC4069
:103BF0001D00BD40F24033412A4380185941CB0F8C
:103C000005D0C943C043002264425041514162463D
:103C10004D0D28D10D0D07D100281FD0241940418A
:103C20004941013A0D0DF9D0640006D3013000D3AB
:103C30000131002C01D140084000013A0BD4941C02
:103C4000E40A04D112051144DB071944F0BDD90779
:103C5000204B194300E0D9070020F0BD0029DDD139
:103C6000002CDBD1F0BD0132C6074008CD07284348
:103C70004908002EE1D0D9E73C2E29DA203E403712
:103C80001400BC4000D00124F24014431A00BB4091
:103C90001C43D317ACE7AC46202F08DA20360400CB
:103CA000B4400D00B540F84039412843A5E73C2F0A
:103CB0000CDA203F40360400B44000D00124F84024
:103CC00004430800B1400C43C117EAE71000190093
:103CD000002494E70000F07FF0B50C0D661E360559
:103CE000891BE60A6405640D02D0651CED0A04D048
:103CF000002001210905803C2403A4461C0D671EF9
:103D00003F05DB1BE70A6405640D02D0651CED0A64
:103D100004D0002201231B05803C24037740644427
:103D200097B484B296B27443070C7E43150C6F436C
:103D300080B26843361802D3012000043F183004D3
:103D4000350C00197D41844688B29AB250430C0C60
:103D500062431F0C7C438EB27E43921902D301262C
:103D60003604A4191604170C3618674101BC81B239
:103D70009AB25143040C62431B0C5C4380B258431B
:103D8000121802D30120000424181004130C401848
:103D900063412D185E410020474106BC88B293B2B2
:103DA00058430C0C6343120C544389B251435B18C3
:103DB00002D301210904641819041A0C091862417C
:103DC0006D1856410020474118BCF902720D11438D
:103DD000F0026A0D1043ED020A0D03D16D19404146
:103DE0004941013B124E9B1B7600B3420ED26D003F
:103DF00007D30130002671416646354301D14008A2
:103E000040001B05C918E4072144F0BD0BDA01335B
:103E100006D1013004D101314F0D01D04908F2E73C
:103E2000E1070020F0BD013631050020EBE700007E
:103E3000FF030000F0B51C0D671E3F05DB1BE70A02
:103E40006405640D02D0661CF60A04D0002201232A
:103E50001B05803C2403D0252D060026F6432E6644
:103E60001E096E66CE0FF619B44649004F0D02D0FA
:103E70007E1CF60A03D000200021403F3F033E1B7A
:103E8000B600B444013F7F05C91B49082E6F0136B7
:103E900076089C02950D25437543ED137543AD13CC
:103EA00001356D10F603761B0CB4CC02450D2C4386
:103EB000A2B2B3B25A43270C7B43350C6F43A4B272
:103EC0006C431B1902D3012424043F191C041D0C4C
:103ED000A4187D4124196D41009A91B2ACB261439E
:103EE000170C7C432B0C5F4392B25A43A41802D3A5
:103EF00001221204BF182204230C52187B41019C9A
:103F00006C431B19520ED9010A434401A01A81B215
:103F1000B2B2514303145A43360C734387B277430A
:103F2000D617D21900277E4136049B191704160CA8
:103F30007F185E417316ED18F3010026803375413A
:103F4000A90F06D16400690AE8055B0A184309D283
:103F50002FE00422944480337541A90AA8059B0AE6
:103F6000184326D3404149412404009A019B0D0087
:103F70005543641B4343E41A95B286B27543170C4C
:103F80007E43030C5F4392B25A43B61802D3012218
:103F90001204BF183204330C52197B4152429C4127
:103FA000002C02D40022013051414008CA071043BE
:103FB000490802B06246D7079210084BD218084B46
:103FC0009A4203D212058918C919F0BD0020002AAF
:103FD00001DC3900F0BD01331905F5E7FD030000F0
:103FE000FE070000002200B500F00DF8CA179A4243
:103FF00000D100BDD8430121C907414000BD0000E8
:1040000000220B150AD410B5944600F079F8141468
:10401000013400DA0021CB17144C20470020002186
:1040200070476244343A0CD40C2A07DA04009140F9
:10403000904052422032D440214310BDD843D9434E
:1040400010BD203207D40C46944052422032114118
:10405000D040204310BD0800C917203203D452427B
:104060002032104110BD1800190010BD234000106F
:1040700000210A00002104E000210A00C11704E029
:104080000022002306E0C0460022CB1758405940CA
:10409000C01A994130B5184CA21A002903D1010069
:1040A00010D00020203A4C1512D104D2013A001849
:1040B00049414C0DFAD3114CA24204D21205891881
:1040C000DB07C91830BDD243520D00200021F5E7AF
:1040D00003D4013A00184941FBD50B324405C00A0C
:1040E0004D052843C90A640003D0002460416141A2
:1040F000E1E7E0D34408F8E732040000FE070000DF
:104100000A0DCC0F531E1B05C91A520503D3C94310
:10411000404200D30131520D03D0531CDB0A07D0BB
:10412000121B00206400611C89078912803A120367
:10413000014BD21A70470000FF0300005143434374
:10414000C9188C46110C83B24B4310B4040C614364
:1041500092B280B2504362431C041B0C001910BC85
:1041600059411304120CC0185141614470470000BA
:10417000132310B512481C78FEF752FF0100012CE2
:104180000AD003DD80220F4800F048F80E48FEF701
:104190003FFF0E4B186010BD0A4C5422200000F067
:1041A0003DF80B4B6365A365E36523666366A36611
:1041B000E36623676367A367E3672362E361E5E779
:1041C00053460000481A00204C3300009429002078
:1041D000D541001007B5604601880A0A0230DF2A7F
:1041E000FAD1C9B2820804D302884088000410437F
:1041F00000E00068014A5050039007BD481A0020B3
:1042000001480421014B1847901000203130001064
:10421000014B1B681847000090100020014B5B68A1
:10422000184700009010002010B5002800D110BDE4
:1042300000F0F8F9FBE7C0460FB430B50C4985B083
:1042400008AA08CA0D680392002D0CD00092012222
:10425000084C5242200002A9A847012005B030BCFA
:1042600008BC04B01847180000F028FA0020F5E751
:10427000502900202942001010B5094A0300146893
:1042800084B0002C08D0012200910648524203A9B4
:10429000A047012004B010BD00F010FA0020F9E79B
:1042A000502900202942001000BEFDE7094A030002
:1042B0001068002805D00849C3188B4207D813603E
:1042C000704706480449C31810608B42F7D9012093
:1042D0004042F5E74C25002000000420C0290020C2
:1042E00000207047012040427047C046030010B5CF
:1042F00008001100002B05D1044B1A685B6800F020
:1043000033F910BD01204042FBE7C046E8E0001051
:104310000300013B10B508001400012B06D801234F
:104320000022210000F0A0F8200010BD0120404232
:10433000FBE7C046012040427047C0460120404292
:104340007047C046012040427047C0460300022229
:1043500000209A424041704710B5FFF7A5FFC046C4
:1043600030B50D0083B01900002A0BD0074B084C64
:104370000192009302002B002000FFF75DFF012057
:10438000FFF792FF034B1A00F1E7C0463CDE001036
:104390004CDE001068DD001070B5FEF79BFE074D87
:1043A000074EB54209D20024013E761BB60808CD5F
:1043B000984723000134B342F9D170BD54CB0010AB
:1043C0005CCB0010030010B5080011001B68984773
:1043D00010BDC046F0B5C64600B5437D07000D00D0
:1043E0001600002B38D0002A2EDD00216A1E9046D0
:1043F0006A5C037D4C1C00200A2A0CD0A64216D011
:1044000043461B5D21000D3B5A4253416A5CDBB2BF
:104410004C1C0A2AF2D1002BF0D1884217DB022172
:1044200010483B689847A64207D02000E8E786423C
:1044300003DD311A3B6828189847AD19013D2B78E8
:104440000D3B5A4253413B7580BCB846F0BD091A3A
:104450003B6828189847E2E703681100280098474E
:10446000F2E7C04644E10010F0B5DE4657464E463E
:104470004546E0B585B017001C0006000D00FEF7AC
:10448000EDFB0023314A12184B41802109068B4273
:1044900002D301222E4B52422E4908008A4608F0D0
:1044A0001BFB01906B1C03D1300003F009F90500E0
:1044B000002C26D0284B9846284B1C68002C15D081
:1044C000002F21D1264F02E02469002C0ED0236852
:1044D000002BF9D03B68002B01D09C42F4D1200086
:1044E0002A003100C0472469002CF0D1019B002B29
:1044F00028D1280005B0F0BCBB46B246A946A0466C
:10450000F0BD184B9846D7E7154B994602ABDF1D17
:104510000A239B4602E02469002CE7D02368002B85
:10452000F9D04B461B68002B01D0A342F3D12A00DF
:1045300031002000C0475B460122390020003B705B
:10454000C047E8E7504608F08FFAD2E740420F0034
:10455000FFFFFF7FB4170020D54300103C2500204B
:1045600048250020C5430010F8B557464E4645463D
:10457000DE4698461A4BE0B59B461A4B07000E00E4
:1045800091469A46184D5B461C68002C03D115E0F5
:104590002469002C12D02B68002B01D0A342F7D144
:1045A000A368002BF4D03100380098470028EFDDD5
:1045B000F0BCBB46B246A946A046F8BD53465B6A6E
:1045C000984508D85246926A4A4502D30220404292
:1045D000EEE79845FAD101200021FEF749FBD2E72A
:1045E0003C25002000400540482500200A4A136869
:1045F000002B05D10CE01A001B691032002B07D0EC
:104600009842F8D1002902D1036913600161704713
:104610000029FCD01060FAE73C25002010B500F01E
:104620008DFA10BDF0B5CE46474680B583B06B46D7
:104630000600DD1D2870FEF711FB00231A4A121830
:104640004B41802109068B4202D30122174B524273
:1046500017490800884608F03FFA164B81461C6847
:10466000002C14D0144F02E02469002C0FD02368D2
:10467000002BF9D03B68002B01D09C42F4D12000E4
:1046800001222900FFF7A6FE2469002CEFD14B463A
:10469000002B05D1300003B0C0BCB946B046F0BD18
:1046A000404608F0E1F9F5E740420F00FFFFFF7FC9
:1046B000B41700203C2500204825002070B50400D8
:1046C00002F0FEFF01230100050001222000FFF798
:1046D000CBFE084B1C68002C06D06368002B05D06D
:1046E00098472469002CF8D1280070BD2469002C5B
:1046F000F3D1F9E73C2500207047C0460022014B6A
:104700001A707047BC2900204B790020FF2B0BD179
:104710008B79002B08D1CB79012B05D1082A03D93D
:10472000024B8A7809301A707047C046BC290020B5
:104730000120704710B5012901D0012010BD134997
:104740005379107909781B02034300209942F5D16F
:104750005378012B08D0022BF0D1002064220021D5
:10476000FEF700FC0120E9E7D37891781B0219439A
:10477000DB0507D54A0A100001231A407E33194091
:10478000FEF778FC01204A0A4042F5E7BC290020E8
:104790000048704710E2001070B5050014000120B9
:1047A000012909D153780020012B05D163791279B1
:1047B0001B021343072B00D070BD21002800024AC2
:1047C0009F3301F049FAF7E768E100100123037015
:1047D0000048704748E100104B780A781B021343E9
:1047E0008A7810B512041A43CB781B06134396221D
:1047F000D200934200D010BD00220120110040429F
:10480000FEF738FC024B1860024B19607047C04637
:10481000DC240020E024002010B5024B1878FDF7BE
:104820008DFC10BDBD290020154B70B51A68002AFB
:1048300022D0EFF3108172B610680028FCD0BFF3CD
:104840005F8F00200F4A596010701B68BFF35F8FA5
:10485000186081F31088002400250B4E3078FDF796
:1048600061FC002804D1002400252900200070BD2F
:104870003078FDF763FCF8E7FA240025A400ECE7A4
:1048800074290020BE290020BD29002070B5040035
:1048900000200E0001F0F8FA002836D0002001F0C8
:1048A0000BFB002831D0FEF7D9F90023184A121863
:1048B0004B41802109068B4216D2164D280008F084
:1048C0000BF9002821D0002001F0DEFA00280FD1DA
:1048D00001200021404200F0F3FC03246442280040
:1048E00008F0C2F8200070BD01220B4B5242E4E7F1
:1048F000002001F0E1FA0028EAD021003200002077
:1049000001F0E6FA041EEAD1E7E703246442E9E78E
:1049100040420F009C290020FFFFFF7F10B5FEF7EB
:104920009DF900230E4A12184B41802109068B4243
:1049300002D301220B4B52420B4C200008F0CCF862
:1049400000280CD001200021404200F0B9FC0020DA
:1049500001F00AFB0028F5D1200008F085F810BD11
:1049600040420F00FFFFFF7F9C290020F8B5DE4684
:10497000574680B505000C00FEF770F90023374A52
:1049800012184B41802109068B4202D30122344B7D
:104990005242344908008A4608F09EF8002803D1A4
:1049A000C0BCBB46B246F8BD002001F06DFA00283D
:1049B0004AD00026002C43DD2B4B9B4614E0A9195E
:1049C000002001F00DFB070001200021404200F013
:1049D00077FC002001F0C8FAFEF740F9224BF619E7
:1049E00018605960B4422BDD002001F019FBA71BB1
:1049F0000200B84200DD3A00002AE0D10120002187
:104A0000404200F05DFC002001F0AEFA002001F011
:104A10003BFA002814D0002001F002FB0028E1D16D
:104A2000FEF71CF95B460F001A685B68002184469C
:104A30000E4812184B419F4202D8D3D19445D1D988
:104A4000504608F011F8ABE700200021064B186033
:104A50005960504608F008F8A2E7C04640420F00EF
:104A6000FFFFFF7F9C2900204019002020A10700A4
:104A700030B52B4C85B00021200008F015F8002837
:104A80001CD1284B1A68002A16D0EFF3108172B699
:104A900010680028FCD0BFF35F8F012422485960C2
:104AA00002781B68D2B20470BFF35F8F00201860D9
:104AB00081F31088002A17D005B030BD01200021F5
:104AC000404200F0FDFB002001F0F6F90500200057
:104AD00007F0CAFF002DEFD0144B1B68002BEBD062
:104AE000134A10689847E7E7FDF734FF0400FEF724
:104AF000B5F8FA220023920012184B4180210906D2
:104B00008B4202D301220B4B524201210291002120
:104B10000191094920000091FDF720FFCCE7C04634
:104B20009C29002074290020BE290020DC240020BC
:104B3000E0240020FFFFFF7F29480010D02310B59C
:104B40001B0684B01C68FDF705FFFEF703F8A042C2
:104B500002D0002004B010BD294B1B7801F06AFD83
:104B600028480368002B47D00120FDF783FCFF2372
:104B7000254C264920701840FDF7FEFA20780121C7
:104B8000FDF7BEFA0520FDF7E1FA002826D108223C
:104B900000211F48FFF73CFBFDF7DCFE0400FEF799
:104BA0005DF8FA220023920012184B418021090679
:104BB0008B4202D30122174B524201210291002164
:104BC0000191154920000091FDF7C8FE0028C0DBC7
:104BD00012480121FFF70AFD0120BBE70120FDF784
:104BE0005DFA0B4B01001800FDF7A6FC0022052022
:104BF0000B49FDF7EBFAEBE7FDF782FCB4E7C046A3
:104C0000E8E700109C290020BD290020714A00100F
:104C100074290020FFFFFF7F29480010A01000200A
:104C20001948001000487047ACE200100048704777
:104C300058E2001010B5040017480378002B20D06C
:104C4000002C06D1154B16484380063BFF3B0380E2
:104C500010BD052C19D8134BA400E05812490123AC
:104C6000013804E001330A800231142B0FD0C25CFA
:104C7000002AF7D1C022DBB25B0092000848134340
:104C8000E5E7112100F01AF8DAE70020E0E7CA238F
:104C900003489B00DBE7C046A4290020090400006C
:104CA0001425002040E200101625002010B502480F
:104CB00000F0D8F810BDC0468C29002030B54B1E3E
:104CC000012900D1A7E0664A11780D092C00303483
:104CD0009F2900D9A2E00470012B00D1BEE00F2172
:104CE000147821400C003034092900D998E0447030
:104CF000022B00D1B2E054782509290030319F2CD5
:104D000000D990E08170032B00D1A7E00F21214052
:104D10000C003034092900D987E0C470042B00D17D
:104D20009CE094782509290030319F2C00D97FE040
:104D30000171052B00D191E00F2121400C0030348E
:104D4000092900D976E04471062B00D186E0D47899
:104D50002509290030319F2C00D96EE08171072B85
:104D600000D17BE00F2121400C003034092966D8A6
:104D7000C471082B00D171E0147925092900303164
:104D80009F2C5FD80172092B68D00F2121400C00A5
:104D90003034092958D844720A2B5FD05479250938
:104DA000290030319F2C52D881720B2B56D00F2105
:104DB00021400C00303409294BD8C4720C2B4DD043
:104DC00094792509290030319F2C00D907310173CE
:104DD0000D2B43D00F2121400C003034092901D97B
:104DE00037310C0044730E2B38D0D1790C092200D6
:104DF00030329F2900D9073282730F2B2ED00F2219
:104E00000A4011003731092A01D830321100C1732C
:104E1000102B23D010300023037030BD07345AE725
:104E200037310C0063E707316CE737310C0074E76A
:104E300007317DE737310C0085E707318EE73731E1
:104E40000C0095E707319DE737310C00A3E70731E8
:104E5000AAE737310C00C4720C2BB1D1C018DAE7C5
:104E60008C29002010B588B004000D22002168466E
:104E7000FFF7CEF90D22002104A8FFF7C9F94B2353
:104E80006A466846137004A90D2207F0DDFD15215E
:104E9000082220006944FFF7C1F908B010BDC046E0
:104EA000F8B500F03BF90C23184DFF22AB67052045
:104EB0001749FDF78BF9174C402200212000FFF71E
:104EC000A7F94027002301262121134A6670278372
:104ED000A260136063545F316184453963540F4AA3
:104EE0000F496360E2602787A1620B606362E26240
:104EF00007F0C2FD80239B052E64EB649023094AD2
:104F0000EA508022084B5202DA64F8BD00001150CA
:104F1000A1040020502500208400105000011050F2
:104F20008000105010D001000020115010B5012158
:104F30000520FDF7E5F810BD10B50022002102485C
:104F400000F00CF910BDC04670250020044B19700C
:104F5000002904D080219023024A8902D150704751
:104F6000B8290020002011500B785B0602D14B7845
:104F7000052B00D070478A78014B1A60FAE7C046CB
:104F800000001150F0B5C64600B5CC7888780A7993
:104F90004B797F21A40701401B02C50913434F0031
:104FA000A20F1400324E7A195201B21890700120EB
:104FB0006840507000205B055B0DD0701383D47681
:104FC0008046CA00012D33D02A48844688016244B5
:104FD0008446B4446046826040461060002933D065
:104FE000254AC90090466246414451603F223F3302
:104FF0009343022C00D15B0020487A1901685201CA
:10500000B218D1601E4ACB18036051405A40802329
:1050100088465B019A4228D84346A4061C43802355
:105020007F197F01F61972681B062343136011E094
:1050300014488446880162448446B44460468262CF
:1050400040461060002909D100236D0175196B607D
:105050000D4BEB60012080BCB846F0BD084AC9008A
:105060009046624641445162C0E7FEF72DF8D3E70F
:1050700050250020840010500400105058290020B2
:1050800000001050800010500001105010B507F0C3
:10509000F3FC10BD10B57F200C0020404000E40957
:1050A000110000191A00034B4001C01800F056F817
:1050B000012010BD502500207F23180010B50840A6
:1050C000CA090B4203D107497D3B9B1A8B664000FE
:1050D00080188022044B40010021C018120107F003
:1050E00013FD10BD00201150502500207F22130019
:1050F00010B50B400A4200D110BDC9095B005B1816
:1051000004485B01C018002300220349C37007F064
:10511000FBFCF1E750250020FFF7FFFF80220A4B40
:10512000520410B51A60094B09491A6010000B6847
:105130009843FBD18022002152010648FFF768F80E
:105140000922054B5A6710BD00E0004000F0004006
:1051500008C000400000105000001150002310B59E
:10516000C3820133828283760161040007F0C4FCAC
:10517000002804D080219023074A8902D1502000C2
:1051800007F06AFC002802D00123237710BD20001D
:1051900007F0AAFCFAE7C046002011507047C0464D
:1051A0007047C04600207047002070477047C046D7
:1051B0007047C0467047C0467047C046024B58789B
:1051C000431E9841C0B27047F41F0020024B18786C
:1051D0004007C00F7047C046F41F0020F8B547468F
:1051E000CE4680B52B4F06003B78FF2B04D0012024
:1051F000C0BCB946B046F8BD002154222648FFF78E
:1052000007F80022254C264B20001A70FDF778F98C
:10521000244B1C60244C2000143CFDF77FF9200037
:1052200001F0F2FD214B224D1C60224B002B27D0B8
:105230002800FFF7CBFA204B2A7818601F4900247A
:1052400089461D490023884610E043461B686201D9
:105250009B18002B12D05B68002B0FD098472A7840
:105260000134E4B2511C2300A1420BDBA242ECD872
:105270009B1A5B014B445B68002BEFD10020B7E722
:105280002A78DBE730003E70FFF70AFE3000FFF7B8
:105290004DFEACE7D4100020F41F0020AC1F00200E
:1052A000B929002048200020CC1000204C200020EC
:1052B000B7290020CD470010C81C002068E300106B
:1052C000F0B5DE4657464E464546E0B5C84B91B070
:1052D00002931B78FF2B00D13EE1C64BC64E9B4686
:1052E0005F46C64B0DAC0193C54B009335686A69A8
:1052F000EFF3108172B61368002BFCD0BFF35F8F01
:10530000A9612800210001F0ADFB6A69AB69BFF318
:105310005F8F0021116083F31088002800D11BE10A
:105320006378082BE2D89B00FB589F466368002BEC
:10533000DCD0A0689847D9E77F222179AF4D0A4099
:105340005300EB189846C80980444046012330308A
:1053500005799D430571057903339D430571002A45
:1053600000D100E14346A74A1B7D1278934200D347
:10537000EFE0A54A5B011568ED18002D00D1EBE0C8
:10538000A36862792078AD69A847AFE79F4A137890
:10539000002B00D1E0E01378013BDBB213701378EF
:1053A000002BA3D10122954D01212B78042013431A
:1053B0002B703423EA5C8A43EA54EA5C8243EA5461
:1053C0000133EA5C8A43EA54EA5C8243EA54237874
:1053D00000209B4600F0A0FC602223791A40602A3E
:1053E00000D1EFE0402A00D1F5E0DB06DB0E012B17
:1053F00000D113E1022B00D1C7E0002B00D0E1E087
:10540000202A00D11CE2002A00D0DBE06379092BBE
:1054100000D9D7E07E4A9B00D3589F46774D2B7822
:10542000DB0700D462E7FFF7C7FE5FE7019BDB788D
:10543000DB0700D45AE76068FFF7B2FE56E76F4D0E
:105440002B78DB0700D451E728780007C00FFFF75F
:10545000B1FE4BE723786A4999468B46694B6A4906
:1054600098468A4639001A7847460023B0460025F8
:105470004E46894610E053461B686A019B18002B74
:1054800000D176E0DB68300098473A780135EDB21C
:10549000511C2B008D4244DC9542ECD39B1A5B01DE
:1054A0005B44EFE7237858499946564B8A4698461D
:1054B0003100BB464E461A780025002347468946F0
:1054C0000FE053461B686A019B18002B55D0DB6820
:1054D000300098473A780135EDB2511C2B008D42CF
:1054E00007DC9542EDD39B1A009A5B019446634416
:1054F000EDE7019D542200212800FEF789FE1022CD
:10550000FF214448FEF784FE28002022FF211430AA
:105510004E465F46FEF77CFE00F0F4FBFFF748FEC8
:10552000E4E6364D542200212800FEF771FE1022D9
:10553000FF21281DFEF76CFE28002022FF211430D9
:1055400046464F46FEF764FE00F0DCFB2379AB7065
:10555000CCE6501C984213DA11B0F0BCBB46B24600
:10556000A946A046F0BDA3686279207800F0E8FB68
:10557000BCE646464F46214DE6E74E465F46CBE742
:105580001F4D9B1A5B015D19FAE67023217A0B42CD
:1055900018D1C80982460F330B405B009846194862
:1055A000EB1853441B7D00789946834266D2164817
:1055B0005B01006881469944002A00D15FE14B46B7
:1055C000002B68D120780021FFF776FD802120781C
:1055D000FFF772FD8AE6104800F09EFB0121584655
:1055E0000EAAFFF7D9F8002800D07FE6EAE7C04608
:1055F000D4100020C0E200104C200020F41F002036
:1056000068E30010B7290020C81C0020B929002039
:10561000E4E20010F81F002099470010237A0F2BB6
:10562000D0D8CF4AEB181B791578AB423ED3691C12
:105630009942C7DB5D1BCB4B6D01ED18686900F02B
:105640006BFB012158466B690EAA9847002800D0D1
:105650004CE66022150023791D401A42B2D16379CD
:105660000A3B012BAED800F057FB63790A2B00D11F
:1056700099E158460EA900F0D9FA37E6431C4B458C
:1056800000DAF7E04B461B1A5B019946B5488144A6
:10569000002A00D1F3E04B46586900F03DFB4B4631
:1056A000012158465B690EAA98479CE7AE4A5B0108
:1056B0001568ED18002DC1D184E7A37999466B7860
:1056C0009945D6D06B78002B00D033E14B466B70F8
:1056D000002B00D12BE148460138C0B2FFF7A6FAF3
:1056E000002800D17EE143780793022B00D079E1B6
:1056F0000122C179B1468B11491113400A40302172
:1057000012015B0113432A78A8468A4313432B7086
:1057100009239A4682445646BA46C37882781B02C9
:105720001343C31805938E4B04938E4B08938E4BF3
:1057300009938E4B0A93059BB34200D855E17378C9
:1057400001220B2B03D13378F278F6187378042BEF
:1057500000D044E1059B00279B1B9BB20693049B52
:105760000B921D78002303931BE0099A7B011568B7
:10577000ED18002D00D132E1310058462B69069A10
:1057800098478446082803D9069A824200D313E139
:10579000049B01371D78FFB26B1C03979F4200DD0D
:1057A0001DE1BD42E1D8039B5D1B089B6D019C463A
:1057B0006544E1E76B780CAA023213705846012366
:1057C0000EA900F049FA91E5E3881A0AD8B20F2A27
:1057D00000D9F7E666499300CB589F460EA800F023
:1057E000A1FA5846A179FFF7A7FB02222B781343B1
:1057F0002B707BE5E388012B00D0E3E608222B78B1
:10580000584693430EA92B7000F010FA6EE5022063
:1058100029780CAB9A1C8B068908DB0F01400B43DF
:105820001380584602230EA900F016FA5EE5E388BD
:10583000012B00D0C6E608222B7813432B7018E703
:10584000237A0F2B00D9BDE6EB181D79444B1B784A
:105850009D4228D2444B6D011B685D19002D00D17B
:10586000B0E6686900F058FA012158466B690EAA43
:105870009847B8E6002A00D0A4E60023994662794A
:105880000220130003928343012B15D0002A00D07D
:1058900098E62B004344534430331B790CAA9B07F2
:1058A000DB0F0232BCE75A1CAA4200DA8AE6ED1A84
:1058B0002C4B6D01ED18D4E7E388002B12D1029B2D
:1058C0001878039B012B23D0FFF7F6FB43460221F8
:1058D000EB18534430331A790A4301211A711A79AB
:1058E0000A431A714B46002B00D1FFE4586900F0BF
:1058F00013FA4B4601215B690EAA584698470020CF
:1059000000F00AFA3523EB5CDB0700D5EEE4B0E6E5
:10591000FFF7ECFB43460221EB18534430331A796E
:105920008A431A711A7903998A431A71DAE7FFF7E1
:105930003FFC9EE600215846FFF708FB5846FFF75C
:10594000A5FBAB78074903930491054B064998469C
:105950001A780591002329001D008A461BE0C046E5
:10596000B729002068E30010C81C00200820002090
:105970000CE30010059B6A011B689B18002B4DD09F
:10598000DB685846984743461A780135EDB2511CFA
:105990002B008D422EDC9542ECD39B1A049A5B01BE
:1059A00094466344ECE70CAB9A1C584601230EA9BD
:1059B000157000F051F999E40B9A012A4FD0002A92
:1059C0003CD00023B07804E00133DBB20F71934286
:1059D00034D2C118C9B241440D79FF2DF4D04E46DE
:1059E0004546574600236B70ECE54E465746FFF799
:1059F000DDFB3EE65546542200212800FEF708FC58
:105A00001022FF21281DFEF703FC28002022FF2181
:105A10001430FEF7FDFB039BAB7057E65546FAE7E3
:105A2000FEF7B6FE021E00D1CCE5D37891781B02BA
:105A30000B4358460EA900F00FF9D4E565463B002C
:105A40002A0031000A9800F07DFEAC46049B039AC0
:105A50001B7866440133934200DB6CE6BFE7174BCB
:105A600029699942ADD1079AABE7FFF79BFB021E6C
:105A700000D1A7E5584613780EA900F0EDF8B2E57D
:105A80002189FFF7D7F8021EF4D19BE5022A0FD037
:105A9000FFF78AFB021EC8D194E5FFF7C3F8021E88
:105AA00000D18FE5122358460EA900F0D5F89AE5EB
:105AB000FFF7BCF8021EB8D184E5C046356100107E
:105AC000F8B557464E46DE4645460C00E0B5160092
:105AD0001F00002A3CD01F4B00259A467023994690
