:020000041000EA
:1000000000B5324B212058609868022188439860DF
:10001000D860186158612E4B002199600221596106
:100020000121F02299502B49196001219960352056
:1000300000F044F80222904214D00621196600F024
:1000400034F8196E01211966002018661A6600F04E
:100050002CF8196E196E196E052000F02FF8012189
:100060000842F9D1002199601B49196000215960AB
:100070001A491B48016001219960EB211966A021F2
:10008000196600F012F800219960164914480160C1
:100090000121996001BC002800D000471248134993
:1000A000086003C880F30888084703B5996A0420EC
:1000B0000142FBD001200142F8D103BD02B5186610
:1000C0001866FFF7F2FF186E186E02BD00000240BE
:1000D000000000180000070000035F00212200005C
:1000E000F4000018222000A00001001008ED00E03C
:1000F00000000000000000000000000074B24E7A12
:1001000000200420F7010010C3010010C5010010F9
:10011000C1010010C1010010C1010010C101001097
:10012000C1010010C1010010C1010010C701001081
:10013000C1010010C1010010C9010010CB01001065
:10014000CD010010CD010010CD010010CD01001037
:10015000CD010010CD010010CD010010CD01001027
:10016000CD010010CD010010CD010010CD01001017
:10017000CD010010CD010010CD010010CD01001007
:10018000CD010010CD010010CD010010CD010010F7
:10019000CD010010CD010010CD010010CD010010E7
:1001A000CD010010CD010010CD010010CD010010D7
:1001B000CD010010CD010010CD010010CD010010C7
:1001C00000BE00BE00BE00BE00BE00BEEFF3058054
:1001D000103800BEF2EB8871E8C6011008C70110A4
:1001E0003802001090A31AE71E481F49086006C88D
:1001F00081F3088810471D480068002801D019487D
:10020000F3E70DA40ECC002902D000F012F8F9E7B4
:100210001749184A002000E001C19142FCD116495B
:100220008847164988471649884700BEFDE701C937
:1002300001C29A42FBD3704708C70110C0000020DA
:100240004827002090ED0110000004200000042049
:1002500090ED0110001004200010042000000000A8
:10026000704700000000000008ED00E0000000D032
:100270004827002080390020056800100512001072
:10028000C5670010F8B5C04606480749091A8B1023
:10029000C90FC91810B5491003D0044B002B00D06A
:1002A000984710BD48270020482700200000000084
:1002B000054B10B5002B03D00449054800E000BFF2
:1002C000FFF7E2FF10BDC046000000001839002013
:1002D00000960110F0B5D6464F4646468D688046DA
:1002E00089469246C0B5002D28D00B681F68BE18FD
:1002F00004E0EB680022002B0CD01D002C693000BC
:100300003C19210018F02EF90028F2DAAB6801221E
:10031000002BF2D12F00002A11D13100200018F05B
:1003200021F9002821DB434642461D60002353602B
:100330004046E0BCBA46B146A846F0BD0D1D4B464E
:10034000DB68AB4216D0280009F09CF84B461B68CE
:100350002F001C685346E61803690500E4183100B5
:10036000200018F0FFF80028DDDA4246002357602D
:100370001360DDE74246002355601360D8E7C046AE
:10038000F0B5C64600B50F6882B004000D003A0013
:1003900001006846FFF79EFF019E002E13D0009BD0
:1003A000002B14D0231D01279846142004F0D6FDFD
:1003B0002B680100036132004346380009F07EF8E3
:1003C00063690133636102B080BCB846F0BD231D90
:1003D00098469E4208D02368316918684118C019B0
:1003E00018F0C0F8C70FE0E70127DEE7F0B54E468A
:1003F0004546DE465746E0B504000E00150083B0C2
:100400009A422BD09A1A904647688268D21B904530
:100410002BD87A1A9146904542D24346FB1A994608
:100420004346012B00DC9EE042464946380016F068
:100430000FFF6368434463604B469A1B012A00DC4C
:100440009BE03100B81A16F003FF4346012B00DC95
:1004500078E042462900300016F0FAFE03B0F0BC06
:10046000BB46B246A946A046F0BD0368544A9A4628
:10047000FB1AD11A884500D99EE098452BD89146A1
:100480005900994204D3802389461B06994257D2CA
:10049000484604F063FD4B4683465B44019323E0EA
:1004A000A9185A1A012A53DD380016F0D1FE6768E0
:1004B00043464A46981A38186060012A4EDD3100DA
:1004C00016F0C6FE63684A464B442900300063605C
:1004D00016F0BEFEC2E74146C9188B4230D8002351
:1004E0009B4601930029CED15346F31A9946012B1E
:1004F00055DD1A005146584616F0AAFE4346D94427
:10050000012B46DD42462900484604F021FD4D46B8
:10051000BF1B4544012F37DD3A003100280004F0AD
:1005200017FD5346ED19002B04D0A1685046C91A97
:1005300004F01CFD5B462360019B6560A3608DE7B2
:100540009146A5E7012B00D088E72B78337085E72B
:10055000012AADD10B783B704768A9E7012A25D065
:10056000474467607AE742463B00012A00D061E7D2
:100570004B461B783B7043685CE7012A00D064E778
:100580003378013F3B7060E7012FCAD133782B707D
:10059000C7E7012BBBD14A462B781370B7E7012B75
:1005A000ACD153465A461B781370A7E733780370D3
:1005B000636801336360C8E7024809F081F8C04608
:1005C000FFFFFF7F00960110F0B5DE4657464E460E
:1005D0004546E0B583B00190002876D0019BDB68EA
:1005E0009946002B68D04B46DB689A46002B59D0C1
:1005F0005346DB689B46002B4AD05B46DC68002CE8
:1006000032D0E568002D1DD0EB689846002B22D033
:100610004346DE68002E31D0F768002F09D0F86815
:10062000FFF7D2FF3800BF68142104F09FFC002FB1
:10063000F5D1B7681421300004F098FC002F1DD0CC
:100640003E00E9E7A5681421200004F08FFC002D8E
:100650000AD02C00D5E7AE681421280004F086FCEF
:10066000002EEFD03500CFE75B469C68142158463A
:1006700004F07CFC002C0BD0A346BEE743469E68EA
:100680001421404604F072FC002EE4D0B046BFE7CF
:1006900053469C681421504604F068FC002C01D09D
:1006A000A246A5E74B469C681421484604F05EFC30
:1006B000002C01D0A14696E701981421846804F02B
:1006C00055FC002C01D0019488E703B0F0BCBB4678
:1006D000B246A946A046F0BDF0B5DE4657464E46A6
:1006E0004546E0B583B00190002876D0019BDB68D9
:1006F0009946002B68D04B46DB689A46002B59D0B0
:100700005346DB689B46002B4AD05B46DC68002CD6
:1007100032D0E568002D1DD0EB689846002B22D022
:100720004346DE68002E31D0F768002F09D0F86804
:10073000FFF7D2FF3800BF68182104F017FC002F24
:10074000F5D1B7681821300004F010FC002F1DD03F
:100750003E00E9E7A5681821200004F007FC002D01
:100760000AD02C00D5E7AE681821280004F0FEFB63
:10077000002EEFD03500CFE75B469C681821584625
:1007800004F0F4FB002C0BD0A346BEE743469E6862
:100790001821404604F0EAFB002EE4D0B046BFE743
:1007A00053469C681821504604F0E0FB002C01D011
:1007B000A246A5E74B469C681821484604F0D6FBA4
:1007C000002C01D0A14696E701981821846804F016
:1007D000CDFB002C01D0019488E703B0F0BCBB46F0
:1007E000B246A946A046F0BDF8B54546DE46574696
:1007F0004E460C00E0B50500002937D00368466876
:10080000984683689B1B994236D94346F61A334B68
:100810009A1B8A4259D38A1992464A1E9346B1427C
:100820003AD87200914680221206914532D248464B
:1008300004F094FB0023070080190370012C04D0FE
:100840005A460021013004F07DFB41463200380059
:1008500016F0FEFC4346A968C91A404604F086FB20
:1008600053462F60FB184F446B60AF60F0BCBB4633
:10087000B246A946A046F8BD0023701C33704A1E3C
:10088000012901D16860F1E7002104F05BFB301918
:100890006860EBE79946CAE78022D1461206924586
:1008A00011D2484604F05AFB002307008019037058
:1008B0005B46002B0CD1002EC7D14346002BCFD076
:1008C000A968C91AC9E79946EBE7054808F0F8FE98
:1008D0005A460021013004F035FBECE7FFFFFF7FB3
:1008E000189601100368F0B54546984657464E469F
:1008F000DE4614004246E0B5436807009A469B1A5C
:10090000364A894683B01B11934264D040460E1A82
:10091000D0454DD059008B4238D8002954D1210000
:100920001022300004F014FB002310249B46019396
:10093000C8450ED05C4645465E4429002000102282
:10094000103404F005FB1035B442F6D11034CA451A
:1009500008D053464A469D1A20002A00494604F012
:10096000F7FA64194346002B04D0B9684046C91A07
:1009700004F0FCFA5B463B60019B7C60BB6003B00B
:10098000F0BCBB46B246A946A046F0BD144D2800B7
:1009900004F0E4FA83462B0021005C465B441022FD
:1009A00080190193103404F0D3FAC845C2D1CEE7C0
:1009B0005D1C0133EAD280231B059D4201D22D012B
:1009C000E5E715002D01E2E780231B05994200D3DE
:1009D00011000D01DBE7034808F072FEFFFFFF077F
:1009E000F0FFFF7F34960110F0B545464E46DE46D7
:1009F0005746E0B5140005000E00984683B0002A63
:100A000025D047688368DB1B934243D343461B785A
:100A100099467B1A98469A4220D2BB1A9846012AD8
:100A200000DC8DE01900380016F012FC6B681B1911
:100A30006B6043469A1B012A00DC7AE03100B81A49
:100A400016F006FC22004946300004F07BFA03B0A1
:100A5000F0BCBB46B246A946A046F0BDD31A9A46A2
:100A6000424505D038001A00494604F06BFA574455
:100A700043466F60012B6CDD42463100380016F0B2
:100A8000E7FB6B6843446B6042464946300004F024
:100A900059FADCE703683D4A9A46FB1AD11A8C42A0
:100AA00071D85146711A8B469C4237D85900019231
:100AB0008B4204D8802301911B06994231D20198C0
:100AC00004F04CFA8146019B4B440193434648464F
:100AD00019782200584404F035FA5B46012B45DDB5
:100AE0005A465146484616F0B3FB5C444C44BF1B83
:100AF000012F36DD3A003100200016F0A9FB5346E5
:100B0000E419002B04D0A9685046C91A04F02EFA43
:100B10004B462B60019B6C60AB6098E7E1188B4201
:100B200001D90192CBE70023994601930029CDD04A
:100B3000C0E7012A00D085E73378013F3B7081E7A9
:100B40003B00012A00D072E743461B783B704368A4
:100B50006DE7012B11D047446F60002B00D176E781
:100B600092E7012FCBD133782370C8E7012BBCD19A
:100B700053464A461B781370B7E733783B706B686F
:100B800001336B6080E7024808F09AFDFFFFFF7FAA
:100B9000509601100368F0B54546984657464E46B4
:100BA000DE4614004246E0B5436807009A469B1AA9
:100BB000364A894683B01B11934264D040460E1AD0
:100BC000D0454DD059008B4238D8002954D121004E
:100BD0001022300004F0BCF9002310249B4601933E
:100BE000C8450ED05C4645465E44290020001022D0
:100BF000103404F0ADF91035B442F6D11034CA45C2
:100C000008D053464A469D1A20002A00494604F05F
:100C10009FF964194346002B04D0B9684046C91AAD
:100C200004F0A4F95B463B60019B7C60BB6003B0B1
:100C3000F0BCBB46B246A946A046F0BD144D280004
:100C400004F08CF983462B0021005C465B441022A3
:100C500080190193103404F07BF9C845C2D1CEE766
:100C60005D1C0133EAD280231B059D4201D22D0178
:100C7000E5E715002D01E2E780231B05994200D32B
:100C800011000D01DBE7034808F01AFDFFFFFF0725
:100C9000F0FFFF7F34960110F0B5DE4657464E4612
:100CA000C0B588B01E00109B07001B680D009B4656
:100CB0000B6814005B449A46136850465B44190065
:100CC000994617F04FFC33689B4400281BD1A5427E
:100CD00002D00123109A53765946504617F042FC31
:100CE00000283FD043DA39002022684604F030F96A
:100CF00029002022380004F02BF920226946280020
:100D000004F026F917E00028E6DA5946484617F0BD
:100D100029FC002815D019DA20223900684604F091
:100D200017F920222100380004F012F92022694628
:100D3000200004F00DF908B0E0BCBB46B246A9465D
:100D4000F0BDB44202D00123109A53765946504662
:100D500017F008FC002816D1B542C4D00123109A20
:100D60005376C0E7B54202D00123109A5376594614
:100D7000484617F0F7FB002817D1B442CCD0012326
:100D8000109A5376C8E70028ADDA39002022684669
:100D900004F0DEF831002022380004F0D9F82022D7
:100DA0006946300004F0D4F8C5E70028EDDBB3E76E
:100DB000F0B505000F002C0089B001002022684624
:100DC00004F0C6F83E682D68203C7519216828009B
:100DD000711817F0C7FB002809D101237B7620008A
:100DE00020226946203004F0B3F809B0F0BD002895
:100DF000F5DA200021002022203004F0A9F8203C60
:100E0000E4E7C046F0B54746CE4680B505000F0082
:100E1000160089B0884233D004002034A1422FD07C
:100E2000202398461F3B99460AE0A54201D04B4635
:100E30007376200031002034FFF7BAFFA7421FD09D
:100E40003368296820685918181817F08BFB002898
:100E5000EBD0EEDA20222100684604F079F8621B1C
:100E6000202A12DD4346981A2900201816F0F0F9BE
:100E7000202269462800203404F06AF8A742DFD116
:100E800009B0C0BCB946B046F0BD202AF0D1290057
:100E9000200004F05DF8EBE7F0B54E46DE4645462F
:100EA00057469346E0B5013AD30F9B188DB05B10BF
:100EB0009946169B01220093179B060001935B46FF
:100EC000134088460293894500DC8FE01E9B0F008B
:100ED0001B6880469A4603910DE0AC4202D0012285
:100EE0001E9B5A76780120222100404404F030F8FD
:100EF0004E451CDA37007C1C434B6600F518A401F4
:100F00006D0144444544296820685144504417F019
:100F100029FB0028E1D0E5DA013E74014444780160
:100F200020222100404404F013F84E45E2DB039BED
:100F3000350046469846029B002B33D004AB180080
:100F4000202216A99B4604F003F86B1EDF0FFF1842
:100F50007F10454515DD1E9B1B689946009B4B4441
:100F60009A467C01341920685146484417F0FAFA31
:100F70006D0103007019002B29D11E9A013353769D
:100F80000400009B019A04935B4659465A60200076
:100F9000202203F0DDFF0DB0F0BCBB46B246A946EF
:100FA000A046F0BD5A46023AD30F9B185B10AB42E5
:100FB000C4D1154B01356D00E9184901013D2000F0
:100FC000202271186C0103F0C3FF3419B6E7002B1F
:100FD000D6DA2022210003F0BBFF7A1ED30F9B1824
:100FE0003D005B10B845CCDA1F00BAE7029B4C010C
:100FF0000D000419002BD5D004AB2022180016A92F
:101000009B4603F0A5FFBCE7FFFFFF07F0B54F4687
:101010004646D646C0B51F000B1A05000C00904688
:10102000994692B0202B1ADD5B119A46023BDE0FE7
:10103000F618761000E0013E7101202269180AA816
:1010400003F086FF20220AA96846089703F080FF74
:10105000524631002800FFF71FFF002EEBD1444518
:101060002ED24B465B11994601233E689A4606E014
:10107000A54201D053467B762034A04520D929686B
:1010800020687118301817F06DFA0028F0D0F3DAE4
:10109000210020220AA803F05BFF20222900200063
:1010A00003F056FF20220AA968460897203403F06F
:1010B0004FFF4A4600212800FFF7EEFEA045DED88C
:1010C00012B0E0BCBA46B146A846F0BDF0B5DE4667
:1010D0004E4645465746E0B595B00A92802299465D
:1010E00080468B460B1A9200934200DC83E00A9AFA
:1010F000002A5DD0202242440B92012292460A9A95
:10110000013A0A929A114B4600935B460B9C52019E
:10111000203B210040464244FFF7BEFD4B465D4662
:101120001F6816E0A84502D04B4652465A76AC429C
:1011300029D2210020220CA803F00AFF2022290036
:10114000200003F005FF202228000CA903F000FF77
:10115000203443461E68BE1920683100381817F045
:1011600001FA002820D1A04502D04B4652465A76BB
:10117000203D29683000791817F0F4F90028D1D003
:10118000F6DBAC42D5D34B460A9A59462000FFF70E
:101190009DFF43468022E31A920093422BDD0A9A78
:1011A000002A06D0A346ABE70028E1DA2034D3E7D3
:1011B0005C464B46220021004046FFF727FF203CBB
:1011C000202221000CA803F0C3FE2022414620006B
:1011D00003F0BEFE4346E51A4B4620220CA96846A2
:1011E0006E11089303F0B4FE320000214046FFF771
:1011F00053FE202DE3DC15B0F0BCBB46B246A94639
:10120000A046F0BDF0B5DE4657464E464546E0B531
:10121000FB4CA54408F026F9FA4B1F93FA4B229396
:10122000FA4B3A93FA4B2393FA4B189370AB9B46C5
:10123000F94B3B93F94B3C93F94B3D93F94B3E9360
:10124000F94B1E93F94B3F93F94B4093F94B419364
:10125000F94B4293F94B4393F94B2093F94B349359
:10126000F94B3593F94B3693F94B3793F94B389348
:10127000F94B3993F94B2493F94B259300241F9B89
:101280003A981C60229BD0271C6008F0D9F8239B59
:1012900072AA1C70189B20001C705B461A603B9A57
:1012A000A03413884AA909190B80A22193784AAA6D
:1012B0005218137003225B4678A95A60D87299615C
:1012C0003C9B18341E884AA909190E80997802346B
:1012D0004AAB1B1919705B465C46DA612323E05464
:1012E0005B467EAC1C633D9C4AAD2388ED192B8088
:1012F000D225A3784AAC641923705B465C465A63D6
:101300003B230700E05484A8A064EC243E980368C3
:10131000849383884AA800190380062398465B4675
:1013200040465C46D8645623E7545B468AAC1C664C
:101330001E9B3C001D688A959B88994648468BAB4E
:1013400018805B464046586658466E23C7543F9FF8
:1013500090AB83673B684AA890933B798E277F00C8
:10136000C019037058460523973FC4559C46C36770
:101370000B3796ABC351409B4AA81F6896971F79BD
:101380009A235B00C0180770634658469427C351E0
:101390000937C4559CAB0B37C351A0374AA8C019B5
:1013A000068002374AA8C01901705846AC215B4636
:1013B0004250073144540D31A2A85850419B163772
:1013C00019884AA8C0190180B120997840004AAB19
:1013D0001B1819705B46C4215A50C8329C54A8A9E6
:1013E0000D329950BE21429B49001A682600A892EE
:1013F0001A794AAB5B181A7061465B46DC22995039
:1014000009329C54AEA90B329950F436EC3A9A51F9
:1014100008369C55B4A80C369851D6209149439B68
:10142000AE911E684000B4961E794AAB1B181E7020
:1014300086265B466046760098511626FF369C55F8
:10144000BAA80B369851884EC0A8BA969226760054
:101450009A5108369C550C369851EE20209B40003E
:101460001E682700C0961E794AAB1B181E709E2668
:101470005B466046760098514626FF369C55C6A8C6
:101480000B369851FA20349B40001E680837C696E8
:101490001E794AAB1B181E70AA265B466046760072
:1014A00098515E26FF369C55CCA80B369851030008
:1014B000359850C850C3B6265B4676009F5100272A
:1014C0000C369F55D2A80836985158463C00043631
:1014D0009A5108369F559D370C36D8ABFF37C2510D
:1014E00083510837614EC455DEAB0C37C351D291DE
:1014F000D896369B4AA81F68DE971F7995239B00D4
:10150000C0180770DA27584663467F00C351BE23D0
:10151000FF33C45427000B33E4ACC4509B204AABC8
:1015200080001B184846E4951880E6235846444638
:101530005B00C4500A33C754EAAC0A33C4502300DA
:101540003798B0C8B0C3F2235C460C2000275B007C
:10155000E05058461033E754F0AC0433C450230035
:10156000389830C830C300785C461870FE230920D4
:101570005B00E05058463E4B5D46E754F6AC0733FF
:10158000C450F69159460433C2500833C754FCA8DE
:101590000C33C8500433CA50399A0833CF54FC96E0
:1015A00055AB13CA13C313CA13C303CA03C38020A2
:1015B00040005D975E975F9703F0D0FC431CFF33BC
:1015C0000770040000215D90FF2201305F9303F05B
:1015D000B9FC80235B024C2163935DAB64932023B1
:1015E0004AA84018C75465AB679368935DAB6A938C
:1015F00038234AA84118CF546BAB60973AE0C046F5
:10160000FCFBFFFFD42A0020D02A0020689601109E
:101610007239002071390020889601108C960110D3
:1016200090960110949601109C960110A4960110BA
:10163000AC960110B4960110B8960110C096011036
:10164000C8960110D0960110D8960110E4960110AA
:10165000EC960110FC960110A8A60110309701101D
:101660009C970110426F6F6C4375726C7472756554
:101670000902000061976297669769976C976F9768
:101680006D936E935E9450AF0EE0042B00D0C5E1D5
:10169000AB691A78422A01D100F03CFFFFAB483514
:1016A0000433AB4200D1C1E0EB69032BEDD1AB6950
:1016B0001A78492AF2D15A786E2AEFD19B78742B86
:1016C000ECD12B6B2C68984614F036FD066814F0AC
:1016D00033FD00230A2203604AA9404611F03AFB79
:1016E0004A9B0790984501D101F043FA14F024FD7C
:1016F0000368222B01D101F039FA14F01DFD0368B3
:10170000002B01D101F0E9F8079B2000DB17984678
:1017100012F0AAF85E995D9B0130CB1A220000936B
:1017200023185DA8FEF762FE66214AAA52181378B4
:1017300001221A423ED0669C002C01D101F015F91D
:10174000649B1E68009B994665AB9A462B00B1448A
:101750004D46994603E0A246A468002C09D02069B2
:101760002900301816F0FEFE0028F4DAE468002C98
:10177000F5D14B46A9461D0065AB9A4501D101F054
:10178000F4F853461C694846311916F0EBFE002860
:1017900001DA01F0EAF85E9A5D9B0098D11A88425E
:1017A00001D901F009F904D2844663449A4200D079
:1017B0005E930094009B619C3B600023629E7B6073
:1017C00004333B81B44201D101F0C6F8200010225D
:1017D0003900103403F0BCFB6194079B0893434627
:1017E0000993089809990B00020012184B414146D1
:1017F00000920193019B51400322984501D101F0D1
:1018000089F8079B7A723B6043467B6001233B72F9
:10181000B44200D0B1E13A00210060A8FFF7BAF964
:10182000FFAB48350433AB4200D03DE7609E619A80
:10183000931B1B1198465B085C0135199A46AE4212
:1018400024D0601102F040FB1F22121A5DAB290068
:1018500030005200FFF73AFC80239B009C4201DCE1
:1018600000F044FFF418210030005DAAFFF7CAFA27
:10187000A54206D020005DA92034FFF799FAA542C1
:10188000F8D1619A609D531B1B11984667214AABA2
:101890005B181B7899465346FF2B0ED980230021F5
:1018A000002054465B029C4241410B0001334946F3
:1018B000994500D2191CCBB299465D9CAA4201D130
:1018C00001F0C3F803205E9A0126131BA21A0240FE
:1018D00094461E409A1C181DB61804228444290000
:1018E00000204F46013307921993219400960C7AF9
:1018F000032C00D8FAE11A2C00D1F7E10A684B68F2
:10190000199DA94681444D46029500250395029DE7
:10191000039EAD1A9E411A951B96002E01D100F030
:1019200083FE009D0A9500250B950A9D0B9EAD1A1E
:101930009E411A951B96002E01D100F07DFE654652
:101940000E9500250F950E9D0F9EAD1A9E412A0003
:10195000002E00D1C0E103263A1CB74200D2321C4F
:10196000D7B2002800D1C3E108239946009B02307A
:1019700004332031CC4400934045B8D3B946219C70
:101980004B4601259D4000265E991993641A4AAB87
:101990006A1E1E76224050AB5DA8FFF725F852461E
:1019A000FF2350922B4050AA5196D61833005DA8C1
:1019B0005E99FEF71BFD5E9A5D9BEFB26198609D9C
:1019C000D31A9846854201D101F03CF80024042F37
:1019D00016D100F09DFE032A00D998E11A685B68D1
:1019E0005092519333005E995DA850AAFEF7FEFC19
:1019F000609D6198411B02340911A14200D8A7E102
:101A00002301EB181A7A032AE5D1082FF2D11A68BC
:101A10005B685E995092519352ABE5E7062B00D07C
:101A2000B3E00622A8691E9915F09AFB81460028AA
:101A300000D033E62E6B2C6814F07EFB03689846CA
:101A400014F07AFB4B464AA90360300011F05EF8AF
:101A50004A9B009001919E4201D101F090F814F050
:101A60006BFB0368222B01D101F086F814F064FBB4
:101A70000368002B01D100F026FE200011F0F4FED7
:101A80005E995D9E0130231822008E1B5DA84B9647
:101A9000FEF7ACFC66224AAB9B181B78653A1A42EB
:101AA00042D0669C002C01D100F0FFFE649BB14641
:101AB0001B68984665AB9A462B00C1444546B04624
:101AC0004E46994603E0A246A468002C09D020693E
:101AD0003100281816F046FD0028F4DAE468002CDE
:101AE000F5D14B46B1464646A8461D0065AB9A4522
:101AF00001D100F0DAFE53461C69434648461919E5
:101B000016F030FD002801DA00F0CFFE5E9A5D9BF2
:101B1000D11A8E4201D900F087FF03D29B199A4255
:101B200000D05E9326004B9400233E60619C629E31
:101B30007B6004333B81B44201D100F09AFE200067
:101B400010223900103403F003FA61940323009942
:101B5000019A3B7239607A600800110002F044FD7E
:101B600003F030F9009A019B02F08AFC434258418D
:101B700002307872B44200D14DE6200010223900C4
:101B8000103403F0E5F9619488E5052B00D085E574
:101B90000522A869209915F0E3FA041E00D07DE51E
:101BA0002B682E6B984614F0C7FA0368994614F018
:101BB000C3FA4AA90460300010F0B6FF4A9B0090B7
:101BC0009E4201D100F0E1FF14F0B6FA0368222B27
:101BD00001D100F0D7FF14F0AFFA0368002B01D158
:101BE00000F028FE404611F03FFE013003005E99F0
:101BF0005D9E42468E1B43445DA84B96FEF7F6FB66
:101C000066224AAB9B181B78653A1A4242D0669C02
:101C1000002C01D100F010FF649BB1461B68984670
:101C200065AB9A462B00C1444546B0464E469946A0
:101C300003E0A246A468002C09D0206931002818CE
:101C400016F090FC0028F4DAE468002CF5D14B463D
:101C5000B1464646A8461D0065AB9A4501D100F045
:101C6000EBFE53461C6943464846191916F07AFCA8
:101C7000002801DA00F0E0FE5E9A5D9BD11A8E42E8
:101C800001D900F0E6FE03D29B199A4200D05E9380
:101C900026004B9400233E60619C629E7B6004336F
:101CA0003B81B44201D100F0B6FE20001022390081
:101CB000103403F04DF96194009803F083F8BC4BA5
:101CC000386079603B81A64200D056E73A00310087
:101CD00060A8FEF75FFFE1E4FF2D00D83BE680251A
:101CE00002266D02AA4200D336E634E64E7A33E687
:101CF00008239946009B2031043300934346CC448B
:101D0000022B01D800F0FEFC02200794EFE51A2A0E
:101D100000D163E65E9D5D9A0234AA1A12920022F7
:101D20001392129813991A685B68801A99410200FD
:101D30000B005DA8290050925193330050AAFEF782
:101D400055FB609D6198411B0911A14200D957E6DE
:101D500067244AAA43461219127800209446524634
:101D60001693079B17900A33DBB2FF2A0DD9802206
:101D700000245646520296424441220001326046F7
:101D8000944500D2101CC2B294465E9C5D9AA01A83
:101D9000121B0792032B33D91A2B31D0169E179F93
:101DA000002326902793269A279B921BBB41002B4A
:101DB00001D100F056FE169E179F012303401B1809
:101DC000289300232993289A299B921BBB41160034
:101DD000002B01D100F04DFE169E179F0323079A9A
:101DE00013401B182C9300232D932C9A2D9B921B90
:101DF000BB411600002B01D100F050FE0323994691
:101E00006346CC4500D24B46DBB29846012953D9F4
:101E100003262B000125079A2F00164002000239E5
:101E2000A9438C460C32B6180740821DBF18C21C4D
:101E3000053084446146B4464646884610331A94B9
:101E4000197A032900D8AAE21A2900D1A7E2186852
:101E50005968002404920594049C059D241A8D4120
:101E6000002D00D1DBE300240C970D940C9C0D9DFC
:101E7000241A8D4100940195002D01D100F0EBFB57
:101E80006446109400241194109C119D241A8D41D5
:101E90002000002D00D178E20325281CB54200D295
:101EA000301C082189460232C6B22033CC440437A4
:101EB0009045C5D1B0461A9C012543462E00002707
:101EC0009E402100FF244AAB1F76079B721E1340E1
:101ED0001A005DA850ABFEF787FDF3B25E999946F4
:101EE0005D9B1D97CB1A1C9334401C9A1D9B169E1C
:101EF000179F921BBB415092519350AB1B1950AA94
:101F00005DA8FEF773FA199B203B00D5D5E39D40F1
:101F100051950123199A5E999340509350AB1D1926
:101F20002B0050AA5DA8FEF761FA53465093002398
:101F30005E99519350AA2B005DA8FEF757FA5E9A5E
:101F40005D9B619F609CD31A391B9A460B00102938
:101F500000D88DE04B460126042B01D100F021FC76
:101F600020003C002F003301C3181A7A032A00D145
:101F70002BE200D915E21A685B68509251935E9982
:101F80003B005DA850AAFEF731FA6098619C211AC7
:101F900002360B000A11B242E5D827000400102BCC
:101FA00066D943466A460126D1465E9D137715E001
:101FB000030200001A2A16D05C7A92005F9B144339
:101FC000E4B29D421CD02C705E9D619F609C0135E7
:101FD0003B1B02365E951A11964248D23301E31834
:101FE0001A7A032AE6D85B7A1C1C434501D26B4659
:101FF0001C7FE4B292005F9B1443E4B29D42E2D1A5
:102000005D9B9A46ED1A7E4B9D4201D100F0C0FDCA
:10201000002D00D166E26B00AB4205D31A0000939D
:1020200080231B069A4201D3754B0093009802F05F
:1020300095FF07004455002D00DC5AE22A00514666
:1020400015F006F953465F9901357D19C91A5046B6
:1020500002F08CFF009B5D979C466744609C5F97F5
:10206000619F02363B1B5E951A119642B6D3CA4653
:1020700052462020509200224AA951920918093252
:102080000A7021214AAA521841461170002B03D030
:10209000A74200D061942700629BBB4201D100F0AF
:1020A0000AFC3800102250A9103702F051FF619746
:1020B0005E995D9B227AC81A5B1A032A00D821E236
:1020C0001A2A00D11EE26568246800222A902B9209
:1020D0002A9E2B9F361BAF410122002F01D100F019
:1020E000D6FC024012182E9200222F922E9E2F9F75
:1020F000361BAF41002F01D100F0DEFC03221A4055
:102100001218309200223192309E319F361BAF411F
:10211000002F01D100F0EDFC07221A401018329078
:1021200000203390329E339F361BAF4108308046EB
:10213000002F01D100F0ECFC42464046013AC4B207
:1021400000254AA81A40057650AB5DA8FEF74CFC66
:10215000609A137A032B00D194E3032B00D96FE329
:1021600053681268509251935E994246FF23134080
:1021700050AA94465DA86344FEF738F9609A137A32
:10218000527A9B0013434AAA9446137619235E9908
:10219000634450AA5DA8FEF729F94AAB4AAA9446BF
:1021A0001C7619235E99634450AA5DA8FEF71EF9B8
:1021B000642101234AAA521813705E9A5D9BD61AB5
:1021C0009A4200D176E2002E01DA00F0B3FC300032
:1021D00002F0C4FE5D995E9C0700641A012C01DCCC
:1021E00000F0BCFC220015F033F82200390050A8A2
:1021F00007F084F80024B146BA4655AD0EE0C0465B
:10220000FFFFFF7F042B00D0EAE0BB691A78422A67
:1022100000D12EE201340435082C46D02B68DF00B3
:10222000FF18FF005F44FB69032BEBD1BB691A78F1
:10223000492AEFD15A786E2AECD19B78742BE9D1D8
:10224000210050A807F08AF83E6B804613F074FF17
:10225000076813F071FF00230A2203604BA93000C6
:10226000009610F077FD4B9B009A06009A4201D130
:1022700000F07FFC13F060FF0368222B01D100F017
:1022800075FC13F059FF0368002B00D12AE3B04519
:10229000C0D045222499259807F0D2F80123189A36
:1022A000013413700435082CB8D157464E46002F20
:1022B00003D03100380002F059FE6C9C002C09D08C
:1022C000E068FEF709FA2000A468182102F04EFE2B
:1022D000002CF5D1669C002C09D0E068FEF774F95B
:1022E0002000A468142102F041FE002CF5D1609872
:1022F000002803D06299091A02F038FE5D98002880
:1023000003D05F99091A02F031FEFFAC0434483C57
:102310002300206B3833984203D0A16B013102F0C7
:1023200025FE2300A0692033984203D0216A0131A1
:1023300002F01CFE230020680833984200D1CDE053
:10234000A168013102F012FE5C45E0D10123239A1D
:1023500013701F9B01221968189B1B78002B01D159
:1023600000220131229C1F9BDA4819602368D21891
:102370002260521807F064F82368002B00D0DBE3DA
:10238000D54807F05DF8FEF779FFFF2C00D883E50C
:10239000802402256402A04200D37EE57CE55D7ABC
:1023A0007BE51A2A00D1E6E55E995D9A8A1A1492B5
:1023B00000221592149C159D1A685B68A41A9D4111
:1023C00022002B0050925193DAE54A46082A00D0A9
:1023D000DEE51A685B685E995092519352ABD0E586
:1023E000062B3ED10622B8691E9914F0B9FE061ECE
:1023F00000D00FE7210050A806F0D8FF3B6B0090FB
:102400000191984613F098FE0368079313F094FE29
:102410004BA90660404610F079FB4B9B06000F006D
:10242000984500D1ABE313F087FE0368222B00D15F
:10243000A2E313F081FE0368002B00D15DE1009858
:10244000019932003B0002F01BF8002800D0E1E6C1
:102450004922A249A24806F0F3FF0123189A1370FB
:10246000D8E6052B00D0D5E60522B869209914F0EE
:1024700077FE061E00D0CDE6210050A806F0B2FF80
:102480003F6B804613F058FE0368009313F054FE30
:102490004BA90660380010F047FB4B9B061C9F427F
:1024A00000D172E313F048FE0368222B00D169E3E8
:1024B00013F042FE0368002B00D1D5E14046311CE9
:1024C00002F064FC002800D0A4E64C228349854831
:1024D00006F0B6FF0123189A13709BE65C4500D006
:1024E00015E733E7012002F039FD012307000470EE
:1024F0000093534601357D19002B00D1AAE55F9961
:10250000C91AA4E50127627A97403A00B846013A11
:10251000FCB215E65A786F2A01D0FFF7BFF89A7817
:102520006F2A01D0FFF7BAF8DB786C2B01D0FFF7E8
:10253000B5F800226B6B2C680092042B00D1D5E11A
:10254000200011F091F95E995D9B0130CB1A2200B9
:10255000984623185DA8FDF749FF66224AAB9B18F1
:102560001B78653A1A4237D0669C002C00D12CE2C9
:10257000649B1E6865ABB1469A462B00C1444D462C
:10258000994603E0A246A468002C09D020692900DE
:10259000301815F0E7FF0028F4DAE468002CF5D1D4
:1025A0004B46A9461D0065AB9A4500D10DE2534646
:1025B0001C694846311915F0D5FF002800DA04E2FD
:1025C0005E9A5D9BD11A884500D91BE203D2434431
:1025D0009A4200D05E93A04643463B600023619C34
:1025E000629E7B6004333B81B44200D1DCE1200079
:1025F00010223900103402F0ABFC6194009B3B6068
:1026000000237B601A333B81B44201D0FFF7B5FA57
:102610003A00210060A8FEF7BDFAFFF701F9FF2C90
:1026200000D920E4002538E41A9DFF2D01D9FFF7D9
:1026300078F90026FFF790F91A9DFF2D01D8FFF7D2
:102640007EF92E0080256D02AE4201D3FFF777F9A7
:102650000126FFF781F9009CFF2C01D8FFF710FC41
:1026600080256D02AC4201D3FFF70AFC0125FFF77C
:1026700014FC5A786F2A00D0CCE59A786F2A00D0E3
:10268000C8E5DB786C2B00D0C4E5210050A806F02B
:1026900075FE7A6B0023042A00D149E1984200D1EB
:1026A000B8E547220D49104806F0CAFE0123189AE2
:1026B0001370AFE50024002797E52023199A9B1A91
:1026C000DD40519525E413F037FD43460360FFF7E5
:1026D000D4F9C046B0980110C49801103097011089
:1026E000249801106C980110E09701102900300027
:1026F0005DAAFEF787FBFFF7C4F813F01DFD079BEB
:1027000003609CE62300B946219C0793FFF738F944
:102710002B003500469E479F12E0032A1DD81A68F9
:102720005B68509251932B005E9950AA5DA8FDF70B
:102730005DFE609B61990234C91A09118C422BD24B
:1027400022019B181A7A032AE7D11868596801F008
:102750004BFF5E99509051ABE7E71A2ADFD05E9AA3
:102760000027944661465D9A02348E1A30001A683A
:102770005B683900801A994102000B005DA85092F5
:10278000519361462B0050AAFDF730FE609B619982
:10279000C91A09118C42D3D31D0046964797FFF7FB
:1027A000D7FAA9463500489E499F12E0032B1DD851
:1027B00022686368509251934B465E9950AA5DA877
:1027C000FDF714FE609C619A0235131B19118D42AE
:1027D0002BD22B01E418237A032BE7D12068616800
:1027E00001F002FF5E99509051ABE7E71A2BDFD062
:1027F0005E9B00279C4662465D9B3900D61A3000DE
:1028000022686368801A994102000B005DA850920B
:10281000519361464B4650AAFDF7E8FD609C619AD2
:102820000235131B19118D42D3D3489649971700CF
:10283000FFF7B5FB13F080FC4B460360FFF7D2F9BE
:102840001A2B00D18CE45E995D9BCB1A4493002334
:102850004593449D459E53681268AD1A9E412A00D7
:1028600033005092519380E413F066FC009B0360A8
:1028700024E631003A0060A8FEF78CF9619C629E64
:10288000FFF764F95E9D10685168042C1BD0032388
:10289000082C00D074E45090519152AB290050AAFA
:1028A0005DA8FDF7A3FD082468E44BA964A8FDF723
:1028B00067FDFFF739F9390050AA60A8FEF712F852
:1028C000609CFFF7F5FB01F08FFE2900509051ABA3
:1028D00050AA5DA8FDF78AFD50E413F02DFC0660B8
:1028E000FEF712FF13F028FC0760D0E42B6B1A7878
:1028F000742A04D001235A425A41009220E65A78A1
:10290000722AF7D19A78752AF4D1DB78652BF1D148
:102910000023F0E7FF2908D98023002200205B0272
:10292000994242410132FEF76CFF0022FEF769FF37
:102930003B6B1A78742A04D001235A425341DBB20C
:10294000ACE65A78722AF7D19A78752AF4D1DB78F6
:10295000652BF1D10023F0E731003A0060A8FEF7C3
:1029600019F9619C629EFEF738FF009A64A94CA891
:10297000FDF7B0FC4D9C002C01D1FEF71BFF4C9BDA
:102980000126002B00D1A5E0142002F0E7FA009BFD
:1029900001000361220065AB300006F08FFD699BEA
:1029A00001336993FEF706FF31003A0060A8FEF795
:1029B000F1F8629E619C21E6411A5DA8FDF714FFC3
:1029C00053461B690093FEF7F5FE424664A94EA8E4
:1029D000FDF780FC4F9C002C00D1FDE54E9B0126AD
:1029E000002B00D1ADE0142002F0B8FA43460100FC
:1029F0000361220065AB300006F060FD699B013386
:102A00006993E9E543465DA8591AFDF7EDFE534683
:102A10001B699846E0E531003A0060A8FEF7BAF875
:102A2000629E619CFFF748F9711A5DA8FDF7DCFE14
:102A300053461C69FFF776F84BA964A8FDF7A0FC84
:102A4000FFF728F90021FFF783F904230793FEF726
:102A500097FF711A5DA8FDF7C7FE53461C69FFF783
:102A600017F9FF2A01D9FFF7A6F900239946FFF7C6
:102A7000C7F9FF2A01D8FFF7AFF980235B029E4216
:102A800001D3FFF7A9F901239946FFF7B9F9FF2E02
:102A900001D9FFF726FB9046FFF74EFBFF2A01D82E
:102AA000FFF7ACF9802302225B0291469E4201D3DC
:102AB000FFF7A6F9FFF7A2F9FF2E01D8FFF71EFBDB
:102AC00080225202964201D3FFF718FB0222904661
:102AD000FFF732FB65AB9C4200D155E7649B21694F
:102AE0001868009B41189C46604415F03BFDC60FDA
:102AF0004AE7FF2E01D8FFF70FFB802252029446CF
:102B000004229046664501D3FFF716FBFFF704FB4E
:102B100000234AA8037650AB5DA8FDF765FF609AD5
:102B20000824137A032B01D0FFF717FB10685168B4
:102B30005E9DB0E606F084FD174806F081FCFEF7C6
:102B40009DFB65AB9C4200D14DE7649B21691868F1
:102B50004118404415F006FDC60F44E7012C01D092
:102B6000FFF743FB0B780370FFF73FFB0B4806F0C2
:102B7000BFFD0A4806F08CFD094806F0B9FD08487B
:102B800006F086FD074806F0B3FD064806F080FD16
:102B9000054806F095FDC046DC9801100897011025
:102BA0002097011028970110349601108023DB052F
:102BB0001868000F7047C0460FB400B5084883B0CE
:102BC00003F0B2FF049B002B07D005A91800019168
:102BD00003F088FD034803F0A7FF012003F09AFDEE
:102BE000F8980110A89B011070B5EFF3108C72B625
:102BF0000D4D2B68002BFCD0BFF35F8F0724CB0853
:102C0000C618C05C01230C40A3401C0004400342D2
:102C100007D118433070BFF35F8F2C608CF310889E
:102C200070BD1000FFF7C8FF2C0100D0F8B5474673
:102C3000CE46884680B5EFF3108C72B6214D2C68D5
:102C4000002CFCD0BFF35F8F9A422CD8D408072702
:102C5000055D061901241740BC402C421FD00721F6
:102C60000127894609E0D408055D06194C4639005C
:102C70001440A1400C00294211D001329342F2D2FB
:102C800001204042BFF35F8F00220E4B1A608CF38D
:102C9000108800280FDBC0BCB946B046F8BD2543FC
:102CA00010003570EEE7BFF35F8F00232B608CF3CD
:102CB0001088012040424346002BECD00898FFF7D3
:102CC0007BFFC0462C0100D0044A1078431CDBB2C5
:102CD000172B00D9102313707047C046941F002093
:102CE00010B5064B064C82B00100009318221F233A
:102CF0002000FFF79BFF02B010BDC04608990110ED
:102D00009C3400200021044B044ABFF35F8F02C3B0
:102D10009342FAD17047C046000100D0800100D034
:102D2000054B064A1360064A136053609360D360F4
:102D300013615361936170478080808000E400E0FC
:102D400004E400E01F2318401E3B8340002905D007
:102D5000C021044A49005350136070478022014942
:102D60008B50FAE700E100E001228240034B1B6830
:102D700013405A1E9341D8B27047C04600E100E0AC
:102D800001238340014A13607047C04600E200E01F
:102D9000084B10309B688000C358002B07D0064AB0
:102DA00000209B1A2F229A424041C0B27047002057
:102DB000FCE7C04600ED00E0981F002070B50D0054
:102DC000EFF3108672B60F4A1368002BFCD0BFF3E6
:102DD0005F8F0D4B10309B6884001B590B4A934248
:102DE00003D09D4201D000F091FF074B9B681D511D
:102DF000BFF35F8FBFF35F8F0022024B1A6086F331
:102E0000108870BD240100D000ED00E0CD0100105D
:102E1000F0B557464E46DE464546E0B585B006005D
:102E200000911700EFF3108B72B66A4A1368002BFB
:102E3000FCD0BFF35F8F0025674B5D579A46002D8E
:102E400000DAA9E06B00654C01935B199B00984682
:102E5000A146C1444B4652469B7910361370604BD5
:102E6000B6009B6899590B1B2F2B33D95D4B9942A8
:102E700000D0ACE0019B42469C465B4B6544AD00F4
:102E800063535A4B0232A218043B9B1A1B05584A43
:102E90005B0D651913436B80564B0121AB80FF23FB
:102EA000AB71009BEF71AB604B460B4319004C4B71
:102EB0009B689951BFF35F8FBFF35F8F0022454B33
:102EC0001A608BF3108805B0F0BCBB46B246A94629
:102ED000A046F0BD01200A008243D3798C46BB4254
:102EE00031D84546130044491B1B5B415943090D2A
:102EF0003D4B63533D4B02356519043B5B1B1B0582
:102F00003B4D5B0D2B43AA464D466B800425AC46DA
:102F10005546E044131F44441B1B1B055B0D1D431A
:102F20004B46997100999D8099604946DF71334BFA
:102F300001431360BBE75800C01880002018C17916
:102F4000B9422FD902000623D356002BF3DA02939D
:102F50002B4B61460393131D9A4604235B429C4608
:102F6000E14450464B461B1A1B055B0D9C46204B0B
:102F7000957198466346404603439380019B5A19D6
:102F80009200039BA418A380029B1C4AA371009B80
:102F90002260E771A3608AE700F0B8FE002553467F
:102FA0005D574FE7908802934005131D9A4603151D
:102FB00061469C464046D444634604302018181AA3
:102FC000E0230005400D1B0218430390C5E700F005
:102FD0009DFE4FE7240100D078390020981F002083
:102FE00000ED00E0CD01001000A1FFFFC81F002090
:102FF00000E0FFFF01BDFFFFAAAA000001488047D3
:1030000001BD000070B501240443EFF30581EFF327
:10301000108C72B6214A1368002BFCD0BFF35F8F6F
:103020001F4B05001F4AED1A6D416A43120D1E4DDC
:103030008900AE6852B27658A6421CD00621595675
:1030400091421CD012215956914222D01E2159562C
:10305000914220D02A2159560324914210D0134B7B
:1030600019781A708171BFF35F8F00220B4B1A60C1
:103070008CF3108870BDAB680D4C5C50EFE70024FA
:103080006100091989005B18FF219971094999802C
:10309000E5E70124F4E70224F2E7C046240100D06A
:1030A000981F0020AAAA000000ED00E07839002057
:1030B000CD01001001BDFFFF10B5084B084C82B0D8
:1030C00001000093002205232000FFF7AFFD002838
:1030D00001DB1F23181A02B010BDC046249901104D
:1030E0007C390020024B9C46614489000160704796
:1030F0004000003470B5114C114DAC420FD2FF2688
:103100002368002B0CD0FFF7DFFD01002000FFF744
:10311000E9FFA680BFF35F8F0834AC42F0D370BDE7
:10312000FFF7D2FD01002000FFF7DCFF2671BFF39F
:103130005F8F0834AC42E3D3F1E7C0463827002064
:103140004827002010B50400FFF7BEFD0100200055
:10315000FFF7C8FFFF232371BFF35F8F10BDC04689
:1031600010B504000120FFF7BBFD034BC3189B0003
:103170002360BFF35F8F10BD40000034034B9C46BB
:10318000614489000160BFF35F8F704740000034E5
:103190000A4B1968EFF3108072B60A68002AFCD057
:1031A000BFF35F8F1B68BFF35F8F00221A6080F34D
:1031B000108840BF002000217047C04654390020CD
:1031C000F0B5DE4657464E464546E0B583B0EFF3D0
:1031D000058203231340B54A990052580091904646
:1031E00001229A40B24B93461A60B24B01932EE0F3
:1031F00043469B881BB2002B00DB99E043469B793A
:10320000002B00D0DDE0434608241C5F002C00DAD0
:1032100006E143465A6963001B19DB00D3189D6819
:10322000DC686B1C00D107E1A34B00999C4661440C
:103230009A6A0B69A81A9B1A984200D20D619E489F
:1032400000F026FB8C4200DDEAE000D126E15B467F
:1032500099484363434608229B5E9946002BC7DB8F
:10326000424652695B0092464B44DB009A44534607
:103270009E68DF6800F00CFB8F42B9DC00D100E1F2
:10328000002F00DAE1E05246534654691B69019A67
:10329000934200D1D4E0414652460820085E52884D
:1032A000000421001043984704000D0023002B4325
:1032B00000D1CAE0002D00DBE7E030003900001B40
:1032C000A94153469860D96000229A5E002A8FDB9C
:1032D00043465D6953009C18E4002C19A768E46814
:1032E0008C4200DD84E702D1874200D980E7464660
:1032F000328108360DE08C4200D1D3E01E0000235D
:10330000F25E002A0ADB53009C18E4002C19A7681F
:10331000E4689B18DB00EB188C42ECDD53461A8006
:103320004B46338043469B881BB2002B00DA65E78F
:1033300043461A69EFF3108172B61368002BFCD074
:10334000BFF35F8F43469E88012342465B429380D2
:1033500036B21369BFF35F8F00221A6081F31088C1
:10336000002E00DA4AE743465D69083342469C4630
:103370007700BF19FF00EF19BB6860469846082325
:10338000D15E9246FC68002907DA0EE0A2424FD0D7
:1033900018000023C15E002906DB4B005B18DB0030
:1033A000EB18DA68A242F1DD524606800023FE5E89
:1033B0003980002EDCDA904643469B79002B00D101
:1033C00021E7002342469371434646460821595E51
:1033D00008364B1C24D047468946556902E0060052
:1033E0004B1C18D04B005B18DB00E8180A008C4619
:1033F000E95E43881BB2002BF1DA01235B42DC1744
:103400008360C4604A4503D031803B8903803A81A0
:10341000E1464B1CE6D14C46B846002C00DBF8E6F2
:1034200040BF03B0F0BCBB46B246A946A046F0BDC3
:103430009A684245ACD9B7E7631C00D0F4E6FEE6D3
:10344000200023699847002825D1534642461B880F
:1034500013811269EFF3108372B611680029FCD052
:10346000BFF35F8F4246514652880A804246494622
:1034700051801269BFF35F8F0021116083F31088C0
:10348000B6E6864200D8FBE6B2E60B4800F000FA4A
:103490000019694115E76568246807E7854200D887
:1034A000D5E6BDE7874200D828E737E7383900205E
:1034B0003C700540C13100100040054070B52E4CF5
:1034C0002569002D04D00A212C48FFF70BFE70BDA2
:1034D0002B4E0321300000F0D1F9E660FFF7F4FB3A
:1034E000284B03229C46D02322701B061B68012117
:1034F0006370254B6044A3600F238000206102208D
:10350000638063694942A18019800231198647317D
:103510001D83585218315A5275325C3999521832FB
:1035200001319952183201319952183201319952B0
:10353000083518329D520231183299521832013131
:103540009952183201319952183201319952183278
:10355000013199521832013199520C4B0C49DC60FF
:1035600001303562FFF72AFC01210320FFF7EAFB57
:10357000084B1D60A7E7C046E01F0020543900201B
:103580000040054040000034FFFF100038390020A3
:10359000C13100103860054000487047E01F00202E
:1035A000F8B51F0008AB1B7804001600002B08D1EB
:1035B00000F076F932003B00121A8B41002B00DA42
:1035C00053E02269EFF3108072B61368002BFCD031
:1035D000BFF35F8F0223E15E63694A005218D20095
:1035E0009B18002937DB1A8862802269BFF35F8F3E
:1035F0000025156080F31088069A9E60DF601A61CE
:10360000079A5A615A8801325204520C101C002A3F
:103610001FD082B25880080410432669EFF3108748
:1036200072B63268002AFCD0BFF35F8FA2881A807E
:10363000A1802369BFF35F8F00221A6087F310888F
:103640000B4923788C4601329A40E36863441A6040
:10365000F8BD0120DDE72369BFF35F8F00221A6008
:1036600080F3108801204042F2E70020F0E7C046D6
:103670003C20000070B501000469EFF3108C72B6B5
:1036800020680028FCD0BFF35F8F02200D5E4C69DC
:1036900068004019C0002418002D37DB20884880BE
:1036A0000869BFF35F8F002606608CF31088E36023
:1036B00063880498013320615B0405985B0CA26069
:1036C00060611A1C002B1FD093B22804628018433B
:1036D0000A69EFF3108C72B61368002BFCD0BFF3AD
:1036E0005F8F8B8823808D800B69BFF35F8F0022F3
:1036F0001A608CF310880B7801329A40CB68084925
:103700008C4663441A6070BD0122DDE70B69BFF38C
:103710005F8F00221A608CF3108801204042F2E78C
:103720003C20000010B543890A1493421ADD53006F
:103730009B184269DB00D3180469EFF3108C72B652
:103740002268002AFCD0BFF35F8F5A88090494B224
:10375000090C8A4208D00369BFF35F8F00221A6008
:103760008CF31088002010BD8022120214435C806C
:10377000012302698371BFF35F8F002111608CF315
:103780001088044902788C469340C2680120624444
:103790001360E8E73C20000040787047F0B5CE4663
:1037A000474680B504000D0083B0EFF305878846D7
:1037B000002F3ED12E4EA1463378F06804339B0093
:1037C000816A1B58601A5B1A98420ED320BF2949A0
:1037D00000204B6AAB4203D38A6A0130944231D84D
:1037E00003B0C0BCB946B046F0BD00F059F82200A5
:1037F0002B00121A8B41002B2FDB1F4B2200009352
:1038000030002B000197FFF735FF011E25DD194B16
:103810005A6AAA421BD220BF3000FFF783FF154A25
:103820000020536A4345DBD3926A01309145D7D9D2
:1038300008E0104900204B6AAB42D1D38A6A0130BC
:10384000A242CDD25B1B5A1E9341D8B2C8E79B6AF5
:103850009C42E1D9AA42DFD1DDE7064A0020536A43
:103860004345BDD3926A01209145B9D9EAE7C046E4
:10387000E01F0020004005409131001010B5024AC1
:103880000248FFF7B1F910BD40990110A0340020A3
:103890000300416A0A00986A596A8A42FAD170475D
:1038A000034B596A0A00986A596A9142FAD17047E3
:1038B0000040054070B504000D00174A536A190016
:1038C000966A536A8B42FAD13000190024184D4190
:1038D000AB4216D813D0104A2B00526A954203D936
:1038E0000D494A6A9A42FCD39A4207D10A4A02E039
:1038F000516A994202D1916AA142F9D370BDA642A0
:10390000E9D9054B5B6A1C005A1CEFD00123012446
:103910006442E5175B42E3E700400540F8B5DE4648
:103920004E4657464546E0B58B4605000A991800B5
:10393000160000F0F7FA0A9B6C001F02324B641964
:103940009C46A4006444636881469F4200D9676036
:103950002B1FDBB29846012B30D9C02380229B015C
:10396000E31812011A60294BAD0059599A460029F3
:103970001BD17301E026226853401E40802342463B
:103980005B01E3181E60012A30D9802380229B014D
:10399000E31812011A6053464A4667605A51F0BC58
:1039A000BB46B246A946A046F8BD586900F0BAFA2F
:1039B000013043001B18033BFDD2DAE75B46012BC5
:1039C000CBD1C02303229B01E3181A60023AA368FB
:1039D0001A42FCD07301E0262268AD0053401E401D
:1039E00080230A4A5B019246E3181E605A4621680A
:1039F000514003220A401A6001225B469A40A368A4
:103A00001A42FCD0C1E7C04600800040A434002028
:103A1000F0B546464F46D646C0B51F00344B44006D
:103A20009C462418A4006444636888461600FF2B53
:103A300002D880235B006360031FDBB29A46012B30
:103A400030D9C02380229B01E31812011A60294B50
:103A500085005959994600291BD17301E026226837
:103A600053401E40802352465B01E3181E60012A2A
:103A700030D9802380229B01E31812011A60802331
:103A80005B0063604B465F51E0BCBA46B146A84656
:103A9000F0BD586900F046FA013043001B18033BA3
:103AA000FDD2DAE74346012BCBD1C02303229B0191
:103AB000E3181A60023AA3681A42FCD07301E026A8
:103AC0002268850053401E4080230A4A5B019146CC
:103AD000E3181E6042462168514003220A401A60E2
:103AE000012342469340A2681342FCD0C1E7C0467E
:103AF00000800040A4340020014B8000C058704773
:103B0000A4340020F8B5040021481E0017000D0061
:103B100000F008FA0100380000F004FA069B3604B1
:103B20001B031E432368002B20DB1A4B1A49E318A2
:103B30005A1E93418022920194465B421B0B174A06
:103B40001B0363441360164A13601F000A689743FF
:103B5000FBD1144B2560E2182123A0601360236879
:103B6000002BFCDA0823E6601360F8BD3F232268CF
:103B70001340AB42D9D1A3681B051B0D8342D4D19E
:103B8000EE22E368D2021340B342CED1EDE7C04645
:103B9000001BB7000040FDBF08C0004000E000402F
:103BA00000F000400430000010B580241C4BE405F8
:103BB0001C6000281AD001231A4C18431A4BDC61F0
:103BC0001A4C44401C62596298628021144BC9050A
:103BD0001960174817490860E021C9041960002AD4
:103BE00007D18022144B12061A6010BD0E4BD8610B
:103BF000EBE753019B1A9B009A18802312015B0488
:103C00009A4209D213000D490B60074B5A6080227B
:103C1000094BD2051A60E8E7094B1A00F3E7C046E2
:103C200000B00540D3C007B0008005402D3FF84FDD
:103C3000FCFF01000820014000A0054010390020D1
:103C4000FFFFFF008023024A9B000B43D3627047B3
:103C500000800540142310B50100188804331B8828
:103C6000984710BD162310B50100188802331B8831
:103C7000984710BDF8B54746CE4680B50F1E19D0FF
:103C800014239946043304000025012698464B4628
:103C90001888434621681B88984701C4431E9841F1
:103CA000013540420640AF42F1D13000C0BCB946B8
:103CB000B046F8BD0126F8E7142370B50400188853
:103CC00004331B880D000549984703000020002C91
:103CD00001DB0130A04029009847C0465542000052
:103CE000AA23064A1B0113602F230549D360054B05
:103CF00019605368002BFCDA7047C0460040024050
:103D000000B0FA00006002407047C04610B501489C
:103D1000FEF752FF6499011070B5074D074EB5428A
:103D200009D20024013E761BB60808CD984723002F
:103D30000134B342F9D170BDB8950110F49501106A
:103D4000054B064A06491A60064A074B1A601000DE
:103D50000B689843FBD1704700E00040BFCDFBFEED
:103D600008C00040FE7F3C0000F00040044BDB6CCC
:103D7000002B03D18022034BD2021A607047C04649
:103D8000000011504C201150044A054B1A60054A9E
:103D90001368DB018033FBD17047C046FFFFFF0192
:103DA00000F0004008C000404022034B9A675A6769
:103DB0001A67DA667047C04600F0014010B5FEF79A
:103DC000A1FF10BD70B5044D044CA968C0222000AD
:103DD00001F0BEF8AC6070BD00ED00E00000002016
:103DE000002310B5294C82B0A367FFF779FF0122A9
:103DF000274B1A60636C012BFCD10322254B1A6000
:103E0000224A936B012BFCD1013300930121224AFA
:103E100022480433FFF776FE052301210093204A50
:103E20002048FFF76FFE0022022104201E4BFFF7FF
:103E3000EFFD0022012105201C4BFFF7E9FD0022C8
:103E4000002107201A4BFFF7E3FD00220021082084
:103E5000174BFFF7DDFD8023DB00009300220021DC
:103E60000920134BFFF75AFD0022104B00210620BA
:103E7000FFF7CEFD0420FFF73FFE0E4900F052F899
:103E800001000020FFF7DEFE02B010BD0080004000
:103E90003CB0004030B00040002F68590080024024
:103EA000008C864700C00240001BB70040597307D2
:103EB000006CDC0240420F0001480421014B18470E
:103EC00000200020753C0010014B5B681847000083
:103ED00000200020124A936F9B0815D29066D1668D
:103EE000002905D0FFE7FFE7FFE7516F106F70472C
:103EF00004B580210906C2175140002800D0C843EC
:103F000015F0DAFA002104BDF0B5146E556E576F46
:103F1000166FFFF7E3FF1466556657671667F0BD27
:103F2000000000D0114A936F9B0813D210665166AF
:103F3000002905D0FFE7FFE7FFE7516F106F7047DB
:103F400004B5002801D00020C04315F0B5FA0021C7
:103F500004BDC046F0B5146E556E576F166FFFF76F
:103F6000E5FF1466556657671667F0BD000000D080
:103F700094464A4A926F9208624601D228E0C046AF
:103F8000F0B5464E346E756E776F366F00F020F8E0
:103F90009446424A14665566576716676246F0BDF6
:103FA00094463E4A926F9208624601D254E0C0465F
:103FB000F0B53A4E346E756E776F366F00F04CF890
:103FC0009446364A14665566576716676246F0BDD2
:103FD000002B24DB11D000293EDA00B5C943404252
:103FE00000D1013100F038F8C943404200D101311D
:103FF000DB43524200D1013300BD002AEBD100283F
:1040000001D1002905D00020C90FC90701D1C04343
:10401000410800B515F020FA0022002300BD00B5CC
:1040200000290ADBDB43524200D1013300F014F8CF
:10403000C943404200D1013100BDC943404200D1D3
:104040000131DB43524200D1013300F005F8DB437C
:10405000524200D1013300BD002923D1002B18D1D9
:10406000002A0CD0BC460D4F38667A66002100232A
:10407000FFE7FFE7FFE77A6F386F67467047002872
:1040800001D00748010000B515F0E6F90022002331
:1040900000BD02000B00002000217047000000D08E
:1040A000FFFFFFFF002B00D0BFE0130C28D1002A38
:1040B000E7D080B4114F39667A66FFE7FFE730B486
:1040C000040C7B6F396F1B0423433B667A66FFE762
:1040D000FFE7FFE7C04684B27B6F3D6F1B042343BD
:1040E0003B667A66FFE7FFE7C04600232C042D0CF1
:1040F0007A6F386F00196941B0BC7047000000D07A
:10410000F0B594460025140E01D112020835140FA3
:1041100001D112010435940F01D192000235D40F60
:1041200001D152000135D40B0134254F7C66254C5A
:104130003C660E0C93B2FFE7FFE7FFE73C6F664378
:10414000360C7703BE467343DF0B5B04C01AB941DC
:10415000130C7343DB18C91ACE086643360CB644F9
:1041600093B273431F0F1B01C01AB941130C734361
:104170001F0B1B05C01AB941860D8F023E436643D3
:10418000360C092D24DB520A7243801A7703460A43
:104190006643360C16235B1BDE40DF40BF196446C6
:1041A0006643821B7046043506330100D940A8409F
:1041B000C01900D30131A24206D20023F0BD000095
:1041C000000000D0FFFFFFFF121B0130F3D3F1E727
:1041D00009277F1BFE406446A2B27243801A00D2B8
:1041E0000139220C7243130C1204821A99410B00FC
:1041F0007046043513370100F940A840801900D3F8
:104200000131002B02D1A2420AD2F0BD013000D30D
:104210000131121BFAD2013BF8D1A24200D2F0BD0B
:10422000013000D30131121BF7E7F0B51C0C00D0B0
:1042300080E00CB400251C0A04D11B02160E334387
:10424000120208351C0B04D11B01160F3343120157
:1042500004359C0B04D19B00960F3343920002352A
:10426000DC0B02D192185B4101351C0097186441A8
:104270000134464F7C66464C3C660E0CFFE7FFE778
:10428000FFE7C0463C6F6643360C7703BE4697B2E5
:104290007743C01B00D20139C01B00D201399FB245
:1042A0007743C91BC91B170C77437E04FF0B801B88
:1042B000B941CE086643360C0C2D33DBB644120BE5
:1042C0001F053A431B0B97B27743C01B00D201393D
:1042D0009FB27743C91B170C77433E043F0C801BEA
:1042E000B941860D8F023E43664329277F1BFE405E
:1042F0000C3D7746AF40BF1930BCA2B2ABB272439F
:104300007343801A9941220C7243130C1204801AD1
:10431000994102000B000137001BA941F9D2781E18
:104320000021F0BD0C277F1BFE4077467F0BAF407E
:10433000FF19E0E700245D1C07D0144F7D66396645
:10434000FFE7FFE7FFE7FFE73C6F95B29EB26543EB
:104350006643401BB141150C1E0C65436643360491
:104360002F0C3E432D04401BB141994204D2020060
:104370000B0020000021F0BD01D19042F7D3801A3C
:10438000994101349942F2D3F6E70000000000D0D1
:10439000FFFFFFFF48404140484018B41B4B5B689B
:1043A000FC46019308BD04DFD746001018B4174B34
:1043B0001B68FC46019308BD00DFE14600109446EF
:1043C000134A926F920809D2624618B40F4BDB6809
:1043D000FC46019308BD0CDF994900100C4AF0B56A
:1043E000146E556E576F166F6246FFF7EEFF084A60
:1043F0001466556657671667F0BD18B4034B9B6883
:10440000FC46019308BD08DF3D480010D02800207D
:10441000000000D0FFB550404240504059404B4052
:10442000594000E0FFB5154F4C00640D03D0BC426D
:1044300004D10C0314D80020090D09055C00640D9B
:1044400003D0BC4204D11C030AD800221B0D1B055B
:1044500001264B4009D44B4003D58B4200D1824208
:10446000FFBD9942FCD19042FFBD0B43DB180343D3
:104470001343F5D0C9434918FFBD0000FF070000F2
:1044800000B5FFF7CFFF01D0002000BD012000BD27
:1044900000B5FFF7C7FF804100BDC04600B5FFF77C
:1044A000C1FF01D9002000BD012000BD00B5FFF70C
:1044B000B1FF01D9002000BD012000BD00B5FFF70C
:1044C000A9FF804100BD012040054A00121804D810
:1044D0005A00121801D800207047012070470000D0
:1044E0000021002805D17047C1174840401AFAD072
:1044F000C90713B5064B1B6898470CBC441CA24067
:104500001005120B0349091B09051943114310BD7E
:10451000503900201F04000010B54C00620D8023AC
:10452000D218DB00D21A5B057E2A10DD9E3A13DA20
:10453000CC170903490819435242D14064000134A1
:104540001532202A05DAD0400843604310BD002010
:1045500010BD0846604310BDC80FC018013810BD1B
:1045600018B4044B5B6AFC46019308BD24DF494B39
:1045700000100000D028002018B4044BDB6DFC466E
:10458000019308BD5CDF554C00100000D0280020CE
:10459000C94211D300B549004908002200F018F8BB
:1045A000002904D4002240428A41114600BD8021E6
:1045B0000906002000BD000018B4044BDB6EFC4669
:1045C000019308BD6CDF574B00100000D02800207D
:1045D00018B4044B9B6FFC46019308BD78DF734B06
:1045E00000100000D028002018B4044BDB6FFC46FC
:1045F000019308BD7CDFE14B00100000D0280020B3
:10460000132370B51D78012D19D014DD1F48FFF755
:1046100029FB06001E48FFF725FB1E4C80223100B7
:10462000200000F095FC022D2DD01B48FFF712FB57
:104630001A4B186070BD1A4B164CA364F5E7184B63
:10464000144C23606360A360E36023616361A36132
:10465000E36123626362A362E36223636363A36330
:10466000E36323646364A364E36423656365A36510
:10467000E36523666366A366E36623676367A367F0
:10468000E367A364D1E7064BA364CEE7534400007D
:1046900053460000D02800204C3300005039002041
:1046A000A546001007B5604601880A0A0230DF2AD5
:1046B000FAD1C9B2820804D30288408800041043AA
:1046C00000E00068014A5050039007BDD028002048
:1046D0000FB403BC0CBCF0B50124E407634000E058
:1046E000F0B50C0DCF0F661E3605891B640503D38C
:1046F000C943404200D30131640D03D0661CF60A61
:1047000007D0E41B00207F00791C89078912803CB8
:1047100024031D0DDF0F6E1E36059B1B6D0503D395
:10472000DB43524200D301336D0D03D06E1CF60AF9
:1047300007D0ED1B00227F007B1C9B079B12803D56
:104740002D032F1B661B58D4A446202E46DA203793
:104750001400BC401D00BD40F24033412A43801884
:104760005941CB0F05D0C943C04300226442504198
:10477000514162464D0D28D10D0D07D100281FD0A3
:10478000241940414941013A0D0DF9D0640006D386
:10479000013000D30131002C01D140084000013A22
:1047A0000BD4941CE40A04D112051144DB0719440C
:1047B000F0BDD907204B194300E0D9070020F0BD18
:1047C0000029DDD1002CDBD1F0BD0132C607400845
:1047D000CD0728434908002EE1D0D9E73C2E29DA3D
:1047E000203E40371400BC4000D00124F240144366
:1047F0001A00BB401C43D317ACE7AC46202F08DAA5
:1048000020360400B4400D00B540F840394128433B
:10481000A5E73C2F0CDA203F40360400B44000D01E
:104820000124F84004430800B1400C43C117EAE7F3
:1048300010001900002494E70000F07FF0B50C0D83
:10484000661E3605891BE60A6405640D02D0651CE8
:10485000ED0A04D0002001210905803C2403A44670
:104860001C0D671E3F05DB1BE70A6405640D02D0C3
:10487000651CED0A04D0002201231B05803C2403A3
:104880007740644497B484B296B27443070C7E4375
:10489000150C6F4380B26843361802D30120000420
:1048A0003F183004350C00197D41844688B29AB215
:1048B00050430C0C62431F0C7C438EB27E43921912
:1048C00002D301263604A4191604170C36186741C2
:1048D00001BC81B29AB25143040C62431B0C5C438D
:1048E00080B25843121802D3012000042418100487
:1048F000130C401863412D185E410020474106BC4F
:1049000088B293B258430C0C6343120C544389B2DF
:1049100051435B1802D301210904641819041A0CCD
:10492000091862416D1856410020474118BCF90230
:10493000720D1143F0026A0D1043ED020A0D03D10E
:104940006D1940414941013B124E9B1B7600B34219
:104950000ED26D0007D30130002671416646354303
:1049600001D1400840001B05C918E4072144F0BDEF
:104970000BDA013306D1013004D101314F0D01D0E2
:104980004908F2E7E1070020F0BD013631050020BB
:10499000EBE70000FF030000F0B51C0D671E3F05AC
:1049A000DB1BE70A6405640D02D0661CF60A04D01E
:1049B000002201231B05803C2403D0252D06002660
:1049C000F6432E661E096E66CE0FF619B4464900F0
:1049D0004F0D02D07E1CF60A03D000200021403F7C
:1049E0003F033E1BB600B444013F7F05C91B490885
:1049F0002E6F013676089C02950D25437543ED1305
:104A00007543AD1301356D10F603761B0CB4CC0263
:104A1000450D2C43A2B2B3B25A43270C7B43350C4D
:104A20006F43A4B26C431B1902D3012424043F1921
:104A30001C041D0CA4187D4124196D41009A91B2EB
:104A4000ACB26143170C7C432B0C5F4392B25A43C8
:104A5000A41802D301221204BF182204230C5218F6
:104A60007B41019C6C431B19520ED9010A4344013E
:104A7000A01A81B2B2B2514303145A43360C7343A5
:104A800087B27743D617D21900277E4136049B1987
:104A90001704160C7F185E417316ED18F3010026FB
:104AA00080337541A90F06D16400690AE8055B0AE5
:104AB000184309D22FE00422944480337541A90A97
:104AC000A8059B0A184326D3404149412404009A73
:104AD000019B0D005543641B4343E41A95B286B213
:104AE0007543170C7E43030C5F4392B25A43B618CA
:104AF00002D301221204BF183204330C52197B4135
:104B000052429C41002C02D4002201305141400805
:104B1000CA071043490802B06246D7079210084BF3
:104B2000D218084B9A4203D212058918C919F0BD50
:104B30000020002A01DC3900F0BD01331905F5E73A
:104B4000FD030000FE070000002200B5203200F047
:104B500010F8080000BD002200B500F00CF8CA17DC
:104B60009A4200D100BDD8430121C907414000BD90
:104B700000220B150AD410B5944600F0A7F81414BF
:104B8000013400DA0021CB17144C2047002000210B
:104B900070476244343A0CD40C2A07DA040091407E
:104BA000904052422032D440214310BDD843D943D3
:104BB00010BD203207D40C4694405242203211419D
:104BC000D040204310BD0800C917203203D4524200
:104BD0002032104110BD1800190010BD934B001079
:104BE0004A00520D144BD21A13DDFF2A1EDAD205E9
:104BF000CB0FDB071A43C300400F0903490A0843E0
:104C000010435B0001D301D0013070474308FBD251
:104C1000704702D0C80FC00770470A031213013251
:104C2000F8D1420F072AF5D1012200E0FF22C80F78
:104C300000028018C00570478003000000210A00B0
:104C4000002104E000210A00C11704E00022002333
:104C500006E0C0460022CB1758405940C01A99417F
:104C600030B5184CA21A002903D1010010D0002041
:104C7000203A4C1512D104D2013A001849414C0D8A
:104C8000FAD3114CA24204D212058918DB07C918C5
:104C900030BDD243520D00200021F5E703D4013A84
:104CA00000184941FBD50B324405C00A4D05284385
:104CB000C90A640003D0002460416141E1E7E0D308
:104CC0004408F8E732040000FE0700000A0DCC0F8C
:104CD000531E1B05C91A520503D3C943404200D3D2
:104CE0000131520D03D0531CDB0A07D0121B0020E8
:104CF0006400611C89078912803A1203014BD21AA1
:104D000070470000FF03000051434343C9188C461D
:104D1000110C83B24B4310B4040C614392B280B2C5
:104D2000504362431C041B0C001910BC594113046E
:104D3000120CC018514161447047000007B548404B
:104D40004140484001E0C04607B54200120E03D082
:104D5000FF2A03D1420218D8C00DC0054A00120E26
:104D600003D0FF2A03D14A020FD8C90DC905012279
:104D7000414005D4414001D5814207BD884207BD6D
:104D80000143491801D0C043001807BD00B5FFF723
:104D9000DBFF01D0002000BD012000BD00B5FFF702
:104DA000D3FF01D9002000BD012000BD01231B0657
:104DB0004200D21804D84A00D21801D80020704707
:104DC00001207047034BDB6FFC4618477CDF694EC0
:104DD00000100000D0290020132310B512481C78C1
:104DE000FEF740FF0100012C0AD003DD80220F48AE
:104DF00000F0AEF80E48FEF72DFF0E4B186010BD08
:104E00000A4C5422200000F0A3F80B4B6365A36505
:104E1000E36523666366A366E36623676367A36748
:104E2000E3672362E361E5E753460000D0290020F1
:104E30004C330000503900203D4E001007B560464D
:104E400001880A0A0230DF2AFAD1C9B2820804D3E3
:104E5000028840880004104300E00068014A505076
:104E6000039007BDD0290020C30FDB0741000A0EC5
:104E700007D0FF2A08D00909054A891819434007B5
:104E800070471900002070470249C918FAE700006E
:104E9000000000380000F07F70B504000A4E3000BA
:104EA00014F07AFB200010F0FBFD0500300014F038
:104EB000CBFA002D05D0054B2C199C4201D82800B7
:104EC00070BD0348FDF778FE38270020000004205D
:104ED0007099011070B505000C000B4E300014F0F5
:104EE0005BFB2800210012F00BFA0500300014F0E3
:104EF000ABFA002D05D0054B2C199C4201D8280097
:104F000070BD0348FDF758FE38270020000004203C
:104F10007099011070B50400054D280014F03CFB99
:104F2000200010F0C7FD280014F08EFA70BDC046B6
:104F30003827002001480421014B18471020002089
:104F4000753C0010014B1B68184700001020002022
:104F5000014B5B68184700001020002010B5FFF7D8
:104F60009BFF10BD10B5FFF7D5FF10BD10B5FFF7C3
:104F7000D1FF10BD9A4200D2885470477047C04696
:104F8000F8B55746DE464E464546E0B599460A9B7B
:104F900007009A460D9B884693460B9C9B073BD186
:104FA0000C9B9C423DD21E1B0B9415000C005E44D2
:104FB0002A004B46013521002020B847B542F7D1E1
:104FC000A0460B9C002C20D0454636195346321B78
:104FD000013C185D29004B46B847002CF6D12B0048
:104FE000350098460D9B9B070FD55B46EC1A0C9B32
:104FF000A3420AD9464698462A004B463100202053
:105000000134B84701354445F6D32800F0BCBB460F
:10501000B246A946A046F8BD16001500002CD3D113
:10502000E0E71600002CCFD11500EEE7F0B54F46B3
:105030004646D646C0B584B098460EAB1B7894461B
:105040009946129B0D9C109F119E9A0725D4002E05
:1050500065D1BC4221D201221A409246202C00D1B7
:10506000E9E00C9A551E302202E0202C00D17BE0B2
:1050700001342A55A742F8D85246002A0DD0B4422E
:105080000BD20C9A551E3022202C02D171E0202C1C
:105090002DD001342A55B442F9D1DA063CD55A054F
:1050A0002ED4002C28D10F9A102A00D1B6E0022A63
:1050B00000D1BCE030220C9C227001244A46002A18
:1050C00065D15A0700D499E02B220C9D2A55013452
:1050D00003930C9B62460093029643460194FFF7AC
:1050E0004FFF04B0E0BCBA46B146A846F0BD20244C
:1050F000DA06EDD55A0503D4A74266D0B44264D08F
:105100000F9A102A71D0022A57D0202CE0D022000A
:10511000013430250C9FBD54202CD9D0CEE701227C
:1051200015001D40AA461A4236D04A46002A4AD1E6
:105130000C321A4247D1BC42A1D2202C91D1202E50
:1051400017D82024DA06C3D55A051BD4202F01D046
:10515000202ED5D11F220F9D102D6FD0022DD8D11A
:1051600062250C9FBD54D0E75246002A79D0202EEC
:10517000BDD92024DA06ABD55A0503D4202FE9D0B7
:10518000202EE7D00F9A102AA2D12024A0E72D22AA
:105190000C9D2A5501349BE7BC4200D37DE7202CAF
:1051A00000D05EE7DA06F0D55A05EED4202F62D0A3
:1051B000202EEAD134001F22CDE7202C00D187E732
:1051C00022000134CCE7013EB5E7621E012CC2D1BA
:1051D0000F9A102A00D06AE79A063BD558220C9CF9
:1051E0002270283A6270022468E79A060ED4202CB6
:1051F000CBD078220C9D2A55013486E71A0700D4BB
:1052000066E720220C9D2A55013461E7202CBCD092
:1052100058250C9A12191570013476E79A0608D5AC
:1052200058220C9C227030226270022446E76032C1
:10523000F7E77822F5E7002A83D1B3E7A21E013C05
:105240009D0603D478250C9FBD5460E758250C9F1C
:10525000BD545CE778220C9C2270483A62700224AC
:105260002CE7DA0600D433E75A058BD4202F00D080
:1052700044E71F226FE73C001F226CE710B50028AF
:1052800000D110BD01F004FCFBE7C046F0B5574665
:105290004E464546DE46E0B599B082468946904680
:1052A0000893229A239B10001900FFF70CF900289D
:1052B00000D0CDE0229823990122D94B5242FFF72A
:1052C000FDF8002800D0C3E0229823990122D54B95
:1052D0005242FFF7DDF8002800D0B9E02298239968
:1052E00000220023FFF7D4F8002800D0F1E1229E2D
:1052F000239F8023269ADB001A400D92269A1A4299
:1053000001D1062324938023269A1B011A403B00D7
:1053100093460996334300D0B3E0002A00D0C2E19F
:10532000002300240A930B94002304250993259B52
:105330000024AB4200D95C1B0223269A1A400C922F
:10534000269A134203D06B426B415B421C40099B7F
:10535000002B07D00A9A0B9B30003900FFF72FF87B
:1053600006000F002298239900220023FFF790F8EF
:10537000002803D0802109067B181F00269AAA4B1B
:10538000009601971340089E0493249B0394029374
:10539000424633004946504600F0AAF90400002D69
:1053A00067D02020269A4946024013005A425341B2
:1053B0005B42621C18400A92330022004530D047FD
:1053C000099A6F1ED317D4185C40D30F9B46002553
:1053D00001E0202D13D008AA94461F232000634427
:1053E0000A2101355E19FEF79DFD30313170200034
:1053F0000A21FEF797FD26000400092EE9D80523AF
:105400000693002304930A3303935B46089E02939A
:1054100010AB0A9A00934946330050460597019510
:10542000FFF704FE0C9A0400002A22D04246851A97
:10543000259AAA421DD9B046574616002200434677
:10544000494620200135B8470134AE42F6D810E075
:10545000269B42460493259B49460393249B504632
:105460000293229B239C00930194089B00F040F937
:105470000400200019B0F0BCBB46B246A946A046C5
:10548000F0BD6A4B78009C46400D6044FFF72CF855
:10549000674A684BFEF7B1FF674A684BFEF786FF25
:1054A000674A3B031B0B1A4304000D0009981100C7
:1054B000644B0022FEF771FF634A644BFEF79DFFC9
:1054C00002000B0020002900FEF770FFFFF724F810
:1054D0000990FFF709F85E4A5E4B04000D00FEF7E5
:1054E0008CFF00225C4BFEF761FFFFF715F85B4A6B
:1054F0005B4B29000C902000FEF77FFF04000C9806
:105500000D00FEF7F1FF574A574BFEF776FF0200FA
:105510000B0020002900FEF740FF04000D000200F0
:105520000B000A940B95FEF768FF04000D000A9823
:105530000B9902000B00FEF739FF00220E900F912D
:105540004A4B20002900FEF73AFF0022484BFEF7A5
:105550002DFF02000B0020002900FEF730FF002283
:10556000444BFEF723FF02000B0020002900FEF74A
:1055700026FF0A9A0B9B0D0080210400C90500201C
:10558000FEF70BFF02000B0020002900FEF70EFFC4
:1055900002000B000E980F99FEF711FF0022284B16
:1055A000FEF704FF344B0C9C9C4664442305002208
:1055B000FEF723FF04000D0002000B00300039004D
:1055C0000A940B95FEF764FF00285DD123002A00A2
:1055D000C625099963318D42AD4159466D42043566
:1055E000002900D1A3E6134363D030003900234AD9
:1055F000234BFEF75BFF002807D000223000390064
:10560000204BFEF745FF002853D1249B002B00D1EF
:105610008DE60D9B5A1E9341249AD31A249386E655
:10562000FFFFEF7FFFFFEFFFFFF7FFFF01FCFFFF33
:10563000FB799F501344D33FB3C8608B288AC63F81
:105640000000F03F0000F83F61436F63A787D23F3F
:1056500071A379094F930A400000E03F1655B5BB8E
:10566000B16B0240EF39FAFE422EE63F00002C40BB
:105670000000244000001840FF0300002D431CEBF5
:10568000E2361A3F80842E41099B0022013B099398
:105690002000164B2900FEF792FE0A0001000300CD
:1056A0000A910B9294E7002300240A930B940023A1
:1056B0000993249A099B9A4214DDD31A013B24933F
:1056C0008023269ADB001A430023002526920993A3
:1056D0002DE6802212069446229B1E00239B6344E3
:1056E0001F0006E600232493EAE7C046000024409A
:1056F000F0B54546DE464E465746E0B595B08B467A
:10570000904699461E9A1F9B0A9019001000209DF2
:10571000FEF7D9FE002800D0B0E11E981F990122A3
:10572000C74B5242FEF7B4FE002800D037E11E9866
:105730001F990122C34B5242FEF7C0FE002800D041
:10574000A7E01E981F990022BF4BFEF7B7FE002866
:1057500000D088E01E981F990022BC4BFEF798FEEF
:10576000002800D07FE01E981F9900220023FEF73A
:105770008FFE002800D0FAE000230B938023229CA8
:10578000229ADB001C401A4200D102E1092D00D808
:105790007CE106A98C462C00172200233021093C0D
:1057A00062440133D154EF1A202B00D132E1A342DD
:1057B000F7D10022A44B069207931E981F99FEF77B
:1057C000ABFE0500FEF790FE02000B001E981F992D
:1057D000FEF7E3FD069A079BFEF70FFE089009917E
:1057E000FEF7BEFE0600FEF77BFE02000B000898E7
:1057F0000999FEF7D2FD0022954B08900991FEF71A
:105800005DFE002800D1D2E001363000FEF768FED0
:10581000069A079BFEF74AFE002801D000260135B4
:10582000AA46002F00D098E02800FEF75DFE020097
:105830000B001E981F99FEF7B0FD854B0022060055
:105840000F00FEF725FE0CAB9A46002845D100223A
:10585000300039007E4BFEF731FE00283DD1EB07CA
:105860003BD5013539E0229B42460493219B5946A2
:1058700003930A981E9B1F9C0295009301944B462C
:10588000FFF704FD15B0F0BCBB46B246A946A046E2
:10589000F0BD229B5B0767D403226E4B22990192D5
:1058A000039121990291009342464B4659460A982A
:1058B000FFF766FBE6E706AA944617232800634431
:1058C0000A2101341E19FEF705FB30312800317022
:1058D0000A21FEF7FFFA051E76D0202CEBD1032318
:1058E000229A1340012B1DD1219B002B1AD00B9B18
:1058F000002B00D0BBE0229A0C33134200D0B6E05C
:10590000219BA34200D887E006AB9C461722302398
:10591000624404E02199013413558C4259D0202C63
:10592000F8D12024229B01940393219B0293534698
:10593000B9E706AA944617230A21634430000134CC
:105940001D19FEF7EFFA3031297030000A21013FAE
:10595000FEF7E8FA092E46D90600202CE9D1554673
:105960000CAB20249A46B8E704223B4B96E71E9ADC
:105970001F9B00200021FEF710FD01230B938023C5
:10598000229C229ADB001E901F911C401A4200D0DC
:10599000FCE60022314B0627069207930DE7229B77
:1059A0000393219B0293042301932D4B7BE7002259
:1059B00008980999264BFEF76BFD002800D02FE7C9
:1059C000002E4FD101362BE70323229A1340012BDF
:1059D00066D0202CA6D00B9B002B1FD02D23524627
:1059E000135501349EE75546202CB9D030233A197F
:1059F000002F08D0172006A9013409180B55202CB8
:105A0000AED09442F6D10CAB9A462E235246135593
:105A1000013462E72024CCE6202C83D0229B5B0754
:105A200008D4229B1B0700D47CE720235246135541
:105A3000013477E72B2352461355013472E7C046F1
:105A4000FFFFEFFFFFFFEF7F65CDCD4165CDCDC1FE
:105A50000000E03FD4990110CC99011080842E41C0
:105A6000DC990110F30700D4DAE60136D8E6219B71
:105A7000013B2193A34200D946E7AAE7229B039367
:105A8000219B029303230193074B0CE7074BEA008A
:105A90009B185C681B682F000693079400248CE613
:105AA000219B002B95D022E7D8990110C0A80110A6
:105AB000F0B55746DE464E464546E0B5A5B01F0058
:105AC0002E9B91460D93CA4ACA4B82468B461A605A
:105AD000002900D129E2002338789846002800D117
