:020000041000EA
:1000000000B5324B212058609868022188439860DF
:10001000D860186158612E4B002199600221596106
:100020000121F02299502B49196001219960352056
:1000300000F044F80222904214D00621196600F024
:1000400034F8196E01211966002018661A6600F04E
:100050002CF8196E196E196E052000F02FF8012189
:100060000842F9D1002199601B49196000215960AB
:100070001A491B48016001219960EB211966A021F2
:10008000196600F012F800219960164914480160C1
:100090000121996001BC002800D000471248134993
:1000A000086003C880F30888084703B5996A0420EC
:1000B0000142FBD001200142F8D103BD02B5186610
:1000C0001866FFF7F2FF186E186E02BD00000240BE
:1000D000000000180000070000035F00212200005C
:1000E000F4000018222000A00001001008ED00E03C
:1000F00000000000000000000000000074B24E7A12
:1001000000200420F7010010C3010010C5010010F9
:10011000C1010010C1010010C1010010C101001097
:10012000C1010010C1010010C1010010C701001081
:10013000C1010010C1010010C9010010CB01001065
:10014000CD010010CD010010CD010010CD01001037
:10015000CD010010CD010010CD010010CD01001027
:10016000CD010010CD010010CD010010CD01001017
:10017000CD010010CD010010CD010010CD01001007
:10018000CD010010CD010010CD010010CD010010F7
:10019000CD010010CD010010CD010010CD010010E7
:1001A000CD010010CD010010CD010010CD010010D7
:1001B000CD010010CD010010CD010010CD010010C7
:1001C00000BE00BE00BE00BE00BE00BEEFF3058054
:1001D000103800BEF2EB887154FD021074FD02105D
:1001E0003802001090A31AE71E481F49086006C88D
:1001F00081F3088810471D480068002801D019487D
:10020000F3E70DA40ECC002902D000F012F8F9E7B4
:100210001749184A002000E001C19142FCD116495B
:100220008847164988471649884700BEFDE701C937
:1002300001C29A42FBD3704774FD0210C000002037
:10024000BC170020701403100000042000000420DC
:10025000701403100010042000100420000000009F
:10026000704700000000000008ED00E0000000D032
:10027000BC17002008B20020D13B0010B9080010C4
:10028000913B0010F8B5C04606480749091A8B1083
:10029000C90FC91810B5491003D0044B002B00D06A
:1002A000984710BDBC170020BC17002000000000BC
:1002B000054B10B5002B03D00449054800E000BFF2
:1002C000FFF7E2FF10BDC04600000000A4B100200F
:1002D00094D801107047C0467047C04603002029DB
:1002E00016D0426F002A13D08069814212D0012AB1
:1002F0000ED0586B814214D0022A09D0186D814269
:1003000011D0032A04D0DA6E00208A420DD0704743
:100310000020FCE70022D000801A8000043018186A
:10032000F5E70122F7E70222F5E70322F3E7C046EB
:100330000300202923D0AC228258002A1FD08069D4
:1003400081421ED0012A1AD0586B814220D0022A45
:1003500015D0186D81421DD0032A10D0D86E81426D
:100360001AD0042A0BD088201858814216D0052AAA
:1003700005D0A4229A5800208A4211D0704700204C
:10038000FCE70022D000801A800004301818F5E73E
:100390000122F7E70222F5E70322F3E70422F1E75F
:1003A0000522EFE7E02282580300002A23D0B02084
:1003B0001858884221D0012A1DD0B42018588142F3
:1003C00020D0022A17D0B820185881421CD0032A06
:1003D00011D0BC201858814218D0042A0BD0C0205C
:1003E0001858814214D0052A05D0C4229A580020FA
:1003F0008A420FD070470020FCE700223232920080
:10040000D058F7E70122F9E70222F7E70322F5E7E0
:100410000422F3E70522F1E7982282580300002A1C
:1004200015D0806F884214D0012A10D0D86F814235
:1004300014D0022A0BD080201858814210D0032AF1
:1004400005D084229A5800208A420BD070470020A1
:10045000FCE7002222329200D058F7E70122F9E7A8
:100460000222F7E70322F5E770B5456F04000E009E
:10047000002D38D08369202B1ED0012D33D0636B23
:10048000202B20D0022D2ED0236D202B23D0032D06
:1004900029D0E36E0025202B01D0280070BD31004B
:1004A000206F1BF007FD03230028F6D1DD00ED1AB5
:1004B000AD0004356519F0E7C0691BF0FBFC0028AE
:1004C000DBD10023F2E73100A06B1BF0F3FC002826
:1004D000D8D10123EAE73100606D1BF0EBFC002866
:1004E000D5D10223E2E70025D7E7C046AC2370B59B
:1004F000C55804000E00002D56D08369202B3CD037
:10050000012D51D0636B202B3ED0022D4CD0236D9A
:10051000202B41D0032D47D0E36E202B0ED0042D8D
:1005200042D08823E358202B15D0052D3CD0A4239E
:10053000E3580025202B17D0280070BD3100206F14
:100540001BF0B8FC0028EAD10323DD00ED1AAD0052
:1005500004356519F0E76C333100E0581BF0AAFC54
:100560000028E2D10423F0E78833E05831001BF083
:10057000A1FC05230028DFD1E7E7C0691BF09AFC46
:100580000028BDD10023E0E73100A06B1BF092FCF6
:100590000028BAD10123D8E73100606D1BF08AFC36
:1005A0000028B7D10223D0E70025C5E7F0B585B014
:1005B00005000C000CF066FAB94B010018000CF0B5
:1005C000D1F928000CF0FEFA28000CF0F9FA06F038
:1005D000E9FC0700A06803F054F9061C380003F09A
:1005E00050F9B049071C301C03F0F9F8311C03F036
:1005F000DFF8011C381C03F03FF9002800D0F3E0BD
:1006000028000CF0DDFA0368DB6A98470700E06811
:1006100003F037F9061C380003F033F9A149071C31
:10062000301C03F0DCF8311C03F0C2F8011C381C4C
:1006300003F022F9002800D029E128000CF0C0FACC
:1006400003689B6B98470700206903F01AF9061CA2
:10065000380003F016F99349071C301C03F0BFF86B
:10066000311C03F0A5F8011C381C03F005F9002823
:1006700000D003E10022290001A80CF067FA2368EA
:100680005800C018800003F0FCF8061C029803F024
:10069000F8F88449071C301C03F0A1F8311C03F062
:1006A00087F8011C381C03F0E7F8002800D0DCE0D4
:1006B0000422290001A80CF049FA606903F0E1F86E
:1006C000061C029803F0DDF87649071C301C03F085
:1006D00086F8311C03F06CF8011C381C03F0CCF8D0
:1006E000002800D0B8E00122290001A80CF02EFA61
:1006F000A06903F0C6F8061C029803F0C2F8694925
:10070000071C301C03F06BF8311C03F051F8011C7E
:10071000381C03F0B1F8002800D094E00222290030
:1007200001A80CF013FAE06903F0ABF8061C02987C
:1007300003F0A7F85B49071C301C03F050F8311C8C
:1007400003F036F8011C381C03F096F8002800D09E
:1007500070E00322290001A80CF0F8F9606A03F0A8
:1007600090F8061C029803F08CF84E49071C301CC8
:1007700003F035F8311C03F01BF8011C381C03F0A2
:100780007BF800284DD10522290001A80CF0DEF9E4
:1007900065686D01280003F074F8061C029803F0E8
:1007A00070F84049071C301C03F019F8311C02F0A6
:1007B000FFFF011C381C03F05FF8002826D1226AD5
:1007C000636920699B182268C01A53009B189B001C
:1007D000C01A401B03F055F88A21C90503F04CF8F4
:1007E00000280AD105B0F0BD92222F492F480CF005
:1007F000B9F801222E4B1A7002E7D8222A492D4857
:100800000CF0B0F801222A4B1A70EBE7922226492D
:1008100026480CF0A7F80122254B65681A706D0177
:10082000CDE79222204921480CF09CF80122204B70
:100830001A70A8E792221C491C480CF093F8012278
:100840001B4B1A7085E79222174918480CF08AF85A
:100850000122174B1A7061E79222134913480CF0DA
:1008600081F80122124B1A703DE792220E490F487F
:100870000CF078F801220E4B1A7019E792220A49FF
:100880000A480CF06FF80122094B1A70F2E6922226
:10089000054906480CF066F80122054B1A70CCE6B3
:1008A000A0D801108FC2F53CCCD8011044D901105A
:1008B000FDB100208CD90110F0B5DE464546574603
:1008C0004E46E0B5ED4C0026A5440CF0ABFBEC4BDE
:1008D00031AD9B46EB4B63AC9846EB4B2293EB4B15
:1008E0000993EB4B0393EB4B2393EB4B0493EB4BB1
:1008F0000593EB4B0693EB4B0793EB4B1193EB4BB1
:100900000893EB4B1A93EB4B1293EB4B1393EB4B7C
:100910001493EB4B1B93EB4B1593EB4B1C93EB4B53
:100920000A93EB4B0B93EB4B0C93EB4B0D93EB4B75
:100930001693EB4B1D93EB4B1793EB4B1E93EB4B2B
:100940001893EB4B1F93EB4B2093EB4B1993EB4B13
:100950002193EB4B0E93EB4B0F93EB4B1093EB4B25
:100960002493EB4B2593AC239A465B461E6043468B
:1009700022981E600BF0F6FF099B6E671E70039BAA
:1009800020001E70239B2B609823EE5008F0AAF8DD
:100990006A6F002A01D100F0A9FDAB69092B00D1D3
:1009A00094E3012A01D100F05CFC6B6B092B00D1B0
:1009B0008CE3022A01D100F054FC2B6D092B00D1ED
:1009C00084E3032A01D100F04CFCEB6E092B00D12B
:1009D0007CE3092104980BF0C5FF042105980BF076
:1009E000C1FF0123E22208991A9800960BF0BAFF82
:1009F0000122039B20001A7009F054FE6A6F002A3E
:100A000001D100F059FCAB69722B00D176E3012AC9
:100A100001D100F006FD6B6B722B00D16EE3022A50
:100A200001D100F0FEFC2B6D722B00D166E3032A8E
:100A300001D100F0F6FCEB6E722B00D15EE3722167
:100A400004980BF08FFF042105980BF08BFF012316
:100A5000E5220899139800960BF084FF0122039B6E
:100A600020001A7008F02EFA6A6F002A01D100F0F7
:100A700003FDAB69192B00D138E3012A01D100F045
:100A800042FC6B6B192B00D130E3022A01D100F03C
:100A90003AFC2B6D192B00D128E3032A01D100F079
:100AA00032FCEB6E192B00D120E3192104980BF0D6
:100AB00059FF042105980BF055FF0123E622089900
:100AC0001B9800960BF04EFF0122039B20001A702A
:100AD00008F0D4FE6A6F002A01D100F03FFCAB6938
:100AE0001B2B00D1FAE2012A00D1E8E36B6B1B2B30
:100AF00000D1F3E2022A00D1E1E32B6D1B2B00D1E0
:100B0000ECE2032A00D1DAE3EB6E1B2B00D1E5E225
:100B10001B2104980BF026FF042105980BF022FFFF
:100B20000123E82208991C9800960BF01BFF012274
:100B3000039B1A700A990B984B780A781B0213438F
:100B40008A78894612041A43CB78B0211B061343D6
:100B5000C90199440BF0B2FF494603002A00200066
:100B6000019600960AF0BEFFC42399464A46E36EFA
:100B70002000A3500BF092F936220F2326922793E0
:100B80000BF080FF634B9C46A82360449B00299395
:100B900028900BF077FF604B26A99C46A0239B0171
:100BA0002B9394232E93D2239B002F9380232C935B
:100BB000403B2D934B4660442A90E058FFF7F6FCEB
:100BC00020000AF0E9FF0122099B1A70039B1B78A1
:100BD000002B00D06AE25B4600221B6801335946B5
:100BE0000B6043461B680C989B18424613600BF041
:100BF000B9FE099B28001E70039B1E700D9B23608D
:100C00005346E650E023E65007F0CAF95346E2584F
:100C1000002A01D100F062FCA369032B00D195E208
:100C2000012A00D1C9E2636B032B00D18EE2022AB4
:100C300000D1C2E2236D032B00D187E2032A00D149
:100C4000BBE2E36E032B00D180E2042A00D1B4E2C0
:100C50008823E358032B00D178E2052A00D1ACE2C7
:100C6000A423E358032B00D170E2032104980BF076
:100C700079FE062105980BF075FE4FE08CFDFFFF15
:100C80004C1B0020481B0020E8D90110FEB10020B9
:100C9000FDB10020B814021010DA011044DA01107E
:100CA00058DA011088DA0110116A0010CCD801104E
:100CB000ACDA0110056C00101CDB0110E16C0010B7
:100CC00060DB0110396D0010C8DB0110F014021058
:100CD000544B002024DC0110D4140210DD680010F5
:100CE0004CDC01103D6B00108CDC0110096C001015
:100CF000D0DC011014DD01100D6A00105CDD011064
:100D0000009C0210541B0020A0DD0110B4DD011076
:100D1000CCDD011088380000E83500008522012371
:100D200008991D98520000960BF01CFE0122039BAF
:100D300028001A7009F0B6FC5346E258002A00D188
:100D400067E2A369722B00D1F8E1012A00D105E224
:100D5000636B722B00D1F1E1022A00D1FEE1236D19
:100D6000722B00D1EAE1032A00D1F7E1E36E722B86
:100D700000D1E3E1042A00D1F0E18823E358722B8B
:100D800000D1DBE1052A00D1E8E1A423E358722B6E
:100D900000D1D3E1722104980BF0E4FD06210598FF
:100DA0000BF0E0FD0C22012308991398FF32009606
:100DB0000BF0D8FD0122039B28001A7007F05EFF9C
:100DC0005346E258002A00D1F4E1A369112B00D167
:100DD000ACE1012A00D1F5E2636B112B00D1A5E152
:100DE000022A00D1EEE2236D112B00D19EE1032AED
:100DF00000D1E7E2E36E112B00D197E1042A00D184
:100E0000E0E28823E358112B00D18FE1052A00D1BD
:100E1000D8E2A423E358112B00D187E111210498D3
:100E20000BF0A0FD062105980BF09CFD8622012306
:100E300008991E98520000960BF094FD0122039B26
:100E400028001A700AF074F85346E258002A00D1BC
:100E5000E4E2A369162B00D160E1012A00D180E20F
:100E6000636B162B00D159E1022A00D179E2236D80
:100E7000162B00D152E1032A00D172E2E36E162B49
:100E800000D14BE1042A00D16BE28823E358162BF2
:100E900000D143E1052A00D163E2A423E358162BD5
:100EA00000D13BE1162104980BF05CFD062105986A
:100EB0000BF058FD0E22012308991F98FF3200966F
:100EC0000BF050FD0122039B28001A7007F0F4FD7F
:100ED0005346E258002A00D16FE2A369092B00D1E2
:100EE00014E1012A00D1CAE2636B092B00D10DE1A4
:100EF000022A00D1C3E2236D092B00D106E1032AA7
:100F000000D1BCE2E36E092B00D1FFE0042A00D13E
:100F1000B5E28823E358092B00D1F7E0052A00D178
:100F2000ADE2A423E358092B00D1EFE00921049896
:100F30000BF018FD062105980BF014FD8722012304
:100F400008992098520000960BF00CFD0122039B9B
:100F500028001A7008F016FF5346E258002A00D104
:100F6000B9E2A369062B00D1A8E0012A00D153E120
:100F7000636B062B00D1A1E0022A00D14CE1236D66
:100F8000062B00D19AE0032A00D145E1E36E062B3F
:100F900000D193E0042A00D13EE18823E358062BD8
:100FA00000D18BE0052A00D136E1A423E358062BBB
:100FB00000D183E0062104980BF0D4FC06210598AB
:100FC0000BF0D0FC10220123FF32089921980096E3
:100FD0000BF0C8FC0122039B1A700E990F984B78F6
:100FE0000A781B0213438A78894612041A43CB7885
:100FF000C0211B061343890199440BF05FFD49464C
:10100000030022002800019600960AF06BFDC4231D
:1010100099464A46EB6E2800AB500AF03FFF00218C
:101020000C222BA802F010FD0F22072326922793F3
:101030000BF028FDE24B9C46F22360445B012993B0
:1010400028900BF01FFDE523DB009C46BB23882284
:101050009B002E922F9380232C934B4660442A9022
:1010600026A9E858FFF7A2FA28000AF095FD012208
:10107000099B1A70039B1B78002B1BD15B46002237
:10108000196801315B46196043461B681098D218F5
:1010900043461A6052180BF065FC43461B68002B50
:1010A00000D01EE224980BF05DFC5EE45B4601225A
:1010B0001B6894E55B4601221968E3E706980BF08C
:1010C00051FC062107980BF04DFC7BE706980BF0CE
:1010D00049FC092107980BF045FC82E406980BF0C7
:1010E00041FC1B2107980BF03DFC19E506980BF01D
:1010F00039FC192107980BF035FCDEE406980BF05B
:1011000031FC722107980BF02DFCA0E406980BF03F
:1011100029FC092107980BF025FC0FE706980BF036
:1011200021FC162107980BF01DFCC3E606980BF076
:1011300019FC112107980BF015FC77E606980BF0C7
:1011400011FC722107980BF00DFC2BE606980BF0B2
:1011500009FC032107980BF005FCDFE5531C9C46B6
:10116000D3009B1A9B009946A1444B46181D0200D0
:10117000290089C989C289C989C209684B46116099
:10118000722251469A6163466350E0216358180009
:101190002C30800022501A00129832329200013313
:1011A000A0506350280007F069FD5346E258002A1A
:1011B00000D00AE601239C4606E1531C9C46D3005E
:1011C0009B1A9B009946A1444B46181D020029001A
:1011D00089C989C289C989C209684B46116003223D
:1011E00051469A6163466350E021635818002C30E1
:1011F000800022501A001698323292000133A0501B
:101200006350280009F04EFA5346E258002A00D0F5
:1012100097E501239C46A3E7531C9C46D3009B1AE9
:101220009B009946A1444B46181D0200290089C91C
:1012300089C289C989C209684B4611600622514694
:101240009A6163466350E021635818002C30800097
:1012500022501A001998323292000133A050635084
:10126000BBE6531C9C46D3009B1A9B009946A9449D
:101270004B46181D0200210089C989C289C989C24B
:1012800009684B461160092298219A6163466B6791
:101290006B5818001E3080002A501A001198223214
:1012A00092000133A85020006B5009F0FBF96A6FDF
:1012B000002A01D0FFF7A7FB01239C46B3E0531C93
:1012C0009C46D3009B1A9B009946A9444B46181D87
:1012D0000200210089C989C289C989C209684B46AF
:1012E00011601B2298219A6163466B676B58180046
:1012F0001E3080002A501A001598223292000133C5
:10130000A8506B5016E4531C9C46D3009B1A9B00BC
:101310009946A9444B46181D0200210089C989C27B
:1013200089C989C209684B461160192298219A61BE
:1013300063466B676B5818001E3080002A501A00F5
:101340001498223292000133A85020006B5008F00C
:1013500095FA6A6F002A01D0FFF7C1FB01239C4672
:10136000AFE7531C9C46D3009B1A9B009946A144AF
:101370004B46181D0200290089C989C289C989C242
:1013800009684B461160162251469A6163466350C4
:10139000E021635818002C30800022501A00189861
:1013A000323292000133A0506350280007F084FBD2
:1013B0005346E258002A00D08FE501239C4660E0A6
:1013C00068250000531C9C46D3009B1A9B0099463D
:1013D000A1444B46181D0200290089C989C289C948
:1013E00089C209684B461160112251469A616346D1
:1013F0006350E021635818002C30800022501A00FE
:101400001798323292000133A0506350280009F03F
:101410008FFD5346E258002A00D01AE501239C466E
:10142000A1E7531C9C46D3009B1A9B009946A944F4
:101430004B46181D0200210089C989C289C989C289
:1014400009684B461160722298219A6163466B6766
:101450006B5818001E3080002A501A001298223251
:1014600092000133A85020006B5007F02BFD6A6FEB
:10147000002A01D0FFF7FDFA01239C4645E7531CE3
:101480009C46D3009B1A9B009946A1444B46181DCD
:101490000200290089C989C289C989C209684B46E5
:1014A0001160092251469A6163466350E0216358F6
:1014B00018002C30800022501A001198323292000D
:1014C0000133A0506350280008F05CFC5346E258FA
:1014D000002A00D045E501239C469FE601239C4657
:1014E0006DE625980BF03EFAFFF73FFA01239C4684
:1014F000B9E6C0468023DB051868000F7047C04678
:101500000FB400B5084883B002F0F4FC049B002B34
:1015100007D005A91800019102F0CAFA034802F0A9
:10152000E9FC012002F0DCFAE8DD01107C10021079
:1015300070B5EFF3108C72B60D4D2B68002BFCD0FC
:10154000BFF35F8F0724CB08C618C05C01230C4093
:10155000A3401C000440034207D118433070BFF37E
:101560005F8F2C608CF3108870BD1000FFF7C8FFF0
:101570002C0100D0F8B54746CE46884680B5EFF33B
:10158000108C72B6214D2C68002CFCD0BFF35F8FFD
:101590009A422CD8D4080727055D06190124174064
:1015A000BC402C421FD007210127894609E0D408FE
:1015B000055D06194C4639001440A1400C00294233
:1015C00011D001329342F2D201204042BFF35F8F2B
:1015D00000220E4B1A608CF3108800280FDBC0BC71
:1015E000B946B046F8BD254310003570EEE7BFF3AD
:1015F0005F8F00232B608CF310880120404243460C
:10160000002BECD00898FFF77BFFC0462C0100D0E0
:10161000044A1078431CDBB2172B00D91023137037
:101620007047C0461010002010B5064B064C82B023
:101630000100009318221F232000FFF79BFF02B038
:1016400010BDC046F8DD0110ECAC00200021044BB9
:10165000044ABFF35F8F02C39342FAD17047C0467A
:10166000000100D0800100D0054B064A1360064AF5
:10167000136053609360D36013615361936170474B
:101680008080808000E400E004E400E01F23184034
:101690001E3B8340002905D0C021044A4900535015
:1016A00013607047802201498B50FAE700E100E0A7
:1016B00001228240034B1B6813405A1E9341D8B24B
:1016C0007047C04600E100E001238340014A1360F7
:1016D0007047C04600E200E0084B10309B68800075
:1016E000C358002B07D0064A00209B1A2F229A428B
:1016F0004041C0B270470020FCE7C04600ED00E06A
:101700001410002070B50D00EFF3108672B60F4A6A
:101710001368002BFCD0BFF35F8F0D4B10309B681C
:1017200084001B590B4A934203D09D4201D000F024
:1017300091FF074B9B681D51BFF35F8FBFF35F8F16
:101740000022024B1A6086F3108870BD240100D07D
:1017500000ED00E0CD010010F0B557464E46DE46E4
:101760004546E0B585B0060000911700EFF3108BF9
:1017700072B66A4A1368002BFCD0BFF35F8F002556
:10178000674B5D579A46002D00DAA9E06B00654C67
:1017900001935B199B009846A146C1444B465246B3
:1017A0009B7910361370604BB6009B6899590B1BE0
:1017B0002F2B33D95D4B994200D0ACE0019B4246C0
:1017C0009C465B4B6544AD0063535A4B0232A218F2
:1017D000043B9B1A1B05584A5B0D651913436B802C
:1017E000564B0121AB80FF23AB71009BEF71AB60C7
:1017F0004B460B4319004C4B9B689951BFF35F8FCD
:10180000BFF35F8F0022454B1A608BF3108805B041
:10181000F0BCBB46B246A946A046F0BD01200A0076
:101820008243D3798C46BB4231D8454613004449A4
:101830001B1B5B415943090D3D4B63533D4B023527
:101840006519043B5B1B1B053B4D5B0D2B43AA46F7
:101850004D466B800425AC465546E044131F444476
:101860001B1B1B055B0D1D434B46997100999D8009
:1018700099604946DF71334B01431360BBE7580061
:10188000C01880002018C179B9422FD90200062360
:10189000D356002BF3DA02932B4B61460393131DAF
:1018A0009A4604235B429C46E14450464B461B1A31
:1018B0001B055B0D9C46204B957198466346404640
:1018C00003439380019B5A199200039BA418A380A1
:1018D000029B1C4AA371009B2260E771A3608AE708
:1018E00000F0B8FE002553465D574FE790880293FD
:1018F0004005131D9A46031561469C464046D44454
:10190000634604302018181AE0230005400D1B021E
:1019100018430390C5E700F09DFE4FE7240100D077
:1019200003B200201410002000ED00E0CD010010F3
:1019300000A1FFFF4410002000E0FFFF01BDFFFFFA
:10194000AAAA00000148804701BD000070B501242B
:101950000443EFF30581EFF3108C72B6214A13684C
:10196000002BFCD0BFF35F8F1F4B05001F4AED1A01
:101970006D416A43120D1E4D8900AE6852B2765811
:10198000A6421CD00621595691421CD0122159560C
:10199000914222D01E215956914220D02A215956D7
:1019A0000324914210D0134B19781A708171BFF340
:1019B0005F8F00220B4B1A608CF3108870BDAB68F0
:1019C0000D4C5C50EFE700246100091989005B1899
:1019D000FF21997109499980E5E70124F4E7022480
:1019E000F2E7C046240100D014100020AAAA00008B
:1019F00000ED00E003B20020CD01001001BDFFFFAB
:101A000010B5084B084C82B001000093002205235A
:101A10002000FFF7AFFD002801DB1F23181A02B0DA
:101A200010BDC04614DE011007B20020024B9C46D8
:101A300061448900016070474000003470B5114C6A
:101A4000114DAC420FD2FF262368002B0CD0FFF7BC
:101A5000DFFD01002000FFF7E9FFA680BFF35F8FE5
:101A60000834AC42F0D370BDFFF7D2FD0100200076
:101A7000FFF7DCFF2671BFF35F8F0834AC42E3D37E
:101A8000F1E7C046AC170020BC17002010B50400D9
:101A9000FFF7BEFD01002000FFF7C8FFFF23237101
:101AA000BFF35F8F10BDC04610B504000120FFF7E3
:101AB000BBFD034BC3189B002360BFF35F8F10BDBA
:101AC00040000034034B9C46614489000160BFF331
:101AD0005F8F7047400000340A4B1968EFF31080A5
:101AE00072B60A68002AFCD0BFF35F8F1B68BFF391
:101AF0005F8F00221A6080F3108840BF0020002111
:101B00007047C046E0B10020F0B5DE4657464E466D
:101B10004546E0B583B0EFF3058203231340B54A91
:101B2000990052580091904601229A40B24B934638
:101B30001A60B24B01932EE043469B881BB2002BE8
:101B400000DB99E043469B79002B00D0DDE0434663
:101B500008241C5F002C00DA06E143465A69630042
:101B60001B19DB00D3189D68DC686B1C00D107E1F2
:101B7000A34B00999C4661449A6A0B69A81A9B1A68
:101B8000984200D20D619E4800F026FB8C4200DD99
:101B9000EAE000D126E15B469948436343460822C8
:101BA0009B5E9946002BC7DB424652695B0092461A
:101BB0004B44DB009A4453469E68DF6800F00CFB00
:101BC0008F42B9DC00D100E1002F00DAE1E052469B
:101BD000534654691B69019A934200D1D4E04146AF
:101BE00052460820085E528800042100104398479E
:101BF00004000D0023002B4300D1CAE0002D00DBC0
:101C0000E7E030003900001BA94153469860D960D5
:101C100000229A5E002A8FDB43465D6953009C18C0
:101C2000E4002C19A768E4688C4200DD84E702D147
:101C3000874200D980E74646328108360DE08C4263
:101C400000D1D3E01E000023F25E002A0ADB53001D
:101C50009C18E4002C19A768E4689B18DB00EB18BB
:101C60008C42ECDD53461A804B46338043469B88BA
:101C70001BB2002B00DA65E743461A69EFF31081C7
:101C800072B61368002BFCD0BFF35F8F43469E886B
:101C9000012342465B42938036B21369BFF35F8FE4
:101CA00000221A6081F31088002E00DA4AE74346CA
:101CB0005D69083342469C467700BF19FF00EF1963
:101CC000BB68604698460823D15E9246FC680029AE
:101CD00007DA0EE0A2424FD018000023C15E0029AF
:101CE00006DB4B005B18DB00EB18DA68A242F1DD83
:101CF000524606800023FE5E3980002EDCDA9046D4
:101D000043469B79002B00D121E700234246937183
:101D1000434646460821595E08364B1C24D04746A8
:101D20008946556902E006004B1C18D04B005B1831
:101D3000DB00E8180A008C46E95E43881BB2002BE2
:101D4000F1DA01235B42DC178360C4604A4503D0AB
:101D500031803B8903803A81E1464B1CE6D14C46F9
:101D6000B846002C00DBF8E640BF03B0F0BCBB4631
:101D7000B246A946A046F0BD9A684245ACD9B7E73D
:101D8000631C00D0F4E6FEE6200023699847002893
:101D900025D1534642461B8813811269EFF3108305
:101DA00072B611680029FCD0BFF35F8F42465146DE
:101DB00052880A804246494651801269BFF35F8FBC
:101DC0000021116083F31088B6E6864200D8FBE656
:101DD000B2E60B4800F000FA0019694115E76568A2
:101DE000246807E7854200D8D5E6BDE7874200D8DA
:101DF00028E737E7C4B100203C700540091B0010FC
:101E00000040054070B52E4C2569002D04D00A21F4
:101E10002C48FFF70BFE70BD2B4E0321300000F065
:101E2000D1F9E660FFF7F4FB284B03229C46D02350
:101E300022701B061B6801216370254B6044A36060
:101E40000F23800020610220638063694942A180E2
:101E500019800231198647311D83585218315A5260
:101E600075325C3999521832013199521832013168
:101E70009952183201319952083518329D52023167
:101E8000183299521832013199521832013199524F
:101E900018320131995218320131995218320131F8
:101EA00099520C4B0C49DC6001303562FFF72AFC7B
:101EB00001210320FFF7EAFB084B1D60A7E7C0469E
:101EC0005C100020E0B100200040054040000034DC
:101ED000FFFF1000C4B10020091B0010386005404E
:101EE000004870475C100020F8B51F0008AB1B7855
:101EF00004001600002B08D100F076F932003B00F8
:101F0000121A8B41002B00DA53E02269EFF31080A4
:101F100072B61368002BFCD0BFF35F8F0223E15E23
:101F200063694A005218D2009B18002937DB1A88CF
:101F300062802269BFF35F8F0025156080F31088EF
:101F4000069A9E60DF601A61079A5A615A880132C8
:101F50005204520C101C002A1FD082B25880080470
:101F600010432669EFF3108772B63268002AFCD05E
:101F7000BFF35F8FA2881A80A1802369BFF35F8FB0
:101F800000221A6087F310880B4923788C460132AF
:101F90009A40E36863441A60F8BD0120DDE72369D5
:101FA000BFF35F8F00221A6080F310880120404247
:101FB000F2E70020F0E7C0463C20000070B50100C9
:101FC0000469EFF3108C72B620680028FCD0BFF3D0
:101FD0005F8F02200D5E4C6968004019C000241814
:101FE000002D37DB208848800869BFF35F8F00260B
:101FF00006608CF31088E3606388049801332061E5
:102000005B0405985B0CA26060611A1C002B1FD05A
:1020100093B22804628018430A69EFF3108C72B6F9
:102020001368002BFCD0BFF35F8F8B8823808D80DB
:102030000B69BFF35F8F00221A608CF310880B7856
:1020400001329A40CB6808498C4663441A6070BDDF
:102050000122DDE70B69BFF35F8F00221A608CF36A
:10206000108801204042F2E73C20000010B543896F
:102070000A1493421ADD53009B184269DB00D318FF
:102080000469EFF3108C72B62268002AFCD0BFF30B
:102090005F8F5A88090494B2090C8A4208D00369F8
:1020A000BFF35F8F00221A608CF31088002010BDF0
:1020B0008022120214435C80012302698371BFF302
:1020C0005F8F002111608CF31088044902788C46E0
:1020D0009340C268012062441360E8E73C2000009E
:1020E00040787047F0B5CE46474680B504000D00F5
:1020F00083B0EFF305878846002F3ED12E4EA146D0
:102100003378F06804339B00816A1B58601A5B1AAD
:1021100098420ED320BF294900204B6AAB4203D31B
:102120008A6A0130944231D803B0C0BCB946B04687
:10213000F0BD00F059F822002B00121A8B41002B41
:102140002FDB1F4B2200009330002B000197FFF77D
:1021500035FF011E25DD194B5A6AAA421BD220BF4A
:102160003000FFF783FF154A0020536A4345DBD355
:10217000926A01309145D7D908E0104900204B6A96
:10218000AB42D1D38A6A0130A242CDD25B1B5A1E28
:102190009341D8B2C8E79B6A9C42E1D9AA42DFD1F9
:1021A000DDE7064A0020536A4345BDD3926A012009
:1021B0009145B9D9EAE7C0465C10002000400540CF
:1021C000D91A001010B5024A0248FFF7B1F910BD44
:1021D00030DE0110F0AC00200300416A0A00986A6A
:1021E000596A8A42FAD17047034B596A0A00986AC1
:1021F000596A9142FAD170470040054070B5040019
:102200000D00174A536A1900966A536A8B42FAD135
:102210003000190024184D41AB4216D813D0104A93
:102220002B00526A954203D90D494A6A9A42FCD35F
:102230009A4207D10A4A02E0516A994202D1916A50
:10224000A142F9D370BDA642E9D9054B5B6A1C00D7
:102250005A1CEFD0012301246442E5175B42E3E7F7
:1022600000400540F8B5DE464E4657464546E0B5C7
:102270008B4605000A991800160000F00BFB0A9B1C
:102280006C001F02324B64199C46A40064446368CE
:1022900081469F4200D967602B1FDBB29846012B15
:1022A00030D9C02380229B01E31812011A60294B08
:1022B000AD0059599A4600291BD17301E0262268C6
:1022C00053401E40802342465B01E3181E60012AF2
:1022D00030D9802380229B01E31812011A605346F3
:1022E0004A4667605A51F0BCBB46B246A946A04672
:1022F000F8BD586900F0CEFA013043001B18033BCB
:10230000FDD2DAE75B46012BCBD1C02303229B0130
:10231000E3181A60023AA3681A42FCD07301E0265F
:102320002268AD0053401E4080230A4A5B0192465A
:10233000E3181E605A462168514003220A401A6081
:1023400001225B469A40A3681A42FCD0C1E7C0460E
:1023500000800040F4AC0020F0B546464F46D6461B
:10236000C0B51F00344B44009C462418A4006444AC
:10237000636888461600FF2B02D880235B006360E9
:10238000031FDBB29A46012B30D9C02380229B0168
:10239000E31812011A60294B850059599946002902
:1023A0001BD17301E026226853401E408023524611
:1023B0005B01E3181E60012A30D9802380229B0133
:1023C000E31812011A6080235B0063604B465F5183
:1023D000E0BCBA46B146A846F0BD586900F05AFACA
:1023E000013043001B18033BFDD2DAE74346012BC3
:1023F000CBD1C02303229B01E3181A60023AA368E1
:102400001A42FCD07301E0262268850053401E402A
:1024100080230A4A5B019146E3181E604246216808
:10242000514003220A401A60012342469340A268A9
:102430001342FCD0C1E7C04600800040F4AC00204D
:10244000014B8000C0587047F4AC0020F8B5040080
:1024500021481E0017000D0000F01CFA0100380092
:1024600000F018FA069B36041B031E432368002B5A
:1024700020DB1A4B1A49E3185A1E9341802292011D
:1024800094465B421B0B174A1B0363441360164AB6
:1024900013601F000A689743FBD1144B2560E218B4
:1024A0002123A06013602368002BFCDA0823E66078
:1024B0001360F8BD3F2322681340AB42D9D1A36813
:1024C0001B051B0D8342D4D1EE22E368D2021340D8
:1024D000B342CED1EDE7C046001BB7000040FDBFC0
:1024E00008C0004000E0004000F000400430000060
:1024F00010B580241C4BE4051C6000281AD0012371
:102500001A4C18431A4BDC611A4C44401C62596245
:1025100098628021144BC905196017481749086053
:10252000E021C9041960002A07D18022144B120649
:102530001A6010BD0E4BD861EBE753019B1A9B004C
:102540009A18802312015B049A4209D213000D49A4
:102550000B60074B5A608022094BD2051A60E8E7EE
:10256000094B1A00F3E7C04600B00540D3C007B0DE
:10257000008005402D3FF84FFCFF0100082001407E
:1025800000A005409CB10020FFFFFF008023024A0D
:102590009B000B43D362704700800540142310B5A5
:1025A0000100188804331B88984710BD162310B506
:1025B0000100188802331B88984710BDF8B54746BC
:1025C000CE4680B50F1E19D014239946043304005B
:1025D0000025012698464B461888434621681B88EB
:1025E000984701C4431E9841013540420640AF421E
:1025F000F1D13000C0BCB946B046F8BD0126F8E7BD
:10260000142370B50400188804331B880D00054995
:10261000984703000020002C01DB0130A040290076
:102620009847C04655420000AA23064A1B01136082
:102630002F230549D360054B19605368002BFCDA42
:102640007047C0460040024000B0FA0000600240FF
:102650007047C04610B50148FEF752FF54DE011026
:1026600070B5074D074EB54209D20024013E761BD6
:10267000B60808CD984723000134B342F9D170BDA4
:1026800050D801108CD8011070B5074D074EB542D7
:1026900009D20024013E761BB60808CD98472300D6
:1026A0000134B342F9D170BD84D801108CD8011027
:1026B000054B064A06491A60064A074B1A60100085
:1026C0000B689843FBD1704700E00040BFCDFBFE94
:1026D00008C00040FE7F3C0000F00040044BDB6C73
:1026E000002B03D18022034BD2021A607047C046F0
:1026F000000011504C201150044A054B1A60054A45
:102700001368DB018033FBD17047C046FFFFFF0138
:1027100000F0004008C000404022034B9A675A670F
:102720001A67DA667047C04600F0014010B5FEF740
:102730008DFF10BD70B5044D044CA968C022200067
:1027400001F088F9AC6070BD00ED00E000000020F1
:10275000002310B5294C82B0A367FFF765FF012263
:10276000274B1A60636C012BFCD10322254B1A60A6
:10277000224A936B012BFCD1013300930121224AA1
:1027800022480433FFF762FE052301210093204A0B
:102790002048FFF75BFE0022022104201E4BFFF7BA
:1027A000DBFD0022012105201C4BFFF7D5FD002297
:1027B000002107201A4BFFF7CFFD0022002108203F
:1027C000174BFFF7C9FD8023DB0000930022002197
:1027D0000920134BFFF746FD0022104B0021062075
:1027E000FFF7BAFD0420FFF72BFE0E4900F052F868
:1027F00001000020FFF7CAFE02B010BD00800040BB
:102800003CB0004030B00040002F685900800240CA
:10281000008C864700C00240001BB7004059730778
:10282000006CDC0240420F0001480421014B1847B4
:1028300080100020BD250010014B5B681847000088
:1028400080100020124A936F9B0815D29066D166C3
:10285000002905D0FFE7FFE7FFE7516F106F7047D2
:1028600004B580210906C2175140002800D0C84392
:102870001AF0A6FF002104BDF0B5146E556E576F17
:10288000166FFFF7E3FF1466556657671667F0BDCE
:10289000000000D0114A936F9B0813D21066516656
:1028A000002905D0FFE7FFE7FFE7516F106F704782
:1028B00004B5002801D00020C0431AF081FF002198
:1028C00004BDC046F0B5146E556E576F166FFFF716
:1028D000E5FF1466556657671667F0BD000000D027
:1028E00094464A4A926F9208624601D228E0C04656
:1028F000F0B5464E346E756E776F366F00F020F887
:102900009446424A14665566576716676246F0BD9C
:1029100094463E4A926F9208624601D254E0C04605
:10292000F0B53A4E346E756E776F366F00F04CF836
:102930009446364A14665566576716676246F0BD78
:10294000002B24DB11D000293EDA00B5C9434042F8
:1029500000D1013100F038F8C943404200D10131C3
:10296000DB43524200D1013300BD002AEBD10028E5
:1029700001D1002905D00020C90FC90701D1C043EA
:10298000410800B51AF00CFF0022002300BD00B57D
:1029900000290ADBDB43524200D1013300F014F876
:1029A000C943404200D1013100BDC943404200D17A
:1029B0000131DB43524200D1013300F005F8DB4323
:1029C000524200D1013300BD002923D1002B18D180
:1029D000002A0CD0BC460D4F38667A6600210023D1
:1029E000FFE7FFE7FFE77A6F386F67467047002819
:1029F00001D00748010000B51AF0D2FE00220023E2
:102A000000BD02000B00002000217047000000D034
:102A1000FFFFFFFF002B00D0BFE0130C28D1002ADE
:102A2000E7D080B4114F39667A66FFE7FFE730B42C
:102A3000040C7B6F396F1B0423433B667A66FFE708
:102A4000FFE7FFE7C04684B27B6F3D6F1B04234363
:102A50003B667A66FFE7FFE7C04600232C042D0C97
:102A60007A6F386F00196941B0BC7047000000D020
:102A7000F0B594460025140E01D112020835140F4A
:102A800001D112010435940F01D192000235D40F07
:102A900001D152000135D40B0134254F7C66254C01
:102AA0003C660E0C93B2FFE7FFE7FFE73C6F66431F
:102AB000360C7703BE467343DF0B5B04C01AB94183
:102AC000130C7343DB18C91ACE086643360CB644A0
:102AD00093B273431F0F1B01C01AB941130C734308
:102AE0001F0B1B05C01AB941860D8F023E4366437A
:102AF000360C092D24DB520A7243801A7703460AEA
:102B00006643360C16235B1BDE40DF40BF1964466C
:102B10006643821B7046043506330100D940A84045
:102B2000C01900D30131A24206D20023F0BD00003B
:102B3000000000D0FFFFFFFF121B0130F3D3F1E7CD
:102B400009277F1BFE406446A2B27243801A00D25E
:102B50000139220C7243130C1204821A99410B00A2
:102B60007046043513370100F940A840801900D39E
:102B70000131002B02D1A2420AD2F0BD013000D3B4
:102B80000131121BFAD2013BF8D1A24200D2F0BDB2
:102B9000013000D30131121BF7E7F0B51C0C00D057
:102BA00080E00CB400251C0A04D11B02160E33432E
:102BB000120208351C0B04D11B01160F33431201FE
:102BC00004359C0B04D19B00960F334392000235D1
:102BD000DC0B02D192185B4101351C00971864414F
:102BE0000134464F7C66464C3C660E0CFFE7FFE71F
:102BF000FFE7C0463C6F6643360C7703BE4697B28C
:102C00007743C01B00D20139C01B00D201399FB2EB
:102C10007743C91BC91B170C77437E04FF0B801B2E
:102C2000B941CE086643360C0C2D33DBB644120B8B
:102C30001F053A431B0B97B27743C01B00D20139E3
:102C40009FB27743C91B170C77433E043F0C801B90
:102C5000B941860D8F023E43664329277F1BFE4004
:102C60000C3D7746AF40BF1930BCA2B2ABB2724345
:102C70007343801A9941220C7243130C1204801A78
:102C8000994102000B000137001BA941F9D2781EBF
:102C90000021F0BD0C277F1BFE4077467F0BAF4025
:102CA000FF19E0E700245D1C07D0144F7D663966EC
:102CB000FFE7FFE7FFE7FFE73C6F95B29EB2654392
:102CC0006643401BB141150C1E0C65436643360438
:102CD0002F0C3E432D04401BB141994204D2020007
:102CE0000B0020000021F0BD01D19042F7D3801AE3
:102CF000994101349942F2D3F6E70000000000D078
:102D0000FFFFFFFF48404140484018B41B4B5B6841
:102D1000FC46019308BD04DF4B31001018B4174B7B
:102D20001B68FC46019308BD00DF55310010944636
:102D3000134A926F920809D2624618B40F4BDB68AF
:102D4000FC46019308BD0CDF0D3400100C4AF0B5B1
:102D5000146E556E576F166F6246FFF7EEFF084A06
:102D60001466556657671667F0BD18B4034B9B6829
:102D7000FC46019308BD08DFB1320010481900205D
:102D8000000000D0FFB550404240504059404B40F9
:102D9000594000E0FFB5154F4C00640D03D0BC4214
:102DA00004D10C0314D80020090D09055C00640D42
:102DB00003D0BC4204D11C030AD800221B0D1B0502
:102DC00001264B4009D44B4003D58B4200D18242AF
:102DD000FFBD9942FCD19042FFBD0B43DB1803437A
:102DE0001343F5D0C9434918FFBD0000FF07000099
:102DF00000B5FFF7CFFF01D0002000BD012000BDCE
:102E000000B5FFF7C7FF804100BDC04600B5FFF722
:102E1000C1FF01D9002000BD012000BD00B5FFF7B2
:102E2000B1FF804100BD012040054A00121804D8BE
:102E30005A00121801D80020704701207047000086
:102E40000021002805D17047C1174840401AFAD028
:102E5000C90713B5064B1B6898470CBC441CA2401D
:102E60001005120B0349091B09051943114310BD35
:102E7000DCB100201F04000010B54C00620D80235F
:102E8000D218DB00D21A5B057E2A10DD9E3A13DAD7
:102E9000CC170903490819435242D1406400013458
:102EA0001532202A05DAD0400843604310BD0020C7
:102EB00010BD0846604310BDC80FC018013810BDD2
:102EC00018B4044BDB6DFC46019308BD5CDFBD36D6
:102ED0000010000048190020C94211D300B5490074
:102EE0004908002200F018F8002904D400224042CA
:102EF0008A41114600BD80210906002000BD000066
:102F000018B4044BDB6EFC46019308BD6CDFBD3585
:102F1000001000004819002018B4044B9B6FFC46B9
:102F2000019308BD78DFDB35001000004819002050
:102F300018B4044BDB6FFC46019308BD7CDF4936B7
:102F40000010000048190020132370B51D78012DD2
:102F500019D014DD1F48FFF729FB06001E48FFF7B4
:102F600025FB1E4C80223100200000F073FD022D55
:102F70002DD01B48FFF712FB1A4B186070BD1A4B7F
:102F8000164CA364F5E7184B144C23606360A360F0
:102F9000E36023616361A361E36123626362A3620F
:102FA000E36223636363A363E36323646364A364EF
:102FB000E36423656365A365E36523666366A366CF
:102FC000E36623676367A367E367A364D1E7064B00
:102FD000A364CEE753440000534600004819002084
:102FE0004C330000DCB1002019310010244A4B00A2
:102FF00094465B0D6344F0B504000D005A1C21DBC0
:103000005A1C35D0342B1CDA3326F61A3700203FF1
:103010001CD40121B9400B000121B1400A00121952
:103020006B41002F1EDB0224BC4021000224B4406F
:1030300020001600002544428D4126402B403000E0
:103040001900F0BDCB0F0020D907FAE7202101209D
:10305000891BC8400121B14003000A0012196B41CD
:10306000002FE0DA20240225A41BE5402900DDE73B
:10307000CB0F044ADB071A4300201100E1E7C046EA
:1030800001FCFFFF0000F03FF0B5C6460B000D004D
:1030900049000200040000B5490D2FD01C48091852
:1030A00026D43426711A8846464610001900002E90
:1030B0001BDD4746203F25D40126BE4031000127B5
:1030C0004646B7403800002B06DA01246442E51773
:1030D000A4185D4124184D41002342428B41260033
:1030E0002C0016401C403000210080BCB846F0BDCA
:1030F00000200021002BF8DA0649F6E7DB0F00205C
:10310000D907F2E72027BF1B0126FE403100D6E792
:1031100001FCFFFF0000F0BF07B5604601880A0A06
:103120000230DF2AFAD1C9B2820804D3028840886B
:103130000004104300E00068014A5050039007BDAE
:10314000481900200FB403BC0CBCF0B50124E407FF
:10315000634000E0F0B50C0DCF0F661E3605891BED
:10316000640503D3C943404200D30131640D03D049
:10317000661CF60A07D0E41B00207F00791C890733
:103180008912803C24031D0DDF0F6E1E36059B1B2C
:103190006D0503D3DB43524200D301336D0D03D0E1
:1031A0006E1CF60A07D0ED1B00227F007B1C9B07DC
:1031B0009B12803D2D032F1B661B58D4A446202E46
:1031C00046DA20371400BC401D00BD40F2403341B8
:1031D0002A4380185941CB0F05D0C943C043002270
:1031E00064425041514162464D0D28D10D0D07D129
:1031F00000281FD0241940414941013A0D0DF9D052
:10320000640006D3013000D30131002C01D1400805
:103210004000013A0BD4941CE40A04D11205114475
:10322000DB071944F0BDD907204B194300E0D9074B
:103230000020F0BD0029DDD1002CDBD1F0BD013232
:10324000C6074008CD0728434908002EE1D0D9E73A
:103250003C2E29DA203E40371400BC4000D0012427
:10326000F24014431A00BB401C43D317ACE7AC46F2
:10327000202F08DA20360400B4400D00B540F84095
:1032800039412843A5E73C2F0CDA203F40360400A3
:10329000B44000D00124F84004430800B1400C437E
:1032A000C117EAE710001900002494E70000F07F3E
:1032B000F0B50C0D661E3605891BE60A6405640D23
:1032C00002D0651CED0A04D0002001210905803CD4
:1032D0002403A4461C0D671E3F05DB1BE70A64059B
:1032E000640D02D0651CED0A04D0002201231B05E9
:1032F000803C24037740644497B484B296B274430C
:10330000070C7E43150C6F4380B26843361802D316
:10331000012000043F183004350C00197D4184461B
:1033200088B29AB250430C0C62431F0C7C438EB29D
:103330007E43921902D301263604A4191604170CF1
:103340003618674101BC81B29AB25143040C624302
:103350001B0C5C4380B25843121802D301200004B6
:1033600024181004130C401863412D185E410020EE
:10337000474106BC88B293B258430C0C6343120C0D
:10338000544389B251435B1802D3012109046418E4
:1033900019041A0C091862416D1856410020474162
:1033A00018BCF902720D1143F0026A0D1043ED02D0
:1033B0000A0D03D16D1940414941013B124E9B1B3F
:1033C0007600B3420ED26D0007D301300026714162
:1033D0006646354301D1400840001B05C918E40783
:1033E0002144F0BD0BDA013306D1013004D10131A3
:1033F0004F0D01D04908F2E7E1070020F0BD01368A
:1034000031050020EBE70000FF030000F0B51C0DC4
:10341000671E3F05DB1BE70A6405640D02D0661CCE
:10342000F60A04D0002201231B05803C2403D0258A
:103430002D060026F6432E661E096E66CE0FF6197F
:10344000B44649004F0D02D07E1CF60A03D000207E
:103450000021403F3F033E1BB600B444013F7F05BF
:10346000C91B49082E6F013676089C02950D25432D
:103470007543ED137543AD1301356D10F603761BDF
:103480000CB4CC02450D2C43A2B2B3B25A43270C64
:103490007B43350C6F43A4B26C431B1902D3012448
:1034A00024043F191C041D0CA4187D4124196D41EE
:1034B000009A91B2ACB26143170C7C432B0C5F4372
:1034C00092B25A43A41802D301221204BF18220454
:1034D000230C52187B41019C6C431B19520ED901DD
:1034E0000A434401A01A81B2B2B2514303145A43B1
:1034F000360C734387B27743D617D21900277E4123
:1035000036049B191704160C7F185E417316ED18CC
:10351000F301002680337541A90F06D16400690AC2
:10352000E8055B0A184309D22FE004229444803353
:103530007541A90AA8059B0A184326D34041494171
:103540002404009A019B0D005543641B4343E41A75
:1035500095B286B27543170C7E43030C5F4392B25B
:103560005A43B61802D301221204BF183204330C96
:1035700052197B4152429C41002C02D4002201305E
:1035800051414008CA071043490802B06246D707B4
:103590009210084BD218084B9A4203D21205891890
:1035A000C919F0BD0020002A01DC3900F0BD01334B
:1035B0001905F5E7FD030000FE070000002200B535
:1035C00000F00DF8CA179A4200D100BDD84301217E
:1035D000C907414000BD000000220B150AD410B5F8
:1035E000944600F0A7F81414013400DA0021CB1738
:1035F000144C20470020002170476244343A0CD418
:103600000C2A07DA04009140904052422032D44004
:10361000214310BDD843D94310BD203207D40C46F6
:103620009440524220321141D040204310BD080046
:10363000C917203203D452422032104110BD180065
:10364000190010BDFB3500104A00520D144BD21A60
:1036500013DDFF2A1EDAD205CB0FDB071A43C300A6
:10366000400F0903490A084310435B0001D301D00E
:10367000013070474308FBD2704702D0C80FC00723
:1036800070470A0312130132F8D1420F072AF5D10D
:10369000012200E0FF22C80F00028018C005704719
:1036A0008003000000210A00002104E000210A003C
:1036B000C11704E00022002306E0C0460022CB1719
:1036C00058405940C01A994130B5184CA21A0029E7
:1036D00003D1010010D00020203A4C1512D104D2A1
:1036E000013A001849414C0DFAD3114CA24204D2C0
:1036F00012058918DB07C91830BDD243520D0020CE
:103700000021F5E703D4013A00184941FBD50B32FB
:103710004405C00A4D052843C90A640003D00024AB
:1037200060416141E1E7E0D34408F8E7320400007A
:10373000FE0700000A0DCC0F531E1B05C91A5205C7
:1037400003D3C943404200D30131520D03D0531C6F
:10375000DB0A07D0121B00206400611C8907891254
:10376000803A1203014BD21A70470000FF03000099
:1037700051434343C9188C46110C83B24B4310B4D8
:10378000040C614392B280B2504362431C041B0C90
:10379000001910BC59411304120CC0185141614466
:1037A000704700004840414048400E4B5B68184756
:1037B0000C4B1B6818470C4A936F9B0802D2094BAD
:1037C000DB681847F0B5146E556E576F166FFFF72C
:1037D000F6FF054A1466556657671667F0BD014B3C
:1037E0009B681847481A0020000000D007B54840E1
:1037F0004140484001E0C04607B54200120E03D0E8
:10380000FF2A03D1420218D8C00DC0054A00120E8B
:1038100003D0FF2A03D14A020FD8C90DC9050122DE
:10382000414005D4414001D5814207BD884207BDD2
:103830000143491801D0C043001807BD00B5FFF788
:10384000DBFF01D0002000BD012000BD00B5FFF767
:10385000D3FF804100BDC04600B5FFF7CDFF01D9C1
:10386000002000BD012000BD00B5FFF7BFFF01D95A
:10387000002000BD012000BD00B5FFF7B7FF80416B
:1038800000BD491A002807D108467047C10FC90773
:1038900000D54042002817D0F44603B40B4B1B68F8
:1038A000984706BC81409E384042803107D20B06C3
:1038B00007D04900490AC00510430843604701305A
:1038C000F8E7490A8902F5E770470000DCB10020FB
:1038D00041000A0E80231B067E2A0BDD9E3A0BDA7E
:1038E000C1174002400818435242D04049000131FC
:1038F0004843704700207047C00FC0180138704718
:10390000C0420DD300B540004008002100F012F87D
:10391000002801D4404200BD8020000600BD000008
:10392000034BDB69FC4618471CDFF139001000002F
:10393000481A0020014B5B6A18470000481A002013
:10394000034BDB6FFC4618477CDF093A0010000090
:10395000481A0020014BDB6C18470000481A002071
:10396000132310B512481C78FEF720FE0100012C2D
:103970000AD003DD80220F4800F06CF80E48FEF7F5
:103980000DFE0E4B186010BD0A4C5422200000F0B2
:1039900061F80B4B6365A365E36523666366A36605
:1039A000E36623676367A367E3672362E361E5E791
:1039B00053460000481A00204C330000DCB10020C0
:1039C000C539001007B5604601880A0A0230DF2AAF
:1039D000FAD1C9B2820804D3028840880004104397
:1039E00000E00068014A5050039007BD481A0020CB
:1039F0000021C2158032803201D0024A10470020D7
:103A000070470000CD2A0000C30FDB0741000A0EFB
:103A100007D0FF2A08D00909054A89181943400729
:103A200070471900002070470249C918FAE70000E2
:103A3000000000380000F07F01480421014B1847C6
:103A400090100020BD250010014B1B681847000096
:103A500090100020014B5B68184700009010002078
:103A600010B5002800D110BD00F0F8F9FBE7C04602
:103A70000FB430B50C4985B008AA08CA0D68039286
:103A8000002D0CD000920122084C5242200002A9C5
:103A9000A847012005B030BC08BC04B01847180086
:103AA00000F028FA0020F5E798B10020613A0010F4
:103AB00010B5094A0300146884B0002C08D0012214
:103AC00000910648524203A9A047012004B010BD4E
:103AD00000F010FA0020F9E798B10020613A0010D8
:103AE00000BEFDE7094A03001068002805D0084918
:103AF000C3188B4207D81360704706480449C3189F
:103B000010608B42F7D901204042F5E794AD0020C8
:103B10000000042008B2002000207047012040422D
:103B20007047C046030010B508001100002B05D1F6
:103B3000044B1A685B6800F033F910BD0120404265
:103B4000FBE7C04660EF02100300013B10B5080020
:103B50001400012B06D801230022210000F0A0F858
:103B6000200010BD01204042FBE7C046012040423A
:103B70007047C046012040427047C0460120404285
:103B80007047C0460300022200209A42404170471D
:103B900010B5FFF7A5FFC04630B50D0083B0190082
:103BA000002A0BD0074B084C0192009302002B0017
:103BB0002000FFF75DFF0120FFF792FF034B1A0083
:103BC000F1E7C046B0DE0110C0DE011024E00110B4
:103BD00070B5FEF745FD074D074EB54209D20024EA
:103BE000013E761BB60808CD984723000134B34246
:103BF000F9D170BD8CD8011094D80110030010B514
:103C0000080011001B68984710BDC046F0B5C646B5
:103C100000B5437D07000D001600002B38D0002AA8
:103C20002EDD00216A1E90466A5C037D4C1C00203C
:103C30000A2A0CD0A64216D043461B5D21000D3B3C
:103C40005A4253416A5CDBB24C1C0A2AF2D1002B67
:103C5000F0D1884217DB022110483B689847A64202
:103C600007D02000E8E7864203DD311A3B682818B8
:103C70009847AD19013D2B780D3B5A4253413B7596
:103C800080BCB846F0BD091A3B6828189847E2E79F
:103C90000368110028009847F2E7C046BCEF021005
:103CA000F0B5DE4657464E464546E0B585B01700AE
:103CB0001C0006000D00FEF797FA0023314A121887
:103CC0004B41802109068B4202D301222E4B5242E6
:103CD0002E4908008A4619F093FD01906B1C03D110
:103CE000300014F00BFB0500002C26D0284B984622
:103CF000284B1C68002C15D0002F21D1264F02E044
:103D00002469002C0ED02368002BF9D03B68002BCF
:103D100001D09C42F4D120002A003100C047246920
:103D2000002CF0D1019B002B28D1280005B0F0BC5D
:103D3000BB46B246A946A046F0BD184B9846D7E709
:103D4000154B994602ABDF1D0A239B4602E024690E
:103D5000002CE7D02368002BF9D04B461B68002BC2
:103D600001D0A342F3D12A0031002000C0475B46B6
:103D70000122390020003B70C047E8E7504619F0A7
:103D800007FDD2E740420F00FFFFFF7FB41700207E
:103D90000D3C001044AD002050AD0020FD3B001054
:103DA000F8B557464E464546DE4698461A4BE0B5AE
:103DB0009B461A4B07000E0091469A46184D5B46EB
:103DC0001C68002C03D115E02469002C12D02B684C
:103DD000002B01D0A342F7D1A368002BF4D031000F
:103DE000380098470028EFDDF0BCBB46B246A94634
:103DF000A046F8BD53465B6A984508D85246926A79
:103E00004A4502D302204042EEE79845FAD101200C
:103E10000021FEF7F3F9D2E744AD00200040054051
:103E200050AD00200A4A1368002B05D10CE01A009F
:103E30001B691032002B07D09842F8D1002902D11B
:103E400003691360016170470029FCD01060FAE734
:103E500044AD002010B500F08DFA10BDF0B5CE468F
:103E6000474680B583B06B460600DD1D2870FEF71F
:103E7000BBF900231A4A12184B41802109068B42D4
:103E800002D30122174B524217490800884619F005
:103E9000B7FC164B81461C68002C14D0144F02E06E
:103EA0002469002C0FD02368002BF9D03B68002B2D
:103EB00001D09C42F4D1200001222900FFF7A6FE88
:103EC0002469002CEFD14B46002B05D1300003B004
:103ED000C0BCB946B046F0BD404619F059FCF5E704
:103EE00040420F00FFFFFF7FB417002044AD0020C9
:103EF00050AD002070B5040014F000FA0123010059
:103F0000050001222000FFF7CBFE084B1C68002CA7
:103F100006D06368002B05D098472469002CF8D19F
:103F2000280070BD2469002CF3D1F9E744AD0020CE
:103F30007047C0460022014B1A70704704B200203F
:103F40004B790020FF2B0BD18B79002B08D1CB793B
:103F5000012B05D1082A03D9024B8A7809301A703F
:103F60007047C04604B200200120704710B50129F7
:103F700001D0012010BD13495379107909781B0233
:103F8000034300209942F5D15378012B08D0022B2E
:103F9000F0D1002064220021FEF7AAFA0120E9E70F
:103FA000D37891781B021943DB0507D54A0A100024
:103FB00001231A407E331940FEF722FB01204A0AF2
:103FC0004042F5E704B200200048704788F0021034
:103FD00070B5050014000120012909D15378002093
:103FE000012B05D1637912791B021343072B00D0F3
:103FF00070BD21002800024A9F3301F049FAF7E71B
:10400000E0EF02100123037000487047C0EF021078
:104010004B780A781B0213438A7810B512041A43AE
:10402000CB781B0613439622D200934200D010BDDA
:104030000022012011004042FEF7E2FA024B186014
:10404000024B19607047C046E4AC0020E8AC002089
:1040500010B5024B1878FDF737FB10BD05B20020F4
:10406000154B70B51A68002A22D0EFF3108172B692
:1040700010680028FCD0BFF35F8F00200F4A596002
:1040800010701B68BFF35F8F186081F310880024E5
:1040900000250B4E3078FDF70BFB002804D10024DF
:1040A00000252900200070BD3078FDF70DFBF8E7F2
:1040B000FA240025A400ECE7BCB1002006B20020E1
:1040C00005B2002070B5040000200E0001F0F8FADF
:1040D000002836D0002001F00BFB002831D0FEF77D
:1040E00083F80023184A12184B41802109068B429D
:1040F00016D2164D280019F083FB002821D000208D
:1041000001F0DEFA00280FD101200021404200F02A
:10411000F3FC03246442280019F03AFB200070BD30
:1041200001220B4B5242E4E7002001F0E1FA0028A3
:10413000EAD021003200002001F0E6FA041EEAD1A4
:10414000E7E703246442E9E740420F00E4B10020BE
:10415000FFFFFF7F10B5FEF747F800230E4A121845
:104160004B41802109068B4202D301220B4B524264
:104170000B4C200019F044FB00280CD0012000213A
:10418000404200F0B9FC002001F00AFB0028F5D104
:10419000200019F0FDFA10BD40420F00FFFFFF7F25
:1041A000E4B10020F8B5DE46574680B505000C00A6
:1041B000FEF71AF80023374A12184B4180210906EE
:1041C0008B4202D30122344B5242344908008A46C2
:1041D00019F016FB002803D1C0BCBB46B246F8BD9F
:1041E000002001F06DFA00284AD00026002C43DDA3
:1041F0002B4B9B4614E0A919002001F00DFB070092
:1042000001200021404200F077FC002001F0C8FAB4
:10421000FDF7EAFF224BF61918605960B4422BDD16
:10422000002001F019FBA71B0200B84200DD3A0094
:10423000002AE0D101200021404200F05DFC002076
:1042400001F0AEFA002001F03BFA002814D0002063
:1042500001F002FB0028E1D1FDF7C6FF5B460F002D
:104260001A685B68002184460E4812184B419F4231
:1042700002D8D3D19445D1D9504619F089FAABE789
:1042800000200021064B18605960504619F080FA52
:10429000A2E7C04640420F00FFFFFF7FE4B10020CD
:1042A0004019002020A1070030B52B4C85B000211B
:1042B000200019F08DFA00281CD1284B1A68002A1A
:1042C00016D0EFF3108172B610680028FCD0BFF34F
:1042D0005F8F01242248596002781B68D2B20470B3
:1042E000BFF35F8F0020186081F31088002A17D079
:1042F00005B030BD01200021404200F0FDFB002050
:1043000001F0F6F90500200019F042FA002DEFD077
:10431000144B1B68002BEBD0134A10689847E7E753
:10432000FDF7DEFD0400FDF75FFFFA220023920097
:1043300012184B41802109068B4202D301220B4BFC
:10434000524201210291002101910949200000916E
:10435000FDF7CAFDCCE7C046E4B10020BCB10020A7
:1043600006B20020E4AC0020E8AC0020FFFFFF7F95
:1043700061400010D02310B51B0684B01C68FDF707
:10438000AFFDFDF7ADFEA04202D0002004B010BD8D
:10439000294B1B7801F06AFD28480368002B47D0A1
:1043A0000120FDF72DFBFF23254C264920701840E6
:1043B000FDF7A8F920780121FDF768F90520FDF740
:1043C0008BF9002826D1082200211F48FFF73CFB6B
:1043D000FDF786FD0400FDF707FFFA220023920097
:1043E00012184B41802109068B4202D30122174B40
:1043F00052420121029100210191154920000091B2
:10440000FDF772FD0028C0DB12480121FFF70AFD0D
:104410000120BBE70120FDF707F90B4B0100180055
:10442000FDF750FB002205200B49FDF795F9EBE75E
:10443000FDF72CFBB4E7C04670FD0210E4B100208C
:1044400005B20020A9420010BCB10020FFFFFF7F91
:1044500061400010A010002051400010004870473B
:1044600024F1021000487047D0F0021010B504008B
:1044700017480378002B20D0002C06D1154B164886
:104480004380063BFF3B038010BD052C19D8134B1E
:10449000A400E05812490123013804E001330A80E6
:1044A0000231142B0FD0C25C002AF7D1C022DBB23C
:1044B0005B00920008481343E5E7112100F01AF869
:1044C000DAE70020E0E7CA2303489B00DBE7C046A9
:1044D000ECB10020090400001CAD0020B8F002106F
:1044E0001EAD002010B5024800F0D8F810BDC0463F
:1044F000D4B1002030B54B1E012900D1A7E0664A97
:1045000011780D092C0030349F2900D9A2E00470E5
:10451000012B00D1BEE00F21147821400C00303473
:10452000092900D998E04470022B00D1B2E05478F8
:104530002509290030319F2C00D990E08170032B90
:1045400000D1A7E00F2121400C003034092900D907
:1045500087E0C470042B00D19CE0947825092900E1
:1045600030319F2C00D97FE00171052B00D191E003
:104570000F2121400C003034092900D976E0447124
:10458000062B00D186E0D4782509290030319F2CF4
:1045900000D96EE08171072B00D17BE00F21214013
:1045A0000C003034092966D8C471082B00D171E0A1
:1045B00014792509290030319F2C5FD80172092B0D
:1045C00068D00F2121400C003034092958D844729A
:1045D0000A2B5FD054792509290030319F2C52D8FD
:1045E00081720B2B56D00F2121400C003034092949
:1045F0004BD8C4720C2B4DD0947925092900303149
:104600009F2C00D9073101730D2B43D00F2121407E
:104610000C003034092901D937310C0044730E2BBA
:1046200038D0D1790C09220030329F2900D90732C5
:1046300082730F2B2ED00F220A4011003731092A26
:1046400001D830321100C173102B23D01030002359
:10465000037030BD07345AE737310C0063E7073188
:104660006CE737310C0074E707317DE737310C0018
:1046700085E707318EE737310C0095E707319DE775
:1046800037310C00A3E70731AAE737310C00C472B9
:104690000C2BB1D1C018DAE7D4B1002010B588B026
:1046A00004000D2200216846FFF7CEF90D220021FB
:1046B00004A8FFF7C9F94B236A466846137004A99A
:1046C0000D2219F05DF81521082220006944FFF73A
:1046D000C1F908B010BDC046F8B500F03BF90C2395
:1046E000184DFF22AB6705201749FDF735F8174C29
:1046F000402200212000FFF7A7F9402700230126D0
:104700002121134A66702783A260136063545F31CE
:104710006184453963540F4A0F496360E26027871B
:10472000A1620B606362E26219F08AF880239B0544
:104730002E64EB649023094AEA508022084B52020F
:10474000DA64F8BD00001150A104002098AD0020EB
:1047500084001050000110508000105010D0010053
:104760000020115010B501210520FCF78FFF10BD6E
:1047700010B500220021024800F00CF910BDC0461F
:10478000B8AD0020044B1970002904D0802190237B
:10479000024A8902D150704700B200200020115017
:1047A0000B785B0602D14B78052B00D070478A78D6
:1047B000014B1A60FAE7C04600001150F0B5C6463A
:1047C00000B5CC7888780A794B797F21A40701401D
:1047D0001B02C50913434F00A20F1400324E7A1971
:1047E0005201B218907001206840507000205B05A3
:1047F0005B0DD0701383D4768046CA00012D33D070
:104800002A488446880162448446B44460468260F3
:1048100040461060002933D0254AC90090466246C0
:10482000414451603F223F339343022C00D15B004F
:1048300020487A1901685201B218D1601E4ACB187B
:10484000036051405A40802388465B019A4228D831
:104850004346A4061C4380237F197F01F619726822
:104860001B062343136011E0144884468801624408
:104870008446B4446046826240461060002909D1F3
:1048800000236D0175196B600D4BEB60012080BC3E
:10489000B846F0BD084AC90090466246414451629C
:1048A000C0E7FDF7D7FED3E798AD00208400105095
:1048B00004001050A0B100200000105080001050E3
:1048C0000001105010B518F0BBFF10BD10B57F20CF
:1048D0000C0020404000E409110000191A00034BAD
:1048E0004001C01800F056F8012010BD98AD00201E
:1048F0007F23180010B50840CA090B4203D10749AD
:104900007D3B9B1A8B66400080188022044B40013F
:104910000021C018120118F08BFF10BD00201150AB
:1049200098AD00207F22130010B50B400A4200D141
:1049300010BDC9095B005B1804485B01C018002367
:1049400000220349C37018F073FFF1E798AD00200F
:10495000FFF7FFFF80220A4B520410B51A60094B83
:1049600009491A6010000B689843FBD1802200218E
:1049700052010648FFF768F80922054B5A6710BD37
:1049800000E0004000F0004008C00040000010506F
:1049900000001150002310B5C38201338282837658
:1049A0000161040018F03CFF002804D0802190230E
:1049B000074A8902D150200018F0FAFE002802D0E0
:1049C0000123237710BD200018F022FFFAE7C0462C
:1049D000002011507047C0467047C0460020704705
:1049E000002070477047C0467047C0467047C046B9
:1049F0007047C046024B5878431E9841C0B270477A
:104A0000FCA70020024B18784007C00F7047C04633
:104A1000FCA70020F8B54746CE4680B52B4F0600D0
:104A20003B78FF2B04D00120C0BCB946B046F8BD8E
:104A3000002154222648FFF707F80022254C264B78
:104A400020001A70FDF722F8244B1C60244C200033
:104A5000143CFDF729F8200001F0F2FD214B224D16
:104A60001C60224B002B27D02800FFF7CBFA204BED
:104A70002A7818601F49002489461D49002388466A
:104A800010E043461B6862019B18002B12D05B6844
:104A9000002B0FD098472A780134E4B2511C230030
:104AA000A1420BDBA242ECD89B1A5B014B445B6832
:104AB000002BEFD10020B7E72A78DBE730003E700B
:104AC000FFF70AFE3000FFF74DFEACE7D4100020E0
:104AD000FCA70020B4A7002001B2002050A80020AD
:104AE000CC10002054A80020FFB100200540001089
:104AF000D0A40020E0F10210F0B5DE4657464E4645
:104B00004546E0B5C84B91B002931B78FF2B00D10E
:104B10003EE1C64BC64E9B465F46C64B0DAC01936D
:104B2000C54B009335686A69EFF3108172B613685C
:104B3000002BFCD0BFF35F8FA9612800210001F09A
:104B4000ADFB6A69AB69BFF35F8F0021116083F32E
:104B50001088002800D11BE16378082BE2D89B0065
:104B6000FB589F466368002BDCD0A0689847D9E7C4
:104B70007F222179AF4D0A405300EB189846C809AF
:104B8000804440460123303005799D430571057905
:104B900003339D430571002A00D100E14346A74A33
:104BA0001B7D1278934200D3EFE0A54A5B011568A4
:104BB000ED18002D00D1EBE0A36862792078AD6993
:104BC000A847AFE79F4A1378002B00D1E0E01378A5
:104BD000013BDBB213701378002BA3D10122954D5A
:104BE00001212B78042013432B703423EA5C8A4381
:104BF000EA54EA5C8243EA540133EA5C8A43EA54A9
:104C0000EA5C8243EA54237800209B4600F0A0FC33
:104C1000602223791A40602A00D1EFE0402A00D1B7
:104C2000F5E0DB06DB0E012B00D113E1022B00D1F6
:104C3000C7E0002B00D0E1E0202A00D11CE2002ACE
:104C400000D0DBE06379092B00D9D7E07E4A9B00D6
:104C5000D3589F46774D2B78DB0700D462E7FFF7E8
:104C6000C7FE5FE7019BDB78DB0700D45AE760688B
:104C7000FFF7B2FE56E76F4D2B78DB0700D451E704
:104C800028780007C00FFFF7B1FE4BE723786A4989
:104C900099468B46694B6A4998468A4639001A7884
:104CA00047460023B04600254E46894610E053464D
:104CB0001B686A019B18002B00D176E0DB6830008E
:104CC00098473A780135EDB2511C2B008D4244DCF7
:104CD0009542ECD39B1A5B015B44EFE7237858497C
:104CE0009946564B8A4698463100BB464E461A783E
:104CF00000250023474689460FE053461B686A019A
:104D00009B18002B55D0DB68300098473A78013566
:104D1000EDB2511C2B008D4207DC9542EDD39B1A5E
:104D2000009A5B0194466344EDE7019D5422002103
:104D30002800FEF789FE1022FF214448FEF784FE7A
:104D400028002022FF2114304E465F46FEF77CFEED
:104D500000F0F4FBFFF748FEE4E6364D5422002154
:104D60002800FEF771FE1022FF21281DFEF76CFEC1
:104D700028002022FF21143046464F46FEF764FEED
:104D800000F0DCFB2379AB70CCE6501C984213DAC0
:104D900011B0F0BCBB46B246A946A046F0BDA36820
:104DA0006279207800F0E8FBBCE646464F46214D8C
:104DB000E6E74E465F46CBE71F4D9B1A5B015D1948
:104DC000FAE67023217A0B4218D1C80982460F33C4
:104DD0000B405B0098461948EB1853441B7D007844
:104DE0009946834266D216485B0100688146994421
:104DF000002A00D15FE14B46002B68D120780021CA
:104E0000FFF776FD80212078FFF772FD8AE61048D3
:104E100000F09EFB012158460EAAFFF7D9F80028A2
:104E200000D07FE6EAE7C046D410002038F1021037
:104E300054A80020FCA70020E0F10210FFB10020E0
:104E4000D0A4002001B200205CF1021000A80020D4
:104E5000D13F0010237A0F2BD0D8CF4AEB181B7903
:104E60001578AB423ED3691C9942C7DB5D1BCB4B27
:104E70006D01ED18686900F06BFB012158466B6904
:104E80000EAA9847002800D04CE66022150023792E
:104E90001D401A42B2D163790A3B012BAED800F013
:104EA00057FB63790A2B00D199E158460EA900F00F
:104EB000D9FA37E6431C4B4500DAF7E04B461B1A9C
:104EC0005B019946B5488144002A00D1F3E04B4686
:104ED000586900F03DFB4B46012158465B690EAA1C
:104EE00098479CE7AE4A5B011568ED18002DC1D1CB
:104EF00084E7A37999466B789945D6D06B78002BD7
:104F000000D033E14B466B70002B00D12BE14846BB
:104F10000138C0B2FFF7A6FA002800D17EE143783D
:104F20000793022B00D079E10122C179B1468B11A0
:104F3000491113400A40302112015B0113432A78C2
:104F4000A8468A4313432B7009239A468244564647
:104F5000BA46C37882781B021343C31805938E4B5D
:104F600004938E4B08938E4B09938E4B0A93059BAB
:104F7000B34200D855E1737801220B2B03D133786B
:104F8000F278F6187378042B00D044E1059B0027D3
:104F90009B1B9BB20693049B0B921D7800230393EB
:104FA0001BE0099A7B011568ED18002D00D132E154
:104FB000310058462B69069A98478446082803D939
:104FC000069A824200D313E1049B01371D78FFB299
:104FD0006B1C03979F4200DD1DE1BD42E1D8039B9E
:104FE0005D1B089B6D019C466544E1E76B780CAA4C
:104FF00002321370584601230EA900F049FA91E5D8
:10500000E3881A0AD8B20F2A00D9F7E66649930056
:10501000CB589F460EA800F0A1FA5846A179FFF799
:10502000A7FB02222B7813432B707BE5E388012B2F
:1050300000D0E3E608222B78584693430EA92B7044
:1050400000F010FA6EE5022029780CAB9A1C8B0652
:105050008908DB0F01400B431380584602230EA939
:1050600000F016FA5EE5E388012B00D0C6E60822C0
:105070002B7813432B7018E7237A0F2B00D9BDE64A
:10508000EB181D79444B1B789D4228D2444B6D018F
:105090001B685D19002D00D1B0E6686900F058FA70
:1050A000012158466B690EAA9847B8E6002A00D03D
:1050B000A4E60023994662790220130003928343F9
:1050C000012B15D0002A00D098E62B00434453440E
:1050D00030331B790CAA9B07DB0F0232BCE75A1C4A
:1050E000AA4200DA8AE6ED1A2C4B6D01ED18D4E7DE
:1050F000E388002B12D1029B1878039B012B23D04D
:10510000FFF7F6FB43460221EB18534430331A797C
:105110000A4301211A711A790A431A714B46002B6E
:1051200000D1FFE4586900F013FA4B4601215B6996
:105130000EAA58469847002000F00AFA3523EB5C87
:10514000DB0700D5EEE4B0E6FFF7ECFB43460221B7
:10515000EB18534430331A798A431A711A79039938
:105160008A431A71DAE7FFF73FFC9EE600215846B2
:10517000FFF708FB5846FFF7A5FBAB7807490393F9
:105180000491054B064998461A7805910023290099
:105190001D008A461BE0C046FFB10020E0F102106E
:1051A000D0A4002010A8002084F10210059B6A0101
:1051B0001B689B18002B4DD0DB6858469847434628
:1051C0001A780135EDB2511C2B008D422EDC954230
:1051D000ECD39B1A049A5B0194466344ECE70CAB56
:1051E0009A1C584601230EA9157000F051F999E454
:1051F0000B9A012A4FD0002A3CD00023B07804E05B
:105200000133DBB20F71934234D2C118C9B24144A9
:105210000D79FF2DF4D04E464546574600236B705E
:10522000ECE54E465746FFF7DDFB3EE65546542279
:1052300000212800FEF708FC1022FF21281DFEF7A0
:1052400003FC28002022FF211430FEF7FDFB039B06
:10525000AB7057E65546FAE7FEF7B6FE021E00D1E0
:10526000CCE5D37891781B020B4358460EA900F089
:105270000FF9D4E565463B002A0031000A9800F09A
:105280007DFEAC46049B039A1B786644013393422F
:1052900000DB6CE6BFE7174B29699942ADD1079A4D
:1052A000ABE7FFF79BFB021E00D1A7E5584613783A
:1052B0000EA900F0EDF8B2E52189FFF7D7F8021E3C
:1052C000F4D19BE5022A0FD0FFF78AFB021EC8D15A
:1052D00094E5FFF7C3F8021E00D18FE5122358466C
:1052E0000EA900F0D5F89AE5FFF7BCF8021EB8D178
:1052F00084E5C0466D590010F8B557464E46DE4667
:1053000045460C00E0B516001F00002A3CD01F4B9C
:1053100000259A46702399461D4B9B4617E05B4635
:105320002000997800F0ECFD00281FD021004046B5
:10533000FFF744FA002819D0A378DA09012A1CD013
:105340000A9A013513702378E418B5421CDA6378A1
:10535000052B0BD1E3789B079B0FBB4206D153462D
:105360004A461B789846A3781A42D8D00020F0BC51
:10537000BB46B246A946A046F8BD0B9A013513704C
:105380002378E418B542E2DB0120F0E7D4100020D6
:10539000FCA70020702270B5094B0C001D788B789B
:1053A0001A4201D0002070BD064B2000997800F011
:1053B000A7FD0028F6D021002800FFF7FFF9F2E74B
:1053C000D4100020FCA700200B007F2010B518404F
:1053D000DB0934334000044AC018044B1168C0187C
:1053E00000F04AFD10BDC04650A80020FCA70020D8
:1053F0000B007F2010B51840DB0934334000044A0D
:10540000C018044B1168C01800F05EFD10BDC04606
:1054100050A80020FCA7002070B57F240F480C4046
:1054200064000419CD09641930342079C00701D50E
:10543000002070BD01262579094835430078257183
:10544000FFF744FA0028F4D1012223799343237112
:105450002379033293432371EAE7C046FCA7002077
:10546000D410002070B5094C0600082220000D0061
:10547000FEF7F0FA00238021E360A3602B78300070
:10548000994300220023FFF7C7FF70BDA0A70020AB
:10549000F8B5CE4647469046264E80B5814608224E
:1054A00030000D001F00FEF7D5FA4346B36000231D
:1054B000F381EC79AB7924021C43231CBC4200D954
:1054C0003B1C9FB2B381002C0ED0002F18D0434656
:1054D000002B2CD03B1C402F1BD89FB233787F2B46
:1054E0001CD80021144A0FE080212B780022994318
:1054F00048460023FFF790FFC0BCB946B046F8BD50
:105500007F230022317899433B004846FFF784FF10
:10551000F2E740239FB233787F2BE2D9064C3A0062
:1055200041462000FEF796FA80212200ECE7002099
:10553000E2E7C046A0A70020BCA7002010B51422B7
:1055400000210248FEF780FA10BDC046A0A7002047
:10555000014B18617047C046A0A7002010B5054C4C
:10556000010008222000FEF775FA0023A360E36023
:1055700010BDC046A0A7002070B5384C1D00237890
:105580000600DA09C9098A4210D00020002D00D097
:1055900070BD21003000FFF703F92369002B03D011
:1055A00022000321300098470120F1E7A0687F2BFB
:1055B00005D8002834D02A002949FEF74BFAE289A1
:1055C000A1685219E38892B24919E281A16093421D
:1055D00014D03F2D12D9A389981A051C80B24028F7
:1055E0002AD82078ADB27F2828D800219A4232D01C
:1055F0001B4A2B003000FFF70FFFC9E72369002B80
:1056000005D0220002213000984700280AD08021CE
:1056100023780022994330000023FFF7FDFEB7E70F
:105620000020B5E700213000FFF762F9300080214B
:10563000FFF75EF90120ABE74025D2E79A4207D099
:10564000074C2A002000FEF705FA80212200D0E74F
:1056500080210022CDE70022CBE7C046A0A7002092
:10566000BCA7002070B50400FFF7C4F9002800D1E2
:1056700070BDFFF7C7F90028FAD1E378002BF7D007
:1056800025001035280000F0F3FD3F28F0D9002058
:10569000E178FFF799FE0028EAD0280000F0E8FD45
:1056A0003F2808D992239B00E218E178402300208C
:1056B000FFF7B2FEDCE7E1780020FFF799FED7E7BD
:1056C00010B50400FFF796F9002801D1002010BDA5
:1056D000FFF798F90028F9D1B22292006243034BF8
:1056E00001309B181B791840F1E7C046D8A4002070
:1056F000B2239B00434310B50248181800F09AFDEE
:1057000010BDC046E8A40020F0B5B226B60046435E
:105710003500C6468023204F1035040000B57D19A2
:105720005B029A4200D31D4A280092B200F004FEA8
:105730008046FFF75FF9002803D1404680BCB84699
:10574000F0BDFFF75FF90028F7D1B2239B005C435F
:105750003C19E378002BF0D0280000F089FD3F28A9
:10576000EBD90020E178FFF72FFE0028E5D02800D4
:1057700000F07EFD3F280AD992239B009C46664498
:105780004023E178BA190020FFF746FED5E7E1781B
:105790000020FFF72DFED0E7D8A40020FFFF000077
:1057A000F8B50400FFF726F9002801D10020F8BD64
:1057B000FFF728F90028F9D1B2239B005C432500AC
:1057C000144E2435AD19280000F034FD0028EDD02A
:1057D00037190020B978FFF7F7FD0028E6D0A2239B
:1057E0009B009C466444A41921002800402200F03C
:1057F000A3FDB978051E08D0030022000020FFF7A2
:105800000BFE0028D2D02800D1E70020FFF7F0FDE2
:10581000CCE7C046D8A4002070B5B224A40044430D
:105820000B4B0500E41880235B029A4200D3094A1F
:10583000200092B200F048FE0600200000F0FAFCC2
:105840003F2801D8300070BD2800FFF7A9FFF9E715
:10585000FCA40020FFFF0000B2239B00434310B5CF
:105860000248181800F004FD10BDC046FCA400203A
:10587000B222F0B500251B4C83B00021200092001D
:10588000FEF7E2F8184B80261D70FF236371E123B9
:105890005B02A3602100082320007600A37332007E
:1058A00038310095073B103000F08EFC21000123B9
:1058B000200039313200FF310093243000F084FCA5
:1058C0008E239B00E7183800FCF7E0F890239B003C
:1058D000E6183000FCF7DAF8E561276226636563B5
:1058E00003B0F0BDD8A40020D4A400200B4B196B4A
:1058F00000290AD01A6A002A0DD000221A621A63FF
:10590000DA6100225A63012070471A6A002AFAD02D
:10591000D9611962F7E71A63F3E7C046D8A40020FB
:1059200070B50F4C052200212000FEF78DF80D4DBB
:105930002B78DA0707D50C4C9B070CD501212000EA
:1059400000F09EFE70BD2000103000F079FE2B7834
:10595000054C9B07F2D4200000F072FEEEE7C04633
:10596000D8A40020D4A40020FCA40020F0B5C64692
:1059700000B54B79060082B0022B02D18B79022B45
:1059800005D00025280002B080BCB846F0BD214FEC
:10599000BB78002BF5D18B7809253B700C780C195E
:1059A0006378242B0BD1082A02D821E0AA421FD306
:1059B0002378E4185D196378ADB2242BF6D0052B5B
:1059C0001AD0042B14D163790A2B11D1237821002A
:1059D0009846114B022201930133009330000223B9
:1059E0004144FFF789FC0028CBD00E354544ADB2C9
:1059F0003800FFF737FEC5E721003000FFF7CAFC8B
:105A00000028BED0A3787B7023785D19E4186378F2
:105A1000ADB2D6E7D8A40020DAA40020F8B5602300
:105A200014001278050013400020202B12D12F4AB9
:105A30006379277916781B023B439E420AD163782B
:105A4000222B1AD007D8202B3CD0212B02D10129A0
:105A500030D00120F8BD232BFCD1012940D00329EF
:105A6000F7D1234B002BF4D0E178A3780902002072
:105A7000194300E000BF0120ECE7012930D00329E1
:105A8000E7D101252E00A378E478023924021C43D3
:105A90001471264024321000714000F0F1FD154BC6
:105AA000002BD6D06208002031002A4000E000BF61
:105AB0000120CFE70723210028000F4AFFF7E8FC69
:105AC0000120C7E70129F5D00329C2D10B4B002BD8
:105AD000BFD0083200201100FEF79AFA0120B9E782
