:020000041000EA
:1000000000B5324B212058609868022188439860DF
:10001000D860186158612E4B002199600221596106
:100020000121F02299502B49196001219960352056
:1000300000F044F80222904214D00621196600F024
:1000400034F8196E01211966002018661A6600F04E
:100050002CF8196E196E196E052000F02FF8012189
:100060000842F9D1002199601B49196000215960AB
:100070001A491B48016001219960EB211966A021F2
:10008000196600F012F800219960164914480160C1
:100090000121996001BC002800D000471248134993
:1000A000086003C880F30888084703B5996A0420EC
:1000B0000142FBD001200142F8D103BD02B5186610
:1000C0001866FFF7F2FF186E186E02BD00000240BE
:1000D000000000180000070000035F00212200005C
:1000E000F4000018222000A00001001008ED00E03C
:1000F00000000000000000000000000074B24E7A12
:1001000000200420F7010010C3010010C5010010F9
:10011000C1010010C1010010C1010010C101001097
:10012000C1010010C1010010C1010010C701001081
:10013000C1010010C1010010C9010010CB01001065
:10014000CD010010CD010010CD010010CD01001037
:10015000CD010010CD010010CD010010CD01001027
:10016000CD010010CD010010CD010010CD01001017
:10017000CD010010CD010010CD010010CD01001007
:10018000CD010010CD010010CD010010CD010010F7
:10019000CD010010CD010010CD010010CD010010E7
:1001A000CD010010CD010010CD010010CD010010D7
:1001B000CD010010CD010010CD010010CD010010C7
:1001C00000BE00BE00BE00BE00BE00BEEFF3058054
:1001D000103800BEF2EB8871F0530110105401107A
:1001E0003802001090A31AE71E481F49086006C88D
:1001F00081F3088810471D480068002801D019487D
:10020000F3E70DA40ECC002902D000F012F8F9E7B4
:100210001749184A002000E001C19142FCD116495B
:100220008847164988471649884700BEFDE701C937
:1002300001C29A42FBD3704710540110C000002045
:1002400000180020506B0110000004200000042062
:10025000506B01100010042000100420000000006A
:10026000704700000000000008ED00E0000000D032
:100270000018002028510020BD4600100D09001074
:100280007D460010F8B5C04606480749091A8B108C
:10029000C90FC91810B5491003D0044B002B00D06A
:1002A000984710BD00180020001800200000000032
:1002B000054B10B5002B03D00449054800E000BFF2
:1002C000FFF7E2FF10BDC04600000000C450002050
:1002D000A83C0110F0B5DE4657464E464546E0B50F
:1002E0008046CFB0486D8B4616001F000DF022FCF3
:1002F00007AB9C466446324B050007CB07C46046FB
:1003000099460DF08DFC824605A803004A4612CAA4
:1003100012C30DF085FC00230393029353465A4603
:100320004146019000930AA803230DF091FA0022A0
:1003300000210AA80DF0DAFA002824D10AA80DF04D
:1003400029FB00282FD1002D16DD1E4B00249A46D4
:100350001D4B99461D4B9846335D3A5D934208D03C
:1003600000925146302248460DF0D2FB012342460E
:1003700013700134A542EFD14FB0F0BCBB46B2467A
:10038000A946A046F0BD124C00232C2200900D4936
:1003900020000DF0BDFB01220C4B0AA81A700DF0D5
:1003A000F9FA0028CFD00B4C00232D2200900549EC
:1003B00020000DF0ADFB0122044B1A70C3E7C046CC
:1003C0007C490110A83C01108C3D01101D510020FA
:1003D000143D0110543D0110F8B5DE464E46574617
:1003E00045468146E0B518000E0093469A460DF04A
:1003F000A1FB804600282ADD0A9803F0C3FB434690
:100400009B00984604000D005F46B04405E07F2045
:10041000043638700137B04519D03068011C03F03C
:100420008FFF03F0F7FF03F067FC22002B0003F0BF
:1004300013FB03F0BFFB7F28E9DC03008033E7DA1E
:1004400080200436404238700137B045E5D14B4634
:1004500052465A614A460023536093774B465A46A8
:100460001A614A460923504693830DF063FB04004A
:10047000092006F09FFE4B4660439861FC234A46E4
:100480009B0593604B460A9A4846DA604A46012328
:100490001360F0BCBB46B246A946A046F8BDC046B4
:1004A000F0B5D6464F464646C0B582469AB00800DB
:1004B00014001E000DF0B4FB070022980DF0B0FBF5
:1004C000804626980DF0ACFB052302AD5B420093FD
:1004D00081463B00280032002100FFF77DFF4046A7
:1004E0000DF028FB002825DD239C8000249E271882
:1004F00005E07F20043430700136A7421AD08121F4
:100500002068C90503F033FF03F084FF03F0F4FB18
:1005100000222C4B03F0A0FA03F04CFB7F28E8DC10
:1005200003008033E6DA8020043440423070013624
:10053000A742E4D14346082200210CA800246B63A3
:1005400003F0F8FF3E23EC54249B40462B63092321
:100550002C626C62AB870DF0EDFA3C230600E85C80
:1005600006F028FEFA239B05AB620523EB62043BF1
:100570002B624B46704308220021A86314A86C62CA
:100580006B6503F0D7FF5E23EC54279B5C262B653D
:1005900006234846AB532C646C640DF0CBFA040080
:1005A000A85D06F007FE60432900A865279B50461A
:1005B000259AFFF78FFE1AB0E0BCBA46B146A846AE
:1005C000F0BDC04600001440F0B5DE4657464E462A
:1005D0004546E0B506009BB00800904699460DF0F0
:1005E0001FFB824624980DF01BFB070028980DF096
:1005F00017FB09235B429B4602AC05004A46414675
:10060000200000935346FFF7E7FE5B46269A2599A4
:1006100000930AA83B00FFF7DFFE0021082214A880
:10062000179503F087FF00235E221293A3541393C0
:10063000299B5C27169306232800E3530DF07AFAD2
:100640000500E05D06F0B6FD684321001890299B87
:100650003000279AFFF73EFE1BB0F0BCBB46B24607
:10066000A946A046F0BDC046F0B5CE46474680B587
:10067000804699B008001C0091460DF0D1FA0700A1
:1006800020000DF0CDFA060022980DF0C9FA0021E5
:100690000500082202A80024059703F04BFF6B46D3
:1006A0009C774B460493012399466B464A46380093
:1006B0009A83009401940DF03DFA6B460700187F71
:1006C00006F078FD78430021069008220AA80D96CE
:1006D00003F030FF6A463E23D454209B4A460C93D5
:1006E0006B463000089409949A870DF023FA3C2356
:1006F0006A460600D05C06F05DFD704300210E9056
:10070000082212A8159503F015FF6A465E23D454FB
:10071000239B5C2614930623280093531094119472
:100720000DF008FA6B460400985D06F043FD604347
:1007300069461690239B4046219AFFF7CBFD19B0DE
:10074000C0BCB946B046F0BDF0B5CE46474680B510
:10075000804699B008001C0091460DF061FA070030
:1007600020000DF05DFA060022980DF059FA0021E4
:100770000500082202A80024059703F0DBFE6B4663
:100780009C774B460493022399466B464A463800B1
:100790009A83009401940DF0CDF96B460700187F01
:1007A00006F008FD78430021069008220AA80D965D
:1007B00003F0C0FE6A463E23D454209B4A460C9365
:1007C0006B463000089409949A870DF0B3F93C23E6
:1007D0006A460600D05C06F0EDFC704300210E90E6
:1007E000082212A8159503F0A5FE6A465E23D4548C
:1007F000239B5C2614930623280093531094119492
:100800000DF098F96B460400985D06F0D3FC604348
:1008100069461690239B4046219AFFF75BFD19B06D
:10082000C0BCB946B046F0BDF0B5CE46474680B52F
:10083000804699B008001C0091460DF0F1F90700C0
:1008400020000DF0EDF9060022980DF0E9F90021E5
:100850000500082202A80024059703F06BFE6B46F2
:100860009C774B460493062399466B464A463800CC
:100870009A83009401940DF05DF96B460700187F90
:1008800006F098FC78430021069008220AA80D96ED
:1008900003F050FE6A463E23D454209B4A460C93F4
:1008A0006B463000089409949A870DF043F93C2375
:1008B0006A460600D05C06F07DFC704300210E9075
:1008C000082212A8159503F035FE6A465E23D4541B
:1008D000239B4A465C2614936B4628009A53109437
:1008E00011940DF027F96B460400985D06F062FC48
:1008F000604369461690239B4046219AFFF7EAFC25
:1009000019B0C0BCB946B046F0BDC046F0B5DE4631
:1009100057464E464546E0B5E7B00DF071F9D34B6A
:10092000D34F2D93D34BD44E0693D44BB846079355
:10093000D34B33AD994645AB9A464BAB9B46D14B17
:100940004F461193D04BB1461293D04B52AC1593F6
:10095000CF4B1693CF4B0893CF4B1793CF4B189396
:10096000CF4B1993CF4B1A93CF4B1B93CF4B1C9369
:10097000CF4B1D93CF4B1E93CF4B1F93CF4B209349
:10098000CF4B2193CF4B2293CF4B2393CF4B249329
:10099000CF4B2593CF4B2693CF4B2793CF4B0A9327
:1009A000CF4B2893CF4B2993CF4B2A93CF4B2B93ED
:1009B000CF4B2C93CF4B0C93CF4B0D93CF4B099335
:1009C000CF4B0E93CF4B0F93CF4B1093CF4B139333
:1009D000CF4B1493CF4B2E93CF4B2F9300264346F0
:1009E0001E604B462D981E600DF092F83B00079953
:1009F000069A0E701670143340AA43CB43C203CB41
:100A000003C23B005246143343CB43C203CB03C261
:100A1000BB6A5A462B60FB6A35933B6B37933B00AE
:100A2000143343CB43C203CB03C220000CF068FE57
:100A30003BAB03935B46029337AB019340A835ABC6
:100A400001002A00009320005346FFF7EDFE01232A
:100A5000069A079913700B78002B01D101F0F6FB71
:100A6000434601221B6841460B604B461B681198A8
:100A70009B184A4613600DF04BF800220799069B1D
:100A80000A701A703A001432130040AA43CB43C2D2
:100A900003CB03C23A0014321300524643CB43C285
:100AA00003CB03C23A003432130037AA43CB43C20C
:100AB0001B6813603A00443213003BAA43CB43C285
:100AC0001B683800136001221430339203005A4629
:100AD00043CB43C203CB03C220000CF011FE35A868
:100AE0000390584602903BA8009037A8020040A807
:100AF0000100534620000195FFF7B6FD0122069B39
:100B000007991A700B78002B01D001F09AFB43462D
:100B100000221B68013341460B604B461B6812984C
:100B20009B184A4613600CF0F3FF00220799069BBE
:100B30000A701A703A001432130040AA43CB43C221
:100B400003CB03C23A0014321300524643CB43C2D4
:100B500003CB03C23A005432130037AA43CB43C23B
:100B60001B6813603A00643213003BAA43CB43C2B4
:100B70001B68136080233A005B0214323393130026
:100B80005A4643CB43C203CB03C220000CF0B8FD4E
:100B900035AA03925A4640A802923BAA0100534646
:100BA0000092200037AA0195FFF7CEFD0122069B97
:100BB00007991A700B78002B01D001F03DFB4346DA
:100BC00000221B68013341460B604B461B68159899
:100BD0009B184A4613600CF09BFF00220799069B66
:100BE0000A701A703A001432130040AA43CB43C271
:100BF00003CB03C23A0074321300524643CB43C2C4
:100C000003CB03C23A00543213003BAA43CB43C286
:100C10001B6813600722802333923A005B02143270
:100C2000359313005A4643CB43C203CB03C2200083
:100C30000CF066FD37AA03925A4640A8029235AAE4
:100C400001005346019220003BAA0095FFF77CFD6E
:100C50000122069B07991A700B78002B01D001F036
:100C6000E6FA434600221B68013357E0D43D0110E9
:100C70008C1B00201E510020881B00201D510020CD
:100C80007C490110E83D0110FC3D0110103E0110AF
:100C9000283E0110FC490110443E01105C3E011049
:100CA000743E0110883E0110A43E0110C43E0110A4
:100CB000DC3E0110F03E01100C3F01102C3F0110F2
:100CC000483F0110603F0110803F0110A43F011018
:100CD000B83F0110C83F0110E03F01107C4A0110ED
:100CE000FC3F0110144001102C400110484001103D
:100CF0006840011084400110A4400110FC4A01101A
:100D0000D0400110FC4001102C4101105441011051
:100D10008041011094410110AC41011041460B602B
:100D20004B461B6816989B184A4613600CF0F0FE61
:100D30000022069B07991A70089B0A7008333BAA89
:100D400043CB43C203CB03C23A001432130040AA80
:100D500043CB43C203CB03C22200089B1C3343CBCB
:100D600043C243CB43C203CB03C2089B37AA3C33E5
:100D700043CB43C21B68002113602800082203F004
:100D8000D9FB0122AA715246089B083343CB43C2C8
:100D900003CB03C258460CF0B3FC35A80390504671
:100DA000029037A8009040A803003BA80100220051
:100DB00058460195FFF7C8FC0122069B07991A7057
:100DC0000B78002B01D001F02DFA434600221B685E
:100DD000013341460B604B461B6817989B184A46E7
:100DE00013600CF095FE00220799069B0A701A709A
:100DF0003A001432130040AA43CB43C203CB03C2D0
:100E00003A0014321300524643CB43C203CB03C211
:100E1000BB6A089A2B60FB6A3593D36C3A00143294
:100E2000379313005A4643CB43C203CB03C220007F
:100E30000CF07CFC3BAA03925A46029237AA01921C
:100E400040A835AA01005346009220002A00FFF76F
:100E5000EBFC0122069B07991A700B78002B01D03E
:100E600001F0DBF9434600221B68013341460B6069
:100E70004B461B6818989B184A4613600CF048FEB6
:100E800000220799069B0A701A703A001432130068
:100E900040AA43CB43C203CB03C23A00143213002F
:100EA000524643CB43C203CB03C23A003432130051
:100EB00037AA43CB43C21B6813603A004432130085
:100EC0003BAA43CB43C21B681360089A136D3A00D8
:100ED00014322B6013005A4643CB43C203CB03C2E8
:100EE00020000CF023FC35AA03925A4640A8029237
:100EF0003BAA010053460092200037AA0195FFF754
:100F0000B3FB0122069B07991A700B78002B01D0C6
:100F100001F07EF9434600221B68013341460B6015
:100F20004B461B6819989B184A4613600CF0F0FD5D
:100F300000220799069B0A701A703A0014321300B7
:100F400040AA43CB43C203CB03C23A00143213007E
:100F5000524643CB43C203CB03C23A005432130080
:100F600037AA43CB43C21B6813603A0064321300B4
:100F70003BAA43CB43C21B681360089A536D3A00E7
:100F800014322B6013005A4643CB43C203CB03C237
:100F900020000CF0CBFB35AA03925A4640A80292DF
:100FA0003BAA010053460092200037AA0195FFF7A3
:100FB000CBFB0122069B07991A700B78002B01D0FE
:100FC00001F021F9434600221B68013341460B60C2
:100FD0004B461B681A989B184A4613600CF098FD04
:100FE00000220799069B0A701A703A001432130007
:100FF00040AA43CB43C203CB03C23A00743213006E
:10100000524643CB43C203CB03C23A0054321300CF
:101010003BAA43CB43C21B68136007223392089A52
:10102000536D3A001432359313005A4643CB43C2F2
:1010300003CB03C220000CF079FB37AA03925A4677
:1010400040A8029235AA01005346019220003BAA13
:101050000095FFF779FB0122069B07991A700B7820
:10106000002B01D001F0CAF8434600221B6801336F
:1010700041460B604B461B681B989B184A46136001
:101080000CF046FD0022069B07991A70089B0A7017
:1010900008333BAA43CB43C203CB03C2380014300E
:1010A000030043CB43C203CB03C22200089B1C3383
:1010B00043CB43C243CB43C203CB03C2089B37AAF3
:1010C0003C3343CB43C21B682E001360089A1300C5
:1010D000583303CB03C613005246083343CB43C2F5
:1010E00003CB03C258460CF021FB35AA03925246AB
:1010F000029237AA00923BA840AA130001002200E6
:1011000058460195FFF720FB0122069B07991A70AC
:101110000B78002B01D001F06CF8434600221B68CD
:10112000013341460B604B461B681C989B184A468E
:1011300013600CF0EDFC00220799069B0A701A70F0
:101140003A001432130040AA43CB43C203CB03C27C
:101150003A0014321300524643CB43C203CB03C2BE
:101160003A003432130037AA43CB43C21B681360E2
:101170003A00443213003BAA43CB43C21B681360BE
:10118000089AD36C3A0014322B6013005A4643CBB2
:1011900043C203CB03C220000CF0DEFA35AA03924F
:1011A0005A4640A802923BAA0100534600922000F2
:1011B00037AA0195FFF758FA0122069B07991A7082
:1011C0000B78002B01D001F00FF8434600221B687A
:1011D000013341460B604B461B681D989B184A46DD
:1011E00013600CF095FC00220799069B0A701A7098
:1011F0003A001432130040AA43CB43C203CB03C2CC
:101200003A0014321300524643CB43C203CB03C20D
:101210003A005432130037AA43CB43C21B68136011
:101220003A00643213003BAA43CB43C21B681360ED
:1012300080233A005B001432339313005A4643CBA9
:1012400043C203CB03C220000CF086FA35AA0392F6
:101250005A4640A802923BAA010053460092200041
:1012600037AA0195FFF770FA0122069B07991A70B9
:101270000B78002B01D000F0B2FF434600221B6820
:10128000013341460B604B461B681E989B184A462B
:1012900013600CF03DFC00220799069B0A701A703F
:1012A0003A001432130040AA43CB43C203CB03C21B
:1012B0003A0074321300524643CB43C203CB03C2FD
:1012C0003A00543213003BAA43CB43C21B6813605D
:1012D0000722802333923A005B00143235931300C7
:1012E0005A4643CB43C203CB03C220000CF034FA6E
:1012F00037AA03925A4640A8029235AA01005346E3
:10130000019220003BAA0095FFF71EFA0122069BDE
:1013100007991A700B78002B01D000F05BFF434651
:1013200000221B68013341460B604B461B681F9827
:101330009B184A4613600CF0EBFB0022069B0799B2
:101340001A70089B0A7008333BAA43CB43C203CBF5
:1013500003C238001430030043CB43C203CB03C2A3
:101360002200089B1C3343CB43C243CB43C203CB75
:1013700003C2089B37AA3C3343CB43C21B682E00F1
:101380001360089A1300603303CB03C61300524660
:10139000083343CB43C203CB03C258460CF0DCF9FD
:1013A00035AA03925246029237AA00923BA840AA5D
:1013B00013000100220058460195FFF7C5F90122EC
:1013C000069B07991A700B78002B01D000F0FDFEE8
:1013D000434600221B68013341460B604B461B68A5
:1013E00020989B184A4613600CF092FB0022079944
:1013F000069B0A701A703A001432130040AA43CBBD
:1014000043C203CB03C23A0014321300524643CB0B
:1014100043C203CB03C23A003432130037AA43CB92
:1014200043C21B6813603A00443213003BAA43CB0B
:1014300043C21B681360089A936E3A0014322B6003
:1014400013005A4643CB43C203CB03C220000CF027
:1014500099F935AA03925A4640A802923BAA010084
:1014600053460092200037AA0195FFF7FDF80122AC
:10147000069B07991A700B78002B01D000F0A0FE94
:10148000434600221B68013341460B604B461B68F4
:1014900021989B184A4613600CF03AFB00220799EA
:1014A000069B0A701A703A001432130040AA43CB0C
:1014B00043C203CB03C23A0014321300524643CB5B
:1014C00043C203CB03C23A005432130037AA43CBC2
:1014D00043C21B6813603A00643213003BAA43CB3B
:1014E00043C21B681360089AD36C3A0014322B6015
:1014F00013005A4643CB43C203CB03C220000CF077
:1015000041F935AA03925A4640A802923BAA01002B
:1015100053460092200037AA0195FFF715F90122E2
:10152000069B07991A700B78002B01D000F043FE40
:10153000434600221B68013341460B604B461B6843
:1015400022989B184A4613600CF0E2FA0022079991
:10155000069B0A701A703A001432130040AA43CB5B
:1015600043C203CB03C23A0074321300524643CB4A
:1015700043C203CB03C23A00543213003BAA43CB0D
:1015800043C21B68136007223392089AD36C3A0057
:101590001432359313005A4643CB43C203CB03C2E4
:1015A00020000CF0EFF837AA03925A4640A80292A6
:1015B00035AA01005346019220003BAA0095FFF78F
:1015C000C3F80122069B07991A700B78002B01D0F3
:1015D00000F0ECFD434600221B68013341460B60DE
:1015E0004B461B6823989B184A4613600CF090FAF0
:1015F0000022069B07991A70089B0A7008333BAAC1
:1016000043CB43C203CB03C238001430030043CBA7
:1016100043C203CB03C22200089B1C3343CB43C20B
:1016200043CB43C203CB03C2089B37AA3C3343CB13
:1016300043C21B682E001360089A13006C3303CB5F
:1016400003C613005246083343CB43C203CB03C245
:1016500058460CF097F835AA03925246029237AAE0
:1016600000923BA840AA13000100220058460195B1
:10167000FFF76AF80122069B07991A700B78002B76
:1016800001D000F08EFD434600221B680133414625
:101690000B604B461B6824989B184A4613600CF05D
:1016A00037FA00220799069B0A701A703A00143222
:1016B000130040AA43CB43C203CB03C23A00143207
:1016C0001300524643CB43C203CB03C23A00343229
:1016D000130037AA43CB43C21B6813603A0044325D
:1016E00013003BAA43CB43C21B68136080233A001C
:1016F0005B041432339313005A4643CB43C203CBEB
:1017000003C220000CF054F835AA03925A4640A8B0
:1017100002923BAA010053460092200037AA01958D
:10172000FEF7A2FF0122069B07991A700B78002B87
:1017300001D000F031FD434600221B6801334146D1
:101740000B604B461B6825989B184A4613600CF0AB
:10175000DFF900220799069B0A701A703A001432CA
:10176000130040AA43CB43C203CB03C23A00143256
:101770001300524643CB43C203CB03C23A00543258
:10178000130037AA43CB43C21B681360089A743214
:1017900013003BAA43CB43C21B6813603A003B6B68
:1017A00014322B6013005A4643CB43C203CB03C20F
:1017B00020000BF0FDFF35AA03925A4640A8029282
:1017C0003BAA010053460092200037AA0195FEF77C
:1017D000BBFF0122069B07991A700B78002B01D0E2
:1017E00000F0D5FC434600221B68013341460B60E4
:1017F0004B461B6826989B184A4613600CF088F9E4
:1018000000220799069B0A701A703A0014321300DE
:1018100040AA43CB43C203CB03C23A007432130045
:10182000524643CB43C203CB03C23A0054321300A7
:101830003BAA43CB43C21B681360072233923A0092
:101840003B6B1432359313005A4643CB43C203CB50
:1018500003C220000BF0ACFF37AA03925A4640A8FF
:10186000029235AA01005346019220003BAA00953E
:10187000FEF76AFF0122069B07991A700B78002B6E
:1018800001D000F07FFC434600221B680133414633
:101890000B604B461B6827989B184A4613600CF058
:1018A00037F90022069B07991A70089B0A700833C3
:1018B0003BAA43CB43C203CB03C23A00143213000A
:1018C00040AA43CB43C203CB03C20A9A131D220092
:1018D00043CB43C243CB43C203CB03C2089B37AACB
:1018E0003C3343CB43C21B6813600A9A2432130073
:1018F0002A0003CB03C25246089B083343CB43C2A2
:1019000003CB03C258460BF053FF35AA039252464D
:10191000029237AA00923BA840AA130001002200BD
:1019200058460195FEF710FF0122069B07991A7091
:101930000B78002B01D000F015FC434600221B68F9
:10194000013341460B604B461B6828989B184A465A
:1019500013600CF0DDF800220799069B0A701A70DC
:101960003A001432130040AA43CB43C203CB03C254
:101970003A0014321300524643CB43C203CB03C296
:101980003A003432130037AA43CB43C21B681360BA
:101990003A00443213003BAA43CB43C21B68136096
:1019A0003A003B6B14322B6013005A4643CB43C2C0
:1019B00003CB03C220000BF011FF35AA03925A4655
:1019C00040A802923BAA010053460092200037AA89
:1019D0000195FEF749FE0122069B07991A700B78C4
:1019E000002B00D0BAE3434600221B680133414676
:1019F0000B604B461B6829989B184A4613600CF0F5
:101A000087F800220799069B0A701A703A00143270
:101A1000130040AA43CB43C203CB03C23A001432A3
:101A20001300524643CB43C203CB03C23A005432A5
:101A3000130037AA43CB43C21B6813603A006432D9
:101A400013003BAA43CB43C21B6813600A9AD36AB4
:101A50003A0014322B6013005A4643CB43C203CBE7
:101A600003C220000BF0BAFE35AA03925A4640A8E2
:101A700002923BAA010053460092200037AA01952A
:101A8000FEF762FE0122069B07991A700B78002B65
:101A900000D05FE3434600221B68013341460B60E0
:101AA0004B461B682A989B184A4613600CF030F886
:101AB00000220799069B0A701A703A00143213002C
:101AC00040AA43CB43C203CB03C23A007432130093
:101AD000524643CB43C203CB03C23A0054321300F5
:101AE0003BAA43CB43C21B681360072233920A9A76
:101AF000D36A3A001432359313005A4643CB43C29B
:101B000003CB03C220000BF069FE37AA03925A46AA
:101B100040A8029235AA01005346019220003BAA38
:101B20000095FEF711FE0122069B07991A700B78AB
:101B3000002B00D006E3434600221B6801334146D8
:101B40000B604B461B682B989B184A4613600BF0A2
:101B5000DFFF0022069B07991A70089B0A70083362
:101B60003BAA43CB43C203CB03C23A001432130057
:101B700040AA43CB43C203CB03C22200089B1C33C1
:101B800043CB43C243CB43C203CB03C2089B37AA18
:101B90003C3343CB43C21B6813600A9A30321300B4
:101BA0002A0003CB03C25246089B083343CB43C2EF
:101BB00003CB03C258460BF011FE35AA03925246DE
:101BC000029237AA00923BA840AA1300010022000B
:101BD00058460195FEF7B8FD0122069B07991A7039
:101BE0000B78002B00D0A9E2434600221B6801338A
:101BF00041460B604B461B682C989B184A46136065
:101C00000BF086FF0022069B07991A700A9B0A7048
:101C1000383340AA43CB43C203CB03C252460A9B8C
:101C2000383343CB43C203CB03C20A9B37AA4C339E
:101C300043CB43C21B6813600A9B3BAA5C3343CB74
:101C400043C21B68136080235A465B0231930A9B90
:101C5000383343CB43C203CB03C220000BF050FD0B
:101C600035AA05925A46049231AA03923BAA0192E0
:101C7000524640A8009232AA1300010037AA200061
:101C80000295FEF70DFC0122069B07991A700B784E
:101C9000002B00D05AE2434600221B680133414624
:101CA0000B604B461B680C989B184A4613600BF060
:101CB0002FFF0022069B07991A700A9B0A7038337F
:101CC00040AA43CB43C203CB03C252460A9B3833DC
:101CD00043CB43C203CB03C20A9B37AA4C3343CB4B
:101CE00043C21B6813600A9B3BAA6C3343CB43C2BD
:101CF0001B6813600A9AD36F319313005A46383326
:101D000043CB43C203CB03C220000BF00FFD35AA27
:101D100005925A46049231AA03923BAA0192524676
:101D200040A8009232AA1300010037AA20000295B1
:101D3000FEF7B6FB0122069B07991A700B78002B61
:101D400000D0F7E1434600221B68013341460B6097
:101D50004B461B680D989B184A4613600BF0D8FE43
:101D60000023069A00211370079A54A81370342296
:101D700002F0E0FB012306220221032062601A0028
:101D800026002360236303336161A161E061A062E7
:101D9000E1626063E36322646064A264E1640B97C0
:101DA000099B40AA03CB03C2524683CB83C283CB99
:101DB00083C28223DB053293ED4B58461B682B60B0
:101DC000EB4B9B88AB800BF0B1FC3BAB059337AB87
:101DD000029332AB019340AB31000496009352461C
:101DE00035AB58460395FEF7EFFB143666AB9E42C3
:101DF000D6D10122069B0B9F1A704346079A1B6897
:101E000011780122002901D10022013341460B60E3
:101E10004B461B680E989B184A4613600BF078FEE1
:101E20000023069A00211370079A54A813703422D5
:101E300002F080FB012306220221032062601A00C7
:101E400026002360236303336161A161E061A06226
:101E5000E1626063E36322646064A264E1640B97FF
:101E6000099B40AA03CB03C2524683CB83C283CBD8
:101E700083C28223DB053293BE4B58461B682B601E
:101E8000BC4B9B88AB800BF067FC3BAB059337AB3F
:101E9000029332AB019340AB31000496009352465B
:101EA00035AB58460395FEF78FFB143666ABB3424D
:101EB000D6D10122069B0B9F1A704346079A1B68D6
:101EC00011780122002901D10022013341460B6023
:101ED0004B461B680F989B184A4613600BF018FE80
:101EE0000023069A00211370079A54A81370342215
:101EF00002F020FB012306220221032062601A0067
:101F000026002360236303336161A161E061A06265
:101F1000E1626063E36322646064A264E1640B973E
:101F2000099B40AA03CB03C2524683CB83C283CB17
:101F300083C28223DB0532938F4B58461B682B608C
:101F40008D4B9B88AB800BF01DFC3BAB059337ABF7
:101F5000029332AB019340AB31000496009352469A
:101F600035AB58460395FEF72FFB143666AB9E4201
:101F7000D6D10122069B0B9F1A704346079A1B6815
:101F800011780122002901D10022013341460B6062
:101F90004B461B6810989B184A4613600BF0B8FD1F
:101FA0000023069A00211370079A54A81370342254
:101FB00002F0C0FA012306220221032062601A0007
:101FC00026002360236303336161A161E061A062A5
:101FD000E1626063E36322646064A264E1640B977E
:101FE000099B40AA03CB03C2524683CB83C283CB57
:101FF00083C28223DB053293604B58461B682B60FB
:102000005E4B9B88AB800BF0D3FB3BAB059337ABB0
:10201000029332AB019340AB3100049600935246D9
:1020200035AB58460395FEF7CFFA143666AB9E42A1
:10203000D6D10122069B0B9F1A704346079A1B6854
:1020400011780122002901D10022013341460B60A1
:102050004B461B6813989B184A4613600BF058FDBB
:102060000023069A00211370079A54A81370342293
:1020700002F060FA012306220221032062601A00A6
:1020800026002360236303336161A161E061A062E4
:10209000E1626063E36322646064A264E1640B97BD
:1020A000099B40AA03CB03C2524683CB83C283CB96
:1020B00083C28223DB053293314B58461B682B6069
:1020C0002F4B9B88AB800BF089FB3BAB059337AB69
:1020D000029332AB019340AB310004960093524619
:1020E00035AB58460395FEF76FFA143666AB9E4241
:1020F000D6D10122069B0B9F1A7043461968079B95
:102100001B78002B01D100220131434619604B4658
:102110001B681498D2184B461A6052180BF0F8FC42
:102120004B461B68002B00D096E02E980BF0F0FC7D
:10213000FEF754FC434601221B6807E64346012292
:102140001B6855E5434601221B68F8E4434601221B
:102150001B68A4E5434601221B689FE44346012215
:102160001B6844E4434601221B68FFF7EAFBC046B4
:102170001C4B0110244B01102C4B0110344B01104F
:102180003C4B0110434601221B68FFF780FB43468E
:1021900001221B68FFF72AFB434601221B68FFF759
:1021A000CEFA434601221B68FFF771FA434601222B
:1021B0001B68FFF713FA434601221B68FFF7BCF9BF
:1021C000434601221B68FFF75FF9434601221B6863
:1021D000FFF702F9434601221B68FFF7A4F84346C4
:1021E00001221B68FFF74DF8434601221B68FEF7EA
:1021F000F0FF434601221B68FEF793FF434601228E
:102200001B68FEF735FF434601221B68FEF7DEFE22
:10221000434601221B68FEF781FE434601221B68EC
:10222000FEF724FE434601221B68FEF7D2FD43461B
:1022300001221B68FEF772FD434601221B68FEF770
:10224000C2FC434601221B68FEF765FC43461B683F
:1022500000220133FEF707FC2F980BF059FCFEF724
:10226000BDFBC0468023DB051868000F7047C046E1
:102270000FB400B5084883B002F0B2FB049B002BFA
:1022800007D005A91800019102F088F9034802F06F
:10229000A7FB012002F09AF9C8410110D8410110B2
:1022A00070B5EFF3108C72B60D4D2B68002BFCD07F
:1022B000BFF35F8F0724CB08C618C05C01230C4016
:1022C000A3401C000440034207D118433070BFF301
:1022D0005F8F2C608CF3108870BD1000FFF7C8FF73
:1022E0002C0100D0F8B54746CE46884680B5EFF3BE
:1022F000108C72B6214D2C68002CFCD0BFF35F8F80
:102300009A422CD8D4080727055D061901241740E6
:10231000BC402C421FD007210127894609E0D40880
:10232000055D06194C4639001440A1400C002942B5
:1023300011D001329342F2D201204042BFF35F8FAD
:1023400000220E4B1A608CF3108800280FDBC0BCF3
:10235000B946B046F8BD254310003570EEE7BFF32F
:102360005F8F00232B608CF310880120404243468E
:10237000002BECD00898FFF77BFFC0462C0100D063
:10238000044A1078431CDBB2172B00D910231370BA
:102390007047C0465810002010B5064B064C82B05E
:1023A0000100009318221F232000FFF79BFF02B0BB
:1023B00010BDC046DC410110484C00200021044BF8
:1023C000044ABFF35F8F02C39342FAD17047C046FD
:1023D000000100D0800100D0054B064A1360064A78
:1023E000136053609360D3601361536193617047CE
:1023F0008080808000E400E004E400E01F231840B7
:102400001E3B8340002905D0C021044A4900535097
:1024100013607047802201498B50FAE700E100E029
:1024200001228240034B1B6813405A1E9341D8B2CD
:102430007047C04600E100E001238340014A136079
:102440007047C04600E200E0084B10309B688000F7
:10245000C358002B07D0064A00209B1A2F229A420D
:102460004041C0B270470020FCE7C04600ED00E0EC
:102470005C10002070B50D00EFF3108672B60F4AA5
:102480001368002BFCD0BFF35F8F0D4B10309B689F
:1024900084001B590B4A934203D09D4201D000F0A7
:1024A00091FF074B9B681D51BFF35F8FBFF35F8F99
:1024B0000022024B1A6086F3108870BD240100D000
:1024C00000ED00E0CD010010F0B557464E46DE4667
:1024D0004546E0B585B0060000911700EFF3108B7C
:1024E00072B66A4A1368002BFCD0BFF35F8F0025D9
:1024F000674B5D579A46002D00DAA9E06B00654CEA
:1025000001935B199B009846A146C1444B46524635
:102510009B7910361370604BB6009B6899590B1B62
:102520002F2B33D95D4B994200D0ACE0019B424642
:102530009C465B4B6544AD0063535A4B0232A21874
:10254000043B9B1A1B05584A5B0D651913436B80AE
:10255000564B0121AB80FF23AB71009BEF71AB6049
:102560004B460B4319004C4B9B689951BFF35F8F4F
:10257000BFF35F8F0022454B1A608BF3108805B0C4
:10258000F0BCBB46B246A946A046F0BD01200A00F9
:102590008243D3798C46BB4231D845461300444927
:1025A0001B1B5B415943090D3D4B63533D4B0235AA
:1025B0006519043B5B1B1B053B4D5B0D2B43AA467A
:1025C0004D466B800425AC465546E044131F4444F9
:1025D0001B1B1B055B0D1D434B46997100999D808C
:1025E00099604946DF71334B01431360BBE75800E4
:1025F000C01880002018C179B9422FD902000623E3
:10260000D356002BF3DA02932B4B61460393131D31
:102610009A4604235B429C46E14450464B461B1AB3
:102620001B055B0D9C46204B9571984663464046C2
:1026300003439380019B5A199200039BA418A38023
:10264000029B1C4AA371009B2260E771A3608AE78A
:1026500000F0B8FE002553465D574FE7908802937F
:102660004005131D9A46031561469C464046D444D6
:10267000634604302018181AE0230005400D1B02A1
:1026800018430390C5E700F09DFE4FE7240100D0FA
:10269000235100205C10002000ED00E0CD0100106F
:1026A00000A1FFFF8C10002000E0FFFF01BDFFFF35
:1026B000AAAA00000148804701BD000070B50124AE
:1026C0000443EFF30581EFF3108C72B6214A1368CF
:1026D000002BFCD0BFF35F8F1F4B05001F4AED1A84
:1026E0006D416A43120D1E4D8900AE6852B2765894
:1026F000A6421CD00621595691421CD0122159568F
:10270000914222D01E215956914220D02A21595659
:102710000324914210D0134B19781A708171BFF3C2
:102720005F8F00220B4B1A608CF3108870BDAB6872
:102730000D4C5C50EFE700246100091989005B181B
:10274000FF21997109499980E5E70124F4E7022402
:10275000F2E7C046240100D05C100020AAAA0000C5
:1027600000ED00E023510020CD01001001BDFFFF6E
:1027700010B5084B084C82B00100009300220523DD
:102780002000FFF7AFFD002801DB1F23181A02B05D
:1027900010BDC046F841011027510020024B9C4655
:1027A00061448900016070474000003470B5114CED
:1027B000114DAC420FD2FF262368002B0CD0FFF73F
:1027C000DFFD01002000FFF7E9FFA680BFF35F8F68
:1027D0000834AC42F0D370BDFFF7D2FD01002000F9
:1027E000FFF7DCFF2671BFF35F8F0834AC42E3D301
:1027F000F1E7C046F01700200018002010B50400D3
:10280000FFF7BEFD01002000FFF7C8FFFF23237183
:10281000BFF35F8F10BDC04610B504000120FFF765
:10282000BBFD034BC3189B002360BFF35F8F10BD3C
:1028300040000034034B9C46614489000160BFF3B3
:102840005F8F7047400000340A4B1968EFF3108027
:1028500072B60A68002AFCD0BFF35F8F1B68BFF313
:102860005F8F00221A6080F3108840BF0020002193
:102870007047C04600510020F0B5DE4657464E4630
:102880004546E0B583B0EFF3058203231340B54A14
:10289000990052580091904601229A40B24B9346BB
:1028A0001A60B24B01932EE043469B881BB2002B6B
:1028B00000DB99E043469B79002B00D0DDE04346E6
:1028C00008241C5F002C00DA06E143465A696300C5
:1028D0001B19DB00D3189D68DC686B1C00D107E175
:1028E000A34B00999C4661449A6A0B69A81A9B1AEB
:1028F000984200D20D619E4800F026FB8C4200DD1C
:10290000EAE000D126E15B4699484363434608224A
:102910009B5E9946002BC7DB424652695B0092469C
:102920004B44DB009A4453469E68DF6800F00CFB82
:102930008F42B9DC00D100E1002F00DAE1E052461D
:10294000534654691B69019A934200D1D4E0414631
:1029500052460820085E5288000421001043984720
:1029600004000D0023002B4300D1CAE0002D00DB42
:10297000E7E030003900001BA94153469860D96058
:1029800000229A5E002A8FDB43465D6953009C1843
:10299000E4002C19A768E4688C4200DD84E702D1CA
:1029A000874200D980E74646328108360DE08C42E6
:1029B00000D1D3E01E000023F25E002A0ADB5300A0
:1029C0009C18E4002C19A768E4689B18DB00EB183E
:1029D0008C42ECDD53461A804B46338043469B883D
:1029E0001BB2002B00DA65E743461A69EFF310814A
:1029F00072B61368002BFCD0BFF35F8F43469E88EE
:102A0000012342465B42938036B21369BFF35F8F66
:102A100000221A6081F31088002E00DA4AE743464C
:102A20005D69083342469C467700BF19FF00EF19E5
:102A3000BB68604698460823D15E9246FC68002930
:102A400007DA0EE0A2424FD018000023C15E002931
:102A500006DB4B005B18DB00EB18DA68A242F1DD05
:102A6000524606800023FE5E3980002EDCDA904656
:102A700043469B79002B00D121E700234246937106
:102A8000434646460821595E08364B1C24D047462B
:102A90008946556902E006004B1C18D04B005B18B4
:102AA000DB00E8180A008C46E95E43881BB2002B65
:102AB000F1DA01235B42DC178360C4604A4503D02E
:102AC00031803B8903803A81E1464B1CE6D14C467C
:102AD000B846002C00DBF8E640BF03B0F0BCBB46B4
:102AE000B246A946A046F0BD9A684245ACD9B7E7C0
:102AF000631C00D0F4E6FEE6200023699847002816
:102B000025D1534642461B8813811269EFF3108387
:102B100072B611680029FCD0BFF35F8F4246514660
:102B200052880A804246494651801269BFF35F8F3E
:102B30000021116083F31088B6E6864200D8FBE6D8
:102B4000B2E60B4800F000FA0019694115E7656824
:102B5000246807E7854200D8D5E6BDE7874200D85C
:102B600028E737E7E45000203C7005407928001042
:102B70000040054070B52E4C2569002D04D00A2177
:102B80002C48FFF70BFE70BD2B4E0321300000F0E8
:102B9000D1F9E660FFF7F4FB284B03229C46D023D3
:102BA00022701B061B6801216370254B6044A360E3
:102BB0000F23800020610220638063694942A18065
:102BC00019800231198647311D83585218315A52E3
:102BD00075325C39995218320131995218320131EB
:102BE0009952183201319952083518329D520231EA
:102BF00018329952183201319952183201319952D2
:102C0000183201319952183201319952183201317A
:102C100099520C4B0C49DC6001303562FFF72AFCFD
:102C200001210320FFF7EAFB084B1D60A7E7C04620
:102C3000A410002000510020004005404000003456
:102C4000FFFF1000E4500020792800103860054094
:102C500000487047A4100020F8B51F0008AB1B788F
:102C600004001600002B08D100F076F932003B007A
:102C7000121A8B41002B00DA53E02269EFF3108027
:102C800072B61368002BFCD0BFF35F8F0223E15EA6
:102C900063694A005218D2009B18002937DB1A8852
:102CA00062802269BFF35F8F0025156080F3108872
:102CB000069A9E60DF601A61079A5A615A8801324B
:102CC0005204520C101C002A1FD082B258800804F3
:102CD00010432669EFF3108772B63268002AFCD0E1
:102CE000BFF35F8FA2881A80A1802369BFF35F8F33
:102CF00000221A6087F310880B4923788C46013232
:102D00009A40E36863441A60F8BD0120DDE7236957
:102D1000BFF35F8F00221A6080F3108801204042C9
:102D2000F2E70020F0E7C0463C20000070B501004B
:102D30000469EFF3108C72B620680028FCD0BFF352
:102D40005F8F02200D5E4C6968004019C000241896
:102D5000002D37DB208848800869BFF35F8F00268D
:102D600006608CF31088E360638804980133206167
:102D70005B0405985B0CA26060611A1C002B1FD0DD
:102D800093B22804628018430A69EFF3108C72B67C
:102D90001368002BFCD0BFF35F8F8B8823808D805E
:102DA0000B69BFF35F8F00221A608CF310880B78D9
:102DB00001329A40CB6808498C4663441A6070BD62
:102DC0000122DDE70B69BFF35F8F00221A608CF3ED
:102DD000108801204042F2E73C20000010B54389F2
:102DE0000A1493421ADD53009B184269DB00D31882
:102DF0000469EFF3108C72B62268002AFCD0BFF38E
:102E00005F8F5A88090494B2090C8A4208D003697A
:102E1000BFF35F8F00221A608CF31088002010BD72
:102E20008022120214435C80012302698371BFF384
:102E30005F8F002111608CF31088044902788C4662
:102E40009340C268012062441360E8E73C20000020
:102E500040787047F0B5CE46474680B504000D0077
:102E600083B0EFF305878846002F3ED12E4EA14652
:102E70003378F06804339B00816A1B58601A5B1A30
:102E800098420ED320BF294900204B6AAB4203D39E
:102E90008A6A0130944231D803B0C0BCB946B0460A
:102EA000F0BD00F059F822002B00121A8B41002BC4
:102EB0002FDB1F4B2200009330002B000197FFF700
:102EC00035FF011E25DD194B5A6AAA421BD220BFCD
:102ED0003000FFF783FF154A0020536A4345DBD3D8
:102EE000926A01309145D7D908E0104900204B6A19
:102EF000AB42D1D38A6A0130A242CDD25B1B5A1EAB
:102F00009341D8B2C8E79B6A9C42E1D9AA42DFD17B
:102F1000DDE7064A0020536A4345BDD3926A01208B
:102F20009145B9D9EAE7C046A41000200040054009
:102F30004928001010B5024A0248FFF7B1F910BD48
:102F4000144201104C4C00200300416A0A00986AA8
:102F5000596A8A42FAD17047034B596A0A00986A43
:102F6000596A9142FAD170470040054070B504009B
:102F70000D00174A536A1900966A536A8B42FAD1B8
:102F80003000190024184D41AB4216D813D0104A16
:102F90002B00526A954203D90D494A6A9A42FCD3E2
:102FA0009A4207D10A4A02E0516A994202D1916AD3
:102FB000A142F9D370BDA642E9D9054B5B6A1C005A
:102FC0005A1CEFD0012301246442E5175B42E3E77A
:102FD00000400540F8B5DE464E4657464546E0B54A
:102FE0008B4605000A991800160000F0F1FA0A9BBA
:102FF0006C001F02324B64199C46A4006444636851
:1030000081469F4200D967602B1FDBB29846012B97
:1030100030D9C02380229B01E31812011A60294B8A
:10302000AD0059599A4600291BD17301E026226848
:1030300053401E40802342465B01E3181E60012A74
:1030400030D9802380229B01E31812011A60534675
:103050004A4667605A51F0BCBB46B246A946A046F4
:10306000F8BD586900F0B4FA013043001B18033B67
:10307000FDD2DAE75B46012BCBD1C02303229B01B3
:10308000E3181A60023AA3681A42FCD07301E026E2
:103090002268AD0053401E4080230A4A5B019246DD
:1030A000E3181E605A462168514003220A401A6004
:1030B00001225B469A40A3681A42FCD0C1E7C04691
:1030C00000800040504C0020F0B546464F46D646A2
:1030D000C0B51F00344B44009C462418A40064442F
:1030E000636888461600FF2B02D880235B0063606C
:1030F000031FDBB29A46012B30D9C02380229B01EB
:10310000E31812011A60294B850059599946002984
:103110001BD17301E026226853401E408023524693
:103120005B01E3181E60012A30D9802380229B01B5
:10313000E31812011A6080235B0063604B465F5105
:10314000E0BCBA46B146A846F0BD586900F040FA66
:10315000013043001B18033BFDD2DAE74346012B45
:10316000CBD1C02303229B01E3181A60023AA36863
:103170001A42FCD07301E0262268850053401E40AD
:1031800080230A4A5B019146E3181E60424621688B
:10319000514003220A401A60012342469340A2682C
:1031A0001342FCD0C1E7C04600800040504C0020D4
:1031B000014B8000C0587047504C0020F8B5040007
:1031C00021481E0017000D0000F002FA010038002F
:1031D00000F0FEF9069B36041B031E432368002BF8
:1031E00020DB1A4B1A49E3185A1E934180229201A0
:1031F00094465B421B0B174A1B0363441360164A39
:1032000013601F000A689743FBD1144B2560E21836
:103210002123A06013602368002BFCDA0823E660FA
:103220001360F8BD3F2322681340AB42D9D1A36895
:103230001B051B0D8342D4D1EE22E368D20213405A
:10324000B342CED1EDE7C046001BB7000040FDBF42
:1032500008C0004000E0004000F0004004300000E2
:1032600010B580241C4BE4051C6000281AD00123F3
:103270001A4C18431A4BDC611A4C44401C625962C8
:1032800098628021144BC9051960174817490860D6
:10329000E021C9041960002A07D18022144B1206CC
:1032A0001A6010BD0E4BD861EBE753019B1A9B00CF
:1032B0009A18802312015B049A4209D213000D4927
:1032C0000B60074B5A608022094BD2051A60E8E771
:1032D000094B1A00F3E7C04600B00540D3C007B061
:1032E000008005402D3FF84FFCFF01000820014001
:1032F00000A00540BC500020FFFFFF008023024AD1
:103300009B000B43D362704700800540142310B527
:103310000100188804331B88984710BD162310B588
:103320000100188802331B88984710BDF8B547463E
:10333000CE4680B50F1E19D01423994604330400DD
:103340000025012698464B461888434621681B886D
:10335000984701C4431E9841013540420640AF42A0
:10336000F1D13000C0BCB946B046F8BD0126F8E73F
:10337000142370B50400188804331B880D00054918
:10338000984703000020002C01DB0130A0402900F9
:103390009847C04655420000AA23064A1B01136005
:1033A0002F230549D360054B19605368002BFCDAC5
:1033B0007047C0460040024000B0FA000060024082
:1033C0007047C04610B50148FEF752FF3842011061
:1033D00070B5074D074EB54209D20024013E761B59
:1033E000B60808CD984723000134B342F9D170BD27
:1033F000603C01109C3C0110054B064A06491A60CE
:10340000064A074B1A6010000B689843FBD17047BF
:1034100000E00040BFCDFBFE08C00040FE7F3C0046
:1034200000F00040044BDB6C002B03D18022034BE7
:10343000D2021A607047C046000011504C20115053
:10344000044A054B1A60054A1368DB018033FBD13F
:103450007047C046FFFFFF0100F0004008C0004079
:103460004022034B9A675A671A67DA667047C0466C
:1034700000F0014010B5FEF7A1FF10BD70B5044D7E
:10348000044CA968C022200001F05AF8AC6070BD5D
:1034900000ED00E000000020002310B5294C82B0B0
:1034A000A367FFF779FF0122274B1A60636C012B9A
:1034B000FCD10322254B1A60224A936B012BFCD1CD
:1034C000013300930121224A22480433FFF776FE9C
:1034D000052301210093204A2048FFF76FFE0022B8
:1034E000022104201E4BFFF7EFFD002201210520E1
:1034F0001C4BFFF7E9FD0022002107201A4BFFF7C4
:10350000E3FD002200210820174BFFF7DDFD80239B
:10351000DB000093002200210920134BFFF75AFD26
:103520000022104B00210620FFF7CEFD0420FFF7FC
:103530003FFE0E4900F04CF801000020FFF7DEFED0
:1035400002B010BD008000403CB0004030B00040F0
:10355000002F685900800240008C864700C002405E
:10356000001BB70040597307006CDC0240420F009B
:1035700001480421014B1847C01000202D330010D2
:10358000124A936F9B0815D29066D166002905D028
:10359000FFE7FFE7FFE7516F106F704704B5802129
:1035A0000906C2175140002800D0C84310F008FB9C
:1035B000002104BDF0B5146E556E576F166FFFF7FE
:1035C000E3FF1466556657671667F0BD000000D02C
:1035D000114A936F9B0813D210665166002905D0DB
:1035E000FFE7FFE7FFE7516F106F704704B5002852
:1035F00001D00020C04310F0E3FA002104BDC04612
:10360000F0B5146E556E576F166FFFF7E5FF146631
:10361000556657671667F0BD000000D094464A4AC9
:10362000926F9208624601D228E0C046F0B5464E3D
:10363000346E756E776F366F00F020F89446424A0C
:1036400014665566576716676246F0BD94463E4A53
:10365000926F9208624601D254E0C046F0B53A4EED
:10366000346E756E776F366F00F04CF89446364ABC
:1036700014665566576716676246F0BD002B24DB5B
:1036800011D000293EDA00B5C943404200D10131D2
:1036900000F038F8C943404200D10131DB435242C7
:1036A00000D1013300BD002AEBD1002801D100294F
:1036B00005D00020C90FC90701D1C043410800B59A
:1036C00010F076FA0022002300BD00B500290ADBC5
:1036D000DB43524200D1013300F014F8C9434042A9
:1036E00000D1013100BDC943404200D10131DB436B
:1036F000524200D1013300F005F8DB43524200D1C1
:10370000013300BD002923D1002B18D1002A0CD091
:10371000BC460D4F38667A6600210023FFE7FFE7BD
:10372000FFE77A6F386F67467047002801D0074877
:10373000010000B510F03CFA0022002300BD020099
:103740000B00002000217047000000D0FFFFFFFFAA
:10375000002B00D0BFE0130C28D1002AE7D080B4A2
:10376000114F39667A66FFE7FFE730B4040C7B6FD0
:10377000396F1B0423433B667A66FFE7FFE7FFE7E9
:10378000C04684B27B6F3D6F1B0423433B667A6661
:10379000FFE7FFE7C04600232C042D0C7A6F386F3B
:1037A00000196941B0BC7047000000D0F0B59446E4
:1037B0000025140E01D112020835140F01D1120197
:1037C0000435940F01D192000235D40F01D152007B
:1037D0000135D40B0134254F7C66254C3C660E0C1C
:1037E00093B2FFE7FFE7FFE73C6F6643360C7703D2
:1037F000BE467343DF0B5B04C01AB941130C73431D
:10380000DB18C91ACE086643360CB64493B273432C
:103810001F0F1B01C01AB941130C73431F0B1B056B
:10382000C01AB941860D8F023E436643360C092DFE
:1038300024DB520A7243801A7703460A6643360C29
:1038400016235B1BDE40DF40BF1964466643821BC4
:103850007046043506330100D940A840C01900D392
:103860000131A24206D20023F0BD0000000000D0CA
:10387000FFFFFFFF121B0130F3D3F1E709277F1B86
:10388000FE406446A2B27243801A00D20139220C73
:103890007243130C1204821A99410B0070460435CE
:1038A00013370100F940A840801900D30131002BE3
:1038B00002D1A2420AD2F0BD013000D30131121B65
:1038C000FAD2013BF8D1A24200D2F0BD013000D3C0
:1038D0000131121BF7E7F0B51C0C00D080E00CB4EE
:1038E00000251C0A04D11B02160E334312020835B0
:1038F0001C0B04D11B01160F3343120104359C0B22
:1039000004D19B00960F334392000235DC0B02D1A9
:1039100092185B4101351C00971864410134464FF1
:103920007C66464C3C660E0CFFE7FFE7FFE7C046AF
:103930003C6F6643360C7703BE4697B27743C01B95
:1039400000D20139C01B00D201399FB27743C91B95
:10395000C91B170C77437E04FF0B801BB941CE08AF
:103960006643360C0C2D33DBB644120B1F053A436D
:103970001B0B97B27743C01B00D201399FB277432C
:10398000C91B170C77433E043F0C801BB941860DC1
:103990008F023E43664329277F1BFE400C3D77463E
:1039A000AF40BF1930BCA2B2ABB272437343801AAE
:1039B0009941220C7243130C1204801A994102009F
:1039C0000B000137001BA941F9D2781E0021F0BD80
:1039D0000C277F1BFE4077467F0BAF40FF19E0E7C7
:1039E00000245D1C07D0144F7D663966FFE7FFE7B2
:1039F000FFE7FFE73C6F95B29EB265436643401B0D
:103A0000B141150C1E0C6543664336042F0C3E4332
:103A10002D04401BB141994204D202000B0020004A
:103A20000021F0BD01D19042F7D3801A99410134B1
:103A30009942F2D3F6E70000000000D0FFFFFFFF3D
:103A400048404140484018B41B4B5B68FC4601931A
:103A500008BD04DFC73D001018B4174B1B68FC46B7
:103A6000019308BD00DFD13D00109446134A926FC8
:103A7000920809D2624618B40F4BDB68FC460193EA
:103A800008BD0CDF894000100C4AF0B5146E556E6D
:103A9000576F166F6246FFF7EEFF084A14665566C9
:103AA00057671667F0BD18B4034B9B68FC4601933B
:103AB00008BD08DF2D3F001088190020000000D04D
:103AC000FFB550404240504059404B40594000E003
:103AD000FFB5154F4C00640D03D0BC4204D10C035C
:103AE00014D80020090D09055C00640D03D0BC4208
:103AF00004D11C030AD800221B0D1B0501264B40D4
:103B000009D44B4003D58B4200D18242FFBD99427C
:103B1000FCD19042FFBD0B43DB1803431343F5D0A8
:103B2000C9434918FFBD0000FF07000000B5FFF7BB
:103B3000CFFF01D0002000BD012000BD00B5FFF780
:103B4000C7FF804100BDC04600B5FFF7C1FF01D9E6
:103B5000002000BD012000BD00B5FFF7B1FF80418E
:103B600000BD012040054A00121804D85A0012185E
:103B700001D8002070470120704700000021002874
:103B800005D17047C1174840401AFAD0C90713B58C
:103B9000064B1B6898470CBC441CA2401005120B36
:103BA0000349091B09051943114310BDFC500020AE
:103BB0001F04000010B54C00620D8023D218DB00FA
:103BC000D21A5B057E2A10DD9E3A13DACC17090360
:103BD000490819435242D140640001341532202A69
:103BE00005DAD0400843604310BD002010BD0846F0
:103BF000604310BDC80FC018013810BDC94211D3B1
:103C000000B549004908002200F018F8002904D442
:103C1000002240428A41114600BD80210906002051
:103C200000BD000018B4044BDB6EFC46019308BDD8
:103C30006CDF3942001000008819002018B4044BD2
:103C40009B6FFC46019308BD78DF574200100000CF
:103C500088190020132370B51D78012D19D014DDAB
:103C60001F48FFF75BFB06001E48FFF757FB1E4C83
:103C700080223100200000F063FC022D2DD01B4873
:103C8000FFF744FB1A4B186070BD1A4B164CA36427
:103C9000F5E7184B144C23606360A360E360236175
:103CA0006361A361E36123626362A362E3622363EE
:103CB0006363A363E36323646364A364E3642365CE
:103CC0006365A365E36523666366A366E3662367AE
:103CD0006367A367E367A364D1E7064BA364CEE7FA
:103CE0005344000053460000881900204C33000064
:103CF000FC500020953D0010244A4B0094465B0D7B
:103D00006344F0B504000D005A1C21DB5A1C35D069
:103D1000342B1CDA3326F61A3700203F1CD401213D
:103D2000B9400B000121B1400A0012196B41002F6C
:103D30001EDB0224BC4021000224B44020001600F7
:103D4000002544428D4126402B4030001900F0BD33
:103D5000CB0F0020D907FAE720210120891BC8409A
:103D60000121B14003000A0012196B41002FE0DA73
:103D700020240225A41BE5402900DDE7CB0F044ADF
:103D8000DB071A4300201100E1E7C04601FCFFFFFA
:103D90000000F03F07B5604601880A0A0230DF2ABA
:103DA000FAD1C9B2820804D30288408800041043C3
:103DB00000E00068014A5050039007BD88190020B8
:103DC0000FB403BC0CBCF0B50124E407634000E071
:103DD000F0B50C0DCF0F661E3605891B640503D3A5
:103DE000C943404200D30131640D03D0661CF60A7A
:103DF00007D0E41B00207F00791C89078912803CD2
:103E000024031D0DDF0F6E1E36059B1B6D0503D3AE
:103E1000DB43524200D301336D0D03D06E1CF60A12
:103E200007D0ED1B00227F007B1C9B079B12803D6F
:103E30002D032F1B661B58D4A446202E46DA2037AC
:103E40001400BC401D00BD40F24033412A4380189D
:103E50005941CB0F05D0C943C043002264425041B1
:103E6000514162464D0D28D10D0D07D100281FD0BC
:103E7000241940414941013A0D0DF9D0640006D39F
:103E8000013000D30131002C01D140084000013A3B
:103E90000BD4941CE40A04D112051144DB07194425
:103EA000F0BDD907204B194300E0D9070020F0BD31
:103EB0000029DDD1002CDBD1F0BD0132C60740085E
:103EC000CD0728434908002EE1D0D9E73C2E29DA56
:103ED000203E40371400BC4000D00124F24014437F
:103EE0001A00BB401C43D317ACE7AC46202F08DABE
:103EF00020360400B4400D00B540F8403941284355
:103F0000A5E73C2F0CDA203F40360400B44000D037
:103F10000124F84004430800B1400C43C117EAE70C
:103F200010001900002494E70000F07FF0B50C0D9C
:103F3000661E3605891BE60A6405640D02D0651C01
:103F4000ED0A04D0002001210905803C2403A44689
:103F50001C0D671E3F05DB1BE70A6405640D02D0DC
:103F6000651CED0A04D0002201231B05803C2403BC
:103F70007740644497B484B296B27443070C7E438E
:103F8000150C6F4380B26843361802D30120000439
:103F90003F183004350C00197D41844688B29AB22E
:103FA00050430C0C62431F0C7C438EB27E4392192B
:103FB00002D301263604A4191604170C36186741DB
:103FC00001BC81B29AB25143040C62431B0C5C43A6
:103FD00080B25843121802D30120000424181004A0
:103FE000130C401863412D185E410020474106BC68
:103FF00088B293B258430C0C6343120C544389B2F9
:1040000051435B1802D301210904641819041A0CE6
:10401000091862416D1856410020474118BCF90249
:10402000720D1143F0026A0D1043ED020A0D03D127
:104030006D1940414941013B124E9B1B7600B34232
:104040000ED26D0007D3013000267141664635431C
:1040500001D1400840001B05C918E4072144F0BD08
:104060000BDA013306D1013004D101314F0D01D0FB
:104070004908F2E7E1070020F0BD013631050020D4
:10408000EBE70000FF030000F0B51C0D671E3F05C5
:10409000DB1BE70A6405640D02D0661CF60A04D037
:1040A000002201231B05803C2403D0252D06002679
:1040B000F6432E661E096E66CE0FF619B446490009
:1040C0004F0D02D07E1CF60A03D000200021403F95
:1040D0003F033E1BB600B444013F7F05C91B49089E
:1040E0002E6F013676089C02950D25437543ED131E
:1040F0007543AD1301356D10F603761B0CB4CC027D
:10410000450D2C43A2B2B3B25A43270C7B43350C66
:104110006F43A4B26C431B1902D3012424043F193A
:104120001C041D0CA4187D4124196D41009A91B204
:10413000ACB26143170C7C432B0C5F4392B25A43E1
:10414000A41802D301221204BF182204230C52180F
:104150007B41019C6C431B19520ED9010A43440157
:10416000A01A81B2B2B2514303145A43360C7343BE
:1041700087B27743D617D21900277E4136049B19A0
:104180001704160C7F185E417316ED18F301002614
:1041900080337541A90F06D16400690AE8055B0AFE
:1041A000184309D22FE00422944480337541A90AB0
:1041B000A8059B0A184326D3404149412404009A8C
:1041C000019B0D005543641B4343E41A95B286B22C
:1041D0007543170C7E43030C5F4392B25A43B618E3
:1041E00002D301221204BF183204330C52197B414E
:1041F00052429C41002C02D400220130514140081F
:10420000CA071043490802B06246D7079210084B0C
:10421000D218084B9A4203D212058918C919F0BD69
:104220000020002A01DC3900F0BD01331905F5E753
:10423000FD030000FE070000002200B500F00DF8AD
:10424000CA179A4200D100BDD8430121C907414095
:1042500000BD000000220B150AD410B5944600F0F2
:1042600031F81414013400DA0021CB17144C204724
:104270000020002170476244343A0CD40C2A07DA3B
:1042800004009140904052422032D440214310BD5E
:10429000D843D94310BD203207D40C469440524233
:1042A00020321141D040204310BD0800C9172032F0
:1042B00003D452422032104110BD1800190010BD25
:1042C000774200100A0DCC0F531E1B05C91A520568
:1042D00003D3C943404200D30131520D03D0531CD4
:1042E000DB0A07D0121B00206400611C89078912B9
:1042F000803A1203014BD21A70470000FF030000FE
:1043000051434343C9188C46110C83B24B4310B43C
:10431000040C614392B280B2504362431C041B0CF4
:10432000001910BC59411304120CC01851416144CA
:10433000704700004840414048400E4B5B681847BA
:104340000C4B1B6818470C4A936F9B0802D2094B11
:10435000DB681847F0B5146E556E576F166FFFF790
:10436000F6FF054A1466556657671667F0BD014BA0
:104370009B681847881A0020000000D007B5484005
:104380004140484001E0C04607B54200120E03D04C
:10439000FF2A03D1420218D8C00DC0054A00120EF0
:1043A00003D0FF2A03D14A020FD8C90DC905012243
:1043B000414005D4414001D5814207BD884207BD37
:1043C0000143491801D0C043001807BD00B5FFF7ED
:1043D000DBFF01D0002000BD012000BD00B5FFF7CC
:1043E000D3FF804100BDC04600B5FFF7CDFF01D926
:1043F000002000BD012000BD00B5FFF7BFFF01D9BF
:10440000002000BD012000BD00B5FFF7B7FF8041CF
:1044100000BD0000034BDB6FFC4618477CDFB9444E
:1044200000100000881A0020132310B512481C78D1
:10443000FEF774FF0100012C0AD003DD80220F4833
:1044400000F07EF80E48FEF761FF0E4B186010BDBD
:104450000A4C5422200000F073F80B4B6365A365EF
:10446000E36523666366A366E36623676367A36702
:10447000E3672362E361E5E753460000881A002002
:104480004C330000FC5000208D44001007B56046FE
:1044900001880A0A0230DF2AFAD1C9B2820804D39D
:1044A000028840880004104300E00068014A505030
:1044B000039007BD881A0020C30FDB0741000A0ED6
:1044C00007D0FF2A08D00909054A8918194340076F
:1044D00070471900002070470249C918FAE7000028
:1044E000000000380000F07F70B504000A4E300074
:1044F0000FF0AEFB20000CF041F9050030000FF08A
:104500004FFB002D05D0054B2C199C4201D82800EB
:1045100070BD0348FDF7ACFEF0170020000004203A
:104520004442011001480421014B1847D0100020DB
:104530002D330010014B1B6818470000D0100020DD
:10454000014B5B6818470000D010002010B5002810
:1045500000D110BD00F0F8F9FBE7C0460FB430B54C
:104560000C4985B008AA08CA0D680392002D0CD02A
:1045700000920122084C5242200002A9A8470120C3
:1045800005B030BC08BC04B01847180000F028FA89
:104590000020F5E7B85000204D45001010B5094A3D
:1045A0000300146884B0002C08D001220091064852
:1045B000524203A9A047012004B010BD00F010FA38
:1045C0000020F9E7B85000204D45001000BEFDE77F
:1045D000094A03001068002805D00849C3188B4217
:1045E00007D81360704706480449C31810608B420F
:1045F000F7D901204042F5E7B04C0020000004202C
:104600002851002000207047012040427047C046DA
:10461000030010B508001100002B05D1044B1A68E7
:104620005B6800F033F910BD01204042FBE7C04653
:10463000484B01100300013B10B508001400012B8A
:1046400006D801230022210000F0A0F8200010BDB0
:1046500001204042FBE7C046012040427047C0466F
:10466000012040427047C046012040427047C0468A
:104670000300022200209A424041704710B5FFF724
:10468000A5FFC04630B50D0083B01900002A0BD03D
:10469000074B084C0192009302002B002000FFF70B
:1046A0005DFF0120FFF792FF034B1A00F1E7C046C0
:1046B000A4420110B4420110C441011070B5FEF7CC
:1046C00087FE074D074EB54209D20024013E761BF6
:1046D000B60808CD984723000134B342F9D170BD24
:1046E0009C3C0110A83C0110030010B5080011000B
:1046F0001B68984710BDC046F0B5C64600B5437D5F
:1047000007000D001600002B38D0002A2EDD0021F6
:104710006A1E90466A5C037D4C1C00200A2A0CD05D
:10472000A64216D043461B5D21000D3B5A42534121
:104730006A5CDBB24C1C0A2AF2D1002BF0D1884211
:1047400017DB022110483B689847A64207D020009B
:10475000E8E7864203DD311A3B6828189847AD190F
:10476000013D2B780D3B5A4253413B7580BCB84606
:10477000F0BD091A3B6828189847E2E70368110062
:1047800028009847F2E7C046A44B0110F0B5DE467A
:1047900057464E464546E0B585B017001C0006005A
:1047A0000D00FEF7D9FB0023314A12184B4180213E
:1047B00009068B4202D301222E4B52422E49080099
:1047C0008A460FF025FA01906B1C03D1300009F0E6
:1047D00039FF0500002C26D0284B9846284B1C6832
:1047E000002C15D0002F21D1264F02E02469002C87
:1047F0000ED02368002BF9D03B68002B01D09C42DF
:10480000F4D120002A003100C0472469002CF0D1E7
:10481000019B002B28D1280005B0F0BCBB46B24656
:10482000A946A046F0BD184B9846D7E7154B9946C8
:1048300002ABDF1D0A239B4602E02469002CE7D06F
:104840002368002BF9D04B461B68002B01D0A342F4
:10485000F3D12A0031002000C0475B460122390015
:1048600020003B70C047E8E750460FF099F9D2E7C7
:1048700040420F00FFFFFF7FF8170020F9460010AD
:10488000A04C0020AC4C0020E9460010F8B557467B
:104890004E464546DE4698461A4BE0B59B461A4BB7
:1048A00007000E0091469A46184D5B461C68002C86
:1048B00003D115E02469002C12D02B68002B01D005
:1048C000A342F7D1A368002BF4D0310038009847F9
:1048D0000028EFDDF0BCBB46B246A946A046F8BDB5
:1048E00053465B6A984508D85246926A4A4502D3B5
:1048F00002204042EEE79845FAD101200021FEF760
:1049000035FBD2E7A04C002000400540AC4C002015
:104910000A4A1368002B05D10CE01A001B691032FB
:10492000002B07D09842F8D1002902D10369136007
:10493000016170470029FCD01060FAE7A04C00200C
:1049400010B500F08DFA10BDF0B5CE46474680B5E3
:1049500083B06B460600DD1D2870FEF7FDFA0023CC
:104960001A4A12184B41802109068B4202D30122B8
:10497000174B52421749080088460FF049F9164B69
:1049800081461C68002C14D0144F02E02469002CCE
:104990000FD02368002BF9D03B68002B01D09C423C
:1049A000F4D1200001222900FFF7A6FE2469002C83
:1049B000EFD14B46002B05D1300003B0C0BCB94647
:1049C000B046F0BD40460FF0EBF8F5E740420F006F
:1049D000FFFFFF7FF8170020A04C0020AC4C002008
:1049E00070B5040009F02EFE01230100050001222C
:1049F0002000FFF7CBFE084B1C68002C06D0636834
:104A0000002B05D098472469002CF8D1280070BDF0
:104A10002469002CF3D1F9E7A04C00207047C04670
:104A20000022014B1A707047245100204B7900205E
:104A3000FF2B0BD18B79002B08D1CB79012B05D122
:104A4000082A03D9024B8A7809301A707047C04689
:104A5000245100200120704710B5012901D0012008
:104A600010BD13495379107909781B0203430020C4
:104A70009942F5D15378012B08D0022BF0D10020B8
:104A800064220021FEF7ECFB0120E9E7D37891785E
:104A90001B021943DB0507D54A0A100001231A40FF
:104AA0007E331940FEF764FC01204A0A4042F5E7D4
:104AB0002451002000487047704C011070B505006B
:104AC00014000120012909D153780020012B05D1C0
:104AD000637912791B021343072B00D070BD2100AC
:104AE0002800024A9F3301F049FAF7E7C84B01104A
:104AF0000123037000487047A84B01104B780A78D7
:104B00001B0213438A7810B512041A43CB781B0694
:104B100013439622D200934200D010BD0022012000
:104B200011004042FEF724FC024B1860024B196052
:104B30007047C046404C0020444C002010B5024B4A
:104B40001878FDF779FC10BD25510020154B70B584
:104B50001A68002A22D0EFF3108172B6106800287C
:104B6000FCD0BFF35F8F00200F4A596010701B68A4
:104B7000BFF35F8F186081F31088002400250B4E6F
:104B80003078FDF74DFC002804D1002400252900D1
:104B9000200070BD3078FDF74FFCF8E7FA240025BF
:104BA000A400ECE7DC500020265100202551002015
:104BB00070B5040000200E0001F0F8FA002836D08D
:104BC000002001F00BFB002831D0FEF7C5F90023CF
:104BD000184A12184B41802109068B4216D2164DF5
:104BE00028000FF015F8002821D0002001F0DEFA8F
:104BF00000280FD101200021404200F0F3FC0324E3
:104C0000644228000EF0CCFF200070BD01220B4B47
:104C10005242E4E7002001F0E1FA0028EAD0210046
:104C20003200002001F0E6FA041EEAD1E7E703248F
:104C30006442E9E740420F0004510020FFFFFF7F7C
:104C400010B5FEF789F900230E4A12184B41802156
:104C500009068B4202D301220B4B52420B4C20001F
:104C60000EF0D6FF00280CD001200021404200F0B9
:104C7000B9FC002001F00AFB0028F5D120000EF05D
:104C80008FFF10BD40420F00FFFFFF7F0451002047
:104C9000F8B5DE46574680B505000C00FEF75CF916
:104CA0000023374A12184B41802109068B4202D358
:104CB0000122344B5242344908008A460EF0A8FFC4
:104CC000002803D1C0BCBB46B246F8BD002001F0AD
:104CD0006DFA00284AD00026002C43DD2B4B9B4662
:104CE00014E0A919002001F00DFB070001200021AC
:104CF000404200F077FC002001F0C8FAFEF72CF9E2
:104D0000224BF61918605960B4422BDD002001F0E7
:104D100019FBA71B0200B84200DD3A00002AE0D1CF
:104D200001200021404200F05DFC002001F0AEFABD
:104D3000002001F03BFA002814D0002001F002FB13
:104D40000028E1D1FEF708F95B460F001A685B689E
:104D5000002184460E4812184B419F4202D8D3D1FD
:104D60009445D1D950460EF01BFFABE7002000213F
:104D7000064B1860596050460EF012FFA2E7C0467D
:104D800040420F00FFFFFF7F0451002080190020E8
:104D900020A1070030B52B4C85B0002120000EF07B
:104DA00017FF00281CD1284B1A68002A16D0EFF3F1
:104DB000108172B610680028FCD0BFF35F8F012409
:104DC0002248596002781B68D2B20470BFF35F8F2B
:104DD0000020186081F31088002A17D005B030BD7C
:104DE00001200021404200F0FDFB002001F0F6F917
:104DF000050020000EF0D4FE002DEFD0144B1B68F0
:104E0000002BEBD0134A10689847E7E7FDF720FF27
:104E10000400FEF7A1F8FA220023920012184B4179
:104E2000802109068B4202D301220B4B5242012101
:104E3000029100210191094920000091FDF70CFF2A
:104E4000CCE7C04604510020DC5000202651002051
:104E5000404C0020444C0020FFFFFF7F4D4B0010D2
:104E6000D02310B51B0684B01C68FDF7F1FEFDF7DA
:104E7000EFFFA04202D0002004B010BD294B1B78E8
:104E800001F06AFD28480368002B47D00120FDF798
:104E90006FFCFF23254C264920701840FDF7EAFAE5
:104EA00020780121FDF7AAFA0520FDF7CDFA0028A8
:104EB00026D1082200211F48FFF73CFBFDF7C8FE62
:104EC0000400FEF749F8FA220023920012184B4121
:104ED000802109068B4202D30122174B5242012145
:104EE000029100210191154920000091FDF7B4FEC7
:104EF0000028C0DB12480121FFF70AFD0120BBE7B3
:104F00000120FDF749FA0B4B01001800FDF792FC58
:104F1000002205200B49FDF7D7FAEBE7FDF76EFC01
:104F2000B4E7C0460C540110045100202551002064
:104F3000954D0010DC500020FFFFFF7F4D4B00100F
:104F4000E01000203D4B0010004870470C4D011050
:104F500000487047B84C011010B50400174803789A
:104F6000002B20D0002C06D1154B16484380063B61
:104F7000FF3B038010BD052C19D8134BA400E0584B
:104F800012490123013804E001330A800231142B55
:104F90000FD0C25C002AF7D1C022DBB25B009200C6
:104FA00008481343E5E7112100F01AF8DAE700207A
:104FB000E0E7CA2303489B00DBE7C0460C51002012
:104FC00009040000784C0020A04C01107A4C00200D
:104FD00010B5024800F0D8F810BDC046F4500020CB
:104FE00030B54B1E012900D1A7E0664A11780D09A2
:104FF0002C0030349F2900D9A2E00470012B00D18D
:10500000BEE00F21147821400C003034092900D96A
:1050100098E04470022B00D1B2E0547825092900B1
:1050200030319F2C00D990E08170032B00D1A7E094
:105030000F2121400C003034092900D987E0C470C9
:10504000042B00D19CE094782509290030319F2C55
:1050500000D97FE00171052B00D191E00F212140A3
:105060000C003034092900D976E04471062B00D1B8
:1050700086E0D4782509290030319F2C00D96EE0D4
:105080008171072B00D17BE00F2121400C003034CF
:10509000092966D8C471082B00D171E0147925095B
:1050A000290030319F2C5FD80172092B68D00F2165
:1050B00021400C003034092958D844720A2B5FD0A3
:1050C00054792509290030319F2C52D881720B2B3D
:1050D00056D00F2121400C00303409294BD8C4721E
:1050E0000C2B4DD094792509290030319F2C00D903
:1050F000073101730D2B43D00F2121400C003034B8
:10510000092901D937310C0044730E2B38D0D179DD
:105110000C09220030329F2900D9073282730F2BED
:105120002ED00F220A4011003731092A01D830321F
:105130001100C173102B23D010300023037030BD39
:1051400007345AE737310C0063E707316CE7373132
:105150000C0074E707317DE737310C0085E7073134
:105160008EE737310C0095E707319DE737310C00AA
:10517000A3E70731AAE737310C00C4720C2BB1D179
:10518000C018DAE7F450002010B588B004000D22F2
:1051900000216846FFF7CEF90D22002104A8FFF791
:1051A000C9F94B236A466846137004A90D220EF014
:1051B000EFFC1521082220006944FFF7C1F908B06F
:1051C00010BDC046F8B500F03BF90C23184DFF2286
:1051D000AB6705201749FDF777F9174C40220021EE
:1051E0002000FFF7A7F94027002301262121134AB9
:1051F00066702783A260136063545F316184453910
:1052000063540F4A0F496360E2602787A1620B6015
:105210006362E2620EF0B4FC80239B052E64EB64B3
:105220009023094AEA508022084B5202DA64F8BD02
:1052300000001150E9040020B44C002084001050FC
:10524000000110508000105010D0010000201150BB
:1052500010B501210520FDF7D1F810BD10B50022D1
:105260000021024800F00CF910BDC046D44C0020CB
:10527000044B1970002904D080219023024A89022E
:10528000D150704720510020002011500B785B0650
:1052900002D14B78052B00D070478A78014B1A60F9
:1052A000FAE7C04600001150F0B5C64600B5CC780C
:1052B00088780A794B797F21A40701401B02C50930
:1052C00013434F00A20F1400324E7A195201B21844
:1052D000907001206840507000205B055B0DD0701D
:1052E0001383D4768046CA00012D33D02A488446E1
:1052F000880162448446B44460468260404610603F
:10530000002933D0254AC900904662464144516085
:105310003F223F339343022C00D15B0020487A198F
:1053200001685201B218D1601E4ACB180360514087
:105330005A40802388465B019A4228D84346A406F7
:105340001C4380237F197F01F61972681B062343D3
:10535000136011E014488446880162448446B444D2
:105360006046826240461060002909D100236D0129
:1053700075196B600D4BEB60012080BCB846F0BD29
:10538000084AC9009046624641445162C0E7FEF7B0
:1053900019F8D3E7B44C00208400105004001050DA
:1053A000C05000200000105080001050000110502C
:1053B00010B50EF0E5FB10BD10B57F200C002040AD
:1053C0004000E409110000191A00034B4001C01805
:1053D00000F056F8012010BDB44C00207F231800C7
:1053E00010B50840CA090B4203D107497D3B9B1AFF
:1053F0008B66400080188022044B40010021C018B9
:1054000012010EF01DFC10BD00201150B44C002004
:105410007F22130010B50B400A4200D110BDC9090C
:105420005B005B1804485B01C0180023002203499D
:10543000C3700EF005FCF1E7B44C0020FFF7FFFF4E
:1054400080220A4B520410B51A60094B09491A60B0
:1054500010000B689843FBD18022002152010648BE
:10546000FFF768F80922054B5A6710BD00E00040BD
:1054700000F0004008C00040000010500000115033
:10548000002310B5C3820133828283760161040058
:105490000EF0A6FB002804D080219023074A890241
:1054A000D15020000EF0C4FB002802D00123237746
:1054B00010BD20000EF0B4FBFAE7C04600201150EA
:1054C0007047C0467047C0460020704700207047B4
:1054D0007047C0467047C0467047C0467047C046D8
:1054E000024B5878431E9841C0B27047584700207D
:1054F000024B18784007C00F7047C046584700203D
:10550000F8B54746CE4680B52B4F06003B78FF2BBB
:1055100004D00120C0BCB946B046F8BD00215422D9
:105520002648FFF707F80022254C264B20001A706A
:10553000FDF764F9244B1C60244C2000143CFDF75B
:105540006BF9200001F0F2FD214B224D1C60224B33
:10555000002B27D02800FFF7CBFA204B2A781860C1
:105560001F49002489461D490023884610E0434610
:105570001B6862019B18002B12D05B68002B0FD0B8
:1055800098472A780134E4B2511C2300A1420BDB76
:10559000A242ECD89B1A5B014B445B68002BEFD115
:1055A0000020B7E72A78DBE730003E70FFF70AFEFD
:1055B0003000FFF74DFEACE71411002058470020E3
:1055C0001047002021510020AC4700200C11002082
:1055D000B04700201F510020F14A00102C44002049
:1055E000C84D0110F0B5DE4657464E464546E0B57B
:1055F000C84B91B002931B78FF2B00D13EE1C64B04
:10560000C64E9B465F46C64B0DAC0193C54B0093FF
:1056100035686A69EFF3108172B61368002BFCD00D
:10562000BFF35F8FA9612800210001F0ADFB6A691B
:10563000AB69BFF35F8F0021116083F310880028EE
:1056400000D11BE16378082BE2D89B00FB589F46F2
:105650006368002BDCD0A0689847D9E77F222179C6
:10566000AF4D0A405300EB189846C80980444046A5
:105670000123303005799D430571057903339D433E
:105680000571002A00D100E14346A74A1B7D12782C
:10569000934200D3EFE0A54A5B011568ED18002D99
:1056A00000D1EBE0A36862792078AD69A847AFE745
:1056B0009F4A1378002B00D1E0E01378013BDBB266
:1056C00013701378002BA3D10122954D01212B7863
:1056D000042013432B703423EA5C8A43EA54EA5CC7
:1056E0008243EA540133EA5C8A43EA54EA5C824327
:1056F000EA54237800209B4600F0A0FC6022237926
:105700001A40602A00D1EFE0402A00D1F5E0DB0624
:10571000DB0E012B00D113E1022B00D1C7E0002BDF
:1057200000D0E1E0202A00D11CE2002A00D0DBE01A
:105730006379092B00D9D7E07E4A9B00D3589F4656
:10574000774D2B78DB0700D462E7FFF7C7FE5FE7F2
:10575000019BDB78DB0700D45AE76068FFF7B2FEF5
:1057600056E76F4D2B78DB0700D451E72878000708
:10577000C00FFFF7B1FE4BE723786A4999468B4685
:10578000694B6A4998468A4639001A784746002389
:10579000B04600254E46894610E053461B686A0114
:1057A0009B18002B00D176E0DB68300098473A78F0
:1057B0000135EDB2511C2B008D4244DC9542ECD3F7
:1057C0009B1A5B015B44EFE7237858499946564B97
:1057D0008A4698463100BB464E461A78002500237B
:1057E000474689460FE053461B686A019B18002B09
:1057F00055D0DB68300098473A780135EDB2511C3E
:105800002B008D4207DC9542EDD39B1A009A5B0179
:1058100094466344EDE7019D542200212800FEF7E1
:1058200089FE1022FF214448FEF784FE2800202232
:10583000FF2114304E465F46FEF77CFE00F0F4FB7D
:10584000FFF748FEE4E6364D542200212800FEF71B
:1058500071FE1022FF21281DFEF76CFE2800202279
:10586000FF21143046464F46FEF764FE00F0DCFB95
:105870002379AB70CCE6501C984213DA11B0F0BC1F
:10588000BB46B246A946A046F0BDA368627920781F
:1058900000F0E8FBBCE646464F46214DE6E74E46A3
:1058A0005F46CBE71F4D9B1A5B015D19FAE670233B
:1058B000217A0B4218D1C80982460F330B405B0096
:1058C00098461948EB1853441B7D0078994683424B
:1058D00066D216485B01006881469944002A00D1CF
:1058E0005FE14B46002B68D120780021FFF776FD61
:1058F00080212078FFF772FD8AE6104800F09EFBB9
:10590000012158460EAAFFF7D9F8002800D07FE6FB
:10591000EAE7C04614110020204D0110B0470020D6
:1059200058470020C84D01101F5100202C44002072
:1059300021510020444D01105C470020BD4A001059
:10594000237A0F2BD0D8CF4AEB181B791578AB42AE
:105950003ED3691C9942C7DB5D1BCB4B6D01ED1833
:10596000686900F06BFB012158466B690EAA9847E5
:10597000002800D04CE66022150023791D401A4211
:10598000B2D163790A3B012BAED800F057FB6379A3
:105990000A2B00D199E158460EA900F0D9FA37E652
:1059A000431C4B4500DAF7E04B461B1A5B01994656
:1059B000B5488144002A00D1F3E04B46586900F015
:1059C0003DFB4B46012158465B690EAA98479CE770
:1059D000AE4A5B011568ED18002DC1D184E7A379AB
:1059E00099466B789945D6D06B78002B00D033E17F
:1059F0004B466B70002B00D12BE148460138C0B2FA
:105A0000FFF7A6FA002800D17EE143780793022B26
:105A100000D079E10122C179B1468B1149111340BF
:105A20000A40302112015B0113432A78A8468A43B9
:105A300013432B7009239A4682445646BA46C378CC
:105A400082781B021343C31805938E4B04938E4B2D
:105A500008938E4B09938E4B0A93059BB34200D853
:105A600055E1737801220B2B03D13378F278F618C5
:105A70007378042B00D044E1059B00279B1B9BB24D
:105A80000693049B0B921D78002303931BE0099A55
:105A90007B011568ED18002D00D132E13100584628
:105AA0002B69069A98478446082803D9069A8242A9
:105AB00000D313E1049B01371D78FFB26B1C0397E1
:105AC0009F4200DD1DE1BD42E1D8039B5D1B089BA9
:105AD0006D019C466544E1E76B780CAA02321370B5
