:020000041000EA
:1000000000B5324B212058609868022188439860DF
:10001000D860186158612E4B002199600221596106
:100020000121F02299502B49196001219960352056
:1000300000F044F80222904214D00621196600F024
:1000400034F8196E01211966002018661A6600F04E
:100050002CF8196E196E196E052000F02FF8012189
:100060000842F9D1002199601B49196000215960AB
:100070001A491B48016001219960EB211966A021F2
:10008000196600F012F800219960164914480160C1
:100090000121996001BC002800D000471248134993
:1000A000086003C880F30888084703B5996A0420EC
:1000B0000142FBD001200142F8D103BD02B5186610
:1000C0001866FFF7F2FF186E186E02BD00000240BE
:1000D000000000180000070000035F00212200005C
:1000E000F4000018222000A00001001008ED00E03C
:1000F00000000000000000000000000074B24E7A12
:1001000000200420F7010010C3010010C5010010F9
:10011000C1010010C1010010C1010010C101001097
:10012000C1010010C1010010C1010010C701001081
:10013000C1010010C1010010C9010010CB01001065
:10014000CD010010CD010010CD010010CD01001037
:10015000CD010010CD010010CD010010CD01001027
:10016000CD010010CD010010CD010010CD01001017
:10017000CD010010CD010010CD010010CD01001007
:10018000CD010010CD010010CD010010CD010010F7
:10019000CD010010CD010010CD010010CD010010E7
:1001A000CD010010CD010010CD010010CD010010D7
:1001B000CD010010CD010010CD010010CD010010C7
:1001C00000BE00BE00BE00BE00BE00BEEFF3058054
:1001D000103800BEF2EB8871A0170110C017011093
:1001E0003802001090A31AE71E481F49086006C88D
:1001F00081F3088810471D480068002801D019487D
:10020000F3E70DA40ECC002902D000F012F8F9E7B4
:100210001749184A002000E001C19142FCD116495B
:100220008847164988471649884700BEFDE701C937
:1002300001C29A42FBD37047C0170110C0000020D2
:10024000301900203030011000000420000004208C
:1002500030300110001004200010042000000000C5
:10026000704700000000000008ED00E0000000D032
:100270003019002058520020714000108D070010E6
:1002800031400010F8B5C04606480749091A8B10DE
:10029000C90FC91810B5491003D0044B002B00D06A
:1002A000984710BD301900203019002000000000D0
:1002B000054B10B5002B03D00449054800E000BFF2
:1002C000FFF7E2FF10BDC04600000000F45100201F
:1002D000E8FA0010F0B5DE464E46454657469846C9
:1002E000FE23E0B59B05D9B0079392460023012277
:1002F000040008A889460892099307F0BDFB050091
:100300000BA80200434B42CB42C207F0B5FB0600EC
:100310000DA806F029FE0023039307AB22000293E9
:100320000DA902230196009514A806F057FE00229D
:10033000002114A806F0A0FE00284CD114A806F055
:10034000EFFE002858D143460024002B32DD324B0B
:100350000593324B9B4604E0AE4232D10134444512
:1003600028D053461E574B461D57701BAE42F3DD37
:1003700003F0BEFCFE21890503F0B4FC0028EDD09B
:10038000300002F0A7FF0A23FF3303935B46060009
:1003900028000F00029302F09DFF32003B00009006
:1003A0000191059807F0E0FA01221D4B01341A7003
:1003B0004445D6D159B0F0BCBB46B246A946A0468A
:1003C000F0BDA81B03F094FCFE21890503F08AFC14
:1003D0000028C3D0D4E70622124C00230090FF323D
:1003E00020000E4907F0C0FA01220D4B14A81A7024
:1003F00006F096FE0028A6D083220B4C0023009026
:1004000052002000054907F0AFFA0122044B1A7090
:1004100099E7C046400F0110C4FB0010E8FA001035
:100420004D5200204CFB00108CFB0010F8B54746E5
:10043000CE4680B5070018000C009146984607F09C
:10044000A5FA002823DD80004D46261805E07F2010
:10045000043428700135A64219D01B49206803F0E6
:10046000F0FB03F09FFC03F007F80022002302F0EA
:100470009BFE02F047FF7F28E9DC03008033E7DAC8
:1004800080200434404228700135A642E5D143461D
:100490007B610023FB607B60BB774B463B6109239C
:1004A0004046BB8307F072FA0400092006F05CFBAB
:1004B000054B6043BB600123B8613B603800C0BCA2
:1004C000B946B046F8BDC046CDCCCC3DF0B5DE4611
:1004D00057464E464546E0B51D00FE23D9B09B0564
:1004E0000793914600230122040008A88846089239
:1004F000099307F0C1FA06000BA80200434B82CB18
:1005000082C207F0B9FA07000DA806F02DFD0023FE
:10051000039307AB220002930DA9022301970096D3
:1005200014A806F05BFD0022002114A806F0A4FD2B
:1005300000284DD114A806F0F3FD002859D16B0016
:100540009A460024002D33DD314B0493314B9B46FA
:10055000314B059304E0AE4231D10234544527D0EB
:100560004B461E5F43461D5F701BAE42F3DD03F03A
:10057000BFFB629903F0B6FB0028EED0300002F01A
:10058000A9FE0A23FF3303935B46060028000F00F1
:10059000029302F09FFE32003B000090019104980C
:1005A00007F0E2F90123059A023413705445D7D1BC
:1005B00059B0F0BCBB46B246A946A046F0BDA81B48
:1005C00003F096FB629903F08DFB0028C5D0D5E7B8
:1005D0000622124C00230090FF3220000D4907F044
:1005E000C3F901220C4B14A81A7006F099FD0028DB
:1005F000A5D083220A4C0023009052002000054918
:1006000007F0B2F90122044B1A7098E7400F01106D
:10061000C4FB0010E8FA00104D5200204CFB001003
:100620008CFB0010F0B5DE464E4657464546E0B519
:100630001F00FE23D9B09B05079392460023012299
:10064000040008A889460892099307F015FA0500E6
:100650000BA80200464B42CB42C207F00DFA06003F
:100660000DA806F081FC0023039307AB2200029340
:100670000DA902230196009514A806F0AFFC0022F4
:10068000002114A806F0F8FC002852D114A806F0A6
:1006900047FD00285ED1002F44DD364B00249846EC
:1006A000354B9B460AE0301C03F0C5FA334903F092
:1006B00019FB00281CD10134BC4233D05246A300A0
:1006C000D6584A46D558301C291C03F00BFB291C70
:1006D0000028E8D1301C03F0F7FA0028EBD1311CD8
:1006E000281C03F0A8FA254903F0FCFA0028E2D000
:1006F000301C03F057FB0A23FF3303935B4604903F
:100700000591281C029303F04DFB049A059B009071
:100710000191404607F028F90122194B01341A7063
:10072000BC42CBD159B0F0BCBB46B246A946A046AC
:10073000F0BD0622134C00230090FF3220000E492A
:1007400007F012F901220E4B14A81A7006F0E8FC0B
:100750000028A0D083220C4C0023009052002000DF
:10076000054907F001F90122054B1A7093E7C046CD
:10077000400F0110C4FB0010E8FA0010ACC5273789
:100780004D5200204CFB00108CFB0010F0B5DE46F3
:1007900057464E464546E0B57E4CA54407F05CF909
:1007A0007D4BACAF9A467D4B99467D4B20937D4B5C
:1007B00002937D4B03937D4B0B937D4B10937D4BAD
:1007C00021937D4B11937D4B12937D4B13937D4B66
:1007D00005937D4B07937D4B14937D4B15937D4B78
:1007E00016937D4B17937D4B08937D4B0C937D4B5C
:1007F0000A937D4B18937D4B19937D4B1A937D4B38
:1008000009937D4B0D937D4B1B937D4B1C937D4B2F
:100810001D937D4B1E937D4B1F937D4B22937D4BF0
:10082000239300239B465A4653461A604B46209812
:100830001A6007F099F859465846029B0B9C1970AC
:1008400003990870200007F017F90500200007F051
:1008500013F9040007F09AF80822002106007D61D0
:10086000AEA803F041FB584638607860B87710981E
:1008700038610120B883280007F088F80500387F28
:1008800006F072F96843B6ADB86128005D460822EB
:1008900000217C6303F028FB5B463D627D623E25C0
:1008A00001207B5570ADB8873D63200007F06EF8DE
:1008B00004003C20385C06F057F9604333002900FF
:1008C000219AB8633800FFF7ADFE0123029A03991D
:1008D00013700B78002B01D101F05AF85346012216
:1008E0001B6851460B604B461B6811989B184A4683
:1008F000136007F039F85A46029B0B9C1A70039B51
:1009000020001A7007F0B8F80500200007F0B4F8CE
:10091000040007F03BF82B0080461099380024AA09
:10092000FFF784FD002108227C63B6A803F0DCFAFF
:100930005B465A463B627B623E23FA5470AB3B6394
:1009400009232000BB8707F021F83C230400F85C52
:1009500006F00AF9EE239B05BB6280235B42FB6233
:1009600081333B625B467B6243466043B863002B46
:1009700075DD4821832322AA5218137022AA9446B7
:100980003A3B63441C00434634AE234D4644012B9E
:100990004AD164E06CFBFFFFBC1C0020B81C0020A7
:1009A00008FC00104E5200204D520020781100200B
:1009B0002C0F0110180F011030FC001060FC00100B
:1009C00094FC00106C110020F00E0110C80E0110F4
:1009D000BCFC0010ECFC001020FD00105C1100209D
:1009E000D80D01106C10002048FD001078FD00109B
:1009F000ACFD001058100020F80B0110180A01106F
:100A0000D4FD001004FE001038FE001078FE001027
:100A10008CFE0010A4FE00101C0F01107F2020701F
:100A200001340435B4421AD087212868C90503F07F
:100A30001CF903F0B7F902F01FFD0022DB4B02F0B6
:100A4000AAFB02F05FFC7F28E8DC03008033E6DAD3
:100A500080204042207001340435B442E4D1434642
:100A600034AA380070A9FFF735FC0122029B1A70E6
:100A7000039B1B78002B01D000F085FF534600221A
:100A80001B68013351460B604B461B6812989B183C
:100A90004A46136006F068FF5A46029B0B9D1A7087
:100AA000039B28001A7006F0E7FF04000E90280050
:100AB00006F0E2FF0F9006F069FF0690200006F0B6
:100AC00065FF00282CDD0A2322AA1381012827D0E4
:100AD00094464000634424AA1C00944603006344E7
:100AE000049380231B029846B14DB24EB249286848
:100AF00003F0A7F803F056F902F0BEFC0022002331
:100B000002F052FB02F0FEFB404500DBAB48B04276
:100B100000DAA848049B2080023404359C42E5D1C9
:100B20000E9C082200217C61AEA803F0DDF95B4633
:100B300007253B607B60BB7724AB3B612000BD8316
:100B400006F024FF0400387F06F00EF89A4B0126C9
:100B5000BB605B4660430F9C00210822B861FB60CC
:100B60007B607C633E60B6A803F0BEF95B465A46E4
:100B70003B627B623E23FA5470AB20003B63BD872F
:100B800006F004FF3C230400F85C05F0EDFFE023D1
:100B90009B05BB625B466043069AB863FB623E629C
:100BA0007B62002A32DDBF23482022A95B0009189E
:100BB0000B801300012A29D022A98C464A226244C4
:100BC000140034AA94465B006344049380231B0200
:100BD00098467B4D774E8E212868C90503F045F86D
:100BE00003F0E0F802F048FC0022002302F0DCFAF7
:100BF00002F088FB404500DB7048B04200DA6D48E7
:100C0000049B208002340435A342E4D1FE239B05DB
:100C1000009334AA069B380070A9FFF757FC012205
:100C2000029B1A70039B1B78002B01D000F0A6FEDC
:100C3000534600221B68013351460B604B461B682C
:100C400013989B184A46136006F08EFE5946584684
:100C5000029B059C197003990870200006F00CFF98
:100C60000500200006F008FF040006F08FFE0822B1
:100C7000002106007D61AEA803F036F958463860C1
:100C80007860B877079838610120B883280006F0AB
:100C90007DFE0500387F05F067FF6843B6ADB8619B
:100CA00028005D46082200217C6303F01DF95B46A5
:100CB0003D627D623E2501207B5570ADB8873D6366
:100CC000200006F063FE04003C20385C05F04CFF79
:100CD000604333002900149AB8633800FFF7A2FC80
:100CE0000123029A039913700B78002B01D000F0B6
:100CF00040FE534600221B68013351460B604B46B1
:100D00001B6815989B184A46136006F02DFE5A463C
:100D1000029B059C1A70039B20001A7006F0ACFE23
:100D20000500200006F0A8FE040006F02FFE2B00B0
:100D300080460799380024AAFFF778FB0021082293
:100D40007C63B6A803F0D0F85B465A463B627B62F0
:100D50003E23FA5470AB3B6309232000BB8706F0A7
:100D600015FE3C230400F85C05F0FEFEEE239B0517
:100D7000BB6280235B42FB6281333B625B467B62EA
:100D800043466043B863002B3FDD4821832322AAFA
:100D90005218137022AA94463A3B63441C004346FF
:100DA00034AE084D4644012B14D12EE000006040C3
:100DB000300F01100080FFFFCDCCCC3DFF7F000045
:100DC0001C0F0110CC0E01107F202070013404355F
:100DD000A6421AD087212868C90502F046FF02F012
:100DE000E1FF02F049FB0022E14B02F0D4F902F0EE
:100DF00089FA7F28E8DC03008033E6DA802040426D
:100E0000207001340435A642E4D1434634AA3800A8
:100E100070A9FFF75FFA0122029B1A70039B1B78EF
:100E2000002B01D000F0A0FD534600221B680133C7
:100E300051460B604B461B6816989B184A46136038
:100E400006F092FD5A46029B059D1A70039B2800EE
:100E50001A7006F011FE04000E90280006F00CFE39
:100E60000F9006F093FD0690200006F08FFD0028FD
:100E70002CDD0A2322AA1381012827D094464000A2
:100E8000634424AA1C009446030063440493802313
:100E90001B029846B74DB84EB849286802F0D1FEFB
:100EA00002F080FF02F0E8FA0022002302F07CF951
:100EB00002F028FA404500DBB148B04200DAAE4803
:100EC000049B208002340435A342E5D10E9C082205
:100ED00000217C61AEA803F007F85B4607253B6064
:100EE0007B60BB7724AB3B612000BD8306F04EFDE9
:100EF0000400387F05F038FEA04B0126BB605B463E
:100F000060430F9C00210822B861FB607B607C631A
:100F10003E60B6A802F0E8FF5B465A463B627B6241
:100F20003E23FA5470AB20003B63BD8706F02EFDD4
:100F30003C230400F85C05F017FEE0239B05BB6230
:100F40005B466043069AB863FB623E627B62002A9E
:100F500032DDBF23482022A95B0009180B80130053
:100F6000012A29D022A98C464A226244140034AABC
:100F700094465B006344049380231B029846814D92
:100F80007D4E8E212868C90502F06FFE02F00AFF2F
:100F900002F072FA0022002302F006F902F0B2F920
:100FA000404500DB7648B04200DA7348049B20805D
:100FB00002340435A342E4D1FE239B05009334AAF6
:100FC000069B380070A9FFF781FA0122029B1A7074
:100FD000039B1B78002B01D000F0C1FC534600227C
:100FE0001B68013351460B604B461B6817989B18D2
:100FF0004A46136006F0B8FC59465846029B089CC6
:10100000197003990870200006F036FD05002000D5
:1010100006F032FD040006F0B9FC002106000822AB
:1010200072A8759502F060FF5846AB2370907190DE
:101030005B0022A8C0185B4603700C9822AA74902B
:10104000AA20400012185438FF381080280006F0FB
:101050009DFCAA2322AA5B00D3180500187805F08E
:1010600083FD68437AAD769028005D460822002112
:101070007D9402F039FF789579959C2559463E225A
:1010800001206D0022AB5B1999543732FF3222AB3D
:101090009B187C971880200006F078FC3C23040005
:1010A00022A84019C05C05F05FFD604333003900A1
:1010B0000A9A7E9070A8FFF7B5FA0123029A039965
:1010C00013700B78002B01D000F044FC5346002233
:1010D0001B68013351460B604B461B6818989B18E0
:1010E0004A46136006F040FC5A46029B089C1A7060
:1010F000039B20001A7006F0BFFC0500200006F0DC
:10110000BBFC040006F042FC2B0080460C99380022
:1011100024AAFFF78BF9002108227C63B6A802F00D
:10112000E3FE5B465A463B627B623E23FA5470AB59
:101130003B6309232000BB8706F028FC3C23040006
:10114000F85C05F011FDEE239B05BB6280235B423A
:10115000FB6281333B625B46604334AC26007B62BA
:1011600043460A9DB8634644002B13DC2DE0C0467D
:1011700000006040F40E01100080FFFFCDCCCC3D9C
:10118000FF7F0000CC0E01107F2020700134043559
:10119000B4421AD087212868C90502F066FD02F022
:1011A00001FE02F069F90022EB4B01F0F4FF02F0BE
:1011B000A9F87F28E8DC03008033E6DA802040428B
:1011C000207001340435B442E4D1434634AA3800D7
:1011D00070A9FFF77FF80122029B1A70039B1B780E
:1011E000002B00D19DE3534601221B6851460B6042
:1011F0004B461B6819989B184A46136006F0B4FBCF
:101200005A46029B089D1A70039B28001A7006F02C
:1012100033FC04000E90280006F02EFC0F9006F020
:10122000B5FB0690200006F0B1FB002830DD482118
:101230001E2322AA52181380012829D022AA9446DC
:101240002C336344400034AA1C00944603006344DA
:10125000049380231B029846C04DC14EC1492868A3
:1012600002F0EFFC02F09EFD02F006F900220023DE
:1012700001F09AFF02F046F8404500DBBA48B04260
:1012800000DAB748049B2080023404359C42E5D143
:101290000E9C0021082226A8299402F025FE5B4618
:1012A00026222493259322AB9B185A4607251A70B1
:1012B00034AB289322AB20009D8406F067FB2422E8
:1012C00022AB9B180400187805F04EFCA54B0126B4
:1012D00026935B4660430F9C082200212A902EA88B
:1012E000279325933194249602F0FEFD5B462C93C0
:1012F0002D9308233E21584622AAD2185054063175
:1013000022AA521820003097158006F03FFB0823D0
:101310003C2122AAD3180400585C05F025FCE023E8
:101320009B052E935B4660432F932D93069B329033
:101330002C96002B24DD70ACA4465B006344049320
:1013400080231B0298460A9D854E8E212868C90578
:1013500002F08BFC02F026FD02F08EF80022002342
:1013600001F022FF01F0CEFF404500DB7E48B04295
:1013700000DA7B48049B2080023404359C42E4D18F
:101380007A4B70AA00933900069B24A8FFF79EF8B9
:101390000122029B1A70039B1B78002B00D1B7E23D
:1013A000534601221B6851460B604B461B681A9836
:1013B0009B184A46136006F0D7FA59465846029BD6
:1013C000099C197003990870200006F055FB050070
:1013D000200006F051FB040006F0D8FA00210600B8
:1013E000082272A8759502F07FFD5846AB237090D5
:1013F00071905B0022A8C0185B4603700D9822AA6A
:101400007490AA20400012185438FF381080280029
:1014100006F0BCFAAA2322AA5B00D31805001878AC
:1014200005F0A2FB68437AAD769028005D4608225D
:1014300000217D9402F058FD789579959C255946B8
:101440003E2201206D0022AB5B1999543732FF32E6
:1014500022AB9B187C971880200006F097FA3C235B
:10146000040022A84019C05C05F07EFB60433300F5
:1014700039001B9A7E9070A8FFF7D4F80123029AD6
:10148000039913700B78002B00D03DE253460022E5
:101490001B68013351460B604B461B681C989B1818
:1014A0004A46136006F060FA5A46029B099C1A707D
:1014B000039B20001A7006F0DFFA0500200006F0FA
:1014C000DBFA040006F062FA2B0080460D9934AA7C
:1014D00024A8FEF7ABFF082200212EA8319402F0C9
:1014E00003FD5B4608253E2259462C932D9322ABE3
:1014F0005B1999544421092322AA521820003097DD
:10150000138006F043FA3C2222AB5B190400985C7E
:1015100005F02AFBEE239B052E9380235B422F933D
:1015200081332C935B462D93434660433290002BCE
:1015300041DD9C218B2322AA4900521813703A23C3
:1015400022AA9446FF3363441C00434670AE084D04
:101550004644012B14D12EE000006040DC0D011048
:101560000080FFFFCDCCCC3DFF7F00000000E040BD
:101570001C0A01107F20207001340435B4421AD0B7
:1015800087212868C90502F070FB02F00BFC01F00E
:1015900073FF0022E54B01F0FEFD01F0B3FE7F2852
:1015A000E8DC03008033E6DA80204042207001341A
:1015B0000435B442E4D1434670AA390024A8FEF7AA
:1015C00089FE0122029B1A70039B1B78002B00D01E
:1015D00096E1534600221B68013351460B604B468F
:1015E0001B681D989B184A46136006F0BDF95A46C1
:1015F000029B099D1A70039B28001A7006F03CFAA2
:1016000004000E90280006F037FA0F9006F0BEF99D
:101610000690200006F0BAF9002830DD48211E238C
:1016200022AA52181380012829D022AA94462C33CA
:101630006344400034AA1C009446030063440493AE
:1016400080231B029846BA4DBA4EBB49286802F067
:10165000F8FA02F0A7FB01F00FFF0022002301F0CF
:10166000A3FD01F04FFE404500DBB448B04200DA74
:10167000B048049B208002340435A342E5D10E9C7F
:101680000021082226A8299402F02EFC5B4626227F
:101690002493259322AB9B185A4607251A7034AB26
:1016A000289322AB20009D8406F070F9242222ABFF
:1016B0009B180400187805F057FA9F4B01262693D3
:1016C0005B4660430F9C082200212A902EA8279396
:1016D00025933194249602F007FC5B462C932D93BE
:1016E00008233E21584622AAD2185054063122AA75
:1016F000521820003097158006F048F908233C2145
:1017000022AAD3180400585C05F02EFAE0239B05AA
:101710002E935B466043069A32902F932C962D931E
:10172000002A33DD9C20864B22A9400009180B803B
:101730001300012A2AD09D2222A98C46520062441D
:10174000140070AA94465B006344049380231B0238
:1017500098467C4D774E8E212868C90502F085FA9F
:1017600002F020FB01F088FE0022002301F01CFDA6
:1017700001F0C8FD404500DB7048B04200DA6D481A
:10178000049B208002340435A342E4D16E4B70AA3E
:1017900000933900069B24A8FEF798FE0122029BC5
:1017A0001A70039B1B78002B00D0A5E05346002243
:1017B0001B68013351460B604B461B681E989B18F3
:1017C0004A46136006F0D0F85A46029B059C1A70F0
:1017D000039B20001A7006F04FF90500200006F068
:1017E0004BF9040006F0D2F82B00804607990690CA
:1017F00024AA3800FEF71AFEB6AB08220021180012
:101800007C6302F071FB5B4659463B627B623E2380
:10181000F95470AB3B6307232000BB8706F0B6F892
:101820003C230400F85C05F09FF9DE239B05BB62B6
:10183000012342463B625B4660433E4EB863FE6214
:101840007B62002A30DD4820404B22A909180B801A
:101850001300012A28D022A98C464A22624414008F
:1018600034AA94465B006344049380231B02984689
:10187000374D8F212868C90502F0F7F902F092FA76
:1018800001F0FAFD0022304B01F085FC01F03AFD39
:10189000404500DB2948B04200DA2648049B2080FE
:1018A00002340435A342E4D1FE239B05009334AAFD
:1018B000069B380070A9FEF709FE0122029B1A70F0
:1018C000039B1B78002B28D1534600221968013155
:1018D000534619604B461B681F98D2184B461A6036
:1018E000521806F041F84B461B68002B56D122983F
:1018F00006F03AF8FEF797FF534601221B6859E7B6
:10190000534601221B6868E6534601221B68C1E565
:1019100053461B680022013345E5534601221968EE
:10192000D6E753461B68002201335FE400006040A5
:10193000FC0B01100080FFFFCDCCCC3DFF7F0000F1
:10194000610500001C0A01100000E040FC82FFFF5E
:10195000CC0E0110534601221B68FFF7BBFB534618
:1019600001221B68FFF73EFB534601221B68FFF76D
:101970005FFA534601221B68FFF7BFF95346012265
:101980001B68FFF759F9534601221B68FFF77AF8E5
:1019900053461B6800220133FEF7A3FF239805F08E
:1019A000E3FFFEF740FFC0468023DB051868000F09
:1019B0007047C0460FB400B5084883B002F0EAFC97
:1019C000049B002B07D005A91800019102F0C0FA72
:1019D000034802F0DFFC012002F0D2FAC0FE001042
:1019E000D0FE001070B5EFF3108C72B60D4D2B6861
:1019F000002BFCD0BFF35F8F0724CB08C618C05C58
:101A000001230C40A3401C000440034207D11843AB
:101A10003070BFF35F8F2C608CF3108870BD1000A6
:101A2000FFF7C8FF2C0100D0F8B54746CE468846E0
:101A300080B5EFF3108C72B6214D2C68002CFCD0D1
:101A4000BFF35F8F9A422CD8D4080727055D06198B
:101A500001241740BC402C421FD007210127894692
:101A600009E0D408055D06194C4639001440A14030
:101A70000C00294211D001329342F2D2012040429F
:101A8000BFF35F8F00220E4B1A608CF31088002882
:101A90000FDBC0BCB946B046F8BD25431000357019
:101AA000EEE7BFF35F8F00232B608CF310880120DB
:101AB00040424346002BECD00898FFF77BFFC0461E
:101AC0002C0100D0044A1078431CDBB2172B00D93C
:101AD000102313707047C0468011002010B5064BCC
:101AE000064C82B00100009318221F232000FFF74C
:101AF0009BFF02B010BDC046D4FE0010784D002000
:101B00000021044B044ABFF35F8F02C39342FAD112
:101B10007047C046000100D0800100D0054B064A46
:101B20001360064A136053609360D360136153617E
:101B3000936170478080808000E400E004E400E06E
:101B40001F2318401E3B8340002905D0C021044AB2
:101B50004900535013607047802201498B50FAE7C7
:101B600000E100E001228240034B1B6813405A1E33
:101B70009341D8B27047C04600E100E001238340A2
:101B8000014A13607047C04600E200E0084B103085
:101B90009B688000C358002B07D0064A00209B1A80
:101BA0002F229A424041C0B270470020FCE7C04655
:101BB00000ED00E08411002070B50D00EFF31086F9
:101BC00072B60F4A1368002BFCD0BFF35F8F0D4B2A
:101BD00010309B6884001B590B4A934203D09D42EE
:101BE00001D000F091FF074B9B681D51BFF35F8F41
:101BF000BFF35F8F0022024B1A6086F3108870BD1E
:101C0000240100D000ED00E0CD010010F0B55746F2
:101C10004E46DE464546E0B585B006000091170009
:101C2000EFF3108B72B66A4A1368002BFCD0BFF337
:101C30005F8F0025674B5D579A46002D00DAA9E0BB
:101C40006B00654C01935B199B009846A146C1440B
:101C50004B4652469B7910361370604BB6009B681A
:101C600099590B1B2F2B33D95D4B994200D0ACE017
:101C7000019B42469C465B4B6544AD0063535A4B07
:101C80000232A218043B9B1A1B05584A5B0D6519CA
:101C900013436B80564B0121AB80FF23AB71009B3C
:101CA000EF71AB604B460B4319004C4B9B6899514D
:101CB000BFF35F8FBFF35F8F0022454B1A608BF33A
:101CC000108805B0F0BCBB46B246A946A046F0BDA0
:101CD00001200A008243D3798C46BB4231D8454665
:101CE000130044491B1B5B415943090D3D4B635392
:101CF0003D4B02356519043B5B1B1B053B4D5B0DE2
:101D00002B43AA464D466B800425AC465546E0441D
:101D1000131F44441B1B1B055B0D1D434B46997150
:101D200000999D8099604946DF71334B01431360F0
:101D3000BBE75800C01880002018C179B9422FD9DC
:101D400002000623D356002BF3DA02932B4B614695
:101D50000393131D9A4604235B429C46E14450467C
:101D60004B461B1A1B055B0D9C46204B95719846F4
:101D70006346404603439380019B5A199200039B9C
:101D8000A418A380029B1C4AA371009B2260E771E8
:101D9000A3608AE700F0B8FE002553465D574FE781
:101DA000908802934005131D9A46031561469C4690
:101DB0004046D444634604302018181AE023000536
:101DC000400D1B0218430390C5E700F09DFE4FE74E
:101DD000240100D0535200208411002000ED00E0C7
:101DE000CD01001000A1FFFFB411002000E0FFFFB3
:101DF00001BDFFFFAAAA00000148804701BD000005
:101E000070B501240443EFF30581EFF3108C72B633
:101E1000214A1368002BFCD0BFF35F8F1F4B0500D6
:101E20001F4AED1A6D416A43120D1E4D8900AE68BE
:101E300052B27658A6421CD00621595691421CD067
:101E400012215956914222D01E215956914220D03A
:101E50002A2159560324914210D0134B19781A7035
:101E60008171BFF35F8F00220B4B1A608CF31088D7
:101E700070BDAB680D4C5C50EFE7002461000919A0
:101E800089005B18FF21997109499980E5E70124D0
:101E9000F4E70224F2E7C046240100D084110020B8
:101EA000AAAA000000ED00E053520020CD0100106E
:101EB00001BDFFFF10B5084B084C82B00100009334
:101EC000002205232000FFF7AFFD002801DB1F23C0
:101ED000181A02B010BDC046F0FE00105752002084
:101EE000024B9C4661448900016070474000003409
:101EF00070B5114C114DAC420FD2FF262368002B58
:101F00000CD0FFF7DFFD01002000FFF7E9FFA680FE
:101F1000BFF35F8F0834AC42F0D370BDFFF7D2FD42
:101F200001002000FFF7DCFF2671BFF35F8F08344C
:101F3000AC42E3D3F1E7C04620190020301900205D
:101F400010B50400FFF7BEFD01002000FFF7C8FF39
:101F5000FF232371BFF35F8F10BDC04610B504008F
:101F60000120FFF7BBFD034BC3189B002360BFF3A9
:101F70005F8F10BD40000034034B9C4661448900D4
:101F80000160BFF35F8F7047400000340A4B19684F
:101F9000EFF3108072B60A68002AFCD0BFF35F8F9F
:101FA0001B68BFF35F8F00221A6080F3108840BF68
:101FB000002000217047C04630520020F0B5DE46B8
:101FC00057464E464546E0B583B0EFF305820323FE
:101FD0001340B54A990052580091904601229A4008
:101FE000B24B93461A60B24B01932EE043469B8856
:101FF0001BB2002B00DB99E043469B79002B00D0FD
:10200000DDE0434608241C5F002C00DA06E143466D
:102010005A6963001B19DB00D3189D68DC686B1CD0
:1020200000D107E1A34B00999C4661449A6A0B6971
:10203000A81A9B1A984200D20D619E4800F026FB18
:102040008C4200DDEAE000D126E15B46994843631B
:10205000434608229B5E9946002BC7DB42465269E5
:102060005B0092464B44DB009A4453469E68DF680F
:1020700000F00CFB8F42B9DC00D100E1002F00DA48
:10208000E1E05246534654691B69019A934200D1DC
:10209000D4E0414652460820085E528800042100E0
:1020A0001043984704000D0023002B4300D1CAE0E1
:1020B000002D00DBE7E030003900001BA94153464A
:1020C0009860D96000229A5E002A8FDB43465D69E2
:1020D00053009C18E4002C19A768E4688C4200DDCA
:1020E00084E702D1874200D980E74646328108362C
:1020F0000DE08C4200D1D3E01E000023F25E002AE6
:102100000ADB53009C18E4002C19A768E4689B18AC
:10211000DB00EB188C42ECDD53461A804B463380D3
:1021200043469B881BB2002B00DA65E743461A69D9
:10213000EFF3108172B61368002BFCD0BFF35F8FF2
:1021400043469E88012342465B42938036B2136920
:10215000BFF35F8F00221A6081F31088002E00DA2F
:102160004AE743465D69083342469C467700BF19FB
:10217000FF00EF19BB68604698460823D15E92467F
:10218000FC68002907DA0EE0A2424FD018000023B5
:10219000C15E002906DB4B005B18DB00EB18DA6838
:1021A000A242F1DD524606800023FE5E3980002EF9
:1021B000DCDA904643469B79002B00D121E70023CF
:1021C00042469371434646460821595E08364B1CE9
:1021D00024D047468946556902E006004B1C18D0BA
:1021E0004B005B18DB00E8180A008C46E95E438868
:1021F0001BB2002BF1DA01235B42DC178360C46061
:102200004A4503D031803B8903803A81E1464B1C2B
:10221000E6D14C46B846002C00DBF8E640BF03B0E0
:10222000F0BCBB46B246A946A046F0BD9A684245FE
:10223000ACD9B7E7631C00D0F4E6FEE620002369C2
:102240009847002825D1534642461B8813811269BE
:10225000EFF3108372B611680029FCD0BFF35F8FD3
:102260004246514652880A80424649465180126988
:10227000BFF35F8F0021116083F31088B6E68642BA
:1022800000D8FBE6B2E60B4800F000FA00196941FD
:1022900015E76568246807E7854200D8D5E6BDE7FD
:1022A000874200D828E737E7145200203C700540E9
:1022B000BD1F00100040054070B52E4C2569002D53
:1022C00004D00A212C48FFF70BFE70BD2B4E0321D2
:1022D000300000F0D1F9E660FFF7F4FB284B032251
:1022E0009C46D02322701B061B6801216370254B7E
:1022F0006044A3600F238000206102206380636933
:102300004942A18019800231198647311D835852F4
:1023100018315A5275325C3999521832013199523A
:102320001832013199521832013199520835183258
:102330009D52023118329952183201319952183295
:1023400001319952183201319952183201319952A2
:102350001832013199520C4B0C49DC600130356266
:10236000FFF72AFC01210320FFF7EAFB084B1D6061
:10237000A7E7C046CC1100203052002000400540A5
:1023800040000034FFFF100014520020BD1F001059
:102390003860054000487047CC110020F8B51F0098
:1023A00008AB1B7804001600002B08D100F076F96A
:1023B00032003B00121A8B41002B00DA53E02269F5
:1023C000EFF3108072B61368002BFCD0BFF35F8F61
:1023D0000223E15E63694A005218D2009B1800296B
:1023E00037DB1A8862802269BFF35F8F0025156092
:1023F00080F31088069A9E60DF601A61079A5A611E
:102400005A8801325204520C101C002A1FD082B28A
:102410005880080410432669EFF3108772B63268BB
:10242000002AFCD0BFF35F8FA2881A80A1802369A5
:10243000BFF35F8F00221A6087F310880B4923785F
:102440008C4601329A40E36863441A60F8BD01206B
:10245000DDE72369BFF35F8F00221A6080F31088E5
:1024600001204042F2E70020F0E7C0463C20000097
:1024700070B501000469EFF3108C72B62068002873
:10248000FCD0BFF35F8F02200D5E4C6968004019DD
:10249000C0002418002D37DB208848800869BFF36E
:1024A0005F8F002606608CF31088E36063880498D1
:1024B000013320615B0405985B0CA26060611A1C0B
:1024C000002B1FD093B22804628018430A69EFF3EF
:1024D000108C72B61368002BFCD0BFF35F8F8B8813
:1024E00023808D800B69BFF35F8F00221A608CF30D
:1024F00010880B7801329A40CB6808498C466344B7
:102500001A6070BD0122DDE70B69BFF35F8F002207
:102510001A608CF3108801204042F2E73C20000052
:1025200010B543890A1493421ADD53009B1842697F
:10253000DB00D3180469EFF3108C72B62268002A0E
:10254000FCD0BFF35F8F5A88090494B2090C8A4209
:1025500008D00369BFF35F8F00221A608CF31088E4
:10256000002010BD8022120214435C800123026906
:102570008371BFF35F8F002111608CF310880449D1
:1025800002788C469340C268012062441360E8E7F9
:102590003C20000040787047F0B5CE46474680B5F5
:1025A00004000D0083B0EFF305878846002F3ED16D
:1025B0002E4EA1463378F06804339B00816A1B5885
:1025C000601A5B1A98420ED320BF294900204B6A3B
:1025D000AB4203D38A6A0130944231D803B0C0BC05
:1025E000B946B046F0BD00F059F822002B00121A8F
:1025F0008B41002B2FDB1F4B2200009330002B0060
:102600000197FFF735FF011E25DD194B5A6AAA42D3
:102610001BD220BF3000FFF783FF154A0020536A0A
:102620004345DBD3926A01309145D7D908E0104980
:1026300000204B6AAB42D1D38A6A0130A242CDD28C
:102640005B1B5A1E9341D8B2C8E79B6A9C42E1D9F2
:10265000AA42DFD1DDE7064A0020536A4345BDD3D5
:10266000926A01209145B9D9EAE7C046CC11002011
:10267000004005408D1F001010B5024A0248FFF7C8
:10268000B1F910BD0CFF00107C4D00200300416A21
:102690000A00986A596A8A42FAD17047034B596A0C
:1026A0000A00986A596A9142FAD170470040054081
:1026B00070B504000D00174A536A1900966A536AF0
:1026C0008B42FAD13000190024184D41AB4216D884
:1026D00013D0104A2B00526A954203D90D494A6A19
:1026E0009A42FCD39A4207D10A4A02E0516A9942BF
:1026F00002D1916AA142F9D370BDA642E9D9054B36
:102700005B6A1C005A1CEFD0012301246442E517C8
:102710005B42E3E700400540F8B5DE464E465746CB
:102720004546E0B58B4605000A991800160000F0F2
:10273000F7FA0A9B6C001F02324B64199C46A400F6
:102740006444636881469F4200D967602B1FDBB2F7
:102750009846012B30D9C02380229B01E318120137
:102760001A60294BAD0059599A4600291BD17301B3
:10277000E026226853401E40802342465B01E31856
:102780001E60012A30D9802380229B01E3181201A8
:102790001A6053464A4667605A51F0BCBB46B2467F
:1027A000A946A046F8BD586900F0BAFA01304300C6
:1027B0001B18033BFDD2DAE75B46012BCBD1C023CC
:1027C00003229B01E3181A60023AA3681A42FCD064
:1027D0007301E0262268AD0053401E4080230A4A60
:1027E0005B019246E3181E605A462168514003225D
:1027F0000A401A6001225B469A40A3681A42FCD044
:10280000C1E7C04600800040804D0020F0B546463C
:102810004F46D646C0B51F00344B44009C46241892
:10282000A4006444636888461600FF2B02D8802306
:102830005B006360031FDBB29A46012B30D9C023D3
:1028400080229B01E31812011A60294B8500595917
:10285000994600291BD17301E026226853401E408F
:10286000802352465B01E3181E60012A30D9802381
:1028700080229B01E31812011A6080235B006360D1
:102880004B465F51E0BCBA46B146A846F0BD586918
:1028900000F046FA013043001B18033BFDD2DAE793
:1028A0004346012BCBD1C02303229B01E3181A60BE
:1028B000023AA3681A42FCD07301E0262268850020
:1028C00053401E4080230A4A5B019146E3181E6074
:1028D00042462168514003220A401A6001234246C1
:1028E0009340A2681342FCD0C1E7C046008000407C
:1028F000804D0020014B8000C0587047804D002063
:10290000F8B5040021481E0017000D0000F008FA79
:102910000100380000F004FA069B36041B031E4336
:102920002368002B20DB1A4B1A49E3185A1E9341E7
:102930008022920194465B421B0B174A1B0363449F
:102940001360164A13601F000A689743FBD1144BAB
:102950002560E2182123A06013602368002BFCDAB5
:102960000823E6601360F8BD3F2322681340AB42A2
:10297000D9D1A3681B051B0D8342D4D1EE22E36895
:10298000D2021340B342CED1EDE7C046001BB700E0
:102990000040FDBF08C0004000E0004000F00040E3
:1029A0000430000010B580241C4BE4051C60002896
:1029B0001AD001231A4C18431A4BDC611A4C4440BC
:1029C0001C62596298628021144BC905196017482E
:1029D00017490860E021C9041960002A07D1802244
:1029E000144B12061A6010BD0E4BD861EBE7530171
:1029F0009B1A9B009A18802312015B049A4209D209
:102A000013000D490B60074B5A608022094BD20519
:102A10001A60E8E7094B1A00F3E7C04600B005402A
:102A2000D3C007B0008005402D3FF84FFCFF0100E8
:102A30000820014000A00540EC510020FFFFFF00EE
:102A40008023024A9B000B43D362704700800540FD
:102A5000142310B50100188804331B88984710BD53
:102A6000162310B50100188802331B88984710BD43
:102A7000F8B54746CE4680B50F1E19D014239946A7
:102A8000043304000025012698464B461888434627
:102A900021681B88984701C4431E98410135404274
:102AA0000640AF42F1D13000C0BCB946B046F8BDD7
:102AB0000126F8E7142370B50400188804331B8836
:102AC0000D000549984703000020002C01DB013070
:102AD000A04029009847C04655420000AA23064A54
:102AE0001B0113602F230549D360054B1960536800
:102AF000002BFCDA7047C0460040024000B0FA00EC
:102B0000006002407047C04610B50148FEF752FF12
:102B100030FF001070B5074D074EB54209D20024B2
:102B2000013E761BB60808CD984723000134B34216
:102B3000F9D170BDA0FA0010DCFA0010054B064A6E
:102B400006491A60064A074B1A6010000B68984342
:102B5000FBD1704700E00040BFCDFBFE08C0004045
:102B6000FE7F3C0000F00040044BDB6C002B03D1E7
:102B70008022034BD2021A607047C04600001150F9
:102B80004C201150044A054B1A60054A1368DB01BA
:102B90008033FBD17047C046FFFFFF0100F00040CB
:102BA00008C000404022034B9A675A671A67DA66EA
:102BB0007047C04600F0014010B5FEF7A1FF10BD00
:102BC00070B5044D044CA968C022200001F092F9B0
:102BD000AC6070BD00ED00E000000020002310B5E7
:102BE000294C82B0A367FFF779FF0122274B1A60B7
:102BF000636C012BFCD10322254B1A60224A936B94
:102C0000012BFCD1013300930121224A22480433D5
:102C1000FFF776FE052301210093204A2048FFF7A5
:102C20006FFE0022022104201E4BFFF7EFFD002261
:102C3000012105201C4BFFF7E9FD002200210720A0
:102C40001A4BFFF7E3FD002200210820174BFFF786
:102C5000DDFD8023DB000093002200210920134BBF
:102C6000FFF75AFD0022104B00210620FFF7CEFD92
:102C70000420FFF73FFE0E4900F052F8010000204B
:102C8000FFF7DEFE02B010BD008000403CB0004007
:102C900030B00040002F685900800240008C864709
:102CA00000C00240001BB70040597307006CDC02F3
:102CB00040420F0001480421014B1847F011002049
:102CC000712A0010014B5B6818470000F0110020CA
:102CD000124A936F9B0815D29066D166002905D0E1
:102CE000FFE7FFE7FFE7516F106F704704B58021E2
:102CF0000906C2175140002800D0C8430CF088FED6
:102D0000002104BDF0B5146E556E576F166FFFF7B6
:102D1000E3FF1466556657671667F0BD000000D0E4
:102D2000114A936F9B0813D210665166002905D093
:102D3000FFE7FFE7FFE7516F106F704704B500280A
:102D400001D00020C0430CF063FE002104BDC0464A
:102D5000F0B5146E556E576F166FFFF7E5FF1466EA
:102D6000556657671667F0BD000000D094464A4A82
:102D7000926F9208624601D228E0C046F0B5464EF6
:102D8000346E756E776F366F00F020F89446424AC5
:102D900014665566576716676246F0BD94463E4A0C
:102DA000926F9208624601D254E0C046F0B53A4EA6
:102DB000346E756E776F366F00F04CF89446364A75
:102DC00014665566576716676246F0BD002B24DB14
:102DD00011D000293EDA00B5C943404200D101318B
:102DE00000F038F8C943404200D10131DB43524280
:102DF00000D1013300BD002AEBD1002801D1002908
:102E000005D00020C90FC90701D1C043410800B552
:102E10000CF0F6FD0022002300BD00B500290ADBFE
:102E2000DB43524200D1013300F014F8C943404261
:102E300000D1013100BDC943404200D10131DB4323
:102E4000524200D1013300F005F8DB43524200D179
:102E5000013300BD002923D1002B18D1002A0CD04A
:102E6000BC460D4F38667A6600210023FFE7FFE776
:102E7000FFE77A6F386F67467047002801D0074830
:102E8000010000B50CF0BCFD0022002300BD0200D3
:102E90000B00002000217047000000D0FFFFFFFF63
:102EA000002B00D0BFE0130C28D1002AE7D080B45B
:102EB000114F39667A66FFE7FFE730B4040C7B6F89
:102EC000396F1B0423433B667A66FFE7FFE7FFE7A2
:102ED000C04684B27B6F3D6F1B0423433B667A661A
:102EE000FFE7FFE7C04600232C042D0C7A6F386FF4
:102EF00000196941B0BC7047000000D0F0B594469D
:102F00000025140E01D112020835140F01D112014F
:102F10000435940F01D192000235D40F01D1520033
:102F20000135D40B0134254F7C66254C3C660E0CD4
:102F300093B2FFE7FFE7FFE73C6F6643360C77038A
:102F4000BE467343DF0B5B04C01AB941130C7343D5
:102F5000DB18C91ACE086643360CB64493B27343E5
:102F60001F0F1B01C01AB941130C73431F0B1B0524
:102F7000C01AB941860D8F023E436643360C092DB7
:102F800024DB520A7243801A7703460A6643360CE2
:102F900016235B1BDE40DF40BF1964466643821B7D
:102FA0007046043506330100D940A840C01900D34B
:102FB0000131A24206D20023F0BD0000000000D083
:102FC000FFFFFFFF121B0130F3D3F1E709277F1B3F
:102FD000FE406446A2B27243801A00D20139220C2C
:102FE0007243130C1204821A99410B007046043587
:102FF00013370100F940A840801900D30131002B9C
:1030000002D1A2420AD2F0BD013000D30131121B1D
:10301000FAD2013BF8D1A24200D2F0BD013000D378
:103020000131121BF7E7F0B51C0C00D080E00CB4A6
:1030300000251C0A04D11B02160E33431202083568
:103040001C0B04D11B01160F3343120104359C0BDA
:1030500004D19B00960F334392000235DC0B02D162
:1030600092185B4101351C00971864410134464FAA
:103070007C66464C3C660E0CFFE7FFE7FFE7C04668
:103080003C6F6643360C7703BE4697B27743C01B4E
:1030900000D20139C01B00D201399FB27743C91B4E
:1030A000C91B170C77437E04FF0B801BB941CE0868
:1030B0006643360C0C2D33DBB644120B1F053A4326
:1030C0001B0B97B27743C01B00D201399FB27743E5
:1030D000C91B170C77433E043F0C801BB941860D7A
:1030E0008F023E43664329277F1BFE400C3D7746F7
:1030F000AF40BF1930BCA2B2ABB272437343801A67
:103100009941220C7243130C1204801A9941020057
:103110000B000137001BA941F9D2781E0021F0BD38
:103120000C277F1BFE4077467F0BAF40FF19E0E77F
:1031300000245D1C07D0144F7D663966FFE7FFE76A
:10314000FFE7FFE73C6F95B29EB265436643401BC5
:10315000B141150C1E0C6543664336042F0C3E43EB
:103160002D04401BB141994204D202000B00200003
:103170000021F0BD01D19042F7D3801A994101346A
:103180009942F2D3F6E70000000000D0FFFFFFFFF6
:1031900048404140484018B41B4B5B68FC460193D3
:1031A00008BD04DFD735001018B4174B1B68FC4668
:1031B000019308BD00DFE13500109446134A926F79
:1031C000920809D2624618B40F4BDB68FC460193A3
:1031D00008BD0CDF993800100C4AF0B5146E556E1E
:1031E000576F166F6246FFF7EEFF084A1466556682
:1031F00057671667F0BD18B4034B9B68FC460193F4
:1032000008BD08DF3D370010B81A0020000000D0CC
:10321000FFB550404240504059404B40594000E0BB
:10322000FFB5154F4C00640D03D0BC4204D10C0314
:1032300014D80020090D09055C00640D03D0BC42C0
:1032400004D11C030AD800221B0D1B0501264B408C
:1032500009D44B4003D58B4200D18242FFBD994235
:10326000FCD19042FFBD0B43DB1803431343F5D061
:10327000C9434918FFBD0000FF07000000B5FFF774
:10328000CFFF01D0002000BD012000BD00B5FFF739
:10329000C7FF804100BDC04600B5FFF7C1FF01D99F
:1032A000002000BD012000BD00B5FFF7B1FF804147
:1032B00000BD012040054A00121804D85A00121817
:1032C00001D800207047012070470000002100282D
:1032D00005D17047C1174840401AFAD0C90713B545
:1032E000064B1B6898470CBC441CA2401005120BEF
:1032F0000349091B09051943114310BD2C52002035
:103300001F04000010B54C00620D8023D218DB00B2
:10331000D21A5B057E2A10DD9E3A13DACC17090318
:10332000490819435242D140640001341532202A21
:1033300005DAD0400843604310BD002010BD0846A8
:10334000604310BDC80FC018013810BD18B4044B3D
:10335000DB6DFC46019308BD5CDF493B00100000BB
:10336000B81A0020C94211D300B54900490800220B
:1033700000F018F8002904D4002240428A41114686
:1033800000BD80210906002000BD000018B4044BD8
:10339000DB6EFC46019308BD6CDF493A001000006B
:1033A000B81A002018B4044B9B6FFC46019308BD6B
:1033B00078DF673A00100000B81A002018B4044BF8
:1033C000DB6FFC46019308BD7CDFD53A001000009E
:1033D000B81A0020132370B51D78012D19D014DD03
:1033E0001F48FFF73DFB06001E48FFF739FB1E4C48
:1033F00080223100200000F07DFD022D2DD01B48E1
:10340000FFF726FB1A4B186070BD1A4B164CA364CD
:10341000F5E7184B144C23606360A360E3602361FD
:103420006361A361E36123626362A362E362236376
:103430006363A363E36323646364A364E364236556
:103440006365A365E36523666366A366E366236736
:103450006367A367E367A364D1E7064BA364CEE782
:103460005344000053460000B81A00204C330000BB
:103470002C520020A5350010244A4B0094465B0DC9
:103480006344F0B504000D005A1C21DB5A1C35D0F2
:10349000342B1CDA3326F61A3700203F1CD40121C6
:1034A000B9400B000121B1400A0012196B41002FF5
:1034B0001EDB0224BC4021000224B4402000160080
:1034C000002544428D4126402B4030001900F0BDBC
:1034D000CB0F0020D907FAE720210120891BC84023
:1034E0000121B14003000A0012196B41002FE0DAFC
:1034F00020240225A41BE5402900DDE7CB0F044A68
:10350000DB071A4300201100E1E7C04601FCFFFF82
:103510000000F03FF0B5C6460B000D004900020068
:10352000040000B5490D2FD01C48091826D43426B4
:10353000711A8846464610001900002E1BDD4746CA
:10354000203F25D40126BE40310001274646B74022
:103550003800002B06DA01246442E517A4185D4107
:1035600024184D41002342428B4126002C00164076
:103570001C403000210080BCB846F0BD0020002176
:10358000002BF8DA0649F6E7DB0F0020D907F2E74F
:103590002027BF1B0126FE403100D6E701FCFFFFBC
:1035A0000000F0BF07B5604601880A0A0230DF2A32
:1035B000FAD1C9B2820804D30288408800041043BB
:1035C00000E00068014A5050039007BDB81A00207F
:1035D0000FB403BC0CBCF0B50124E407634000E069
:1035E000F0B50C0DCF0F661E3605891B640503D39D
:1035F000C943404200D30131640D03D0661CF60A72
:1036000007D0E41B00207F00791C89078912803CC9
:1036100024031D0DDF0F6E1E36059B1B6D0503D3A6
:10362000DB43524200D301336D0D03D06E1CF60A0A
:1036300007D0ED1B00227F007B1C9B079B12803D67
:103640002D032F1B661B58D4A446202E46DA2037A4
:103650001400BC401D00BD40F24033412A43801895
:103660005941CB0F05D0C943C043002264425041A9
:10367000514162464D0D28D10D0D07D100281FD0B4
:10368000241940414941013A0D0DF9D0640006D397
:10369000013000D30131002C01D140084000013A33
:1036A0000BD4941CE40A04D112051144DB0719441D
:1036B000F0BDD907204B194300E0D9070020F0BD29
:1036C0000029DDD1002CDBD1F0BD0132C607400856
:1036D000CD0728434908002EE1D0D9E73C2E29DA4E
:1036E000203E40371400BC4000D00124F240144377
:1036F0001A00BB401C43D317ACE7AC46202F08DAB6
:1037000020360400B4400D00B540F840394128434C
:10371000A5E73C2F0CDA203F40360400B44000D02F
:103720000124F84004430800B1400C43C117EAE704
:1037300010001900002494E70000F07FF0B50C0D94
:10374000661E3605891BE60A6405640D02D0651CF9
:10375000ED0A04D0002001210905803C2403A44681
:103760001C0D671E3F05DB1BE70A6405640D02D0D4
:10377000651CED0A04D0002201231B05803C2403B4
:103780007740644497B484B296B27443070C7E4386
:10379000150C6F4380B26843361802D30120000431
:1037A0003F183004350C00197D41844688B29AB226
:1037B00050430C0C62431F0C7C438EB27E43921923
:1037C00002D301263604A4191604170C36186741D3
:1037D00001BC81B29AB25143040C62431B0C5C439E
:1037E00080B25843121802D3012000042418100498
:1037F000130C401863412D185E410020474106BC60
:1038000088B293B258430C0C6343120C544389B2F0
:1038100051435B1802D301210904641819041A0CDE
:10382000091862416D1856410020474118BCF90241
:10383000720D1143F0026A0D1043ED020A0D03D11F
:103840006D1940414941013B124E9B1B7600B3422A
:103850000ED26D0007D30130002671416646354314
:1038600001D1400840001B05C918E4072144F0BD00
:103870000BDA013306D1013004D101314F0D01D0F3
:103880004908F2E7E1070020F0BD013631050020CC
:10389000EBE70000FF030000F0B51C0D671E3F05BD
:1038A000DB1BE70A6405640D02D0661CF60A04D02F
:1038B000002201231B05803C2403D0252D06002671
:1038C000F6432E661E096E66CE0FF619B446490001
:1038D0004F0D02D07E1CF60A03D000200021403F8D
:1038E0003F033E1BB600B444013F7F05C91B490896
:1038F0002E6F013676089C02950D25437543ED1316
:103900007543AD1301356D10F603761B0CB4CC0274
:10391000450D2C43A2B2B3B25A43270C7B43350C5E
:103920006F43A4B26C431B1902D3012424043F1932
:103930001C041D0CA4187D4124196D41009A91B2FC
:10394000ACB26143170C7C432B0C5F4392B25A43D9
:10395000A41802D301221204BF182204230C521807
:103960007B41019C6C431B19520ED9010A4344014F
:10397000A01A81B2B2B2514303145A43360C7343B6
:1039800087B27743D617D21900277E4136049B1998
:103990001704160C7F185E417316ED18F30100260C
:1039A00080337541A90F06D16400690AE8055B0AF6
:1039B000184309D22FE00422944480337541A90AA8
:1039C000A8059B0A184326D3404149412404009A84
:1039D000019B0D005543641B4343E41A95B286B224
:1039E0007543170C7E43030C5F4392B25A43B618DB
:1039F00002D301221204BF183204330C52197B4146
:103A000052429C41002C02D4002201305141400816
:103A1000CA071043490802B06246D7079210084B04
:103A2000D218084B9A4203D212058918C919F0BD61
:103A30000020002A01DC3900F0BD01331905F5E74B
:103A4000FD030000FE070000002200B500F00DF8A5
:103A5000CA179A4200D100BDD8430121C90741408D
:103A600000BD000000220B150AD410B5944600F0EA
:103A7000A7F81414013400DA0021CB17144C2047A6
:103A80000020002170476244343A0CD40C2A07DA33
:103A900004009140904052422032D440214310BD56
:103AA000D843D94310BD203207D40C46944052422B
:103AB00020321141D040204310BD0800C9172032E8
:103AC00003D452422032104110BD1800190010BD1D
:103AD000873A00104A00520D144BD21A13DDFF2A08
:103AE0001EDAD205CB0FDB071A43C300400F0903D0
:103AF000490A084310435B0001D301D001307047ED
:103B00004308FBD2704702D0C80FC00770470A03B2
:103B100012130132F8D1420F072AF5D1012200E039
:103B2000FF22C80F00028018C00570478003000004
:103B300000210A00002104E000210A00C11704E06E
:103B40000022002306E0C0460022CB17584059400F
:103B5000C01A994130B5184CA21A002903D10100AE
:103B600010D00020203A4C1512D104D2013A00188E
:103B700049414C0DFAD3114CA24204D212058918C6
:103B8000DB07C91830BDD243520D00200021F5E7F4
:103B900003D4013A00184941FBD50B324405C00A51
:103BA0004D052843C90A640003D0002460416141E7
:103BB000E1E7E0D34408F8E732040000FE07000024
:103BC0000A0DCC0F531E1B05C91A520503D3C94356
:103BD000404200D30131520D03D0531CDB0A07D001
:103BE000121B00206400611C89078912803A1203AD
:103BF000014BD21A70470000FF03000051434343BA
:103C0000C9188C46110C83B24B4310B4040C6143A9
:103C100092B280B2504362431C041B0C001910BCCA
:103C200059411304120CC0185141614470470000FF
:103C30004840414048400E4B5B6818470C4B1B689E
:103C400018470C4A936F9B0802D2094BDB68184750
:103C5000F0B5146E556E576F166FFFF7F6FF054AF5
:103C60001466556657671667F0BD014B9B68184789
:103C7000B81B0020000000D007B548404140484034
:103C800001E0C04607B54200120E03D0FF2A03D15F
:103C9000420218D8C00DC0054A00120E03D0FF2AF8
:103CA00003D14A020FD8C90DC9050122414005D4EC
:103CB000414001D5814207BD884207BD01434918F3
:103CC00001D0C043001807BD00B5FFF7DBFF01D0EE
:103CD000002000BD012000BD00B5FFF7D3FF8041EB
:103CE00000BDC04600B5FFF7C7FF804100BD000022
:103CF000C10FC90700D54042002817D0F44603B4CD
:103D00000B4B1B68984706BC81409E38404280316F
:103D100007D20B0607D04900490AC00510430843E3
:103D200060470130F8E7490A8902F5E7704700006B
:103D30002C52002041000A0E80231B067E2A0BDD38
:103D40009E3A0BDAC1174002400818435242D04055
:103D5000490001314843704700207047C00FC01828
:103D600001387047C0420DD300B540004008002123
:103D700000F012F8002801D4404200BD8020000667
:103D800000BD0000034BDB69FC4618471CDF553EB5
:103D900000100000B81B0020014B5B6A18470000B0
:103DA000B81B0020034BDB6FFC4618477CDF6D3EE1
:103DB00000100000B81B0020014BDB6C184700000E
:103DC000B81B0020132310B512481C78FEF748FEDC
:103DD0000100012C0AD003DD80220F4800F08AF890
:103DE0000E48FEF735FE0E4B186010BD0A4C5422EB
:103DF000200000F07FF80B4B6365A365E365236645
:103E00006366A366E36623676367A367E36723626A
:103E1000E361E5E753460000B81B00204C33000087
:103E20002C520020293E001007B5604601880A0A7E
:103E30000230DF2AFAD1C9B2820804D3028840884E
:103E40000004104300E00068014A5050039007BD91
:103E5000B81B00200021C2158032803201D0024AF6
:103E60001047002070470000CD2A0000C30FDB0779
:103E700041000A0E07D0FF2A08D00909054A89180F
:103E80001943400770471900002070470249C918BC
:103E9000FAE70000000000380000F07F70B5040071
:103EA0000A4E30000BF0F4FD200008F089FB0500FD
:103EB00030000BF095FD002D05D0054B2C199C42D0
:103EC00001D8280070BD0348FDF774FD20190020BB
:103ED000000004203CFF001001480421014B18475A
:103EE00000120020712A0010014B1B6818470000C7
:103EF00000120020014B5B681847000000120020F0
:103F000010B5002800D110BD00F0F8F9FBE7C0465D
:103F10000FB430B50C4985B008AA08CA0D680392E1
:103F2000002D0CD000920122084C5242200002A920
:103F3000A847012005B030BC08BC04B018471800E1
:103F400000F028FA0020F5E7E8510020013F0010BA
:103F500010B5094A0300146884B0002C08D001226F
:103F600000910648524203A9A047012004B010BDA9
:103F700000F010FA0020F9E7E8510020013F00109E
:103F800000BEFDE7094A03001068002805D0084973
:103F9000C3188B4207D81360704706480449C318FA
:103FA00010608B42F7D901204042F5E7E04D002038
:103FB0000000042058520020002070470120404299
:103FC0007047C046030010B508001100002B05D152
:103FD000044B1A685B6800F033F910BD01204042C1
:103FE000FBE7C046480F01100300013B10B5080075
:103FF0001400012B06D801230022210000F0A0F8B4
:10400000200010BD01204042FBE7C0460120404295
:104010007047C046012040427047C04601204042E0
:104020007047C0460300022200209A424041704778
:1040300010B5FFF7A5FFC04630B50D0083B01900DD
:10404000002A0BD0074B084C0192009302002B0072
:104050002000FFF75DFF0120FFF792FF034B1A00DE
:10406000F1E7C04698FF0010A8FF0010BCFE00104A
:1040700070B5FEF74FFD074D074EB54209D200243B
:10408000013E761BB60808CD984723000134B342A1
:10409000F9D170BDDCFA0010E8FA0010030010B589
:1040A000080011001B68984710BDC046F0B5C64611
:1040B00000B5437D07000D001600002B38D0002A04
:1040C0002EDD00216A1E90466A5C037D4C1C002098
:1040D0000A2A0CD0A64216D043461B5D21000D3B98
:1040E0005A4253416A5CDBB24C1C0A2AF2D1002BC3
:1040F000F0D1884217DB022110483B689847A6425E
:1041000007D02000E8E7864203DD311A3B68281813
:104110009847AD19013D2B780D3B5A4253413B75F1
:1041200080BCB846F0BD091A3B6828189847E2E7FA
:104130000368110028009847F2E7C046A40F011059
:10414000F0B5DE4657464E464546E0B585B0170009
:104150001C0006000D00FEF7A1FA0023314A1218D8
:104160004B41802109068B4202D301222E4B524241
:104170002E4908008A460BF06BFC01906B1C03D1A2
:10418000300006F081F90500002C26D0284B984617
:10419000284B1C68002C15D0002F21D1264F02E09F
:1041A0002469002C0ED02368002BF9D03B68002B2B
:1041B00001D09C42F4D120002A003100C04724697C
:1041C000002CF0D1019B002B28D1280005B0F0BCB9
:1041D000BB46B246A946A046F0BD184B9846D7E765
:1041E000154B994602ABDF1D0A239B4602E024696A
:1041F000002CE7D02368002BF9D04B461B68002B1E
:1042000001D0A342F3D12A0031002000C0475B4611
:104210000122390020003B70C047E8E750460BF010
:10422000DFFBD2E740420F00FFFFFF7F281900208D
:10423000AD400010D04D0020DC4D00209D4000100E
:10424000F8B557464E464546DE4698461A4BE0B509
:104250009B461A4B07000E0091469A46184D5B4646
:104260001C68002C03D115E02469002C12D02B68A7
:10427000002B01D0A342F7D1A368002BF4D031006A
:10428000380098470028EFDDF0BCBB46B246A9468F
:10429000A046F8BD53465B6A984508D85246926AD4
:1042A0004A4502D302204042EEE79845FAD1012068
:1042B0000021FEF7FDF9D2E7D04D00200040054077
:1042C000DC4D00200A4A1368002B05D10CE01A00CF
:1042D0001B691032002B07D09842F8D1002902D177
:1042E00003691360016170470029FCD01060FAE790
:1042F000D04D002010B500F08DFA10BDF0B5CE46BF
:10430000474680B583B06B460600DD1D2870FEF77A
:10431000C5F900231A4A12184B41802109068B4225
:1043200002D30122174B52421749080088460BF06E
:104330008FFB164B81461C68002C14D0144F02E0F2
:104340002469002C0FD02368002BF9D03B68002B88
:1043500001D09C42F4D1200001222900FFF7A6FEE3
:104360002469002CEFD14B46002B05D1300003B05F
:10437000C0BCB946B046F0BD40460BF031FBF5E796
:1043800040420F00FFFFFF7F28190020D04D002082
:10439000DC4D002070B5040006F076F80123010022
:1043A000050001222000FFF7CBFE084B1C68002C03
:1043B00006D06368002B05D098472469002CF8D1FB
:1043C000280070BD2469002CF3D1F9E7D04D0020FE
:1043D0007047C0460022014B1A70704754520020AB
:1043E0004B790020FF2B0BD18B79002B08D1CB7997
:1043F000012B05D1082A03D9024B8A7809301A709B
:104400007047C046545200200120704710B5012962
:1044100001D0012010BD13495379107909781B028E
:10442000034300209942F5D15378012B08D0022B89
:10443000F0D1002064220021FEF7B4FA0120E9E760
:10444000D37891781B021943DB0507D54A0A10007F
:1044500001231A407E331940FEF72CFB01204A0A43
:104460004042F5E754520020004870477010011098
:1044700070B5050014000120012909D153780020EE
:10448000012B05D1637912791B021343072B00D04E
:1044900070BD21002800024A9F3301F049FAF7E776
:1044A000C80F01100123037000487047A80F0110C6
:1044B0004B780A781B0213438A7810B512041A430A
:1044C000CB781B0613439622D200934200D010BD36
:1044D0000022012011004042FEF7ECFA024B186066
:1044E000024B19607047C046704D0020744D00208B
:1044F00010B5024B1878FDF741FB10BD5552002056
:10450000154B70B51A68002A22D0EFF3108172B6ED
:1045100010680028FCD0BFF35F8F00200F4A59605D
:1045200010701B68BFF35F8F186081F31088002440
:1045300000250B4E3078FDF715FB002804D1002430
:1045400000252900200070BD3078FDF717FBF8E743
:10455000FA240025A400ECE70C520020565200205B
:104560005552002070B5040000200E0001F0F8FA4A
:10457000002836D0002001F00BFB002831D0FEF7D8
:104580008DF80023184A12184B41802109068B42EE
:1045900016D2164D28000BF05BFA002821D000201F
:1045A00001F0DEFA00280FD101200021404200F086
:1045B000F3FC0324644228000BF012FA200070BDC3
:1045C00001220B4B5242E4E7002001F0E1FA0028FF
:1045D000EAD021003200002001F0E6FA041EEAD100
:1045E000E7E703246442E9E740420F003452002029
:1045F000FFFFFF7F10B5FEF751F800230E4A121897
:104600004B41802109068B4202D301220B4B5242BF
:104610000B4C20000BF01CFA00280CD001200021CC
:10462000404200F0B9FC002001F00AFB0028F5D15F
:1046300020000BF0D5F910BD40420F00FFFFFF7FB7
:1046400034520020F8B5DE46574680B505000C0010
:10465000FEF724F80023374A12184B41802109063F
:104660008B4202D30122344B5242344908008A461D
:104670000BF0EEF9002803D1C0BCBB46B246F8BD32
:10468000002001F06DFA00284AD00026002C43DDFE
:104690002B4B9B4614E0A919002001F00DFB0700ED
:1046A00001200021404200F077FC002001F0C8FA10
:1046B000FDF7F4FF224BF61918605960B4422BDD68
:1046C000002001F019FBA71B0200B84200DD3A00F0
:1046D000002AE0D101200021404200F05DFC0020D2
:1046E00001F0AEFA002001F03BFA002814D00020BF
:1046F00001F002FB0028E1D1FDF7D0FF5B460F007F
:104700001A685B68002184460E4812184B419F428C
:1047100002D8D3D19445D1D950460BF061F9ABE71B
:1047200000200021064B1860596050460BF058F9E4
:10473000A2E7C04640420F00FFFFFF7F3452002037
:10474000B01A002020A1070030B52B4C85B0002105
:1047500020000BF065F900281CD1284B1A68002AAC
:1047600016D0EFF3108172B610680028FCD0BFF3AA
:104770005F8F01242248596002781B68D2B204700E
:10478000BFF35F8F0020186081F31088002A17D0D4
:1047900005B030BD01200021404200F0FDFB0020AB
:1047A00001F0F6F9050020000BF01AF9002DEFD00A
:1047B000144B1B68002BEBD0134A10689847E7E7AF
:1047C000FDF7E8FD0400FDF769FFFA2200239200DF
:1047D00012184B41802109068B4202D301220B4B58
:1047E00052420121029100210191094920000091CA
:1047F000FDF7D4FDCCE7C046345200200C52002017
:1048000056520020704D0020744D0020FFFFFF7FA6
:1048100001450010D02310B51B0684B01C68FDF7BD
:10482000B9FDFDF7B7FEA04202D0002004B010BDD4
:10483000294B1B7801F06AFD28480368002B47D0FC
:104840000120FDF737FBFF23254C26492070184037
:10485000FDF7B2F920780121FDF772F90520FDF787
:1048600095F9002826D1082200211F48FFF73CFBBC
:10487000FDF790FD0400FDF711FFFA2200239200DE
:1048800012184B41802109068B4202D30122174B9B
:10489000524201210291002101911549200000910D
:1048A000FDF77CFD0028C0DB12480121FFF70AFD5F
:1048B0000120BBE70120FDF711F90B4B01001800A7
:1048C000FDF75AFB002205200B49FDF79FF9EBE7A6
:1048D000FDF736FBB4E7C046BC1701103452002088
:1048E00055520020494700100C520020FFFFFF7F67
:1048F0000145001010120020F144001000487047DC
:104900000C11011000487047B810011010B50400D8
:1049100017480378002B20D0002C06D1154B1648E1
:104920004380063BFF3B038010BD052C19D8134B79
:10493000A400E05812490123013804E001330A8041
:104940000231142B0FD0C25C002AF7D1C022DBB297
:104950005B00920008481343E5E7112100F01AF8C4
:10496000DAE70020E0E7CA2303489B00DBE7C04604
:104970003C52002009040000A84D0020A0100110A6
:10498000AA4D002010B5024800F0D8F810BDC0466E
:104990002452002030B54B1E012900D1A7E0664A01
:1049A00011780D092C0030349F2900D9A2E0047041
:1049B000012B00D1BEE00F21147821400C003034CF
:1049C000092900D998E04470022B00D1B2E0547854
:1049D0002509290030319F2C00D990E08170032BEC
:1049E00000D1A7E00F2121400C003034092900D963
:1049F00087E0C470042B00D19CE09478250929003D
:104A000030319F2C00D97FE00171052B00D191E05E
:104A10000F2121400C003034092900D976E044717F
:104A2000062B00D186E0D4782509290030319F2C4F
:104A300000D96EE08171072B00D17BE00F2121406E
:104A40000C003034092966D8C471082B00D171E0FC
:104A500014792509290030319F2C5FD80172092B68
:104A600068D00F2121400C003034092958D84472F5
:104A70000A2B5FD054792509290030319F2C52D858
:104A800081720B2B56D00F2121400C0030340929A4
:104A90004BD8C4720C2B4DD09479250929003031A4
:104AA0009F2C00D9073101730D2B43D00F212140DA
:104AB0000C003034092901D937310C0044730E2B16
:104AC00038D0D1790C09220030329F2900D9073221
:104AD00082730F2B2ED00F220A4011003731092A82
:104AE00001D830321100C173102B23D010300023B5
:104AF000037030BD07345AE737310C0063E70731E4
:104B00006CE737310C0074E707317DE737310C0073
:104B100085E707318EE737310C0095E707319DE7D0
:104B200037310C00A3E70731AAE737310C00C47214
:104B30000C2BB1D1C018DAE72452002010B588B090
:104B400004000D2200216846FFF7CEF90D22002156
:104B500004A8FFF7C9F94B236A466846137004A9F5
:104B60000D220AF035FF1521082220006944FFF7C5
:104B7000C1F908B010BDC046F8B500F03BF90C23F0
:104B8000184DFF22AB6705201749FDF73FF8174C7A
:104B9000402200212000FFF7A7F94027002301262B
:104BA0002121134A66702783A260136063545F312A
:104BB0006184453963540F4A0F496360E260278777
:104BC000A1620B606362E2620AF012FF80239B0520
:104BD0002E64EB649023094AEA508022084B52026B
:104BE000DA64F8BD00001150E9040020E44D002013
:104BF00084001050000110508000105010D00100AF
:104C00000020115010B501210520FCF799FF10BDBF
:104C100010B500220021024800F00CF910BDC0467A
:104C2000044E0020044B1970002904D080219023E9
:104C3000024A8902D1507047505200200020115082
:104C40000B785B0602D14B78052B00D070478A7831
:104C5000014B1A60FAE7C04600001150F0B5C64695
:104C600000B5CC7888780A794B797F21A407014078
:104C70001B02C50913434F00A20F1400324E7A19CC
:104C80005201B218907001206840507000205B05FE
:104C90005B0DD0701383D4768046CA00012D33D0CB
:104CA0002A488446880162448446B444604682604F
:104CB00040461060002933D0254AC900904662461C
:104CC000414451603F223F339343022C00D15B00AB
:104CD00020487A1901685201B218D1601E4ACB18D7
:104CE000036051405A40802388465B019A4228D88D
:104CF0004346A4061C4380237F197F01F61972687E
:104D00001B062343136011E0144884468801624463
:104D10008446B4446046826240461060002909D14E
:104D200000236D0175196B600D4BEB60012080BC99
:104D3000B846F0BD084AC9009046624641445162F7
:104D4000C0E7FDF7E1FED3E7E44D002084001050FA
:104D500004001050F051002000001050800010504E
:104D60000001105010B50AF043FE10BD10B57F20B1
:104D70000C0020404000E409110000191A00034B08
:104D80004001C01800F056F8012010BDE44D00208D
:104D90007F23180010B50840CA090B4203D1074908
:104DA0007D3B9B1A8B66400080188022044B40019B
:104DB0000021C01812010AF063FE10BD002011503E
:104DC000E44D00207F22130010B50B400A4200D1B1
:104DD00010BDC9095B005B1804485B01C0180023C3
:104DE00000220349C3700AF04BFEF1E7E44D0020B6
:104DF000FFF7FFFF80220A4B520410B51A60094BDF
:104E000009491A6010000B689843FBD180220021E9
:104E100052010648FFF768F80922054B5A6710BD92
:104E200000E0004000F0004008C0004000001050CA
:104E300000001150002310B5C382013382828376B3
:104E4000016104000AF0BCFD002804D080219023F9
:104E5000074A8902D15020000AF00AFE002802D039
:104E60000123237710BD20000AF0FAFDFAE7C046BF
:104E7000002011507047C0467047C0460020704760
:104E8000002070477047C0467047C0467047C04614
:104E90007047C046024B5878431E9841C0B27047D5
:104EA00088480020024B18784007C00F7047C04662
:104EB00088480020F8B54746CE4680B52B4F0600FF
:104EC0003B78FF2B04D00120C0BCB946B046F8BDEA
:104ED000002154222648FFF707F80022254C264BD4
:104EE00020001A70FDF72CF8244B1C60244C200085
:104EF000143CFDF733F8200001F0F2FD214B224D68
:104F00001C60224B002B27D02800FFF7CBFA204B48
:104F10002A7818601F49002489461D4900238846C5
:104F200010E043461B6862019B18002B12D05B689F
:104F3000002B0FD098472A780134E4B2511C23008B
:104F4000A1420BDBA242ECD89B1A5B014B445B688D
:104F5000002BEFD10020B7E72A78DBE730003E7066
:104F6000FFF70AFE3000FFF74DFEACE744120020C9
:104F7000884800204048002051520020DC48002092
:104F80003C120020E04800204F520020A5440010B1
:104F90005C450020C8110110F0B5DE4657464E466C
:104FA0004546E0B5C84B91B002931B78FF2B00D16A
:104FB0003EE1C64BC64E9B465F46C64B0DAC0193C9
:104FC000C54B009335686A69EFF3108172B61368B8
:104FD000002BFCD0BFF35F8FA9612800210001F0F6
:104FE000ADFB6A69AB69BFF35F8F0021116083F38A
:104FF0001088002800D11BE16378082BE2D89B00C1
:10500000FB589F466368002BDCD0A0689847D9E71F
:105010007F222179AF4D0A405300EB189846C8090A
:10502000804440460123303005799D430571057960
:1050300003339D430571002A00D100E14346A74A8E
:105040001B7D1278934200D3EFE0A54A5B011568FF
:10505000ED18002D00D1EBE0A36862792078AD69EE
:10506000A847AFE79F4A1378002B00D1E0E0137800
:10507000013BDBB213701378002BA3D10122954DB5
:1050800001212B78042013432B703423EA5C8A43DC
:10509000EA54EA5C8243EA540133EA5C8A43EA5404
:1050A000EA5C8243EA54237800209B4600F0A0FC8F
:1050B000602223791A40602A00D1EFE0402A00D113
:1050C000F5E0DB06DB0E012B00D113E1022B00D152
:1050D000C7E0002B00D0E1E0202A00D11CE2002A2A
:1050E00000D0DBE06379092B00D9D7E07E4A9B0032
:1050F000D3589F46774D2B78DB0700D462E7FFF744
:10510000C7FE5FE7019BDB78DB0700D45AE76068E6
:10511000FFF7B2FE56E76F4D2B78DB0700D451E75F
:1051200028780007C00FFFF7B1FE4BE723786A49E4
:1051300099468B46694B6A4998468A4639001A78DF
:1051400047460023B04600254E46894610E05346A8
:105150001B686A019B18002B00D176E0DB683000E9
:1051600098473A780135EDB2511C2B008D4244DC52
:105170009542ECD39B1A5B015B44EFE723785849D7
:105180009946564B8A4698463100BB464E461A7899
:1051900000250023474689460FE053461B686A01F5
:1051A0009B18002B55D0DB68300098473A780135C2
:1051B000EDB2511C2B008D4207DC9542EDD39B1ABA
:1051C000009A5B0194466344EDE7019D542200215F
:1051D0002800FEF789FE1022FF214448FEF784FED6
:1051E00028002022FF2114304E465F46FEF77CFE49
:1051F00000F0F4FBFFF748FEE4E6364D54220021B0
:105200002800FEF771FE1022FF21281DFEF76CFE1C
:1052100028002022FF21143046464F46FEF764FE48
:1052200000F0DCFB2379AB70CCE6501C984213DA1B
:1052300011B0F0BCBB46B246A946A046F0BDA3687B
:105240006279207800F0E8FBBCE646464F46214DE7
:10525000E6E74E465F46CBE71F4D9B1A5B015D19A3
:10526000FAE67023217A0B4218D1C80982460F331F
:105270000B405B0098461948EB1853441B7D00789F
:105280009946834266D216485B010068814699447C
:10529000002A00D15FE14B46002B68D12078002125
:1052A000FFF776FD80212078FFF772FD8AE610482F
:1052B00000F09EFB012158460EAAFFF7D9F80028FE
:1052C00000D07FE6EAE7C04644120020201101101A
:1052D000E048002088480020C81101104F520020EB
:1052E0005C45002051520020441101108C480020E0
:1052F00071440010237A0F2BD0D8CF4AEB181B79BA
:105300001578AB423ED3691C9942C7DB5D1BCB4B82
:105310006D01ED18686900F06BFB012158466B695F
:105320000EAA9847002800D04CE660221500237989
:105330001D401A42B2D163790A3B012BAED800F06E
:1053400057FB63790A2B00D199E158460EA900F06A
:10535000D9FA37E6431C4B4500DAF7E04B461B1AF7
:105360005B019946B5488144002A00D1F3E04B46E1
:10537000586900F03DFB4B46012158465B690EAA77
:1053800098479CE7AE4A5B011568ED18002DC1D126
:1053900084E7A37999466B789945D6D06B78002B32
:1053A00000D033E14B466B70002B00D12BE1484617
:1053B0000138C0B2FFF7A6FA002800D17EE1437899
:1053C0000793022B00D079E10122C179B1468B11FC
:1053D000491113400A40302112015B0113432A781E
:1053E000A8468A4313432B7009239A4682445646A3
:1053F000BA46C37882781B021343C31805938E4BB9
:1054000004938E4B08938E4B09938E4B0A93059B06
:10541000B34200D855E1737801220B2B03D13378C6
:10542000F278F6187378042B00D044E1059B00272E
:105430009B1B9BB20693049B0B921D780023039346
:105440001BE0099A7B011568ED18002D00D132E1AF
:10545000310058462B69069A98478446082803D994
:10546000069A824200D313E1049B01371D78FFB2F4
:105470006B1C03979F4200DD1DE1BD42E1D8039BF9
:105480005D1B089B6D019C466544E1E76B780CAAA7
:1054900002321370584601230EA900F049FA91E533
:1054A000E3881A0AD8B20F2A00D9F7E666499300B2
:1054B000CB589F460EA800F0A1FA5846A179FFF7F5
:1054C000A7FB02222B7813432B707BE5E388012B8B
:1054D00000D0E3E608222B78584693430EA92B70A0
:1054E00000F010FA6EE5022029780CAB9A1C8B06AE
:1054F0008908DB0F01400B431380584602230EA995
:1055000000F016FA5EE5E388012B00D0C6E608221B
:105510002B7813432B7018E7237A0F2B00D9BDE6A5
:10552000EB181D79444B1B789D4228D2444B6D01EA
:105530001B685D19002D00D1B0E6686900F058FACB
:10554000012158466B690EAA9847B8E6002A00D098
:10555000A4E6002399466279022013000392834354
:10556000012B15D0002A00D098E62B004344534469
:1055700030331B790CAA9B07DB0F0232BCE75A1CA5
:10558000AA4200DA8AE6ED1A2C4B6D01ED18D4E739
:10559000E388002B12D1029B1878039B012B23D0A8
:1055A000FFF7F6FB43460221EB18534430331A79D8
:1055B0000A4301211A711A790A431A714B46002BCA
:1055C00000D1FFE4586900F013FA4B4601215B69F2
:1055D0000EAA58469847002000F00AFA3523EB5CE3
:1055E000DB0700D5EEE4B0E6FFF7ECFB4346022113
:1055F000EB18534430331A798A431A711A79039994
:105600008A431A71DAE7FFF73FFC9EE6002158460D
:10561000FFF708FB5846FFF7A5FBAB780749039354
:105620000491054B064998461A78059100232900F4
:105630001D008A461BE0C0464F520020C8110110D1
:105640005C4500209C4800206C110110059B6A01FC
:105650001B689B18002B4DD0DB6858469847434683
:105660001A780135EDB2511C2B008D422EDC95428B
:10567000ECD39B1A049A5B0194466344ECE70CABB1
:105680009A1C584601230EA9157000F051F999E4AF
:105690000B9A012A4FD0002A3CD00023B07804E0B6
:1056A0000133DBB20F71934234D2C118C9B2414405
:1056B0000D79FF2DF4D04E464546574600236B70BA
:1056C000ECE54E465746FFF7DDFB3EE655465422D5
:1056D00000212800FEF708FC1022FF21281DFEF7FC
:1056E00003FC28002022FF211430FEF7FDFB039B62
:1056F000AB7057E65546FAE7FEF7B6FE021E00D13C
:10570000CCE5D37891781B020B4358460EA900F0E4
:105710000FF9D4E565463B002A0031000A9800F0F5
:105720007DFEAC46049B039A1B786644013393428A
:1057300000DB6CE6BFE7174B29699942ADD1079AA8
:10574000ABE7FFF79BFB021E00D1A7E55846137895
:105750000EA900F0EDF8B2E52189FFF7D7F8021E97
:10576000F4D19BE5022A0FD0FFF78AFB021EC8D1B5
:1057700094E5FFF7C3F8021E00D18FE512235846C7
:105780000EA900F0D5F89AE5FFF7BCF8021EB8D1D3
:1057900084E5C0460D5E0010F8B557464E46DE461D
:1057A00045460C00E0B516001F00002A3CD01F4BF8
:1057B00000259A46702399461D4B9B4617E05B4691
:1057C0002000997800F0ECFD00281FD02100404611
:1057D000FFF744FA002819D0A378DA09012A1CD06F
:1057E0000A9A013513702378E418B5421CDA6378FD
:1057F000052B0BD1E3789B079B0FBB4206D1534689
:105800004A461B789846A3781A42D8D00020F0BCAC
:10581000BB46B246A946A046F8BD0B9A01351370A7
:105820002378E418B542E2DB0120F0E744120020BF
:1058300088480020702270B5094B0C001D788B78C9
:105840001A4201D0002070BD064B2000997800F06C
:10585000A7FD0028F6D021002800FFF7FFF9F2E7A6
:1058600044120020884800200B007F2010B518400B
:10587000DB0934334000044AC018044B1168C018D7
:1058800000F04AFD10BDC046DC48002088480020DA
:105890000B007F2010B51840DB0934334000044A68
:1058A000C018044B1168C01800F05EFD10BDC04662
:1058B000DC4800208848002070B57F240F480C4049
:1058C00064000419CD09641930342079C00701D56A
:1058D000002070BD012625790948354300782571DF
:1058E000FFF744FA0028F4D101222379934323716E
:1058F0002379033293432371EAE7C04688480020A6
:105900004412002070B5094C0600082220000D004A
:10591000FEF7F0FA00238021E360A3602B783000CB
:10592000994300220023FFF7C7FF70BD2C480020D9
:10593000F8B5CE4647469046264E80B581460822A9
:1059400030000D001F00FEF7D5FA4346B360002378
:10595000F381EC79AB7924021C43231CBC4200D9AF
:105960003B1C9FB2B381002C0ED0002F18D04346B1
:10597000002B2CD03B1C402F1BD89FB233787F2BA1
:105980001CD80021144A0FE080212B780022994373
:1059900048460023FFF790FFC0BCB946B046F8BDAB
:1059A0007F230022317899433B004846FFF784FF6C
:1059B000F2E740239FB233787F2BE2D9064C3A00BE
:1059C00041462000FEF796FA80212200ECE70020F5
:1059D000E2E7C0462C4800204848002010B51422B9
:1059E00000210248FEF780FA10BDC0462C48002076
:1059F000014B18617047C0462C48002010B5054C7B
:105A0000010008222000FEF775FA0023A360E3607E
:105A100010BDC0462C48002070B5384C1D002378BE
:105A20000600DA09C9098A4210D00020002D00D0F2
:105A300070BD21003000FFF703F92369002B03D06C
:105A400022000321300098470120F1E7A0687F2B56
:105A500005D8002834D02A002949FEF74BFAE289FC
:105A6000A1685219E38892B24919E281A160934278
:105A700014D03F2D12D9A389981A051C80B2402852
:105A80002AD82078ADB27F2828D800219A4232D077
:105A90001B4A2B003000FFF70FFFC9E72369002BDB
:105AA00005D0220002213000984700280AD080212A
:105AB00023780022994330000023FFF7FDFEB7E76B
:105AC0000020B5E700213000FFF762F930008021A7
:105AD000FFF75EF90120ABE74025D2E79A4207D0F5
