:020000041000EA
:1000000000B5324B212058609868022188439860DF
:10001000D860186158612E4B002199600221596106
:100020000121F02299502B49196001219960352056
:1000300000F044F80222904214D00621196600F024
:1000400034F8196E01211966002018661A6600F04E
:100050002CF8196E196E196E052000F02FF8012189
:100060000842F9D1002199601B49196000215960AB
:100070001A491B48016001219960EB211966A021F2
:10008000196600F012F800219960164914480160C1
:100090000121996001BC002800D000471248134993
:1000A000086003C880F30888084703B5996A0420EC
:1000B0000142FBD001200142F8D103BD02B5186610
:1000C0001866FFF7F2FF186E186E02BD00000240BE
:1000D000000000180000070000035F00212200005C
:1000E000F4000018222000A00001001008ED00E03C
:1000F00000000000000000000000000074B24E7A12
:1001000000200420F7010010C3010010C5010010F9
:10011000C1010010C1010010C1010010C101001097
:10012000C1010010C1010010C1010010C701001081
:10013000C1010010C1010010C9010010CB01001065
:10014000CD010010CD010010CD010010CD01001037
:10015000CD010010CD010010CD010010CD01001027
:10016000CD010010CD010010CD010010CD01001017
:10017000CD010010CD010010CD010010CD01001007
:10018000CD010010CD010010CD010010CD010010F7
:10019000CD010010CD010010CD010010CD010010E7
:1001A000CD010010CD010010CD010010CD010010D7
:1001B000CD010010CD010010CD010010CD010010C7
:1001C00000BE00BE00BE00BE00BE00BEEFF3058054
:1001D000103800BEF2EB88711CB200103CB2001067
:1001E0003802001090A31AE71E481F49086006C88D
:1001F00081F3088810471D480068002801D019487D
:10020000F3E70DA40ECC002902D000F012F8F9E7B4
:100210001749184A002000E001C19142FCD116495B
:100220008847164988471649884700BEFDE701C937
:1002300001C29A42FBD370473CB20010C0000020BC
:100240003C170020B8C80010000004200000042063
:10025000B8C80010001004200010042000000000A6
:10026000704700000000000008ED00E0000000D032
:100270003C1700204029002061260010D502001004
:1002800021260010F8B5C04606480749091A8B1008
:10029000C90FC91810B5491003D0044B002B00D06A
:1002A000984710BD3C1700203C17002000000000BC
:1002B000054B10B5002B03D00449054800E000BFF2
:1002C000FFF7E2FF10BDC04600000000DC28002060
:1002D0000CA60010F0B5DE4657464E464546E0B542
:1002E00099B004F059FF7F4B7F4C09937F4B804DB1
:1002F0009846804B002799467F4B01260A937F4BF7
:100300000B937F4B0C937F4B01937F4B0D937F4B54
:1003100006937F4B02937F4B07937F4B08937F4B52
:1003200003937F4B04937F4B05937F4B0E937F4B3F
:100330000F9301239A4601339B46099827602F604B
:1003400004F018FF43461F704B461E7023680A983E
:100350000133236004F00EFF43461F704B461E70AE
:1003600023680B980133236004F004FF43461F7099
:100370004B461E7023680C980133236004F0FAFE8C
:100380004B461F7043461F70534610935B465246C0
:1003900011930323149212935A46139316931793AF
:1003A00053461592534500D188E03B2201990D98A0
:1003B00004F0E0FE4346109A1E70149B9A4264D0EB
:1003C0003C220199069804F0D5FE43461E704B4628
:1003D00001221A70236823602B6802989B182B60F7
:1003E00004F0C8FE4B461F7043461F7053461093DF
:1003F0005B46032202211193032314921293139359
:10040000159116961793524528D04B4600221E7020
:100410002368013323602B6803989B182B6004F03A
:10042000A9FE43461F704B461E7023680498013393
:10043000236004F09FFE43461F704B4621682A68E4
:10044000013105988A181E70216004F093FE2B6814
:10045000002B42D10E9804F08DFE6EE75A46013B08
:100460009A42D2D10322B242CFD13F3201990798AA
:1004700004F080FE4346109A1E70149B9A420DD0E1
:100480004B4601221A702368C4E7119A159B9A42C1
:1004900096D1129A169B9A4292D198E7119A159B7F
:1004A0009A42EDD1129A169B9A42E9D143220199C0
:1004B000089804F05FFE43461E70E1E75A4500D0FD
:1004C00073E703221300924200D06EE74946023BD5
:1004D0000B702368002201337DE70F9804F04AFE79
:1004E0002BE7C04610A60010CC1A002035290020AA
:1004F000C81A00203629002030A600105CA6001083
:1005000084A60010A4A600100CA7001024A70010B9
:1005100040A7001060A7001078A7001094A7001053
:10052000B8A70010E4A70010F8A7001010A800104A
:100530008023DB051868000F7047C0460FB400B574
:10054000084883B002F01EFA049B002B07D005A9CF
:100550001800019101F0FAFF034802F013FA01209C
:1005600002F00CF82CA800103CA8001070B5EFF3B6
:10057000108C72B60D4D2B68002BFCD0BFF35F8F33
:100580000724CB08C618C05C01230C40A3401C0004
:100590000440034207D118433070BFF35F8F2C60D3
:1005A0008CF3108870BD1000FFF7C8FF2C0100D03D
:1005B000F8B54746CE46884680B5EFF3108C72B644
:1005C000214D2C68002CFCD0BFF35F8F9A422CD8B1
:1005D000D4080727055D061901241740BC402C42AA
:1005E0001FD007210127894609E0D408055D0619B7
:1005F0004C4639001440A1400C00294211D0013270
:100600009342F2D201204042BFF35F8F00220E4B93
:100610001A608CF3108800280FDBC0BCB946B046C6
:10062000F8BD254310003570EEE7BFF35F8F002360
:100630002B608CF31088012040424346002BECD005
:100640000898FFF77BFFC0462C0100D0044A1078C1
:10065000431CDBB2172B00D9102313707047C04620
:10066000980F002010B5064B064C82B00100009395
:1006700018221F232000FFF79BFF02B010BDC046C9
:1006800040A80010642400200021044B044ABFF35A
:100690005F8F02C39342FAD17047C046000100D079
:1006A000800100D0054B064A1360064A1360536070
:1006B0009360D36013615361936170478080808041
:1006C00000E400E004E400E01F2318401E3B8340E8
:1006D000002905D0C021044A4900535013607047D7
:1006E000802201498B50FAE700E100E001228240BC
:1006F000034B1B6813405A1E9341D8B27047C04643
:1007000000E100E001238340014A13607047C046C6
:1007100000E200E0084B10309B688000C358002BBB
:1007200007D0064A00209B1A2F229A424041C0B2AD
:1007300070470020FCE7C04600ED00E09C0F002061
:1007400070B50D00EFF3108672B60F4A1368002BD8
:10075000FCD0BFF35F8F0D4B10309B6884001B599A
:100760000B4A934203D09D4201D000F091FF074B0A
:100770009B681D51BFF35F8FBFF35F8F0022024B59
:100780001A6086F3108870BD240100D000ED00E0EF
:10079000CD010010F0B557464E46DE464546E0B561
:1007A00085B0060000911700EFF3108B72B66A4A0D
:1007B0001368002BFCD0BFF35F8F0025674B5D579C
:1007C0009A46002D00DAA9E06B00654C01935B1995
:1007D0009B009846A146C1444B4652469B79103631
:1007E0001370604BB6009B6899590B1B2F2B33D9A4
:1007F0005D4B994200D0ACE0019B42469C465B4B6E
:100800006544AD0063535A4B0232A218043B9B1A55
:100810001B05584A5B0D651913436B80564B01212C
:10082000AB80FF23AB71009BEF71AB604B460B437A
:1008300019004C4B9B689951BFF35F8FBFF35F8FDB
:100840000022454B1A608BF3108805B0F0BCBB4604
:10085000B246A946A046F0BD01200A008243D379E2
:100860008C46BB4231D84546130044491B1B5B41B3
:100870005943090D3D4B63533D4B02356519043B0C
:100880005B1B1B053B4D5B0D2B43AA464D466B8006
:100890000425AC465546E044131F44441B1B1B056E
:1008A0005B0D1D434B46997100999D8099604946A7
:1008B000DF71334B01431360BBE75800C018800061
:1008C0002018C179B9422FD902000623D356002B34
:1008D000F3DA02932B4B61460393131D9A460423CC
:1008E0005B429C46E14450464B461B1A1B055B0D80
:1008F0009C46204B9571984663464046034393803F
:10090000019B5A199200039BA418A380029B1C4AC6
:10091000A371009B2260E771A3608AE700F0B8FE34
:10092000002553465D574FE7908802934005131DFD
:100930009A46031561469C464046D44463460430BB
:100940002018181AE0230005400D1B0218430390DD
:10095000C5E700F09DFE4FE7240100D03B290020B1
:100960009C0F002000ED00E0CD01001000A1FFFF72
:10097000CC0F002000E0FFFF01BDFFFFAAAA00008E
:100980000148804701BD000070B501240443EFF326
:100990000581EFF3108C72B6214A1368002BFCD04E
:1009A000BFF35F8F1F4B05001F4AED1A6D416A436D
:1009B000120D1E4D8900AE6852B27658A6421CD068
:1009C0000621595691421CD012215956914222D0EB
:1009D0001E215956914220D02A2159560324914272
:1009E00010D0134B19781A708171BFF35F8F0022FA
:1009F0000B4B1A608CF3108870BDAB680D4C5C50CB
:100A0000EFE700246100091989005B18FF21997143
:100A100009499980E5E70124F4E70224F2E7C0469A
:100A2000240100D09C0F0020AAAA000000ED00E0E5
:100A30003B290020CD01001001BDFFFF10B5084B80
:100A4000084C82B001000093002205232000FFF72C
:100A5000AFFD002801DB1F23181A02B010BDC046ED
:100A60005CA800103F290020024B9C46614489008D
:100A7000016070474000003470B5114C114DAC421C
:100A80000FD2FF262368002B0CD0FFF7DFFD0100FB
:100A90002000FFF7E9FFA680BFF35F8F0834AC4268
:100AA000F0D370BDFFF7D2FD01002000FFF7DCFF9F
:100AB0002671BFF35F8F0834AC42E3D3F1E7C04641
:100AC0002C1700203C17002010B50400FFF7BEFDD6
:100AD00001002000FFF7C8FFFF232371BFF35F8FE2
:100AE00010BDC04610B504000120FFF7BBFD034B4D
:100AF000C3189B002360BFF35F8F10BD400000341C
:100B0000034B9C46614489000160BFF35F8F7047CF
:100B1000400000340A4B1968EFF3108072B60A687F
:100B2000002AFCD0BFF35F8F1B68BFF35F8F0022EA
:100B30001A6080F3108840BF002000217047C04633
:100B400018290020F0B5DE4657464E464546E0B52A
:100B500083B0EFF3058203231340B54A990052583E
:100B60000091904601229A40B24B93461A60B24BD4
:100B700001932EE043469B881BB2002B00DB99E0DB
:100B800043469B79002B00D0DDE0434608241C5FE0
:100B9000002C00DA06E143465A6963001B19DB00AA
:100BA000D3189D68DC686B1C00D107E1A34B00994A
:100BB0009C4661449A6A0B69A81A9B1A984200D213
:100BC0000D619E4800F026FB8C4200DDEAE000D17A
:100BD00026E15B4699484363434608229B5E99465B
:100BE000002BC7DB424652695B0092464B44DB0058
:100BF0009A4453469E68DF6800F00CFB8F42B9DCD4
:100C000000D100E1002F00DAE1E05246534654697A
:100C10001B69019A934200D1D4E041465246082014
:100C2000085E5288000421001043984704000D001C
:100C300023002B4300D1CAE0002D00DBE7E03000A9
:100C40003900001BA94153469860D96000229A5E82
:100C5000002A8FDB43465D6953009C18E4002C1981
:100C6000A768E4688C4200DD84E702D1874200D99E
:100C700080E74646328108360DE08C4200D1D3E051
:100C80001E000023F25E002A0ADB53009C18E400D9
:100C90002C19A768E4689B18DB00EB188C42ECDD8C
:100CA00053461A804B46338043469B881BB2002B29
:100CB00000DA65E743461A69EFF3108172B61368EC
:100CC000002BFCD0BFF35F8F43469E880123424632
:100CD0005B42938036B21369BFF35F8F00221A60C4
:100CE00081F31088002E00DA4AE743465D69083335
:100CF00042469C467700BF19FF00EF19BB6860466B
:100D000098460823D15E9246FC68002907DA0EE077
:100D1000A2424FD018000023C15E002906DB4B0021
:100D20005B18DB00EB18DA68A242F1DD5246068060
:100D30000023FE5E3980002EDCDA904643469B7924
:100D4000002B00D121E700234246937143464646DB
:100D50000821595E08364B1C24D047468946556900
:100D600002E006004B1C18D04B005B18DB00E818B3
:100D70000A008C46E95E43881BB2002BF1DA01239E
:100D80005B42DC178360C4604A4503D031803B89F5
:100D900003803A81E1464B1CE6D14C46B846002C14
:100DA00000DBF8E640BF03B0F0BCBB46B246A94644
:100DB000A046F0BD9A684245ACD9B7E7631C00D0A5
:100DC000F4E6FEE6200023699847002825D1534623
:100DD00042461B8813811269EFF3108372B61168C3
:100DE0000029FCD0BFF35F8F4246514652880A80EB
:100DF0004246494651801269BFF35F8F002111605E
:100E000083F31088B6E6864200D8FBE6B2E60B48CC
:100E100000F000FA0019694115E76568246807E7E2
:100E2000854200D8D5E6BDE7874200D828E737E7F6
:100E3000FC2800203C700540450B00100040054098
:100E400070B52E4C2569002D04D00A212C48FFF7DF
:100E50000BFE70BD2B4E0321300000F0D1F9E6608F
:100E6000FFF7F4FB284B03229C46D02322701B067D
:100E70001B6801216370254B6044A3600F23800031
:100E800020610220638063694942A1801980023198
:100E9000198647311D83585218315A5275325C39C0
:100EA000995218320131995218320131995218323F
:100EB00001319952083518329D5202311832995237
:100EC00018320131995218320131995218320131D8
:100ED00099521832013199521832013199520C4B02
:100EE0000C49DC6001303562FFF72AFC0121032048
:100EF000FFF7EAFB084B1D60A7E7C046E40F0020A0
:100F0000182900200040054040000034FFFF100079
:100F1000FC280020450B0010386005400048704751
:100F2000E40F0020F8B51F0008AB1B780400160082
:100F3000002B08D100F076F932003B00121A8B41E9
:100F4000002B00DA53E02269EFF3108072B61368C9
:100F5000002BFCD0BFF35F8F0223E15E63694A0080
:100F60005218D2009B18002937DB1A886280226948
:100F7000BFF35F8F0025156080F31088069A9E608E
:100F8000DF601A61079A5A615A8801325204520C82
:100F9000101C002A1FD082B2588008041043266912
:100FA000EFF3108772B63268002AFCD0BFF35F8F70
:100FB000A2881A80A1802369BFF35F8F00221A6084
:100FC00087F310880B4923788C4601329A40E368F6
:100FD00063441A60F8BD0120DDE72369BFF35F8F2A
:100FE00000221A6080F3108801204042F2E70020BE
:100FF000F0E7C0463C20000070B501000469EFF343
:10100000108C72B620680028FCD0BFF35F8F0220DE
:101010000D5E4C6968004019C0002418002D37DBB4
:10102000208848800869BFF35F8F002606608CF334
:101030001088E36063880498013320615B0405989D
:101040005B0CA26060611A1C002B1FD093B22804B5
:10105000628018430A69EFF3108C72B61368002B94
:10106000FCD0BFF35F8F8B8823808D800B69BFF32B
:101070005F8F00221A608CF310880B7801329A403F
:10108000CB6808498C4663441A6070BD0122DDE7D5
:101090000B69BFF35F8F00221A608CF31088012068
:1010A0004042F2E73C20000010B543890A14934205
:1010B0001ADD53009B184269DB00D3180469EFF373
:1010C000108C72B62268002AFCD0BFF35F8F5A885A
:1010D000090494B2090C8A4208D00369BFF35F8FF8
:1010E00000221A608CF31088002010BD80221202AA
:1010F00014435C80012302698371BFF35F8F002179
:1011000011608CF31088044902788C469340C268C1
:10111000012062441360E8E73C20000040787047FB
:10112000F0B5CE46474680B504000D0083B0EFF31E
:1011300005878846002F3ED12E4EA1463378F068B1
:1011400004339B00816A1B58601A5B1A98420ED3C5
:1011500020BF294900204B6AAB4203D38A6A013081
:10116000944231D803B0C0BCB946B046F0BD00F0DF
:1011700059F822002B00121A8B41002B2FDB1F4B3A
:101180002200009330002B000197FFF735FF011E6E
:1011900025DD194B5A6AAA421BD220BF3000FFF747
:1011A00083FF154A0020536A4345DBD3926A01301E
:1011B0009145D7D908E0104900204B6AAB42D1D302
:1011C0008A6A0130A242CDD25B1B5A1E9341D8B22B
:1011D000C8E79B6A9C42E1D9AA42DFD1DDE7064A13
:1011E0000020536A4345BDD3926A01209145B9D985
:1011F000EAE7C046E40F002000400540150B001050
:1012000010B5024A0248FFF7B1F910BD78A80010E6
:10121000682400200300416A0A00986A596A8A42D9
:10122000FAD17047034B596A0A00986A596A914289
:10123000FAD170470040054070B504000D00174A10
:10124000536A1900966A536A8B42FAD1300019002A
:1012500024184D41AB4216D813D0104A2B00526AC5
:10126000954203D90D494A6A9A42FCD39A4207D162
:101270000A4A02E0516A994202D1916AA142F9D325
:1012800070BDA642E9D9054B5B6A1C005A1CEFD021
:10129000012301246442E5175B42E3E70040054077
:1012A000F8B5DE464E4657464546E0B58B46050046
:1012B0000A991800160000F0F1FA0A9B6C001F0250
:1012C000324B64199C46A4006444636881469F4283
:1012D00000D967602B1FDBB29846012B30D9C023A1
:1012E00080229B01E31812011A60294BAD00595965
:1012F0009A4600291BD17301E026226853401E4004
:10130000802342465B01E3181E60012A30D9802306
:1013100080229B01E31812011A6053464A46676017
:101320005A51F0BCBB46B246A946A046F8BD586922
:1013300000F0B4FA013043001B18033BFDD2DAE79A
:101340005B46012BCBD1C02303229B01E3181A601B
:10135000023AA3681A42FCD07301E0262268AD006D
:1013600053401E4080230A4A5B019246E3181E60E8
:101370005A462168514003220A401A6001225B4606
:101380009A40A3681A42FCD0C1E7C04600800040E2
:101390006C240020F0B546464F46D646C0B51F0027
:1013A000344B44009C462418A40064446368884677
:1013B0001600FF2B02D880235B006360031FDBB2A3
:1013C0009A46012B30D9C02380229B01E3181201D9
:1013D0001A60294B85005959994600291BD1730180
:1013E000E026226853401E40802352465B01E318EA
:1013F0001E60012A30D9802380229B01E31812014C
:101400001A6080235B0063604B465F51E0BCBA46C4
:10141000B146A846F0BD586900F040FA01304300DB
:101420001B18033BFDD2DAE74346012BCBD1C02387
:1014300003229B01E3181A60023AA3681A42FCD007
:101440007301E0262268850053401E4080230A4A2B
:101450005B019146E3181E60424621685140032219
:101460000A401A60012342469340A2681342FCD00E
:10147000C1E7C046008000406C240020014B800082
:10148000C05870476C240020F8B5040021481E00A5
:1014900017000D0000F002FA0100380000F0FEF91C
:1014A000069B36041B031E432368002B20DB1A4BCC
:1014B0001A49E3185A1E93418022920194465B42D6
:1014C0001B0B174A1B0363441360164A13601F006B
:1014D0000A689743FBD1144B2560E2182123A060D2
:1014E00013602368002BFCDA0823E6601360F8BD64
:1014F0003F2322681340AB42D9D1A3681B051B0DC3
:101500008342D4D1EE22E368D2021340B342CED15B
:10151000EDE7C046001BB7000040FDBF08C000401B
:1015200000E0004000F000400430000010B58024CE
:101530001C4BE4051C6000281AD001231A4C1843E8
:101540001A4BDC611A4C44401C625962986280213B
:10155000144BC9051960174817490860E021C904F0
:101560001960002A07D18022144B12061A6010BDA0
:101570000E4BD861EBE753019B1A9B009A1880230E
:1015800012015B049A4209D213000D490B60074B0C
:101590005A608022094BD2051A60E8E7094B1A000D
:1015A000F3E7C04600B00540D3C007B00080054057
:1015B0002D3FF84FFCFF01000820014000A005402E
:1015C000D4280020FFFFFF008023024A9B000B432A
:1015D000D362704700800540142310B501001888BD
:1015E00004331B88984710BD162310B501001888D6
:1015F00002331B88984710BDF8B54746CE4680B5E4
:101600000F1E19D014239946043304000025012627
:1016100098464B461888434621681B88984701C462
:10162000431E9841013540420640AF42F1D130009F
:10163000C0BCB946B046F8BD0126F8E7142370B522
:101640000400188804331B880D00054998470300DF
:101650000020002C01DB0130A04029009847C04643
:1016600055420000AA23064A1B0113602F23054997
:10167000D360054B19605368002BFCDA7047C046F5
:101680000040024000B0FA00006002407047C046CF
:1016900010B50148FEF752FF9CA8001070B5074D29
:1016A000074EB54209D20024013E761BB60808CD8C
:1016B000984723000134B342F9D170BDC8A500108A
:1016C00004A60010054B064A06491A60064A074B55
:1016D0001A6010000B689843FBD1704700E000408F
:1016E000BFCDFBFE08C00040FE7F3C0000F0004084
:1016F000044BDB6C002B03D18022034BD2021A6017
:101700007047C046000011504C201150044A054B50
:101710001A60054A1368DB018033FBD17047C0466D
:10172000FFFFFF0100F0004008C000404022034BD3
:101730009A675A671A67DA667047C04600F0014038
:1017400010B5FEF7A1FF10BD70B5044D044CA9689B
:10175000C022200000F0CCFEAC6070BD00ED00E0C7
:1017600000000020002310B5294C82B0A367FFF7CA
:1017700079FF0122274B1A60636C012BFCD10322F5
:10178000254B1A60224A936B012BFCD10133009345
:101790000121224A22480433FFF776FE0523012166
:1017A0000093204A2048FFF76FFE00220221042008
:1017B0001E4BFFF7EFFD0022012105201C4BFFF718
:1017C000E9FD0022002107201A4BFFF7E3FD00226C
:1017D00000210820174BFFF7DDFD8023DB0000937D
:1017E000002200210920134BFFF75AFD0022104B65
:1017F00000210620FFF7CEFD0420FFF73FFE0E4933
:1018000000F04CF801000020FFF7DEFE02B010BD32
:10181000008000403CB0004030B00040002F6859CC
:1018200000800240008C864700C00240001BB700C9
:1018300040597307006CDC0240420F00014804214C
:10184000014B184700100020F9150010124A936F41
:101850009B0815D29066D166002905D0FFE7FFE707
:10186000FFE7516F106F704704B580210906C2175A
:101870005140002800D0C84308F05EFE002104BD9E
:10188000F0B5146E556E576F166FFFF7E3FF1466D1
:10189000556657671667F0BD000000D0114A936F78
:1018A0009B0813D210665166002905D0FFE7FFE7B9
:1018B000FFE7516F106F704704B5002801D000207A
:1018C000C04308F039FE002104BDC046F0B5146ED7
:1018D000556E576F166FFFF7E5FF1466556657672D
:1018E0001667F0BD000000D094464A4A926F9208F5
:1018F000624601D228E0C046F0B5464E346E756EA1
:10190000776F366F00F020F89446424A14665566A9
:10191000576716676246F0BD94463E4A926F92083A
:10192000624601D254E0C046F0B53A4E346E756E50
:10193000776F366F00F04CF89446364A1466556659
:10194000576716676246F0BD002B24DB11D00029D3
:101950003EDA00B5C943404200D1013100F038F809
:10196000C943404200D10131DB43524200D101332F
:1019700000BD002AEBD1002801D1002905D00020AC
:10198000C90FC90701D1C043410800B508F0CCFD1B
:101990000022002300BD00B500290ADBDB435242D0
:1019A00000D1013300F014F8C943404200D10131A5
:1019B00000BDC943404200D10131DB43524200D156
:1019C000013300F005F8DB43524200D1013300BD82
:1019D000002923D1002B18D1002A0CD0BC460D4F72
:1019E00038667A6600210023FFE7FFE7FFE77A6F9A
:1019F000386F67467047002801D00748010000B5DE
:101A000008F092FD0022002300BD02000B00002020
:101A100000217047000000D0FFFFFFFF002B00D027
:101A2000BFE0130C28D1002AE7D080B4114F3966EB
:101A30007A66FFE7FFE730B4040C7B6F396F1B0455
:101A400023433B667A66FFE7FFE7FFE7C04684B2C1
:101A50007B6F3D6F1B0423433B667A66FFE7FFE71E
:101A6000C04600232C042D0C7A6F386F0019694191
:101A7000B0BC7047000000D0F0B594460025140EAD
:101A800001D112020835140F01D112010435940F4F
:101A900001D192000235D40F01D152000135D40B8F
:101AA0000134254F7C66254C3C660E0C93B2FFE753
:101AB000FFE7FFE73C6F6643360C7703BE46734390
:101AC000DF0B5B04C01AB941130C7343DB18C91A4E
:101AD000CE086643360CB64493B273431F0F1B0106
:101AE000C01AB941130C73431F0B1B05C01AB9412F
:101AF000860D8F023E436643360C092D24DB520AC5
:101B00007243801A7703460A6643360C16235B1B22
:101B1000DE40DF40BF1964466643821B70460435D1
:101B200006330100D940A840C01900D30131A242B8
:101B300006D20023F0BD0000000000D0FFFFFFFF31
:101B4000121B0130F3D3F1E709277F1BFE406446E7
:101B5000A2B27243801A00D20139220C7243130CD4
:101B60001204821A99410B007046043513370100A4
:101B7000F940A840801900D30131002B02D1A242C4
:101B80000AD2F0BD013000D30131121BFAD2013B61
:101B9000F8D1A24200D2F0BD013000D30131121BB6
:101BA000F7E7F0B51C0C00D080E00CB400251C0A4F
:101BB00004D11B02160E3343120208351C0B04D14C
:101BC0001B01160F3343120104359C0B04D19B00FB
:101BD000960F334392000235DC0B02D192185B4121
:101BE00001351C00971864410134464F7C66464C11
:101BF0003C660E0CFFE7FFE7FFE7C0463C6F66431D
:101C0000360C7703BE4697B27743C01B00D201392A
:101C1000C01B00D201399FB27743C91BC91B170CE7
:101C200077437E04FF0B801BB941CE086643360C18
:101C30000C2D33DBB644120B1F053A431B0B97B236
:101C40007743C01B00D201399FB27743C91B170CE1
:101C500077433E043F0C801BB941860D8F023E4303
:101C6000664329277F1BFE400C3D7746AF40BF19D6
:101C700030BCA2B2ABB272437343801A9941220CBA
:101C80007243130C1204801A994102000B000137B1
:101C9000001BA941F9D2781E0021F0BD0C277F1B43
:101CA000FE4077467F0BAF40FF19E0E700245D1C44
:101CB00007D0144F7D663966FFE7FFE7FFE7FFE7D0
:101CC0003C6F95B29EB265436643401BB141150C13
:101CD0001E0C6543664336042F0C3E432D04401B07
:101CE000B141994204D202000B0020000021F0BD56
:101CF00001D19042F7D3801A994101349942F2D32D
:101D0000F6E70000000000D0FFFFFFFF4840414021
:101D1000484018B41B4B5B68FC46019308BD04DFC8
:101D20009F1F001018B4174B1B68FC46019308BD99
:101D300000DFA91F00109446134A926F920809D23F
:101D4000624618B40F4BDB68FC46019308BD0CDFFC
:101D5000612200100C4AF0B5146E556E576F166F65
:101D60006246FFF7EEFF084A146655665767166726
:101D7000F0BD18B4034B9B68FC46019308BD08DF17
:101D800005210010C8180020000000D0FFB5504009
:101D90004240504059404B40594000E0FFB5154F7C
:101DA0004C00640D03D0BC4204D10C0314D80020B5
:101DB000090D09055C00640D03D0BC4204D11C036D
:101DC0000AD800221B0D1B0501264B4009D44B40AD
:101DD00003D58B4200D18242FFBD9942FCD1904293
:101DE000FFBD0B43DB1803431343F5D0C943491828
:101DF000FFBD0000FF07000000B5FFF7CFFF01D0D7
:101E0000002000BD012000BD00B5FFF7C7FF8041E5
:101E100000BDC04600B5FFF7C1FF01D9002000BDDD
:101E2000012000BD00B5FFF7B1FF804100BD0120DA
:101E300040054A00121804D85A00121801D8002090
:101E400070470120704700000021002805D170472D
:101E5000C1174840401AFAD0C90713B5064B1B6892
:101E600098470CBC441CA2401005120B0349091BE7
:101E700009051943114310BD142900201F04000057
:101E800010B54C00620D8023D218DB00D21A5B051E
:101E90007E2A10DD9E3A13DACC170903490819434C
:101EA0005242D140640001341532202A05DAD04074
:101EB0000843604310BD002010BD0846604310BDBC
:101EC000C80FC018013810BD132370B51D78012D3F
:101ED00019D014DD1F48FFF787FB06001E48FFF7E7
:101EE00083FB1E4C80223100200000F001FB022DFC
:101EF0002DD01B48FFF770FB1A4B186070BD1A4BB2
:101F0000164CA364F5E7184B144C23606360A36080
:101F1000E36023616361A361E36123626362A3629F
:101F2000E36223636363A363E36323646364A3647F
:101F3000E36423656365A365E36523666366A3665F
:101F4000E36623676367A367E367A364D1E7064B90
:101F5000A364CEE75344000053460000C818002095
:101F60004C330000142900206D1F001007B5604697
:101F700001880A0A0230DF2AFAD1C9B2820804D3E2
:101F8000028840880004104300E00068014A505075
:101F9000039007BDC81800200FB403BC0CBCF0B5FB
:101FA0000124E407634000E0F0B50C0DCF0F661E7E
:101FB0003605891B640503D3C943404200D3013170
:101FC000640D03D0661CF60A07D0E41B00207F00D6
:101FD000791C89078912803C24031D0DDF0F6E1EBA
:101FE00036059B1B6D0503D3DB43524200D30133FF
:101FF0006D0D03D06E1CF60A07D0ED1B00227F008A
:102000007B1C9B079B12803D2D032F1B661B58D406
:10201000A446202E46DA20371400BC401D00BD40E7
:10202000F24033412A4380185941CB0F05D0C943B0
:10203000C043002264425041514162464D0D28D1B7
:102040000D0D07D100281FD0241940414941013A04
:102050000D0DF9D0640006D3013000D30131002CFE
:1020600001D140084000013A0BD4941CE40A04D189
:1020700012051144DB071944F0BDD907204B194361
:1020800000E0D9070020F0BD0029DDD1002CDBD114
:10209000F0BD0132C6074008CD0728434908002E8D
:1020A000E1D0D9E73C2E29DA203E40371400BC406D
:1020B00000D00124F24014431A00BB401C43D31744
:1020C000ACE7AC46202F08DA20360400B4400D00FF
:1020D000B540F84039412843A5E73C2F0CDA203FB2
:1020E00040360400B44000D00124F8400443080006
:1020F000B1400C43C117EAE710001900002494E72F
:102100000000F07FF0B50C0D661E3605891BE60A4F
:102110006405640D02D0651CED0A04D00020012185
:102120000905803C2403A4461C0D671E3F05DB1BEC
:10213000E70A6405640D02D0651CED0A04D0002294
:1021400001231B05803C24037740644497B484B288
:1021500096B27443070C7E43150C6F4380B26843FC
:10216000361802D3012000043F183004350C001942
:102170007D41844688B29AB250430C0C62431F0CD6
:102180007C438EB27E43921902D301263604A419F1
:102190001604170C3618674101BC81B29AB251433C
:1021A000040C62431B0C5C4380B25843121802D3E8
:1021B0000120000424181004130C401863412D184A
:1021C0005E410020474106BC88B293B258430C0CD4
:1021D0006343120C544389B251435B1802D301216B
:1021E0000904641819041A0C091862416D18564143
:1021F0000020474118BCF902720D1143F0026A0D2C
:102200001043ED020A0D03D16D1940414941013BD4
:10221000124E9B1B7600B3420ED26D0007D30130E5
:10222000002671416646354301D1400840001B0538
:10223000C918E4072144F0BD0BDA013306D101309F
:1022400004D101314F0D01D04908F2E7E107002028
:10225000F0BD013631050020EBE70000FF03000070
:10226000F0B51C0D671E3F05DB1BE70A6405640D16
:1022700002D0661CF60A04D0002201231B05803C14
:102280002403D0252D060026F6432E661E096E6611
:10229000CE0FF619B44649004F0D02D07E1CF60A47
:1022A00003D000200021403F3F033E1BB600B44452
:1022B000013F7F05C91B49082E6F013676089C0235
:1022C000950D25437543ED137543AD1301356D1021
:1022D000F603761B0CB4CC02450D2C43A2B2B3B26C
:1022E0005A43270C7B43350C6F43A4B26C431B1934
:1022F00002D3012424043F191C041D0CA4187D41A1
:1023000024196D41009A91B2ACB26143170C7C4321
:102310002B0C5F4392B25A43A41802D30122120439
:10232000BF182204230C52187B41019C6C431B19DB
:10233000520ED9010A434401A01A81B2B2B25143EC
:1023400003145A43360C734387B27743D617D21916
:1023500000277E4136049B191704160C7F185E4136
:102360007316ED18F301002680337541A90F06D1CD
:102370006400690AE8055B0A184309D22FE00422C9
:10238000944480337541A90AA8059B0A184326D3B3
:10239000404149412404009A019B0D005543641BB0
:1023A0004343E41A95B286B27543170C7E43030C7F
:1023B0005F4392B25A43B61802D301221204BF18E7
:1023C0003204330C52197B4152429C41002C02D4FE
:1023D0000022013051414008CA071043490802B0A9
:1023E0006246D7079210084BD218084B9A4203D284
:1023F00012058918C919F0BD0020002A01DC390036
:10240000F0BD01331905F5E7FD030000FE070000EC
:1024100051434343C9188C46110C83B24B4310B44B
:10242000040C614392B280B2504362431C041B0C03
:10243000001910BC59411304120CC01851416144D9
:1024400070470000132310B512481C78FFF7CCF832
:102450000100012C0AD003DD80220F4800F048F86B
:102460000E48FFF7B9F80E4B186010BD0A4C542205
:10247000200000F03DF80B4B6365A365E365236620
:102480006366A366E36623676367A367E367236204
:10249000E361E5E753460000C81900204C33000013
:1024A00014290020A924001007B5604601880A0AF3
:1024B0000230DF2AFAD1C9B2820804D302884088E8
:1024C0000004104300E00068014A5050039007BD2B
:1024D000C819002001480421014B184710100020A2
:1024E000F9150010014B1B68184700001010002060
:1024F000014B5B68184700001010002010B5002841
:1025000000D110BD00F0F2F9FBE7C0460FB430B5C2
:102510000C4985B008AA08CA0D680392002D0CD09A
:1025200000920122084C5242200002A9A847012033
:1025300005B030BC08BC04B01847180000F022FAFF
:102540000020F5E7D0280020FD24001010B5094A2E
:102550000300146884B0002C08D0012200910648C2
:10256000524203A9A047012004B010BD00F00AFAAE
:102570000020F9E7D0280020FD24001000BEFDE770
:10258000094A03001068002805D00849C3188B4287
:1025900007D81360704706480449C31810608B427F
:1025A000F7D901204042F5E7CC24002000000420A8
:1025B00040290020030010B508001100002B05D1B0
:1025C000044B1A685B6800F033F910BD01204042EB
:1025D000FBE7C04638AB00100300013B10B5080014
:1025E0001400012B06D801230022210000F0A0F8DE
:1025F000200010BD01204042FBE7C04601204042C0
:102600007047C046012040427047C046012040420A
:102610007047C0460300022200209A4240417047A2
:1026200010B5FFF7ABFFC04630B50D0083B0190001
:10263000002A0BD0074B084C0192009302002B009C
:102640002000FFF763FF0120FFF798FF034B1A00FC
:10265000F1E7C046F0A8001000A9001028A800105B
:1026600070B5FFF71BF8074D074EB54209D200249D
:10267000013E761BB60808CD984723000134B342CB
:10268000F9D170BD04A600100CA60010030010B50F
:10269000080011001B68984710BDC046F0B5C6463B
:1026A00000B5437D07000D001600002B38D0002A2E
:1026B0002EDD00216A1E90466A5C037D4C1C0020C2
:1026C0000A2A0CD0A64216D043461B5D21000D3BC2
:1026D0005A4253416A5CDBB24C1C0A2AF2D1002BED
:1026E000F0D1884217DB022110483B689847A64288
:1026F00007D02000E8E7864203DD311A3B6828183E
:102700009847AD19013D2B780D3B5A4253413B751B
:1027100080BCB846F0BD091A3B6828189847E2E724
:102720000368110028009847F2E7C04694AB0010F8
:10273000F0B5DE4657464E464546E0B585B0170033
:102740001C0006000D00FEF76DFD0023314A121833
:102750004B41802109068B4202D301222E4B52426B
:102760002E4908008A4607F00FFF01906B1C03D129
:10277000300002F021FD0500002C26D0284B9846A1
:10278000284B1C68002C15D0002F21D1264F02E0C9
:102790002469002C0ED02368002BF9D03B68002B55
:1027A00001D09C42F4D120002A003100C0472469A6
:1027B000002CF0D1019B002B28D1280005B0F0BCE3
:1027C000BB46B246A946A046F0BD184B9846D7E78F
:1027D000154B994602ABDF1D0A239B4602E0246994
:1027E000002CE7D02368002BF9D04B461B68002B48
:1027F00001D0A342F3D12A0031002000C0475B463C
:102800000122390020003B70C047E8E7504607F03E
:1028100083FED2E740420F00FFFFFF7F3417002006
:102820009D260010BC240020C82400208D26001006
:10283000F8B557464E464546DE4698461A4BE0B533
:102840009B461A4B07000E0091469A46184D5B4670
:102850001C68002C03D115E02469002C12D02B68D1
:10286000002B01D0A342F7D1A368002BF4D0310094
:10287000380098470028EFDDF0BCBB46B246A946B9
:10288000A046F8BD53465B6A984508D85246926AFE
:102890004A4502D302204042EEE79845FAD1012092
:1028A0000021FEF7C9FCD2E7BC240020004005400F
:1028B000C82400200A4A1368002B05D10CE01A0036
:1028C0001B691032002B07D09842F8D1002902D1A1
:1028D00003691360016170470029FCD01060FAE7BA
:1028E000BC24002010B500F08DFA10BDF0B5CE4626
:1028F000474680B583B06B460600DD1D2870FEF7A5
:1029000091FC00231A4A12184B41802109068B4280
:1029100002D30122174B524217490800884607F09C
:1029200033FE164B81461C68002C14D0144F02E075
:102930002469002C0FD02368002BF9D03B68002BB2
:1029400001D09C42F4D1200001222900FFF7A6FE0D
:102950002469002CEFD14B46002B05D1300003B089
:10296000C0BCB946B046F0BD404607F0D5FDF5E71E
:1029700040420F00FFFFFF7F34170020BC240020DF
:10298000C824002070B5040002F016FC01230100E9
:10299000050001222000FFF7CBFE084B1C68002C2D
:1029A00006D06368002B05D098472469002CF8D125
:1029B000280070BD2469002CF3D1F9E7BC24002065
:1029C0007047C0460022014B1A7070473C29002016
:1029D0004B790020FF2B0BD18B79002B08D1CB79C1
:1029E000012B05D1082A03D9024B8A7809301A70C5
:1029F0007047C0463C2900200120704710B50129CE
:102A000001D0012010BD13495379107909781B02B8
:102A1000034300209942F5D15378012B08D0022BB3
:102A2000F0D1002064220021FEF780FD0120E9E7BB
:102A3000D37891781B021943DB0507D54A0A1000A9
:102A400001231A407E331940FEF7F8FD01204A0A9F
:102A50004042F5E73C2900200048704760AC001078
:102A600070B5050014000120012909D15378002018
:102A7000012B05D1637912791B021343072B00D078
:102A800070BD21002800024A9F3301F049FAF7E7A0
:102A9000B8AB0010012303700048704798AB0010DA
:102AA0004B780A781B0213438A7810B512041A4334
:102AB000CB781B0613439622D200934200D010BD60
:102AC0000022012011004042FEF7B8FD024B1860C1
:102AD000024B19607047C0465C240020602400202F
:102AE00010B5024B1878FDF70DFE10BD3D290020F2
:102AF000154B70B51A68002A22D0EFF3108172B618
:102B000010680028FCD0BFF35F8F00200F4A596087
:102B100010701B68BFF35F8F186081F3108800246A
:102B200000250B4E3078FDF7E1FD002804D100248C
:102B300000252900200070BD3078FDF7E3FDF8E79F
:102B4000FA240025A400ECE7F42800203E29002008
:102B50003D29002070B5040000200E0001F0F8FAB5
:102B6000002836D0002001F00BFB002831D0FEF702
:102B700059FB0023184A12184B41802109068B4249
:102B800016D2164D280007F0FFFC002821D00020A7
:102B900001F0DEFA00280FD101200021404200F0B0
:102BA000F3FC03246442280007F0B6FC200070BD4B
:102BB00001220B4B5242E4E7002001F0E1FA002829
:102BC000EAD021003200002001F0E6FA041EEAD12A
:102BD000E7E703246442E9E740420F001C29002094
:102BE000FFFFFF7F10B5FEF71DFB00230E4A1218F2
:102BF0004B41802109068B4202D301220B4B5242EA
:102C00000B4C200007F0C0FC00280CD00120002154
:102C1000404200F0B9FC002001F00AFB0028F5D189
:102C2000200007F079FC10BD40420F00FFFFFF7F3E
:102C30001C290020F8B5DE46574680B505000C007B
:102C4000FEF7F0FA0023374A12184B41802109069B
:102C50008B4202D30122344B5242344908008A4647
:102C600007F092FC002803D1C0BCBB46B246F8BDB9
:102C7000002001F06DFA00284AD00026002C43DD28
:102C80002B4B9B4614E0A919002001F00DFB070017
:102C900001200021404200F077FC002001F0C8FA3A
:102CA000FEF7C0FA224BF61918605960B4422BDDCA
:102CB000002001F019FBA71B0200B84200DD3A001A
:102CC000002AE0D101200021404200F05DFC0020FC
:102CD00001F0AEFA002001F03BFA002814D00020E9
:102CE00001F002FB0028E1D1FEF79CFA5B460F00E1
:102CF0001A685B68002184460E4812184B419F42B7
:102D000002D8D3D19445D1D9504607F005FCABE7A2
:102D100000200021064B18605960504607F0FCFB6C
:102D2000A2E7C04640420F00FFFFFF7F1C290020A2
:102D3000C018002020A1070030B52B4C85B0002121
:102D4000200007F001FC00281CD1284B1A68002A3B
:102D500016D0EFF3108172B610680028FCD0BFF3D4
:102D60005F8F01242248596002781B68D2B2047038
:102D7000BFF35F8F0020186081F31088002A17D0FE
:102D800005B030BD01200021404200F0FDFB0020D5
:102D900001F0F6F90500200007F0BEFB002DEFD092
:102DA000144B1B68002BEBD0134A10689847E7E7D9
:102DB000FEF7B4F80400FEF735FAFA220023920079
:102DC00012184B41802109068B4202D301220B4B82
:102DD00052420121029100210191094920000091F4
:102DE000FEF7A0F8CCE7C0461C290020F4280020FC
:102DF0003E2900205C24002060240020FFFFFF7F8C
:102E0000F12A0010D02310B51B0684B01C68FEF711
:102E100085F8FEF783F9A04202D0002004B010BD6F
:102E2000294B1B7801F06AFD28480368002B47D026
:102E30000120FDF703FEFF23254C26492070184092
:102E4000FDF77EFC20780121FDF73EFC0520FDF713
:102E500061FC002826D1082200211F48FFF742FB11
:102E6000FEF75CF80400FEF7DDF9FA220023920079
:102E700012184B41802109068B4202D30122174BC5
:102E80005242012102910021019115492000009137
:102E9000FEF748F80028C0DB12480121FFF70AFDC1
:102EA0000120BBE70120FDF7DDFB0B4B0100180003
:102EB000FDF726FE002205200B49FDF76BFCEBE732
:102EC000FDF702FEB4E7C04638B200101C2900200E
:102ED0003D290020392D0010F4280020FFFFFF7F3E
:102EE000F12A001020100020E12A0010004870474D
:102EF000FCAC001000487047A8AC001010B50400EE
:102F000017480378002B20D0002C06D1154B16480B
:102F10004380063BFF3B038010BD052C19D8134BA3
:102F2000A400E05812490123013804E001330A806B
:102F30000231142B0FD0C25C002AF7D1C022DBB2C1
:102F40005B00920008481343E5E7112100F01AF8EE
:102F5000DAE70020E0E7CA2303489B00DBE7C0462E
:102F600024290020090400009424002090AC0010C3
:102F70009624002010B5024800F0D8F810BDC046D5
:102F80000C29002030B54B1E012900D1A7E0664A6C
:102F900011780D092C0030349F2900D9A2E004706B
:102FA000012B00D1BEE00F21147821400C003034F9
:102FB000092900D998E04470022B00D1B2E054787E
:102FC0002509290030319F2C00D990E08170032B16
:102FD00000D1A7E00F2121400C003034092900D98D
:102FE00087E0C470042B00D19CE094782509290067
:102FF00030319F2C00D97FE00171052B00D191E089
:103000000F2121400C003034092900D976E04471A9
:10301000062B00D186E0D4782509290030319F2C79
:1030200000D96EE08171072B00D17BE00F21214098
:103030000C003034092966D8C471082B00D171E026
:1030400014792509290030319F2C5FD80172092B92
:1030500068D00F2121400C003034092958D844721F
:103060000A2B5FD054792509290030319F2C52D882
:1030700081720B2B56D00F2121400C0030340929CE
:103080004BD8C4720C2B4DD09479250929003031CE
:103090009F2C00D9073101730D2B43D00F21214004
:1030A0000C003034092901D937310C0044730E2B40
:1030B00038D0D1790C09220030329F2900D907324B
:1030C00082730F2B2ED00F220A4011003731092AAC
:1030D00001D830321100C173102B23D010300023DF
:1030E000037030BD07345AE737310C0063E707310E
:1030F0006CE737310C0074E707317DE737310C009E
:1031000085E707318EE737310C0095E707319DE7FA
:1031100037310C00A3E70731AAE737310C00C4723E
:103120000C2BB1D1C018DAE70C29002010B588B0FB
:1031300004000D2200216846FFF7D4F90D2200217A
:1031400004A8FFF7CFF94B236A466846137004A919
:103150000D2207F0D9F91521082220006944FFF754
:10316000C7F908B010BDC046F8B500F03BF90C2314
:10317000184DFF22AB6705201749FDF70BFB174CD5
:10318000402200212000FFF7ADF94027002301264F
:103190002121134A66702783A260136063545F3154
:1031A0006184453963540F4A0F496360E2602787A1
:1031B000A1620B606362E26207F0F6F980239B056F
:1031C0002E64EB649023094AEA508022084B520295
:1031D000DA64F8BD00001150A1040020D0240020C2
:1031E00084001050000110508000105010D00100D9
:1031F0000020115010B501210520FDF765FA10BD22
:1032000010B500220021024800F00CF910BDC046A4
:10321000F0240020044B1970002904D08021902351
:10322000024A8902D15070473829002000201150ED
:103230000B785B0602D14B78052B00D070478A785B
:10324000014B1A60FAE7C04600001150F0B5C646BF
:1032500000B5CC7888780A794B797F21A4070140A2
:103260001B02C50913434F00A20F1400324E7A19F6
:103270005201B218907001206840507000205B0528
:103280005B0DD0701383D4768046CA00012D33D0F5
:103290002A488446880162448446B4446046826079
:1032A00040461060002933D0254AC9009046624646
:1032B000414451603F223F339343022C00D15B00D5
:1032C00020487A1901685201B218D1601E4ACB1801
:1032D000036051405A40802388465B019A4228D8B7
:1032E0004346A4061C4380237F197F01F6197268A8
:1032F0001B062343136011E014488446880162448E
:103300008446B4446046826240461060002909D178
:1033100000236D0175196B600D4BEB60012080BCC3
:10332000B846F0BD084AC900904662464144516221
:10333000C0E7FEF7ADF9D3E7D02400208400105099
:1033400004001050D82800200000105080001050B9
:103350000001105010B507F027F910BD10B57F20FF
:103360000C0020404000E409110000191A00034B32
:103370004001C01800F056F8012010BDD0240020F4
:103380007F23180010B50840CA090B4203D1074932
:103390007D3B9B1A8B66400080188022044B4001C5
:1033A0000021C018120107F007F910BD00201150CC
:1033B000D02400207F22130010B50B400A4200D118
:1033C00010BDC9095B005B1804485B01C0180023ED
:1033D00000220349C37007F0EFF8F1E7D024002082
:1033E000FFF7FFFF80220A4B520410B51A60094B09
:1033F00009491A6010000B689843FBD18022002114
:1034000052010648FFF76EF80922054B5A6710BDB6
:1034100000E0004000F0004008C0004000001050F4
:1034200000001150002310B5C382013382828376DD
:103430000161040007F0A0F8002804D08021902347
:10344000074A8902D150200007F08EF8002802D0E8
:103450000123237710BD200007F09EF8FAE7C0464D
:10346000002011507047C0467047C046002070478A
:10347000002070477047C0467047C0467047C0463E
:103480007047C046024B5878431E9841C0B27047FF
:10349000741F0020024B18784007C00F7047C046C9
:1034A000741F0020F8B54746CE4680B52B4F060066
:1034B0003B78FF2B04D00120C0BCB946B046F8BD14
:1034C000002154222648FFF70DF80022254C264BF8
:1034D00020001A70FDF7F8FA244B1C60244C2000E1
:1034E000143CFDF7FFFA200001F0F2FD214B224DC4
:1034F0001C60224B002B27D02800FFF7CBFA204B73
:103500002A7818601F49002489461D4900238846EF
:1035100010E043461B6862019B18002B12D05B68C9
:10352000002B0FD098472A780134E4B2511C2300B5
:10353000A1420BDBA242ECD89B1A5B014B445B68B7
:10354000002BEFD10020B7E72A78DBE730003E7090
:10355000FFF70AFE3000FFF74DFEACE754100020E5
:10356000741F00202C1F002039290020C81F0020B4
:103570004C100020CC1F002037290020952A001075
:10358000481C0020B8AD0010F0B5DE4657464E4648
:103590004546E0B5C84B91B002931B78FF2B00D194
:1035A0003EE1C64BC64E9B465F46C64B0DAC0193F3
:1035B000C54B009335686A69EFF3108172B61368E2
:1035C000002BFCD0BFF35F8FA9612800210001F020
:1035D000ADFB6A69AB69BFF35F8F0021116083F3B4
:1035E0001088002800D11BE16378082BE2D89B00EB
:1035F000FB589F466368002BDCD0A0689847D9E74A
:103600007F222179AF4D0A405300EB189846C80934
:10361000804440460123303005799D43057105798A
:1036200003339D430571002A00D100E14346A74AB8
:103630001B7D1278934200D3EFE0A54A5B01156829
:10364000ED18002D00D1EBE0A36862792078AD6918
:10365000A847AFE79F4A1378002B00D1E0E013782A
:10366000013BDBB213701378002BA3D10122954DDF
:1036700001212B78042013432B703423EA5C8A4306
:10368000EA54EA5C8243EA540133EA5C8A43EA542E
:10369000EA5C8243EA54237800209B4600F0A0FCB9
:1036A000602223791A40602A00D1EFE0402A00D13D
:1036B000F5E0DB06DB0E012B00D113E1022B00D17C
:1036C000C7E0002B00D0E1E0202A00D11CE2002A54
:1036D00000D0DBE06379092B00D9D7E07E4A9B005C
:1036E000D3589F46774D2B78DB0700D462E7FFF76E
:1036F000C7FE5FE7019BDB78DB0700D45AE7606811
:10370000FFF7B2FE56E76F4D2B78DB0700D451E789
:1037100028780007C00FFFF7B1FE4BE723786A490E
:1037200099468B46694B6A4998468A4639001A7809
:1037300047460023B04600254E46894610E05346D2
:103740001B686A019B18002B00D176E0DB68300013
:1037500098473A780135EDB2511C2B008D4244DC7C
:103760009542ECD39B1A5B015B44EFE72378584901
:103770009946564B8A4698463100BB464E461A78C3
:1037800000250023474689460FE053461B686A011F
:103790009B18002B55D0DB68300098473A780135EC
:1037A000EDB2511C2B008D4207DC9542EDD39B1AE4
:1037B000009A5B0194466344EDE7019D5422002189
:1037C0002800FEF78FFE1022FF214448FEF78AFEF4
:1037D00028002022FF2114304E465F46FEF782FE6D
:1037E00000F0F4FBFFF748FEE4E6364D54220021DA
:1037F0002800FEF777FE1022FF21281DFEF772FE3B
:1038000028002022FF21143046464F46FEF76AFE6C
:1038100000F0DCFB2379AB70CCE6501C984213DA45
:1038200011B0F0BCBB46B246A946A046F0BDA368A5
:103830006279207800F0E8FBBCE646464F46214D11
:10384000E6E74E465F46CBE71F4D9B1A5B015D19CD
:10385000FAE67023217A0B4218D1C80982460F3349
:103860000B405B0098461948EB1853441B7D0078C9
:103870009946834266D216485B01006881469944A6
:10388000002A00D15FE14B46002B68D1207800214F
:10389000FFF776FD80212078FFF772FD8AE6104859
:1038A00000F09EFB012158460EAAFFF7D9F8002828
:1038B00000D07FE6EAE7C0465410002010AD0010AB
:1038C000CC1F0020741F0020B8AD00103729002045
:1038D000481C00203929002034AD0010781F00203A
:1038E000612A0010237A0F2BD0D8CF4AEB181B790E
:1038F0001578AB423ED3691C9942C7DB5D1BCB4BAD
:103900006D01ED18686900F06BFB012158466B6989
:103910000EAA9847002800D04CE6602215002379B3
:103920001D401A42B2D163790A3B012BAED800F098
:1039300057FB63790A2B00D199E158460EA900F094
:10394000D9FA37E6431C4B4500DAF7E04B461B1A21
:103950005B019946B5488144002A00D1F3E04B460B
:10396000586900F03DFB4B46012158465B690EAAA1
:1039700098479CE7AE4A5B011568ED18002DC1D150
:1039800084E7A37999466B789945D6D06B78002B5C
:1039900000D033E14B466B70002B00D12BE1484641
:1039A0000138C0B2FFF7A6FA002800D17EE14378C3
:1039B0000793022B00D079E10122C179B1468B1126
:1039C000491113400A40302112015B0113432A7848
:1039D000A8468A4313432B7009239A4682445646CD
:1039E000BA46C37882781B021343C31805938E4BE3
:1039F00004938E4B08938E4B09938E4B0A93059B31
:103A0000B34200D855E1737801220B2B03D13378F0
:103A1000F278F6187378042B00D044E1059B002758
:103A20009B1B9BB20693049B0B921D780023039370
:103A30001BE0099A7B011568ED18002D00D132E1D9
:103A4000310058462B69069A98478446082803D9BE
:103A5000069A824200D313E1049B01371D78FFB21E
:103A60006B1C03979F4200DD1DE1BD42E1D8039B23
:103A70005D1B089B6D019C466544E1E76B780CAAD1
:103A800002321370584601230EA900F049FA91E55D
:103A9000E3881A0AD8B20F2A00D9F7E666499300DC
:103AA000CB589F460EA800F0A1FA5846A179FFF71F
:103AB000A7FB02222B7813432B707BE5E388012BB5
:103AC00000D0E3E608222B78584693430EA92B70CA
:103AD00000F010FA6EE5022029780CAB9A1C8B06D8
:103AE0008908DB0F01400B431380584602230EA9BF
:103AF00000F016FA5EE5E388012B00D0C6E6082246
:103B00002B7813432B7018E7237A0F2B00D9BDE6CF
:103B1000EB181D79444B1B789D4228D2444B6D0114
:103B20001B685D19002D00D1B0E6686900F058FAF5
:103B3000012158466B690EAA9847B8E6002A00D0C2
:103B4000A4E600239946627902201300039283437E
:103B5000012B15D0002A00D098E62B004344534493
:103B600030331B790CAA9B07DB0F0232BCE75A1CCF
:103B7000AA4200DA8AE6ED1A2C4B6D01ED18D4E763
:103B8000E388002B12D1029B1878039B012B23D0D2
:103B9000FFF7F6FB43460221EB18534430331A7902
:103BA0000A4301211A711A790A431A714B46002BF4
:103BB00000D1FFE4586900F013FA4B4601215B691C
:103BC0000EAA58469847002000F00AFA3523EB5C0D
:103BD000DB0700D5EEE4B0E6FFF7ECFB434602213D
:103BE000EB18534430331A798A431A711A790399BE
:103BF0008A431A71DAE7FFF73FFC9EE60021584638
:103C0000FFF708FB5846FFF7A5FBAB78074903937E
:103C10000491054B064998461A780591002329001E
:103C20001D008A461BE0C04637290020B8AD0010B1
:103C3000481C0020881F00205CAD0010059B6A0115
:103C40001B689B18002B4DD0DB68584698474346AD
:103C50001A780135EDB2511C2B008D422EDC9542B5
:103C6000ECD39B1A049A5B0194466344ECE70CABDB
:103C70009A1C584601230EA9157000F051F999E4D9
:103C80000B9A012A4FD0002A3CD00023B07804E0E0
:103C90000133DBB20F71934234D2C118C9B241442F
:103CA0000D79FF2DF4D04E464546574600236B70E4
:103CB000ECE54E465746FFF7DDFB3EE655465422FF
:103CC00000212800FEF70EFC1022FF21281DFEF720
:103CD00009FC28002022FF211430FEF703FC039B7F
:103CE000AB7057E65546FAE7FEF7B6FE021E00D166
:103CF000CCE5D37891781B020B4358460EA900F00F
:103D00000FF9D4E565463B002A0031000A9800F01F
:103D10007DFEAC46049B039A1B78664401339342B4
:103D200000DB6CE6BFE7174B29699942ADD1079AD2
:103D3000ABE7FFF79BFB021E00D1A7E558461378BF
:103D40000EA900F0EDF8B2E52189FFF7D7F8021EC1
:103D5000F4D19BE5022A0FD0FFF78AFB021EC8D1DF
:103D600094E5FFF7C3F8021E00D18FE512235846F1
:103D70000EA900F0D5F89AE5FFF7BCF8021EB8D1FD
:103D800084E5C046FD430010F8B557464E46DE4672
:103D900045460C00E0B516001F00002A3CD01F4B22
:103DA00000259A46702399461D4B9B4617E05B46BB
:103DB0002000997800F0ECFD00281FD0210040463B
:103DC000FFF744FA002819D0A378DA09012A1CD099
:103DD0000A9A013513702378E418B5421CDA637827
:103DE000052B0BD1E3789B079B0FBB4206D15346B3
:103DF0004A461B789846A3781A42D8D00020F0BCD7
:103E0000BB46B246A946A046F8BD0B9A01351370D1
:103E10002378E418B542E2DB0120F0E754100020DB
:103E2000741F0020702270B5094B0C001D788B7830
:103E30001A4201D0002070BD064B2000997800F096
:103E4000A7FD0028F6D021002800FFF7FFF9F2E7D0
:103E500054100020741F00200B007F2010B5184064
:103E6000DB0934334000044AC018044B1168C01801
:103E700000F04AFD10BDC046C81F0020741F00207E
:103E80000B007F2010B51840DB0934334000044A92
:103E9000C018044B1168C01800F05EFD10BDC0468C
:103EA000C81F0020741F002070B57F240F480C40ED
:103EB00064000419CD09641930342079C00701D594
:103EC000002070BD01262579094835430078257109
:103ED000FFF744FA0028F4D1012223799343237198
:103EE0002379033293432371EAE7C046741F00200D
:103EF0005410002070B5094C0600082220000D0067
:103F0000FEF7F6FA00238021E360A3602B783000EF
:103F1000994300220023FFF7C7FF70BD181F002040
:103F2000F8B5CE4647469046264E80B581460822D3
:103F300030000D001F00FEF7DBFA4346B36000239C
:103F4000F381EC79AB7924021C43231CBC4200D9D9
:103F50003B1C9FB2B381002C0ED0002F18D04346DB
:103F6000002B2CD03B1C402F1BD89FB233787F2BCB
:103F70001CD80021144A0FE080212B78002299439D
:103F800048460023FFF790FFC0BCB946B046F8BDD5
:103F90007F230022317899433B004846FFF784FF96
:103FA000F2E740239FB233787F2BE2D9064C3A00E8
:103FB00041462000FEF79CFA80212200ECE7002019
:103FC000E2E7C046181F0020341F002010B514225D
:103FD00000210248FEF786FA10BDC046181F0020D7
:103FE000014B18617047C046181F002010B5054CE2
:103FF000010008222000FEF77BFA0023A360E360A3
:1040000010BDC046181F002070B5384C1D00237825
:104010000600DA09C9098A4210D00020002D00D01C
:1040200070BD21003000FFF703F92369002B03D096
:1040300022000321300098470120F1E7A0687F2B80
:1040400005D8002834D02A002949FEF751FAE28920
:10405000A1685219E38892B24919E281A1609342A2
:1040600014D03F2D12D9A389981A051C80B240287C
:104070002AD82078ADB27F2828D800219A4232D0A1
:104080001B4A2B003000FFF70FFFC9E72369002B05
:1040900005D0220002213000984700280AD0802154
:1040A00023780022994330000023FFF7FDFEB7E795
:1040B0000020B5E700213000FFF762F930008021D1
:1040C000FFF75EF90120ABE74025D2E79A4207D01F
:1040D000074C2A002000FEF70BFA80212200D0E7CF
:1040E00080210022CDE70022CBE7C046181F002028
:1040F000341F002070B50400FFF7C4F9002800D178
:1041000070BDFFF7C7F90028FAD1E378002BF7D08C
:1041100025001035280000F0F3FD3F28F0D90020DD
:10412000E178FFF799FE0028EAD0280000F0E8FDCA
:104130003F2808D992239B00E218E1784023002011
:10414000FFF7B2FEDCE7E1780020FFF799FED7E742
:1041500010B50400FFF796F9002801D1002010BD2A
:10416000FFF798F90028F9D1B22292006243034B7D
:1041700001309B181B791840F1E7C046501C002005
:10418000B2239B00434310B50248181800F09AFD73
:1041900010BDC046601C0020F0B5B226B6004643F4
:1041A0003500C6468023204F1035040000B57D1928
:1041B0005B029A4200D31D4A280092B200F004FE2E
:1041C0008046FFF75FF9002803D1404680BCB8461F
:1041D000F0BDFFF75FF90028F7D1B2239B005C43E5
:1041E0003C19E378002BF0D0280000F089FD3F282F
:1041F000EBD90020E178FFF72FFE0028E5D028005A
:1042000000F07EFD3F280AD992239B009C4666441D
:104210004023E178BA190020FFF746FED5E7E178A0
:104220000020FFF72DFED0E7501C0020FFFF00000C
:10423000F8B50400FFF726F9002801D10020F8BDE9
:10424000FFF728F90028F9D1B2239B005C43250031
:10425000144E2435AD19280000F034FD0028EDD0AF
:1042600037190020B978FFF7F7FD0028E6D0A22320
:104270009B009C466444A41921002800402200F0C1
:10428000A3FDB978051E08D0030022000020FFF727
:104290000BFE0028D2D02800D1E70020FFF7F0FD68
:1042A000CCE7C046501C002070B5B224A4004443A3
:1042B0000B4B0500E41880235B029A4200D3094AA5
:1042C000200092B200F048FE0600200000F0FAFC48
:1042D0003F2801D8300070BD2800FFF7A9FFF9E79B
:1042E000741C0020FFFF0000B2239B00434310B565
:1042F0000248181800F004FD10BDC046741C0020D0
:10430000B222F0B500251B4C83B0002120009200A2
:10431000FEF7E8F8184B80261D70FF236371E12338
:104320005B02A3602100082320007600A373320003
:1043300038310095073B103000F08EFC210001233E
:10434000200039313200FF310093243000F084FC2A
:104350008E239B00E7183800FCF7B6FB90239B00E8
:10436000E6183000FCF7B0FBE56127622663656361
:1043700003B0F0BD501C00204C1C00200B4B196BEF
:1043800000290AD01A6A002A0DD000221A621A6384
:10439000DA6100225A63012070471A6A002AFAD0B3
:1043A000D9611962F7E71A63F3E7C046501C002091
:1043B00070B50F4C052200212000FEF793F80D4D3B
:1043C0002B78DA0707D50C4C9B070CD50121200070
:1043D00000F09EFE70BD2000103000F079FE2B78BA
:1043E000054C9B07F2D4200000F072FEEEE7C046B9
:1043F000501C00204C1C0020741C0020F0B5C64648
:1044000000B54B79060082B0022B02D18B79022BCA
:1044100005D00025280002B080BCB846F0BD214F71
:10442000BB78002BF5D18B7809253B700C780C19E3
:104430006378242B0BD1082A02D821E0AA421FD38B
:104440002378E4185D196378ADB2242BF6D0052BE0
:104450001AD0042B14D163790A2B11D123782100AF
:104460009846114B0222019301330093300002233E
:104470004144FFF789FC0028CBD00E354544ADB24E
:104480003800FFF737FEC5E721003000FFF7CAFC10
:104490000028BED0A3787B7023785D19E418637878
:1044A000ADB2D6E7501C0020521C0020F8B56023A6
:1044B00014001278050013400020202B12D12F4A3F
:1044C0006379277916781B023B439E420AD16378B1
:1044D000222B1AD007D8202B3CD0212B02D1012926
:1044E00030D00120F8BD232BFCD1012940D0032975
:1044F000F7D1234B002BF4D0E178A37809020020F8
:10450000194300E000BF0120ECE7012930D0032966
:10451000E7D101252E00A378E478023924021C4358
:104520001471264024321000714000F0F1FD154B4B
:10453000002BD6D06208002031002A4000E000BFE6
:104540000120CFE70723210028000F4AFFF7E8FCEE
:104550000120C7E70129F5D00329C2D10B4B002B5D
:10456000BFD0083200201100FEF79AFA0120B9E707
:1045700021002800FFF7BEFC0120B3E7501C0020FB
:104580000000000000000000581C0020A12A0010BC
:10459000F0B54F464646D646374DC0B5EA781F00BF
:1045A00080460C00AB788A423BD08B4210D0002072
:1045B000E0BCBA46B146A846F0BD304B002B04D053
:1045C0002F4800F095FB002853D02800FFF792FDFC
:1045D000AB78A34201D00120EAE72A4B002B02D09E
:1045E000002000E000BF0020FFF722FE0028F2D1EB
:1045F000254C200000F066FB0028ECD1002FEAD00B
:10460000BF06E8D1243C4046A178FFF725FC0028EE
:10461000E1D0002300224046A178FFF745FC0120AD
:10462000C6E792239B00EE1810239A46AA44310055
:104630005046BAB200F090FC144B002BBDD06B7901
:10464000FF2BBAD0002FB8D0F219914603E0013603
:10465000B145B2D06B7932789A42F8D1504600F029
:1046600047FB0028F3D15346103B597900E000BFC7
:10467000EDE700E000BFA8E7501C002000000000AC
:10468000601C002000000000741C002000000000DE
:10469000B32270B5144C84B0002120009200FDF7C5
:1046A00021FF231D02932300200080254026CD33C7
:1046B0006D00FF33A93000930022002300210396F0
:1046C0000195FF3000F0BCF9230020004433A834EA
:1046D0000293012200230021039601950094843067
:1046E00000F0AEF904B070BD9020002010B5054C6C
:1046F000200000F0DBF920002538FF3800F0D6F963
:10470000012010BD3822002010B5064C00232000E7
:10471000B130FF30237000F0DBFC20008C3000F063
:10472000D7FC10BD90200020F0B557464546DE4628
:104730004E46E0B54B7980460F0083B0FF2B28D161
:10474000454B0C789946AA234946FF33CB5C002B96
:104750001FD18533CE5C002E1BD1BB783C190B706A
:104760003B79002B12D0D8235B004B449A468C2314
:104770004B449B46A5186378052B05D111E023789F
:10478000E4186378052B0CD0A542F8D8E01B80B262
:1047900000E0002003B0F0BCBB46B246A946A046EC
:1047A000F0BDA542F2D921004046FFF73BFB0028AF
:1047B000EFD0A3780136F6B2DB09012B29D05046A1
:1047C00000F086FCAA234946A278FF33CA546379D5
:1047D00022791B021343214A5B0594465B0DD421C9
:1047E00063445A4253414A4602204900525C5B00EE
:1047F000824313434A46535451464046083900F019
:10480000BDF90028C5D02378E4183B79B342B2D86B
:10481000BCE7584600F05CFC5A468523A1788C3AE8
:10482000D154637921791B020B430C495B058C46FB
:104830005B0D634459424B4184215B000193022389
:10484000505C9843019B0343535459460020083958
:1048500000F062F9D7E7C0469020002000FEFFFF7D
:10486000F8B5AA2506001F48FF35455D1F008D429B
:1048700015D08523C35C00208B420FD11A4B002B2F
:1048800004D039040020090C00E000BF174C3000B0
:10489000210000F041F9002814D00120F8BDDA23EE
:1048A0005B00C35A002B14D1114B002B04D0002005
:1048B0001049BAB200E000BF30000F4900F05EF9C5
:1048C0000120EBE73A002100300000F0F1F8012070
:1048D000E4E7D6235B00C158B130BAB2FF3000F034
:1048E0003BFBE1E7902000200000000014210020A5
:1048F00000000000942000203822002010B5002085
:10490000FEF7D0FD10BDC046037870B5DB0704008C
:104910000E00DD0F002B17D103785B0701D52800AF
:1049200070BD01213000494205F016FE2378DB07F7
:10493000DD0F002B0AD123785B0708D404222378EB
:1049400001251343237002E00025E8E7002530002D
:1049500005F0E2FDE3E7C04670B50C00012106005A
:104960004942200005F0F8FD33785B07DD0F002B8E
:1049700004DB200005F0D0FD280070BD3378DB0794
:1049800004D40422337893433370F2E70025F0E730
:10499000437902791B021343C2785B0592075B0DD2
:1049A000920F022A1DD0032A0CD00020012A08D120
:1049B00002394A425141124A944661449942404167
:1049C000C0B2704702394A1E91410E4A4942114015
:1049D0008022D20094460020614499424041C0B2F6
:1049E000EFE7022905D0002040229A424041C0B2A0
:1049F000E7E7054A981843425841C0B2E1E7C0468C
:104A0000FF03000040FCFFFF00FEFFFF8A1870B5A7
:104A1000914207D27F264C78052C04D00C780919D6
:104A20008A42F8D870BD34008D782C406400041997
:104A3000ED0963550C7809198A42ECD8F2E7C046B3
:104A4000F0B5C64600B582B0150008AA40CA0400F9
:104A500017880BAA1288012090460A00217802408C
:104A600081432000114321703A000093310001235B
:104A7000083000F0F1F8002E01D0002F08D10A9B79
:104A8000012063604346638002B080BCB846F0BD3D
:104A900026001C363000FCF717F80023002D01D04B
:104AA000330000266361A661E9E7C0460120704734
:104AB000F8B502240B7807001C4063425C41144B9C
:104AC00064421C40134B08009C4608300D00160041
:104AD000644400F0F7F8002807D1002E05D03442D6
:104AE00003D101242B781C4201D00020F8BD3800EE
:104AF0006978FFF7B1F90028F7D02B781C42F4D180
:104B00000023002238006978FFF7CEF9EEE7C046AF
:104B100040FEFFFFFF010000F8B50D00083506005C
:104B200028000C0000F0CEF8002803D001272378DD
:104B30001F4201D00020F8BD30006178FFF78CF9EA
:104B40000028F7D028006288616800F03DF92378DA
:104B5000051E0BD01F42EDD1030062683000617862
:104B6000FFF7A2F90028E5D02800E4E71F42E1D1D1
:104B700030006178FFF784F9DCE7C046F8B5CE462F
:104B8000474680B58A8905000C000B78002A07D1BA
:104B900001261E423FD00020C0BCB946B046F8BD39
:104BA0009B0734D5FE2380261B029946B6002700BA
:104BB0000837380000F0A4F88642ECD801222378A8
:104BC00090461A42E7D128006178FFF745F900289E
:104BD000E1D0380000F094F8864231D8414623787D
:104BE00062881942D7D14B461840061C904200D922
:104BF000161CB6B200226178002E00D06268330025
:104C00002800FFF751F90028C5D03000C4E7114B48
:104C100040269946CBE74978FFF71EF90028BAD01D
:104C2000227863881642B6D100226178002B00D02A
:104C300062682800FFF738F90028ACD06088ABE73D
:104C4000424623781A42A6D128006178FFF718F966
:104C5000A1E7C046C0FF0000F0B5C64600B504009D
:104C600006A805788020884617001E0000028242B0
:104C700026D8E068002803D00121494205F06CFCE9
:104C80002069002803D00121494205F065FC434614
:104C9000236073045B0CED031D430023E068638114
:104CA000A780E5802381002801D005F035FC20692C
:104CB000002801D005F030FC012080BCB846F0BDD2
:104CC0000020FAE710B5048941898288A3B288B22E
:104CD0008C4207D31B1A9BB2101C9A4200D9181C95
:104CE00080B210BD5100091A5B189BB2F4E7C046B0
:104CF00003894089181A43425841C0B27047C046E0
:104D000010B5048941898288A3B288B28C4207D346
:104D10001B1A9BB200209A4201D9D21A90B210BD40
:104D20005100091A5B189BB2F4E7C04670B5040045
:104D300000690E00002803D00121494205F00CFC57
:104D400025896089A288A9B283B285422CD3CD1A65
:104D5000ADB2002D2ED0AA4208D2914230D3891A8A
:104D60008BB263819A4203D89B1A9BB29A42FBD9B9
:104D7000E28821685204520C53433000C918FDF7F1
:104D8000B7FB63890125591C89B2A2888B4213D9CC
:104D900000215200891A89B220696181002801D05E
:104DA00005F0BAFB280070BD5500ED1A4D19ADB2E3
:104DB000002DD0D1618989B252009142ECDBE9E744
:104DC00089188BB26381CDE7F0B546464F46D6468B
:104DD000C0B50600006989469046002803D001212D
:104DE000494205F0B9FB31897289B5888BB294B21A
:104DF000914254D31F1BBFB2002F4AD0BD4205D2EF
:104E0000AB4251D25B199CB22F0074814346B84526
:104E10003DD89FB2A54203D8641BA4B2A542FBD9DA
:104E2000F28831685204520C904662432B1B9BB2AD
:104E3000891842469F4225D953439BB21A004846DF
:104E40009A46FDF755FB434648467D1B64195C4373
:104E500031685044A2B2FDF74BFB7189B588CB197C
:104E60009BB26A00994216D99B1A9BB23069738132
:104E7000002801D005F050FB3800E0BCBA46B1462E
:104E8000A846F0BD48467A43FDF732FBE5E73B1CF8
:104E9000BFE773899BB26A009342E7DBE4E76F00E8
:104EA0003F1BDF19BFB2A7E75B1B9CB2ACE7C04654
:104EB000F8B50400C0680E00002803D00121494263
:104EC00005F04AFB258920896189A288ADB283B2A9
:104ED0008FB2884229D3DB1B9BB29A4209D8E7796B
:104EE000FF0906D1E068002801D005F015FB380065
:104EF000F8BD95421ED32B009B1A9BB29342FBD266
:104F0000E28820685204520C53433100C018FDF768
:104F1000EFFA6B1C9BB2A2889D4218D90023520065
:104F20009B1A9BB201272381DCE75100C91B5B1848
:104F30009BB2D2E72B00E28820685204520C534304
:104F40003100C018FDF7D4FA0135A288ABB2520087
:104F50009342E7DBE4E7C046F0B557464546DE46F8
:104F60004E46E0B5140005000F0083B0002A75D04E
:104F7000C068002803D00121494205F0EDFA2E89CE
:104F8000E9796A89AB88B6B292B2C90945D196422D
:104F900000D36DE059008A1AB21892B200218946F6
:104FA0009A4234D29A1A111C92B2A24200D9211C00
:104FB0008AB29146EA885204520C90464A46B21888
:104FC00092B292464A46D21A92B2934634009E4218
:104FD00003D3E41AA4B29C42FBD24246624328683F
:104FE0001B1B9BB2801842464B4554D34B4639009D
:104FF0005A43FDF77DFAAB885B00564501D89A45C8
:1050000003DB5246D31A9BB29A4653462B81E8687B
:10501000002825D005F080FA22E0E9884904490CEF
:1050200088469C4227D2964247D3B11A89B28C4611
:105030005800E11A89B28B4661460919814208DBA2
:10504000D11889B20E1BB6B28A46B2423BD9361A83
:10505000B6B2A21992B29246A146B7E7002399468A
:10506000484603B0F0BCBB46B246A946A046F0BDD8
:10507000B21A92B292E700218946002BC7D041466E
:10508000E41A4C431600D118002289B28A46994688
:1050900093463F199AE753439BB21A0039005C4488
:1050A0000193FDF725FA414622004A43019B2868F7
:1050B00092B2F918FDF71CFA9DE75800811A711891
:1050C00089B28C46B5E7A146B04200DD7EE7BEE777
:1050D00010B50400C068002803D00121494205F042
:1050E0003BFA2069002803D00121494205F034FA37
:1050F0000023E06863812381002801D005F00CFAC9
:105100002069002801D005F007FA012010BDC04633
:1051100070B50400C0680D00002803D00121494289
:1051200005F01AFA2069002803D00121494205F050
:1051300013FA7F21E379ED011940E0682943E17119
:10514000002801D005F0E8F92069002801D005F019
:10515000E3F9012070BDC0460FB400B583B005A9C6
:105160000348019100F01CF803B008BC04B01847D4
:10517000CCA900100FB400B583B004A901C90191F6
:1051800000F00EF80348FFF7E7FF03B008BC04B0D7
:105190001847C046CCA9001010B5FDF7A3FB10BD01
:1051A00003000A0010B503490968C868190001F036
:1051B000C1FF10BD5810002010B583070AD00300AE
:1051C000032102E001330B4205D01A78002AF9D1FD
:1051D000181A10BD030019680C4A0D4C8A188A432E
:1051E00022420FD15968094A04338A188A4322425D
:1051F00008D15968054A04338A188A432242F1D0FB
:1052000000E001331A78002AFBD1E1E7FFFEFEFE41
:105210008080808010B5034A0349044802F05EFB99
:1052200010BDC046A0110020819300106010002026
:1052300041680B4B10B50400994201D004F0A0F86E
:10524000A168084B994202D0200004F099F8E16867
:10525000054B994202D0200004F092F810BDC046E0
:105260000C1B0020741B0020DC1B0020F8B5CE4670
:1052700047463B4C3B4B3C4A2000002580B51A601A
:105280000423082200215C3025606560A560656606
:1052900025616561A561E360FDF724F92000334BCA
:1052A000334F344E99462362334B58309846A762A9
:1052B000E6626362E46103F08FFCCC23E5502F4B80
:1052C00020006367802300210822C430E550A566D2
:1052D000E5662567A567E567FDF704F922008423E5
:1052E0006832E2504A460433E2504246200004331A
:1052F000E2500433E750C0300433E65003F06CFC56
:10530000D0232000E5500433E5500433E5501C4A17
:105310005C33E550583BE2500433E5502D30043304
:10532000E550002104330822FF30E550FDF7DAF89C
:105330002200EC23D032E2504A460433E2502000EF
:1053400042460433E25029300433E750FF3004333F
:10535000E65003F041FCC0BCB946B046F8BDC046BB
:105360000C1B0020441C002015520010D9710010A5
:1053700041720010717200100172001009000100EA
:105380001200020070B50400094D280003F028FC4B
:10539000636B002B05D1074B6363074B1B68002B26
:1053A00003D0280003F01EFC70BDFFF75FFFF8E795
:1053B000D41A002031520010441C002010B50248BD
:1053C00003F00EFC10BDC046D41A002010B50248F0
:1053D00003F008FC10BDC046D41A0020F0B5DE462C
:1053E000454657464E46E0B5E1B0934609918046A2
:1053F0001C00129303F000FC036818001E93FFF7D3
:10540000DBFE08221D90002130A8FDF76BF8434613
:10541000002B04D05B6B002B01D101F0BCF8099A82
:10542000536E0C21515EDA0703D48A0501D400F0D3
:10543000AAFE80229201114205D10A4309998A816C
:10544000CF4A13404B660122990401D501F087FC35
:1054500009990C23CA5E13075CD50B69002B59D040
:105460001A2313400A2B65D037AB34930023002452
:1054700036933593179300231A931B9400231F939D
:1054800020931C93219326930C93BE4BC2469946BE
:10549000BD4B37AF13935B46CB460A93E423B94623
:1054A000984654465E460A9D4346F75803F09CFBD7
:1054B00030AA0300009220002A002CA9B847002837
:1054C0006AD061DB2C9B252B01D02D18ECE70A9BC1
:1054D000A246EA1A4F460400B34690469D4264D164
:1054E0006B1C0893002322AAD377012252429146D3
:1054F00000226B7856464D460D920792089A01326B
:1055000008921A00203A5A2A00D998E0139992007A
:105510008A589746099D4046290002F001FA002862
:1055200001D001F078FD2B000C229A5E1A23134063
:105530000A2B99D109990E200B5E002B94DB4B6E40
:10554000DB0703D4920501D401F0D0F923005A46B9
:105550004046099901F0FAFD0C9068E0300003F034
:105560004BFB436818002693FFF726FE21900400AA
:10557000300003F041FB83681C93002C01D000F045
:1055800068FE089B1B78B9E70822002130A8FCF7C9
:10559000A9FF01202D1887E70A9BA246EA1A4F4669
:1055A0000400B34690469D4211D00A9B3B6043469F
:1055B0007B60369B43443693359B01333593072BF1
:1055C00010DC08370C9B43440C93002C88D1369B8D
:1055D000002B01D001F070F900233593099B0C22B8
:1055E0009B5E1BE05046099934AA03F009FB002892
:1055F00011D137AFE6E75046099934AA03F000FB12
:10560000002800D19EE0D046119B002B03D04046DD
:10561000119903F0B9FD099B0C229B5E099A526E09
:10562000D20700D422E15B0601D501F0A2FB0C9861
:1056300061B0F0BCBB46B246A946A046F0BDB2463A
:105640001593002BC3D047AE3370002322AAD37723
:1056500000220133119201320B9310920023002299
:1056600091461992189216920A96079902220800FA
:10567000104014900A4202D00B9A02320B92079902
:1056800084220E00369C16400A4205D10D9A0B99D1
:10569000551A002D00DDD4E3002B10D022AA1F23C1
:1056A000944663443B6001237B60359B01340133A6
:1056B00036943593072B01DD00F00FFC0837149B5F
:1056C000002B0DD02AAB3B6002237B60359B02345C
:1056D000013336943593072B01DD00F00BFC0837BE
:1056E000802E00D1D4E24B46109A9D1A002D00DD89
:1056F0000AE3079BDB0500D54AE20A9B3B60109B4F
:105700009C467B60359B6444013336943593072B6C
:1057100000DDA0E00837079B5B0706D50D9B0B9AC1
:105720009D1A002D01DD00F0F9FB0D9B0B9A9342B1
:1057300000DA13000C9A94469C4463460C93002CA8
:1057400000D058E700233593119B002B03D050461F
:10575000119903F019FD37AF089B0A939EE6303B81
:1057600000201A00089983001B185B00D0180B78E2
:1057700001311A00303A092AF5D90D900891C0E696
:10578000FFDFFFFFC0150020F8AD001007221593C2
:10579000129BA94607339343012230CB12936B002F
:1057A0005B0823932294E84B524222982399B246F5
:1057B0001A941B95FCF73BFB002801D000F073FD09
:1057C000229823990122E04B5242FCF723FB002848
:1057D00001D000F068FD0022002320002900FCF722
:1057E00013FB002801D001F0A2F922ABDB7F159A50
:1057F000472A01DD00F098FFD44A0A9280220799D7
:1058000091437D3A0B92002211920332079110923C
:10581000002291461992189216921CE11E9B3B6041
:105820001D9B1A197B60359B369201333593072BEC
:1058300001DD01F04CF80837002901DA01F0EAFA3D
:105840000A9901333960179935938C187960369429
:10585000072B00DC5EE75046099934AA03F0D0F923
:10586000002800D0CFE6369C37AF54E79A0500D524
:10587000D9E6099CA06D03F0B5F90C22A35ED2E62F
:105880002023079A1A43089B07921B7836E6129A40
:10589000B2461593141D432B01D100F0BAFD079BAE
:1058A000DB0601D500F0B5FD129B47AE1B683370D7
:1058B00001230B931093002322AAD3770022129482
:1058C0001192CDE6A946129D159308CD22A91A0082
:1058D0000A930023B246CB77002A01D100F085FD60
:1058E000159B532B01D100F06EFE079A1023110077
:1058F00019401691134201D000F065FE4B46002B73
:1059000001DA00F0D3FF4A4600210A9803F078FE3E
:105910001190002801D101F012FB119B0A9A991AEB
:10592000CA43D21710911140002222AB914619921E
:10593000189211927332DB7F0B91129515928AE0C7
:10594000129A08CA0D93002B01DB00F02FFC0D9B6F
:1059500012925B420D93042393E7089B1B78682BFC
:1059600001D100F035FD4022079911430791C5E5AB
:105970002B2322AAD377089B1B78BFE5802380E7DF
:10598000089B5C1C1B782A2B01D101F065FB1A00D7
:10599000303A21000025092A01D901F003FAAB00B1
:1059A0005B195B009D180B7801311A00303A092A07
:1059B000F5D90891002D00DBA3E501256D42A0E596
:1059C00001235EE722AA089BD27F1B78002A00D021
:1059D00094E5203222A9CA7790E515931023A946B1
:1059E000B246079A1A430792079B129A9B0600D465
:1059F000AEE3072307329A4301339C46944463463F
:105A00001293536812680F930E92002B01DA00F084
:105A100015FC4B46002B00DA48E28023079D9D438E
:105A20000E9A0F9B1100194300D040E24B46002B09
:105A300000D044E2109360AB07950A934A460B925C
:105A4000109A22ABDB7F914500DA0B920022119273
:105A5000199218921692002B00D106E60B9A013289
:105A60000B9202E6A94610251593079BB2462B43DD
:105A70001D00AB0600D45EE30722129B073393435D
:105A80001A0018CA0E930F9401231292002222A921
:105A9000CA774A46002A00DAD1E0802229009143E1
:105AA00007910E990F9A0800104300D0C6E04A46AD
:105AB000002A01D000F074FD002B01D000F032FD6F
:105AC00001331A002A40109260AA0A922B42B5D0E4
:105AD000302147AA6233D15422AA944694336344B6
